{
  "contractName": "BusinessLogic",
  "abi": [
    {
      "constant": true,
      "inputs": [
        {
          "name": "",
          "type": "address"
        },
        {
          "name": "",
          "type": "address"
        }
      ],
      "name": "InvestorP",
      "outputs": [
        {
          "name": "InvestorAdd",
          "type": "address"
        },
        {
          "name": "portfoliomanager",
          "type": "address"
        },
        {
          "name": "howmuch",
          "type": "uint256"
        },
        {
          "name": "time",
          "type": "uint256"
        },
        {
          "name": "profitether",
          "type": "uint256"
        },
        {
          "name": "howmanyFund",
          "type": "uint256"
        }
      ],
      "payable": false,
      "stateMutability": "view",
      "type": "function"
    },
    {
      "constant": true,
      "inputs": [
        {
          "name": "",
          "type": "address"
        }
      ],
      "name": "PortReg",
      "outputs": [
        {
          "name": "name",
          "type": "string"
        },
        {
          "name": "email",
          "type": "string"
        },
        {
          "name": "password",
          "type": "string"
        },
        {
          "name": "_ether",
          "type": "uint256"
        },
        {
          "name": "statuscode",
          "type": "bool"
        }
      ],
      "payable": false,
      "stateMutability": "view",
      "type": "function"
    },
    {
      "constant": true,
      "inputs": [
        {
          "name": "",
          "type": "address"
        },
        {
          "name": "",
          "type": "address"
        }
      ],
      "name": "MapDivide",
      "outputs": [
        {
          "name": "investorAdd",
          "type": "address"
        },
        {
          "name": "divident",
          "type": "uint256"
        },
        {
          "name": "time",
          "type": "uint256"
        }
      ],
      "payable": false,
      "stateMutability": "view",
      "type": "function"
    },
    {
      "constant": true,
      "inputs": [
        {
          "name": "",
          "type": "address"
        }
      ],
      "name": "InvestorRegister",
      "outputs": [
        {
          "name": "name",
          "type": "string"
        },
        {
          "name": "password",
          "type": "string"
        },
        {
          "name": "statuscode",
          "type": "bool"
        }
      ],
      "payable": false,
      "stateMutability": "view",
      "type": "function"
    },
    {
      "constant": true,
      "inputs": [
        {
          "name": "",
          "type": "address"
        }
      ],
      "name": "InvestorInvestD",
      "outputs": [
        {
          "name": "PortfolioMAdd",
          "type": "address"
        },
        {
          "name": "howmuchSpenETH",
          "type": "uint256"
        },
        {
          "name": "howmanyFundTG",
          "type": "uint256"
        },
        {
          "name": "oneFTR",
          "type": "uint256"
        },
        {
          "name": "time",
          "type": "uint256"
        }
      ],
      "payable": false,
      "stateMutability": "view",
      "type": "function"
    },
    {
      "constant": true,
      "inputs": [
        {
          "name": "",
          "type": "address"
        }
      ],
      "name": "PortToken",
      "outputs": [
        {
          "name": "tkname",
          "type": "string"
        },
        {
          "name": "tksymbol",
          "type": "string"
        },
        {
          "name": "tkdecimal",
          "type": "uint256"
        },
        {
          "name": "tktotalsup",
          "type": "uint256"
        }
      ],
      "payable": false,
      "stateMutability": "view",
      "type": "function"
    },
    {
      "constant": true,
      "inputs": [
        {
          "name": "",
          "type": "address"
        }
      ],
      "name": "PortfolioMP",
      "outputs": [
        {
          "name": "ProtfolioMProfileAdd",
          "type": "address"
        },
        {
          "name": "holdEther",
          "type": "uint256"
        },
        {
          "name": "howmanytHold",
          "type": "uint256"
        },
        {
          "name": "totalvalue",
          "type": "uint256"
        },
        {
          "name": "profit",
          "type": "uint256"
        },
        {
          "name": "loss",
          "type": "uint256"
        },
        {
          "name": "time",
          "type": "uint256"
        }
      ],
      "payable": false,
      "stateMutability": "view",
      "type": "function"
    },
    {
      "constant": false,
      "inputs": [
        {
          "name": "_name",
          "type": "string"
        },
        {
          "name": "_email",
          "type": "string"
        },
        {
          "name": "_password",
          "type": "string"
        }
      ],
      "name": "Click_Reg",
      "outputs": [],
      "payable": true,
      "stateMutability": "payable",
      "type": "function"
    },
    {
      "constant": false,
      "inputs": [
        {
          "name": "_tkname",
          "type": "string"
        },
        {
          "name": "_tksymbol",
          "type": "string"
        },
        {
          "name": "_tkdecimals",
          "type": "uint256"
        },
        {
          "name": "tktotalsup_",
          "type": "uint256"
        }
      ],
      "name": "generatedTK",
      "outputs": [],
      "payable": false,
      "stateMutability": "nonpayable",
      "type": "function"
    },
    {
      "constant": false,
      "inputs": [
        {
          "name": "_name",
          "type": "string"
        },
        {
          "name": "_password",
          "type": "string"
        }
      ],
      "name": "InvestorR",
      "outputs": [],
      "payable": false,
      "stateMutability": "nonpayable",
      "type": "function"
    }
  ],
  "bytecode": "0x6060604052341561000f57600080fd5b61105c8061001e6000396000f3006060604052600436106100a4576000357c0100000000000000000000000000000000000000000000000000000000900463ffffffff168063114fade4146100a957806322448dd414610190578063350c8dd8146103835780633943aa30146104295780635237a5e01461058c5780639602c5c914610621578063af5ee1cd14610787578063d4d7262214610827578063d79bdd5b146108d9578063fa342cde146109b1575b600080fd5b34156100b457600080fd5b6100ff600480803573ffffffffffffffffffffffffffffffffffffffff1690602001909190803573ffffffffffffffffffffffffffffffffffffffff16906020019091905050610a54565b604051808773ffffffffffffffffffffffffffffffffffffffff1673ffffffffffffffffffffffffffffffffffffffff1681526020018673ffffffffffffffffffffffffffffffffffffffff1673ffffffffffffffffffffffffffffffffffffffff168152602001858152602001848152602001838152602001828152602001965050505050505060405180910390f35b341561019b57600080fd5b6101c7600480803573ffffffffffffffffffffffffffffffffffffffff16906020019091905050610add565b60405180806020018060200180602001868152602001851515151581526020018481038452898181546001816001161561010002031660029004815260200191508054600181600116156101000203166002900480156102685780601f1061023d57610100808354040283529160200191610268565b820191906000526020600020905b81548152906001019060200180831161024b57829003601f168201915b50508481038352888181546001816001161561010002031660029004815260200191508054600181600116156101000203166002900480156102eb5780601f106102c0576101008083540402835291602001916102eb565b820191906000526020600020905b8154815290600101906020018083116102ce57829003601f168201915b505084810382528781815460018160011615610100020316600290048152602001915080546001816001161561010002031660029004801561036e5780601f106103435761010080835404028352916020019161036e565b820191906000526020600020905b81548152906001019060200180831161035157829003601f168201915b50509850505050505050505060405180910390f35b341561038e57600080fd5b6103d9600480803573ffffffffffffffffffffffffffffffffffffffff1690602001909190803573ffffffffffffffffffffffffffffffffffffffff16906020019091905050610b1d565b604051808473ffffffffffffffffffffffffffffffffffffffff1673ffffffffffffffffffffffffffffffffffffffff168152602001838152602001828152602001935050505060405180910390f35b341561043457600080fd5b610460600480803573ffffffffffffffffffffffffffffffffffffffff16906020019091905050610b74565b604051808060200180602001841515151581526020018381038352868181546001816001161561010002031660029004815260200191508054600181600116156101000203166002900480156104f75780601f106104cc576101008083540402835291602001916104f7565b820191906000526020600020905b8154815290600101906020018083116104da57829003601f168201915b505083810382528581815460018160011615610100020316600290048152602001915080546001816001161561010002031660029004801561057a5780601f1061054f5761010080835404028352916020019161057a565b820191906000526020600020905b81548152906001019060200180831161055d57829003601f168201915b50509550505050505060405180910390f35b341561059757600080fd5b6105c3600480803573ffffffffffffffffffffffffffffffffffffffff16906020019091905050610ba9565b604051808673ffffffffffffffffffffffffffffffffffffffff1673ffffffffffffffffffffffffffffffffffffffff1681526020018581526020018481526020018381526020018281526020019550505050505060405180910390f35b341561062c57600080fd5b610658600480803573ffffffffffffffffffffffffffffffffffffffff16906020019091905050610bff565b6040518080602001806020018581526020018481526020018381038352878181546001816001161561010002031660029004815260200191508054600181600116156101000203166002900480156106f15780601f106106c6576101008083540402835291602001916106f1565b820191906000526020600020905b8154815290600101906020018083116106d457829003601f168201915b50508381038252868181546001816001161561010002031660029004815260200191508054600181600116156101000203166002900480156107745780601f1061074957610100808354040283529160200191610774565b820191906000526020600020905b81548152906001019060200180831161075757829003601f168201915b5050965050505050505060405180910390f35b341561079257600080fd5b610825600480803590602001908201803590602001908080601f0160208091040260200160405190810160405280939291908181526020018383808284378201915050505050509190803590602001908201803590602001908080601f01602080910402602001604051908101604052809392919081815260200183838082843782019150505050505091905050610c2d565b005b341561083257600080fd5b6108d7600480803590602001908201803590602001908080601f0160208091040260200160405190810160405280939291908181526020018383808284378201915050505050509190803590602001908201803590602001908080601f01602080910402602001604051908101604052809392919081815260200183838082843782019150505050505091908035906020019091908035906020019091905050610cc4565b005b6109af600480803590602001908201803590602001908080601f0160208091040260200160405190810160405280939291908181526020018383808284378201915050505050509190803590602001908201803590602001908080601f0160208091040260200160405190810160405280939291908181526020018383808284378201915050505050509190803590602001908201803590602001908080601f01602080910402602001604051908101604052809392919081815260200183838082843782019150505050505091905050610d52565b005b34156109bc57600080fd5b6109e8600480803573ffffffffffffffffffffffffffffffffffffffff16906020019091905050610f29565b604051808873ffffffffffffffffffffffffffffffffffffffff1673ffffffffffffffffffffffffffffffffffffffff16815260200187815260200186815260200185815260200184815260200183815260200182815260200197505050505050505060405180910390f35b6002602052816000526040600020602052806000526040600020600091509150508060000160009054906101000a900473ffffffffffffffffffffffffffffffffffffffff16908060010160009054906101000a900473ffffffffffffffffffffffffffffffffffffffff16908060020154908060030154908060040154908060050154905086565b60006020528060005260406000206000915090508060000190806001019080600201908060030154908060040160009054906101000a900460ff16905085565b6006602052816000526040600020602052806000526040600020600091509150508060000160009054906101000a900473ffffffffffffffffffffffffffffffffffffffff16908060010154908060020154905083565b6003602052806000526040600020600091509050806000019080600101908060020160009054906101000a900460ff16905083565b60056020528060005260406000206000915090508060000160009054906101000a900473ffffffffffffffffffffffffffffffffffffffff16908060010154908060020154908060030154908060040154905085565b6001602052806000526040600020600091509050806000019080600101908060020154908060030154905084565b6000600360003373ffffffffffffffffffffffffffffffffffffffff1673ffffffffffffffffffffffffffffffffffffffff168152602001908152602001600020905082816000019080519060200190610c88929190610f8b565b5081816001019080519060200190610ca1929190610f8b565b5060018160020160006101000a81548160ff021916908315150217905550505050565b6000600160003373ffffffffffffffffffffffffffffffffffffffff1673ffffffffffffffffffffffffffffffffffffffff168152602001908152602001600020905084816000019080519060200190610d1f929190610f8b565b5083816001019080519060200190610d38929190610f8b565b508281600201819055508181600301819055505050505050565b6005670de0b6b3a764000034811515610d6757fe5b041415610f2457826000803373ffffffffffffffffffffffffffffffffffffffff1673ffffffffffffffffffffffffffffffffffffffff1681526020019081526020016000206000019080519060200190610dc3929190610f8b565b50816000803373ffffffffffffffffffffffffffffffffffffffff1673ffffffffffffffffffffffffffffffffffffffff1681526020019081526020016000206001019080519060200190610e19929190610f8b565b50806000803373ffffffffffffffffffffffffffffffffffffffff1673ffffffffffffffffffffffffffffffffffffffff1681526020019081526020016000206002019080519060200190610e6f929190610f8b565b50670de0b6b3a764000034811515610e8357fe5b046000803373ffffffffffffffffffffffffffffffffffffffff1673ffffffffffffffffffffffffffffffffffffffff1681526020019081526020016000206003018190555060016000803373ffffffffffffffffffffffffffffffffffffffff1673ffffffffffffffffffffffffffffffffffffffff16815260200190815260200160002060040160006101000a81548160ff0219169083151502179055505b505050565b60046020528060005260406000206000915090508060000160009054906101000a900473ffffffffffffffffffffffffffffffffffffffff16908060010154908060020154908060030154908060040154908060050154908060060154905087565b828054600181600116156101000203166002900490600052602060002090601f016020900481019282601f10610fcc57805160ff1916838001178555610ffa565b82800160010185558215610ffa579182015b82811115610ff9578251825591602001919060010190610fde565b5b509050611007919061100b565b5090565b61102d91905b80821115611029576000816000905550600101611011565b5090565b905600a165627a7a72305820dec04f4b4d68539fe7f0fee0f20e832ff8fd6b541e222ae5e18b4b56e55d3dc70029",
  "source": "pragma solidity ^0.4.18;\r\n\r\n\r\ncontract BusinessLogic{\r\n    \r\n    \r\n    //portfolo_manager details structue\r\n     struct register{\r\n        string name;\r\n        string email;\r\n        string password;\r\n        uint256 _ether;\r\n        bool statuscode;\r\n    }\r\n    \r\n    \r\n    //Investor details structre\r\n    struct InvestorReg\r\n    {\r\n        string name;\r\n        string password;\r\n        bool statuscode;\r\n    }\r\n    \r\n    //Structure for InvestorProfile \r\n    struct InvestorProfile\r\n    {\r\n        address InvestorAdd;\r\n        address portfoliomanager;\r\n        uint256 howmuch;\r\n        uint256 time;\r\n        uint256 profitether;\r\n        uint256 howmanyFund;\r\n        \r\n        \r\n    }\r\n    \r\n    \r\n    //structure for Protfolio manager purchase other token\r\n    struct PortfoliomPurchase\r\n    {\r\n        address getAdd;\r\n        uint256 sendEther;\r\n        uint256 getTokenC;\r\n        uint256 time;\r\n    }\r\n    \r\n    //Structure for portfolio manager fundtokens and puchase Tokens\r\n    struct Tokens\r\n    {\r\n        string tkname;\r\n        string tksymbol;\r\n        uint256 tkdecimal;\r\n        uint256 tktotalsup;\r\n    }\r\n    \r\n    //structue for portfoliomanager profile\r\n    struct ProtfolioMProfile\r\n    {\r\n        address ProtfolioMProfileAdd;\r\n        uint256 holdEther;\r\n        uint256 howmanytHold;\r\n        uint256 totalvalue;\r\n        uint256 profit;\r\n        uint256 loss;\r\n        uint256 time;\r\n        \r\n    }\r\n    \r\n    //structure for Investor invest on Portfolio manager\r\n    struct InvestmentD\r\n    {\r\n        address PortfolioMAdd;\r\n        uint256 howmuchSpenETH;\r\n        uint256 howmanyFundTG;\r\n        uint256 oneFTR;\r\n        uint256 time;\r\n    }\r\n    \r\n    \r\n    struct Dividends\r\n    {\r\n        address investorAdd;\r\n        uint256 divident;\r\n        uint256 time;\r\n    }\r\n    \r\n    mapping(address => register) public PortReg; //Map for portfoliomanager \r\n    mapping(address => Tokens) public PortToken; //Map for portfoliomangertokens\r\n    mapping(address=>mapping(address =>  InvestorProfile )) public InvestorP; //Map for Investor profile page\r\n    mapping(address =>InvestorReg) public InvestorRegister; //Map for Investorregister\r\n    mapping(address =>  ProtfolioMProfile ) public PortfolioMP; //Map for PortfolioManager Profile\r\n    mapping(address => InvestmentD) public InvestorInvestD; // Map for InestorInvestment details\r\n    mapping(address => mapping(address => Dividends)) public MapDivide; //Map for Divident details\r\n    \r\n    \r\n    //Function for portfolio manager registration\r\n    function Click_Reg(string _name,string _email,string _password) public payable\r\n    {\r\n        if(msg.value /1000000000000000000 == 5)\r\n        {\r\n            \r\n           PortReg[msg.sender].name = _name;\r\n            PortReg[msg.sender].email = _email;\r\n            PortReg[msg.sender].password = _password;\r\n           PortReg[msg.sender]._ether = msg.value / 1000000000000000000;\r\n           PortReg[msg.sender].statuscode = true;\r\n        }\r\n       \r\n    }\r\n    \r\n   \r\n   \r\n   //function for getting the generated token \r\n    function generatedTK(string _tkname,string _tksymbol,uint256 _tkdecimals,uint256 tktotalsup_) public\r\n    {\r\n        var port_tokD = PortToken[msg.sender];\r\n        port_tokD.tkname = _tkname;\r\n        port_tokD.tksymbol = _tksymbol;\r\n        port_tokD.tkdecimal = _tkdecimals;\r\n        port_tokD.tktotalsup = tktotalsup_; \r\n        \r\n    }\r\n    \r\n    \r\n    //Function for investor registration\r\n    function InvestorR(string _name,string _password) public\r\n    {\r\n        var InvestorRegisterV =  InvestorRegister[msg.sender];\r\n        InvestorRegisterV.name = _name;\r\n        InvestorRegisterV.password = _password;\r\n        InvestorRegisterV.statuscode = true;\r\n    }\r\n    \r\n    \r\n    /*\r\n    //function for portfoliomanager Autthetication\r\n    function portAuth(address _com_) public \r\n    {\r\n        if(PortReg[_com_].statuscode == true)\r\n        {\r\n            \r\n        }\r\n    }\r\n    \r\n    \r\n    \r\n    //function for Investor Authentication\r\n    function InvestAuth(address _Inv_) public\r\n    {\r\n        if(InvestorRegister[msg.sender].statuscode == true)\r\n        {\r\n            \r\n        }\r\n    }\r\n    \r\n    */\r\n    \r\n    \r\n  \r\n  \r\n  \r\n\r\n    \r\n  \r\n   \r\n   \r\n    \r\n    \r\n    \r\n    \r\n    \r\n}",
  "sourcePath": "C:\\Users\\Balavignesh.0856\\Desktop\\GIT\\Mutual-Funds\\contracts\\BusinessLogic.sol",
  "compiler": {
    "name": "solc",
    "version": "0.4.19+commit.c4cbbb05.Emscripten.clang"
  },
  "schemaVersion": "2.0.0",
  "updatedAt": "2018-03-27T10:32:39.673Z"
}