{
  "contractName": "MutualFund",
  "abi": [
    {
      "constant": true,
      "inputs": [],
      "name": "name",
      "outputs": [
        {
          "name": "",
          "type": "string"
        }
      ],
      "payable": false,
      "stateMutability": "view",
      "type": "function"
    },
    {
      "constant": true,
      "inputs": [],
      "name": "decimals",
      "outputs": [
        {
          "name": "",
          "type": "uint256"
        }
      ],
      "payable": false,
      "stateMutability": "view",
      "type": "function"
    },
    {
      "constant": true,
      "inputs": [],
      "name": "totalsupply",
      "outputs": [
        {
          "name": "",
          "type": "uint256"
        }
      ],
      "payable": false,
      "stateMutability": "view",
      "type": "function"
    },
    {
      "constant": true,
      "inputs": [],
      "name": "symbol",
      "outputs": [
        {
          "name": "",
          "type": "string"
        }
      ],
      "payable": false,
      "stateMutability": "view",
      "type": "function"
    },
    {
      "inputs": [
        {
          "name": "_name",
          "type": "string"
        },
        {
          "name": "_symbol",
          "type": "string"
        },
        {
          "name": "_decimals",
          "type": "uint256"
        },
        {
          "name": "_totalsupply",
          "type": "uint256"
        }
      ],
      "payable": false,
      "stateMutability": "nonpayable",
      "type": "constructor"
    },
    {
      "anonymous": false,
      "inputs": [
        {
          "indexed": true,
          "name": "from",
          "type": "address"
        },
        {
          "indexed": true,
          "name": "to",
          "type": "address"
        },
        {
          "indexed": false,
          "name": "value",
          "type": "uint256"
        }
      ],
      "name": "Transfer",
      "type": "event"
    },
    {
      "constant": false,
      "inputs": [
        {
          "name": "to",
          "type": "address"
        },
        {
          "name": "value",
          "type": "uint256"
        }
      ],
      "name": "transfer",
      "outputs": [
        {
          "name": "",
          "type": "bool"
        }
      ],
      "payable": false,
      "stateMutability": "nonpayable",
      "type": "function"
    },
    {
      "constant": true,
      "inputs": [],
      "name": "totalSupply",
      "outputs": [
        {
          "name": "",
          "type": "uint256"
        }
      ],
      "payable": false,
      "stateMutability": "view",
      "type": "function"
    },
    {
      "constant": true,
      "inputs": [
        {
          "name": "_addr",
          "type": "address"
        }
      ],
      "name": "balanceOf",
      "outputs": [
        {
          "name": "",
          "type": "uint256"
        }
      ],
      "payable": false,
      "stateMutability": "view",
      "type": "function"
    }
  ],
  "bytecode": "0x6060604052341561000f57600080fd5b60405161081f38038061081f8339810160405280805182019190602001805182019190602001805190602001909190805190602001909190505080600281905550600254600560003373ffffffffffffffffffffffffffffffffffffffff1673ffffffffffffffffffffffffffffffffffffffff1681526020019081526020016000208190555082600190805190602001906100ac929190610115565b5083600090805190602001906100c3929190610115565b508160038190555033600460006101000a81548173ffffffffffffffffffffffffffffffffffffffff021916908373ffffffffffffffffffffffffffffffffffffffff160217905550505050506101ba565b828054600181600116156101000203166002900490600052602060002090601f016020900481019282601f1061015657805160ff1916838001178555610184565b82800160010185558215610184579182015b82811115610183578251825591602001919060010190610168565b5b5090506101919190610195565b5090565b6101b791905b808211156101b357600081600090555060010161019b565b5090565b90565b610656806101c96000396000f300606060405260043610610083576000357c0100000000000000000000000000000000000000000000000000000000900463ffffffff16806306fdde031461008857806318160ddd14610116578063313ce5671461013f57806370a082311461016857806372dd529b146101b557806395d89b41146101de578063a9059cbb1461026c575b600080fd5b341561009357600080fd5b61009b6102c6565b6040518080602001828103825283818151815260200191508051906020019080838360005b838110156100db5780820151818401526020810190506100c0565b50505050905090810190601f1680156101085780820380516001836020036101000a031916815260200191505b509250505060405180910390f35b341561012157600080fd5b610129610364565b6040518082815260200191505060405180910390f35b341561014a57600080fd5b61015261036e565b6040518082815260200191505060405180910390f35b341561017357600080fd5b61019f600480803573ffffffffffffffffffffffffffffffffffffffff16906020019091905050610374565b6040518082815260200191505060405180910390f35b34156101c057600080fd5b6101c86103bd565b6040518082815260200191505060405180910390f35b34156101e957600080fd5b6101f16103c3565b6040518080602001828103825283818151815260200191508051906020019080838360005b83811015610231578082015181840152602081019050610216565b50505050905090810190601f16801561025e5780820380516001836020036101000a031916815260200191505b509250505060405180910390f35b341561027757600080fd5b6102ac600480803573ffffffffffffffffffffffffffffffffffffffff16906020019091908035906020019091905050610461565b604051808215151515815260200191505060405180910390f35b60008054600181600116156101000203166002900480601f01602080910402602001604051908101604052809291908181526020018280546001816001161561010002031660029004801561035c5780601f106103315761010080835404028352916020019161035c565b820191906000526020600020905b81548152906001019060200180831161033f57829003601f168201915b505050505081565b6000600254905090565b60035481565b6000600560008373ffffffffffffffffffffffffffffffffffffffff1673ffffffffffffffffffffffffffffffffffffffff168152602001908152602001600020549050919050565b60025481565b60018054600181600116156101000203166002900480601f0160208091040260200160405190810160405280929190818152602001828054600181600116156101000203166002900480156104595780601f1061042e57610100808354040283529160200191610459565b820191906000526020600020905b81548152906001019060200180831161043c57829003601f168201915b505050505081565b6000600560003373ffffffffffffffffffffffffffffffffffffffff1673ffffffffffffffffffffffffffffffffffffffff1681526020019081526020016000205482111515156104b157600080fd5b81600560003373ffffffffffffffffffffffffffffffffffffffff1673ffffffffffffffffffffffffffffffffffffffff1681526020019081526020016000205403600560003373ffffffffffffffffffffffffffffffffffffffff1673ffffffffffffffffffffffffffffffffffffffff1681526020019081526020016000208190555081600560008573ffffffffffffffffffffffffffffffffffffffff1673ffffffffffffffffffffffffffffffffffffffff1681526020019081526020016000205401600560008573ffffffffffffffffffffffffffffffffffffffff1673ffffffffffffffffffffffffffffffffffffffff168152602001908152602001600020819055508273ffffffffffffffffffffffffffffffffffffffff163373ffffffffffffffffffffffffffffffffffffffff167fddf252ad1be2c89b69c2b068fc378daa952ba7f163c4a11628f55a4df523b3ef846040518082815260200191505060405180910390a360019050929150505600a165627a7a7230582000c1b306f593f006a4a8d6246e6eb7b1d665b4198271968a5659bc30958d6d0d0029",
  "source": "pragma solidity ^0.4.18;\r\nimport \"./ERC20Basic.sol\";\r\ncontract MutualFund is ERC20Basic\r\n{\r\n   \r\n    string public name;\r\n    string public symbol;\r\n    uint256 public totalsupply;\r\n    //uint256  initialallowed;\r\n    uint256 public decimals;\r\n  \r\n    address Owner;\r\n\r\n    mapping(address=>uint) public balanceOf;\r\n   // mapping(address=>mapping(address=>uint256))public allowed;\r\n\r\n    function MutualFund(string _name,string _symbol,uint256 _decimals,uint256 _totalsupply)public\r\n    {\r\n        totalsupply = _totalsupply;\r\n        balanceOf[msg.sender]=totalsupply;\r\n        symbol = _symbol;\r\n        name=_name;\r\n        decimals= _decimals;\r\n        Owner = msg.sender;\r\n        \r\n    }\r\n    \r\n    function transfer(address to, uint256 value) public returns (bool)\r\n    {\r\n        require(value<=balanceOf[msg.sender]);\r\n        balanceOf[msg.sender]=balanceOf[msg.sender]-value;\r\n        balanceOf[to]=balanceOf[to]+value;\r\n        Transfer(msg.sender,to,value);\r\n        return true;\r\n    }\r\n    function totalSupply() public view returns (uint256)\r\n    {\r\n       return totalsupply;\r\n    }\r\n    function balanceOf(address _addr) public view returns (uint256)\r\n    {\r\n        return balanceOf[_addr];\r\n    }\r\n    \r\n    \r\n        \r\n}",
  "sourcePath": "C:\\Users\\Balavignesh.0856\\Desktop\\GIT\\Mutual-Funds\\contracts\\MutualFundToken.sol",
  "compiler": {
    "name": "solc",
    "version": "0.4.19+commit.c4cbbb05.Emscripten.clang"
  },
  "schemaVersion": "2.0.0",
  "updatedAt": "2018-03-27T06:26:04.813Z"
}