{
  "contractName": "BusinessLogic",
  "abi": [
    {
      "constant": true,
      "inputs": [],
      "name": "name",
      "outputs": [
        {
          "name": "",
          "type": "string"
        }
      ],
      "payable": false,
      "stateMutability": "view",
      "type": "function"
    },
    {
      "constant": true,
      "inputs": [
        {
          "name": "",
          "type": "address"
        },
        {
          "name": "",
          "type": "address"
        }
      ],
      "name": "InvestorP",
      "outputs": [
        {
          "name": "InvestorAdd",
          "type": "address"
        },
        {
          "name": "portfoliomanager",
          "type": "address"
        },
        {
          "name": "howmuch",
          "type": "uint256"
        },
        {
          "name": "time",
          "type": "uint256"
        },
        {
          "name": "profitether",
          "type": "uint256"
        },
        {
          "name": "howmanyFund",
          "type": "uint256"
        }
      ],
      "payable": false,
      "stateMutability": "view",
      "type": "function"
    },
    {
      "constant": true,
      "inputs": [],
      "name": "totalSupply",
      "outputs": [
        {
          "name": "",
          "type": "uint256"
        }
      ],
      "payable": false,
      "stateMutability": "view",
      "type": "function"
    },
    {
      "constant": true,
      "inputs": [],
      "name": "decimals",
      "outputs": [
        {
          "name": "",
          "type": "uint256"
        }
      ],
      "payable": false,
      "stateMutability": "view",
      "type": "function"
    },
    {
      "constant": true,
      "inputs": [
        {
          "name": "",
          "type": "address"
        },
        {
          "name": "",
          "type": "address"
        }
      ],
      "name": "MapDivide",
      "outputs": [
        {
          "name": "investorAdd",
          "type": "address"
        },
        {
          "name": "divident",
          "type": "uint256"
        },
        {
          "name": "time",
          "type": "uint256"
        }
      ],
      "payable": false,
      "stateMutability": "view",
      "type": "function"
    },
    {
      "constant": true,
      "inputs": [
        {
          "name": "",
          "type": "address"
        }
      ],
      "name": "InvestorInvestD",
      "outputs": [
        {
          "name": "PortfolioMAdd",
          "type": "address"
        },
        {
          "name": "howmuchSpenETH",
          "type": "uint256"
        },
        {
          "name": "howmanyFundTG",
          "type": "uint256"
        },
        {
          "name": "oneFTR",
          "type": "uint256"
        },
        {
          "name": "time",
          "type": "uint256"
        }
      ],
      "payable": false,
      "stateMutability": "view",
      "type": "function"
    },
    {
      "constant": true,
      "inputs": [
        {
          "name": "_addr",
          "type": "address"
        }
      ],
      "name": "balanceOf",
      "outputs": [
        {
          "name": "",
          "type": "uint256"
        }
      ],
      "payable": false,
      "stateMutability": "view",
      "type": "function"
    },
    {
      "constant": true,
      "inputs": [],
      "name": "totalsupply",
      "outputs": [
        {
          "name": "",
          "type": "uint256"
        }
      ],
      "payable": false,
      "stateMutability": "view",
      "type": "function"
    },
    {
      "constant": true,
      "inputs": [],
      "name": "symbol",
      "outputs": [
        {
          "name": "",
          "type": "string"
        }
      ],
      "payable": false,
      "stateMutability": "view",
      "type": "function"
    },
    {
      "constant": true,
      "inputs": [
        {
          "name": "",
          "type": "address"
        }
      ],
      "name": "PortToken",
      "outputs": [
        {
          "name": "tkname",
          "type": "string"
        },
        {
          "name": "tksymbol",
          "type": "string"
        },
        {
          "name": "tkdecimal",
          "type": "uint256"
        },
        {
          "name": "tktotalsup",
          "type": "uint256"
        }
      ],
      "payable": false,
      "stateMutability": "view",
      "type": "function"
    },
    {
      "constant": false,
      "inputs": [
        {
          "name": "to",
          "type": "address"
        },
        {
          "name": "value",
          "type": "uint256"
        }
      ],
      "name": "transfer",
      "outputs": [
        {
          "name": "",
          "type": "bool"
        }
      ],
      "payable": false,
      "stateMutability": "nonpayable",
      "type": "function"
    },
    {
      "constant": true,
      "inputs": [
        {
          "name": "",
          "type": "address"
        }
      ],
      "name": "IRegMap",
      "outputs": [
        {
          "name": "UserAddr",
          "type": "address"
        },
        {
          "name": "name",
          "type": "string"
        },
        {
          "name": "eth",
          "type": "uint256"
        }
      ],
      "payable": false,
      "stateMutability": "view",
      "type": "function"
    },
    {
      "constant": true,
      "inputs": [
        {
          "name": "",
          "type": "address"
        }
      ],
      "name": "PortfolioMP",
      "outputs": [
        {
          "name": "ProtfolioMProfileAdd",
          "type": "address"
        },
        {
          "name": "holdEther",
          "type": "uint256"
        },
        {
          "name": "howmanytHold",
          "type": "uint256"
        },
        {
          "name": "totalvalue",
          "type": "uint256"
        },
        {
          "name": "profit",
          "type": "uint256"
        },
        {
          "name": "loss",
          "type": "uint256"
        },
        {
          "name": "time",
          "type": "uint256"
        }
      ],
      "payable": false,
      "stateMutability": "view",
      "type": "function"
    },
    {
      "inputs": [],
      "payable": false,
      "stateMutability": "nonpayable",
      "type": "constructor"
    },
    {
      "anonymous": false,
      "inputs": [
        {
          "indexed": true,
          "name": "from",
          "type": "address"
        },
        {
          "indexed": true,
          "name": "to",
          "type": "address"
        },
        {
          "indexed": false,
          "name": "value",
          "type": "uint256"
        }
      ],
      "name": "Transfer",
      "type": "event"
    },
    {
      "constant": false,
      "inputs": [
        {
          "name": "_name",
          "type": "string"
        },
        {
          "name": "_symbol",
          "type": "string"
        },
        {
          "name": "_decimals",
          "type": "uint256"
        },
        {
          "name": "_totalsupply",
          "type": "uint256"
        }
      ],
      "name": "MutualFund",
      "outputs": [],
      "payable": false,
      "stateMutability": "nonpayable",
      "type": "function"
    },
    {
      "constant": false,
      "inputs": [
        {
          "name": "_name",
          "type": "string"
        }
      ],
      "name": "Click_Reg",
      "outputs": [],
      "payable": true,
      "stateMutability": "payable",
      "type": "function"
    },
    {
      "constant": false,
      "inputs": [
        {
          "name": "_UserAddr",
          "type": "address"
        },
        {
          "name": "_name",
          "type": "string"
        }
      ],
      "name": "InvestmentRegister",
      "outputs": [],
      "payable": false,
      "stateMutability": "nonpayable",
      "type": "function"
    },
    {
      "constant": false,
      "inputs": [
        {
          "name": "_tkname",
          "type": "string"
        },
        {
          "name": "_tksymbol",
          "type": "string"
        },
        {
          "name": "_tkdecimals",
          "type": "uint256"
        },
        {
          "name": "tktotalsup_",
          "type": "uint256"
        }
      ],
      "name": "generatedTK",
      "outputs": [],
      "payable": false,
      "stateMutability": "nonpayable",
      "type": "function"
    },
    {
      "constant": false,
      "inputs": [
        {
          "name": "_PortfolioAddr",
          "type": "address"
        }
      ],
      "name": "Investment",
      "outputs": [
        {
          "name": "",
          "type": "bool"
        }
      ],
      "payable": true,
      "stateMutability": "payable",
      "type": "function"
    },
    {
      "constant": true,
      "inputs": [],
      "name": "PortfolioManagerList",
      "outputs": [
        {
          "name": "",
          "type": "address[]"
        }
      ],
      "payable": false,
      "stateMutability": "view",
      "type": "function"
    },
    {
      "constant": true,
      "inputs": [
        {
          "name": "search",
          "type": "address"
        }
      ],
      "name": "SelectProfolioManager",
      "outputs": [
        {
          "name": "",
          "type": "bool"
        }
      ],
      "payable": false,
      "stateMutability": "view",
      "type": "function"
    },
    {
      "constant": true,
      "inputs": [
        {
          "name": "_UserAddr",
          "type": "address"
        }
      ],
      "name": "GetInvestmentDetails",
      "outputs": [
        {
          "name": "",
          "type": "string"
        },
        {
          "name": "",
          "type": "uint256"
        },
        {
          "name": "",
          "type": "uint256"
        },
        {
          "name": "",
          "type": "uint256"
        },
        {
          "name": "",
          "type": "uint256"
        },
        {
          "name": "",
          "type": "uint256"
        },
        {
          "name": "",
          "type": "uint256"
        }
      ],
      "payable": false,
      "stateMutability": "view",
      "type": "function"
    }
  ],
  "bytecode": "0x6060604052341561000f57600080fd5b33600660006101000a81548173ffffffffffffffffffffffffffffffffffffffff021916908373ffffffffffffffffffffffffffffffffffffffff1602179055506121098061005f6000396000f30060606040526004361061011d576000357c0100000000000000000000000000000000000000000000000000000000900463ffffffff16806306fdde0314610122578063114fade4146101b057806318160ddd14610297578063313ce567146102c0578063328834bc146102e9578063350c8dd81461039b578063404694a0146104415780635237a5e0146104bd5780635f2da2da146105525780635fbbf8361461062e57806370a082311461068057806372dd529b146106cd578063925e08cc146106f657806395d89b41146107475780639602c5c9146107d5578063a9059cbb1461093b578063b759c28e14610995578063c69c2896146109ff578063d4d7262214610b08578063d789824014610bba578063fa342cde14610c00575b600080fd5b341561012d57600080fd5b610135610ca3565b6040518080602001828103825283818151815260200191508051906020019080838360005b8381101561017557808201518184015260208101905061015a565b50505050905090810190601f1680156101a25780820380516001836020036101000a031916815260200191505b509250505060405180910390f35b34156101bb57600080fd5b610206600480803573ffffffffffffffffffffffffffffffffffffffff1690602001909190803573ffffffffffffffffffffffffffffffffffffffff16906020019091905050610d41565b604051808773ffffffffffffffffffffffffffffffffffffffff1673ffffffffffffffffffffffffffffffffffffffff1681526020018673ffffffffffffffffffffffffffffffffffffffff1673ffffffffffffffffffffffffffffffffffffffff168152602001858152602001848152602001838152602001828152602001965050505050505060405180910390f35b34156102a257600080fd5b6102aa610dca565b6040518082815260200191505060405180910390f35b34156102cb57600080fd5b6102d3610dd4565b6040518082815260200191505060405180910390f35b34156102f457600080fd5b610399600480803590602001908201803590602001908080601f0160208091040260200160405190810160405280939291908181526020018383808284378201915050505050509190803590602001908201803590602001908080601f01602080910402602001604051908101604052809392919081815260200183838082843782019150505050505091908035906020019091908035906020019091905050610dda565b005b34156103a657600080fd5b6103f1600480803573ffffffffffffffffffffffffffffffffffffffff1690602001909190803573ffffffffffffffffffffffffffffffffffffffff16906020019091905050610e62565b604051808473ffffffffffffffffffffffffffffffffffffffff1673ffffffffffffffffffffffffffffffffffffffff168152602001838152602001828152602001935050505060405180910390f35b341561044c57600080fd5b6104bb600480803573ffffffffffffffffffffffffffffffffffffffff1690602001909190803590602001908201803590602001908080601f01602080910402602001604051908101604052809392919081815260200183838082843782019150505050505091905050610eb9565b005b34156104c857600080fd5b6104f4600480803573ffffffffffffffffffffffffffffffffffffffff16906020019091905050610ff8565b604051808673ffffffffffffffffffffffffffffffffffffffff1673ffffffffffffffffffffffffffffffffffffffff1681526020018581526020018481526020018381526020018281526020019550505050505060405180910390f35b341561055d57600080fd5b610589600480803573ffffffffffffffffffffffffffffffffffffffff1690602001909190505061104e565b6040518080602001888152602001878152602001868152602001858152602001848152602001838152602001828103825289818151815260200191508051906020019080838360005b838110156105ed5780820151818401526020810190506105d2565b50505050905090810190601f16801561061a5780820380516001836020036101000a031916815260200191505b509850505050505050505060405180910390f35b61067e600480803590602001908201803590602001908080601f016020809104026020016040519081016040528093929190818152602001838380828437820191505050505050919050506112e8565b005b341561068b57600080fd5b6106b7600480803573ffffffffffffffffffffffffffffffffffffffff16906020019091905050611530565b6040518082815260200191505060405180910390f35b34156106d857600080fd5b6106e0611579565b6040518082815260200191505060405180910390f35b341561070157600080fd5b61072d600480803573ffffffffffffffffffffffffffffffffffffffff1690602001909190505061157f565b604051808215151515815260200191505060405180910390f35b341561075257600080fd5b61075a61161f565b6040518080602001828103825283818151815260200191508051906020019080838360005b8381101561079a57808201518184015260208101905061077f565b50505050905090810190601f1680156107c75780820380516001836020036101000a031916815260200191505b509250505060405180910390f35b34156107e057600080fd5b61080c600480803573ffffffffffffffffffffffffffffffffffffffff169060200190919050506116bd565b6040518080602001806020018581526020018481526020018381038352878181546001816001161561010002031660029004815260200191508054600181600116156101000203166002900480156108a55780601f1061087a576101008083540402835291602001916108a5565b820191906000526020600020905b81548152906001019060200180831161088857829003601f168201915b50508381038252868181546001816001161561010002031660029004815260200191508054600181600116156101000203166002900480156109285780601f106108fd57610100808354040283529160200191610928565b820191906000526020600020905b81548152906001019060200180831161090b57829003601f168201915b5050965050505050505060405180910390f35b341561094657600080fd5b61097b600480803573ffffffffffffffffffffffffffffffffffffffff169060200190919080359060200190919050506116eb565b604051808215151515815260200191505060405180910390f35b34156109a057600080fd5b6109a86118b4565b6040518080602001828103825283818151815260200191508051906020019060200280838360005b838110156109eb5780820151818401526020810190506109d0565b505050509050019250505060405180910390f35b3415610a0a57600080fd5b610a36600480803573ffffffffffffffffffffffffffffffffffffffff16906020019091905050611948565b604051808473ffffffffffffffffffffffffffffffffffffffff1673ffffffffffffffffffffffffffffffffffffffff16815260200180602001838152602001828103825284818154600181600116156101000203166002900481526020019150805460018160011615610100020316600290048015610af75780601f10610acc57610100808354040283529160200191610af7565b820191906000526020600020905b815481529060010190602001808311610ada57829003601f168201915b505094505050505060405180910390f35b3415610b1357600080fd5b610bb8600480803590602001908201803590602001908080601f0160208091040260200160405190810160405280939291908181526020018383808284378201915050505050509190803590602001908201803590602001908080601f01602080910402602001604051908101604052809392919081815260200183838082843782019150505050505091908035906020019091908035906020019091905050611991565b005b610be6600480803573ffffffffffffffffffffffffffffffffffffffff16906020019091905050611a1f565b604051808215151515815260200191505060405180910390f35b3415610c0b57600080fd5b610c37600480803573ffffffffffffffffffffffffffffffffffffffff16906020019091905050611b52565b604051808873ffffffffffffffffffffffffffffffffffffffff1673ffffffffffffffffffffffffffffffffffffffff16815260200187815260200186815260200185815260200184815260200183815260200182815260200197505050505050505060405180910390f35b60008054600181600116156101000203166002900480601f016020809104026020016040519081016040528092919081815260200182805460018160011615610100020316600290048015610d395780601f10610d0e57610100808354040283529160200191610d39565b820191906000526020600020905b815481529060010190602001808311610d1c57829003601f168201915b505050505081565b600f602052816000526040600020602052806000526040600020600091509150508060000160009054906101000a900473ffffffffffffffffffffffffffffffffffffffff16908060010160009054906101000a900473ffffffffffffffffffffffffffffffffffffffff16908060020154908060030154908060040154908060050154905086565b6000600254905090565b60035481565b80600281905550600254600560003373ffffffffffffffffffffffffffffffffffffffff1673ffffffffffffffffffffffffffffffffffffffff168152602001908152602001600020819055508260019080519060200190610e3d929190611fe4565b508360009080519060200190610e54929190611fe4565b508160038190555050505050565b6014602052816000526040600020602052806000526040600020600091509150508060000160009054906101000a900473ffffffffffffffffffffffffffffffffffffffff16908060010154908060020154905083565b600c8054806001018281610ecd9190612064565b9160005260206000209001600033909190916101000a81548173ffffffffffffffffffffffffffffffffffffffff021916908373ffffffffffffffffffffffffffffffffffffffff1602179055505081601160003373ffffffffffffffffffffffffffffffffffffffff1673ffffffffffffffffffffffffffffffffffffffff16815260200190815260200160002060000160006101000a81548173ffffffffffffffffffffffffffffffffffffffff021916908373ffffffffffffffffffffffffffffffffffffffff16021790555080601160003373ffffffffffffffffffffffffffffffffffffffff1673ffffffffffffffffffffffffffffffffffffffff1681526020019081526020016000206001019080519060200190610ff3929190611fe4565b505050565b60136020528060005260406000206000915090508060000160009054906101000a900473ffffffffffffffffffffffffffffffffffffffff16908060010154908060020154908060030154908060040154905085565b611056612090565b600080600080600080601060008973ffffffffffffffffffffffffffffffffffffffff1673ffffffffffffffffffffffffffffffffffffffff168152602001908152602001600020600101601060003373ffffffffffffffffffffffffffffffffffffffff1673ffffffffffffffffffffffffffffffffffffffff16815260200190815260200160002060070154601060003373ffffffffffffffffffffffffffffffffffffffff1673ffffffffffffffffffffffffffffffffffffffff16815260200190815260200160002060020154601060003373ffffffffffffffffffffffffffffffffffffffff1673ffffffffffffffffffffffffffffffffffffffff16815260200190815260200160002060030154601060003373ffffffffffffffffffffffffffffffffffffffff1673ffffffffffffffffffffffffffffffffffffffff16815260200190815260200160002060040154601060003373ffffffffffffffffffffffffffffffffffffffff1673ffffffffffffffffffffffffffffffffffffffff16815260200190815260200160002060050154601060003373ffffffffffffffffffffffffffffffffffffffff1673ffffffffffffffffffffffffffffffffffffffff16815260200190815260200160002060060154868054600181600116156101000203166002900480601f0160208091040260200160405190810160405280929190818152602001828054600181600116156101000203166002900480156112c85780601f1061129d576101008083540402835291602001916112c8565b820191906000526020600020905b8154815290600101906020018083116112ab57829003601f168201915b505050505096509650965096509650965096509650919395979092949650565b6005670de0b6b3a7640000348115156112fd57fe5b04141561152d5780600d60003373ffffffffffffffffffffffffffffffffffffffff1673ffffffffffffffffffffffffffffffffffffffff168152602001908152602001600020600001908051906020019061135a929190611fe4565b50670de0b6b3a76400003481151561136e57fe5b04600d60003373ffffffffffffffffffffffffffffffffffffffff1673ffffffffffffffffffffffffffffffffffffffff168152602001908152602001600020600101819055506001600d60003373ffffffffffffffffffffffffffffffffffffffff1673ffffffffffffffffffffffffffffffffffffffff16815260200190815260200160002060020160006101000a81548160ff02191690831515021790555080600d60003373ffffffffffffffffffffffffffffffffffffffff1673ffffffffffffffffffffffffffffffffffffffff1681526020019081526020016000206000019080519060200190611466929190611fe4565b50600660009054906101000a900473ffffffffffffffffffffffffffffffffffffffff1673ffffffffffffffffffffffffffffffffffffffff166108fc349081150290604051600060405180830381858888f1935050505015156114c957600080fd5b600b80548060010182816114dd9190612064565b9160005260206000209001600033909190916101000a81548173ffffffffffffffffffffffffffffffffffffffff021916908373ffffffffffffffffffffffffffffffffffffffff160217905550505b50565b6000600560008373ffffffffffffffffffffffffffffffffffffffff1673ffffffffffffffffffffffffffffffffffffffff168152602001908152602001600020549050919050565b60025481565b600080600090505b600b8054905081101561161857600b818154811015156115a357fe5b906000526020600020900160009054906101000a900473ffffffffffffffffffffffffffffffffffffffff1673ffffffffffffffffffffffffffffffffffffffff168373ffffffffffffffffffffffffffffffffffffffff16141561160b5760019150611619565b8080600101915050611587565b5b50919050565b60018054600181600116156101000203166002900480601f0160208091040260200160405190810160405280929190818152602001828054600181600116156101000203166002900480156116b55780601f1061168a576101008083540402835291602001916116b5565b820191906000526020600020905b81548152906001019060200180831161169857829003601f168201915b505050505081565b600e602052806000526040600020600091509050806000019080600101908060020154908060030154905084565b6000600560003373ffffffffffffffffffffffffffffffffffffffff1673ffffffffffffffffffffffffffffffffffffffff16815260200190815260200160002054821115151561173b57600080fd5b81600560003373ffffffffffffffffffffffffffffffffffffffff1673ffffffffffffffffffffffffffffffffffffffff1681526020019081526020016000205403600560003373ffffffffffffffffffffffffffffffffffffffff1673ffffffffffffffffffffffffffffffffffffffff1681526020019081526020016000208190555081600560008573ffffffffffffffffffffffffffffffffffffffff1673ffffffffffffffffffffffffffffffffffffffff1681526020019081526020016000205401600560008573ffffffffffffffffffffffffffffffffffffffff1673ffffffffffffffffffffffffffffffffffffffff168152602001908152602001600020819055508273ffffffffffffffffffffffffffffffffffffffff163373ffffffffffffffffffffffffffffffffffffffff167fddf252ad1be2c89b69c2b068fc378daa952ba7f163c4a11628f55a4df523b3ef846040518082815260200191505060405180910390a36001905092915050565b6118bc6120a4565b600b80548060200260200160405190810160405280929190818152602001828054801561193e57602002820191906000526020600020905b8160009054906101000a900473ffffffffffffffffffffffffffffffffffffffff1673ffffffffffffffffffffffffffffffffffffffff16815260200190600101908083116118f4575b5050505050905090565b60116020528060005260406000206000915090508060000160009054906101000a900473ffffffffffffffffffffffffffffffffffffffff169080600101908060020154905083565b6000600e60003373ffffffffffffffffffffffffffffffffffffffff1673ffffffffffffffffffffffffffffffffffffffff1681526020019081526020016000209050848160000190805190602001906119ec929190611fe4565b5083816001019080519060200190611a05929190611fe4565b508281600201819055508181600301819055505050505050565b6000806000600660009054906101000a900473ffffffffffffffffffffffffffffffffffffffff1673ffffffffffffffffffffffffffffffffffffffff166108fc349081150290604051600060405180830381858888f193505050501515611a8657600080fd5b34601060003373ffffffffffffffffffffffffffffffffffffffff1673ffffffffffffffffffffffffffffffffffffffff1681526020019081526020016000206007015401601060003373ffffffffffffffffffffffffffffffffffffffff1673ffffffffffffffffffffffffffffffffffffffff16815260200190815260200160002060070181905550606434029150670de0b6b3a764000082811515611b2a57fe5b049050611b3784826116eb565b5042600781905550611b47611bb4565b600192505050919050565b60126020528060005260406000206000915090508060000160009054906101000a900473ffffffffffffffffffffffffffffffffffffffff16908060010154908060020154908060030154908060040154908060050154908060060154905087565b73__DateTime______________________________633e239e1a6007546000604051602001526040518263ffffffff167c01000000000000000000000000000000000000000000000000000000000281526004018082815260200191505060206040518083038186803b1515611c2957600080fd5b6102c65a03f41515611c3a57600080fd5b50505060405180519050601060003373ffffffffffffffffffffffffffffffffffffffff1673ffffffffffffffffffffffffffffffffffffffff1681526020019081526020016000206005018190555073__DateTime______________________________63fa93f8836007546000604051602001526040518263ffffffff167c01000000000000000000000000000000000000000000000000000000000281526004018082815260200191505060206040518083038186803b1515611cff57600080fd5b6102c65a03f41515611d1057600080fd5b50505060405180519050601060003373ffffffffffffffffffffffffffffffffffffffff1673ffffffffffffffffffffffffffffffffffffffff1681526020019081526020016000206006018190555073__DateTime______________________________6365c728406007546000604051602001526040518263ffffffff167c01000000000000000000000000000000000000000000000000000000000281526004018082815260200191505060206040518083038186803b1515611dd557600080fd5b6102c65a03f41515611de657600080fd5b50505060405180519050601060003373ffffffffffffffffffffffffffffffffffffffff1673ffffffffffffffffffffffffffffffffffffffff1681526020019081526020016000206002018190555073__DateTime______________________________63a324ad246007546000604051602001526040518263ffffffff167c01000000000000000000000000000000000000000000000000000000000281526004018082815260200191505060206040518083038186803b1515611eab57600080fd5b6102c65a03f41515611ebc57600080fd5b50505060405180519050601060003373ffffffffffffffffffffffffffffffffffffffff1673ffffffffffffffffffffffffffffffffffffffff1681526020019081526020016000206003018190555073__DateTime______________________________6392d663136007546000604051602001526040518263ffffffff167c01000000000000000000000000000000000000000000000000000000000281526004018082815260200191505060206040518083038186803b1515611f8157600080fd5b6102c65a03f41515611f9257600080fd5b50505060405180519050601060003373ffffffffffffffffffffffffffffffffffffffff1673ffffffffffffffffffffffffffffffffffffffff16815260200190815260200160002060040181905550565b828054600181600116156101000203166002900490600052602060002090601f016020900481019282601f1061202557805160ff1916838001178555612053565b82800160010185558215612053579182015b82811115612052578251825591602001919060010190612037565b5b50905061206091906120b8565b5090565b81548183558181151161208b5781836000526020600020918201910161208a91906120b8565b5b505050565b602060405190810160405280600081525090565b602060405190810160405280600081525090565b6120da91905b808211156120d65760008160009055506001016120be565b5090565b905600a165627a7a72305820ec890ad360292edc9a3f6d4df5b2da657d204de85f9c58d9a0231e0e6b0e3e4e0029",
  "source": "pragma solidity ^0.4.18;\r\n\r\nimport \"./MutualFundToken.sol\";\r\nimport \"./Timing.sol\";\r\ncontract BusinessLogic is MutualFund{\r\n    \r\n    \r\n\r\n    //Global variable part \r\n    address owner;\r\n    uint time;\r\n    using DateTime for uint256;\r\n\r\n\r\n     //ArrayList part\r\n\r\n    uint[] Date;\r\n    uint[] Month;\r\n    uint[] Year;\r\n    address[] ListPortfolio;\r\n    address[] UserAddr;\r\n    \r\n\r\n\r\n\r\n\r\n    //constructor \r\n    function BusinessLogic() public\r\n    {\r\n        owner = msg.sender;\r\n    }\r\n\r\n\r\n    //portfolo_manager details structue\r\n      struct Reg{\r\n        string name;\r\n        uint256 _ether;\r\n        bool statuscode;\r\n        \r\n    }\r\n    \r\n    \r\n    //InvestorInvestnet details structre\r\n     struct InvestorDetails{\r\n        address UserAddr;\r\n        string name;\r\n        uint Date;\r\n        uint Month;\r\n        uint Year;\r\n        uint Hour;\r\n        uint Minute;\r\n        uint256 eth;\r\n    }\r\n\r\n    //Structure For Investor registration\r\n     struct InvestorRegister{\r\n        address UserAddr;\r\n        string name;\r\n        uint256 eth;\r\n    }\r\n    \r\n    //Structure for InvestorProfile \r\n    struct InvestorProfile\r\n    {\r\n        address InvestorAdd;\r\n        address portfoliomanager;\r\n        uint256 howmuch;\r\n        uint256 time;\r\n        uint256 profitether;\r\n        uint256 howmanyFund;\r\n        \r\n        \r\n    }\r\n    \r\n    \r\n    //structure for Protfolio manager purchase other token\r\n    struct PortfoliomPurchase\r\n    {\r\n        address getAdd;\r\n        uint256 sendEther;\r\n        uint256 getTokenC;\r\n        uint256 time;\r\n    }\r\n    \r\n    //Structure for portfolio manager fundtokens and puchase Tokens\r\n    struct Tokens\r\n    {\r\n        string tkname;\r\n        string tksymbol;\r\n        uint256 tkdecimal;\r\n        uint256 tktotalsup;\r\n    }\r\n    \r\n\r\n    //Generating the FundToken By the Investor\r\n     function MutualFund(string _name,string _symbol,uint256 _decimals,uint256 _totalsupply)public\r\n    {\r\n        totalsupply = _totalsupply;\r\n        balanceOf[msg.sender]=totalsupply;\r\n        symbol = _symbol;\r\n        name=_name;\r\n        decimals= _decimals;\r\n\r\n        \r\n    }\r\n    \r\n    //structue for portfoliomanager profile\r\n    struct ProtfolioMProfile\r\n    {\r\n        address ProtfolioMProfileAdd;\r\n        uint256 holdEther;\r\n        uint256 howmanytHold;\r\n        uint256 totalvalue;\r\n        uint256 profit;\r\n        uint256 loss;\r\n        uint256 time;\r\n        \r\n    }\r\n    \r\n    //structure for Investor invest on Portfolio manager\r\n    struct InvestmentD\r\n    {\r\n        address PortfolioMAdd;\r\n        uint256 howmuchSpenETH;\r\n        uint256 howmanyFundTG;\r\n        uint256 oneFTR;\r\n        uint256 time;\r\n    }\r\n    \r\n    \r\n    struct Dividends\r\n    {\r\n        address investorAdd;\r\n        uint256 divident;\r\n        uint256 time;\r\n    }\r\n    \r\n    mapping(address=>Reg) RegMap;  //Map for portfoliomanager \r\n    mapping(address => Tokens) public PortToken; //Map for portfoliomangertokens\r\n    mapping(address=>mapping(address =>  InvestorProfile )) public InvestorP; //Map for Investor profile page\r\n    mapping(address=>InvestorDetails) InvesMap; //Map for InvestorInvestment\r\n    mapping(address=> InvestorRegister)public IRegMap; //Map for Investorregistration\r\n    mapping(address =>  ProtfolioMProfile ) public PortfolioMP; //Map for PortfolioManager Profile\r\n    mapping(address => InvestmentD) public InvestorInvestD; // Map for InestorInvestment details\r\n    mapping(address => mapping(address => Dividends)) public MapDivide; //Map for Divident details\r\n    \r\n    \r\n    //Function for portfolio manager registration\r\n    function Click_Reg(string _name) public payable\r\n    {\r\n        if(msg.value /1000000000000000000 == 5)\r\n        {\r\n            \r\n           RegMap[msg.sender].name = _name;\r\n           RegMap[msg.sender]._ether = msg.value / 1000000000000000000;\r\n           RegMap[msg.sender].statuscode = true;\r\n           RegMap[msg.sender].name = _name;\r\n            owner.transfer(msg.value);\r\n            ListPortfolio.push(msg.sender);\r\n        }\r\n       \r\n    }\r\n    \r\n\r\n    //Function for Investor registration\r\n        function InvestmentRegister(address _UserAddr,string _name)public\r\n        {\r\n        UserAddr.push(msg.sender);\r\n        \r\n        IRegMap[msg.sender].UserAddr=_UserAddr;\r\n        IRegMap[msg.sender].name=_name;\r\n    }\r\n   \r\n   \r\n   //function for getting the generated token \r\n    function generatedTK(string _tkname,string _tksymbol,uint256 _tkdecimals,uint256 tktotalsup_) public\r\n    {\r\n        var port_tokD = PortToken[msg.sender];\r\n        port_tokD.tkname = _tkname;\r\n        port_tokD.tksymbol = _tksymbol;\r\n        port_tokD.tkdecimal = _tkdecimals;\r\n        port_tokD.tktotalsup = tktotalsup_; \r\n        \r\n    }\r\n    \r\n \r\n    \r\n    /*\r\n    //function for portfoliomanager Autthetication\r\n    function portAuth(address _com_) public \r\n    {\r\n        if(PortReg[_com_].statuscode == true)\r\n        {\r\n            \r\n        }\r\n    }\r\n    \r\n    \r\n    \r\n    //function for Investor Authentication\r\n    function InvestAuth(address _Inv_) public\r\n    {\r\n        if(InvestorRegister[msg.sender].statuscode == true)\r\n        {\r\n            \r\n        }\r\n    }\r\n    \r\n    */\r\n    \r\n   function Investment(address _PortfolioAddr) public payable returns(bool){\r\n        owner.transfer(msg.value);\r\n       InvesMap[msg.sender].eth= InvesMap[msg.sender].eth + msg.value;\r\n        uint etherValue= msg.value * 100;\r\n        uint value=  etherValue / 1 ether;\r\n        transfer(_PortfolioAddr,value);\r\n        time=now;\r\n        getDate();\r\n        return true;\r\n    }\r\n\r\n\r\n    //the Date Function is used to calculate the investment time\r\n      function getDate() private{\r\n        InvesMap[msg.sender].Hour=DateTime.getHour(time);\r\n        InvesMap[msg.sender].Minute=DateTime.getMinute(time);\r\n        InvesMap[msg.sender].Date=DateTime.getDay(time);\r\n        InvesMap[msg.sender].Month=DateTime.getMonth(time);\r\n        InvesMap[msg.sender].Year=DateTime.getYear(time);\r\n    }\r\n  \r\n\r\n    \r\n  \r\n   //Portfolio manager ArrayList for viewing \r\n   function PortfolioManagerList() public view returns(address[]){\r\n        return ListPortfolio;\r\n    }\r\n\r\n    //Selecting the Portfoliomanager in the arrayoflist by Investor\r\n    function SelectProfolioManager(address search) public view returns(bool){\r\n        for(uint i=0;i<ListPortfolio.length;i++){\r\n            if(search == ListPortfolio[i]){\r\n               return true; \r\n            }\r\n        }\r\n    }\r\n    \r\n    \r\n\r\n    //getting the Investor details\r\n   function GetInvestmentDetails(address _UserAddr)public view returns(string,uint256,uint,uint,uint,uint,uint) {\r\n        return (InvesMap[_UserAddr].name,InvesMap[msg.sender].eth,InvesMap[msg.sender].Date,InvesMap[msg.sender].Month,InvesMap[msg.sender].Year,InvesMap[msg.sender].Hour,InvesMap[msg.sender].Minute);\r\n    }\r\n    \r\n    \r\n    \r\n    \r\n    \r\n}",
  "sourcePath": "C:\\Users\\Balavignesh.0856\\Desktop\\GIT\\Mutual-Funds\\contracts\\BusinessLogic.sol",
  "compiler": {
    "name": "solc",
    "version": "0.4.19+commit.c4cbbb05.Emscripten.clang"
  },
  "schemaVersion": "2.0.0",
  "updatedAt": "2018-03-28T06:30:19.120Z"
}