{
  "contractName": "DateTime",
  "abi": [
    {
      "constant": true,
      "inputs": [
        {
          "name": "year",
          "type": "uint256"
        }
      ],
      "name": "isLeapYear",
      "outputs": [
        {
          "name": "",
          "type": "bool"
        }
      ],
      "payable": false,
      "stateMutability": "pure",
      "type": "function"
    },
    {
      "constant": true,
      "inputs": [
        {
          "name": "year",
          "type": "uint256"
        }
      ],
      "name": "leapYearsBefore",
      "outputs": [
        {
          "name": "",
          "type": "uint256"
        }
      ],
      "payable": false,
      "stateMutability": "pure",
      "type": "function"
    },
    {
      "constant": true,
      "inputs": [
        {
          "name": "month",
          "type": "uint256"
        },
        {
          "name": "year",
          "type": "uint256"
        }
      ],
      "name": "getDaysInMonth",
      "outputs": [
        {
          "name": "",
          "type": "uint256"
        }
      ],
      "payable": false,
      "stateMutability": "pure",
      "type": "function"
    },
    {
      "constant": true,
      "inputs": [
        {
          "name": "timestamp",
          "type": "uint256"
        }
      ],
      "name": "getYear",
      "outputs": [
        {
          "name": "",
          "type": "uint256"
        }
      ],
      "payable": false,
      "stateMutability": "pure",
      "type": "function"
    },
    {
      "constant": true,
      "inputs": [
        {
          "name": "timestamp",
          "type": "uint256"
        }
      ],
      "name": "getMonth",
      "outputs": [
        {
          "name": "",
          "type": "uint256"
        }
      ],
      "payable": false,
      "stateMutability": "pure",
      "type": "function"
    },
    {
      "constant": true,
      "inputs": [
        {
          "name": "timestamp",
          "type": "uint256"
        }
      ],
      "name": "getDay",
      "outputs": [
        {
          "name": "",
          "type": "uint256"
        }
      ],
      "payable": false,
      "stateMutability": "pure",
      "type": "function"
    },
    {
      "constant": true,
      "inputs": [
        {
          "name": "timestamp",
          "type": "uint256"
        }
      ],
      "name": "getHour",
      "outputs": [
        {
          "name": "",
          "type": "uint256"
        }
      ],
      "payable": false,
      "stateMutability": "pure",
      "type": "function"
    },
    {
      "constant": true,
      "inputs": [
        {
          "name": "timestamp",
          "type": "uint256"
        }
      ],
      "name": "getMinute",
      "outputs": [
        {
          "name": "",
          "type": "uint256"
        }
      ],
      "payable": false,
      "stateMutability": "pure",
      "type": "function"
    },
    {
      "constant": true,
      "inputs": [
        {
          "name": "timestamp",
          "type": "uint256"
        }
      ],
      "name": "getSecond",
      "outputs": [
        {
          "name": "",
          "type": "uint256"
        }
      ],
      "payable": false,
      "stateMutability": "pure",
      "type": "function"
    },
    {
      "constant": true,
      "inputs": [
        {
          "name": "timestamp",
          "type": "uint256"
        }
      ],
      "name": "getWeekday",
      "outputs": [
        {
          "name": "",
          "type": "uint256"
        }
      ],
      "payable": false,
      "stateMutability": "pure",
      "type": "function"
    },
    {
      "constant": true,
      "inputs": [
        {
          "name": "year",
          "type": "uint16"
        },
        {
          "name": "month",
          "type": "uint8"
        },
        {
          "name": "day",
          "type": "uint8"
        },
        {
          "name": "hour",
          "type": "uint8"
        }
      ],
      "name": "toTimestamp",
      "outputs": [
        {
          "name": "timestamp",
          "type": "uint256"
        }
      ],
      "payable": false,
      "stateMutability": "pure",
      "type": "function"
    },
    {
      "constant": true,
      "inputs": [
        {
          "name": "year",
          "type": "uint256"
        },
        {
          "name": "month",
          "type": "uint256"
        },
        {
          "name": "day",
          "type": "uint256"
        },
        {
          "name": "hour",
          "type": "uint256"
        },
        {
          "name": "minute",
          "type": "uint256"
        },
        {
          "name": "second",
          "type": "uint256"
        }
      ],
      "name": "toTimestamp",
      "outputs": [
        {
          "name": "timestamp",
          "type": "uint256"
        }
      ],
      "payable": false,
      "stateMutability": "pure",
      "type": "function"
    },
    {
      "constant": true,
      "inputs": [
        {
          "name": "year",
          "type": "uint16"
        },
        {
          "name": "month",
          "type": "uint8"
        },
        {
          "name": "day",
          "type": "uint8"
        },
        {
          "name": "hour",
          "type": "uint8"
        },
        {
          "name": "minute",
          "type": "uint8"
        }
      ],
      "name": "toTimestamp",
      "outputs": [
        {
          "name": "timestamp",
          "type": "uint256"
        }
      ],
      "payable": false,
      "stateMutability": "pure",
      "type": "function"
    },
    {
      "constant": true,
      "inputs": [
        {
          "name": "year",
          "type": "uint16"
        },
        {
          "name": "month",
          "type": "uint8"
        },
        {
          "name": "day",
          "type": "uint8"
        }
      ],
      "name": "toTimestamp",
      "outputs": [
        {
          "name": "timestamp",
          "type": "uint256"
        }
      ],
      "payable": false,
      "stateMutability": "pure",
      "type": "function"
    }
  ],
  "bytecode": "0x6060604052341561000f57600080fd5b610b398061001e6000396000f3006060604052600436106100d0576000357c0100000000000000000000000000000000000000000000000000000000900463ffffffff1680633e239e1a146100d55780634ac1ad781461010157806362ba96871461012d57806365c728401461018d5780636c24d0e6146101b95780637f791833146102125780638aa001fc146102665780638c8d98a01461029257806392d66313146102da578063a324ad2414610306578063b199993714610332578063b8d16dbc1461035e578063be9afac71461038e578063fa93f883146103c3575b600080fd5b6100eb60048080359060200190919050506103ef565b6040518082815260200191505060405180910390f35b610117600480803590602001909190505061041c565b6040518082815260200191505060405180910390f35b610177600480803561ffff1690602001909190803560ff1690602001909190803560ff1690602001909190803560ff1690602001909190803560ff16906020019091905050610443565b6040518082815260200191505060405180910390f35b6101a3600480803590602001909190505061046f565b6040518082815260200191505060405180910390f35b6101fc6004808035906020019091908035906020019091908035906020019091908035906020019091908035906020019091908035906020019091905050610485565b6040518082815260200191505060405180910390f35b610250600480803561ffff1690602001909190803560ff1690602001909190803560ff1690602001909190803560ff169060200190919050506106a6565b6040518082815260200191505060405180910390f35b61027c60048080359060200190919050506106ce565b6040518082815260200191505060405180910390f35b6102c4600480803561ffff1690602001909190803560ff1690602001909190803560ff169060200190919050506106e4565b6040518082815260200191505060405180910390f35b6102f06004808035906020019091905050610709565b6040518082815260200191505060405180910390f35b61031c60048080359060200190919050506107bc565b6040518082815260200191505060405180910390f35b61034860048080359060200190919050506107d2565b6040518082815260200191505060405180910390f35b610374600480803590602001909190505061080b565b604051808215151515815260200191505060405180910390f35b6103ad6004808035906020019091908035906020019091905050610874565b6040518082815260200191505060405180910390f35b6103d9600480803590602001909190505061091f565b6040518082815260200191505060405180910390f35b60006018603c808481151561040057fe5b0481151561040a57fe5b0481151561041457fe5b069050919050565b600060076004620151808481151561043057fe5b040181151561043b57fe5b069050919050565b60006104648661ffff168660ff168660ff168660ff168660ff166000610485565b905095945050505050565b600061047a82610940565b604001519050919050565b600080610490610aa6565b6107b261ffff1691505b888210156104d5576104ab8261080b565b156104be576301e28500830192506104c8565b6301e13380830192505b818060010192505061049a565b601f816000600c811015156104e657fe5b6020020181815250506104f88961080b565b1561051c57601d816001600c8110151561050e57fe5b602002018181525050610537565b601c816001600c8110151561052d57fe5b6020020181815250505b601f816002600c8110151561054857fe5b602002018181525050601e816003600c8110151561056257fe5b602002018181525050601f816004600c8110151561057c57fe5b602002018181525050601e816005600c8110151561059657fe5b602002018181525050601f816006600c811015156105b057fe5b602002018181525050601f816007600c811015156105ca57fe5b602002018181525050601e816008600c811015156105e457fe5b602002018181525050601f816009600c811015156105fe57fe5b602002018181525050601e81600a600c8110151561061857fe5b602002018181525050601f81600b600c8110151561063257fe5b602002018181525050600191505b87821015610674578060018303600c8110151561065957fe5b60200201516201518002830192508180600101925050610640565b6001870362015180028301925085610e10028301925084603c0283019250838301925082925050509695505050505050565b60006106c48561ffff168560ff168560ff168560ff16600080610485565b9050949350505050565b6000603c828115156106dc57fe5b069050919050565b60006107008461ffff168460ff168460ff166000806000610485565b90509392505050565b600080600080600092506301e133808581151561072257fe5b046107b261ffff1601915061073c6107b261ffff166107d2565b6107498361ffff166107d2565b039050806301e285000283019250806107b2830361ffff16036301e1338002830192505b848311156107ad576107856001830361ffff1661080b565b15610798576301e28500830392506107a2565b6301e13380830392505b60018203915061076d565b8161ffff169350505050919050565b60006107c782610940565b602001519050919050565b6000600182039150610190828115156107e757fe5b046064838115156107f457fe5b0460048481151561080157fe5b0403019050919050565b60008060048381151561081a57fe5b0614151561082b576000905061086f565b600060648381151561083957fe5b0614151561084a576001905061086f565b60006101908381151561085957fe5b0614151561086a576000905061086f565b600190505b919050565b600060018314806108855750600383145b806108905750600583145b8061089b5750600783145b806108a65750600883145b806108b15750600a83145b806108bc5750600c83145b156108ca57601f9050610919565b60048314806108d95750600683145b806108e45750600983145b806108ef5750600b83145b156108fd57601e9050610919565b6109068261080b565b1561091457601d9050610919565b601c90505b92915050565b6000603c808381151561092e57fe5b0481151561093857fe5b069050919050565b610948610acf565b6000806000806000935061095b86610709565b8560000181815250506109736107b261ffff166107d2565b61098086600001516107d2565b039250826301e285000284019350826107b261ffff16866000015103036301e133800284019350600191505b600c8260ff161115156109ff576109ca8260ff168660000151610874565b620151800290508584820111156109ed578160ff168560200181815250506109ff565b808401935081806001019250506109ac565b600191505b610a1685602001518660000151610874565b8260ff16111515610a5557858462015180011115610a40578160ff16856040018181525050610a55565b62015180840193508180600101925050610a04565b610a5e866103ef565b856060018181525050610a708661091f565b856080018181525050610a82866106ce565b8560a0018181525050610a948661041c565b8560c001818152505050505050919050565b61018060405190810160405280600c905b6000815260200190600190039081610ab75790505090565b60e0604051908101604052806000815260200160008152602001600081526020016000815260200160008152602001600081526020016000815250905600a165627a7a72305820154c5ba086ed74c7a0efe2cb151be1d70ab0d34fea471955d7aaa0ba5fb9dfb10029",
  "source": "pragma solidity ^0.4.18;\r\n\r\nlibrary DateTime {\r\n  //contract date{\r\n      \r\n        \r\n        struct _DateTime {\r\n                uint256 year;\r\n                uint256 month;\r\n                uint256 day;\r\n                uint256 hour;\r\n                uint256 minute;\r\n                uint256 second;\r\n                uint256 weekday;\r\n        }\r\n\r\n        uint constant DAY_IN_SECONDS = 86400;\r\n        uint constant YEAR_IN_SECONDS = 31536000;\r\n        uint constant LEAP_YEAR_IN_SECONDS = 31622400;\r\n\r\n        uint constant HOUR_IN_SECONDS = 3600;\r\n        uint constant MINUTE_IN_SECONDS = 60;\r\n\r\n        uint16 constant ORIGIN_YEAR = 1970;\r\n\r\n        function isLeapYear(uint256 year) public pure returns (bool) {\r\n                if (year % 4 != 0) {\r\n                        return false;\r\n                }\r\n                if (year % 100 != 0) {\r\n                        return true;\r\n                }\r\n                if (year % 400 != 0) {\r\n                        return false;\r\n                }\r\n                return true;\r\n        }\r\n\r\n        function leapYearsBefore(uint year) public pure returns (uint) {\r\n              year -= 1;\r\n                return year / 4 - year / 100 + year / 400;\r\n        }\r\n\r\n        function getDaysInMonth(uint256 month, uint256 year) public pure returns (uint256) {\r\n                if (month == 1 || month == 3 || month == 5 || month == 7 || month == 8 || month == 10 || month == 12) {\r\n                        return 31;\r\n                }\r\n                else if (month == 4 || month == 6 || month == 9 || month == 11) {\r\n                        return 30;\r\n                }\r\n                else if (isLeapYear(year)) {\r\n                        return 29;\r\n                }\r\n                else {\r\n                        return 28;\r\n                }\r\n        }\r\n\r\n        function parseTimestamp(uint timestamp) internal pure returns (_DateTime dt) {\r\n                uint secondsAccountedFor = 0;\r\n                uint buf;\r\n                uint8 i;\r\n\r\n                // Year\r\n                dt.year = getYear(timestamp);\r\n                buf = leapYearsBefore(dt.year) - leapYearsBefore(ORIGIN_YEAR);\r\n\r\n                secondsAccountedFor += LEAP_YEAR_IN_SECONDS * buf;\r\n                secondsAccountedFor += YEAR_IN_SECONDS * (dt.year - ORIGIN_YEAR - buf);\r\n\r\n                // Month\r\n                uint secondsInMonth;\r\n                for (i = 1; i <= 12; i++) {\r\n                        secondsInMonth = DAY_IN_SECONDS * getDaysInMonth(i, dt.year);\r\n                        if (secondsInMonth + secondsAccountedFor > timestamp) {\r\n                                dt.month = i;\r\n                                break;\r\n                        }\r\n                        secondsAccountedFor += secondsInMonth;\r\n                }\r\n\r\n                // Day\r\n                for (i = 1; i <= getDaysInMonth(dt.month, dt.year); i++) {\r\n                        if (DAY_IN_SECONDS + secondsAccountedFor > timestamp) {\r\n                                dt.day = i;\r\n                                break;\r\n                        }\r\n                        secondsAccountedFor += DAY_IN_SECONDS;\r\n                }\r\n\r\n                // Hour\r\n                dt.hour = getHour(timestamp);\r\n\r\n                // Minute\r\n                dt.minute = getMinute(timestamp);\r\n\r\n                // Second\r\n                dt.second = getSecond(timestamp);\r\n\r\n                // Day of week.\r\n                dt.weekday = getWeekday(timestamp);\r\n        }\r\n\r\n        function getYear(uint timestamp) public pure returns (uint256) {\r\n                uint secondsAccountedFor = 0;\r\n                uint16 year;\r\n                uint numLeapYears;\r\n\r\n                // Year\r\n                year = uint16(ORIGIN_YEAR + timestamp / YEAR_IN_SECONDS);\r\n                numLeapYears = leapYearsBefore(year) - leapYearsBefore(ORIGIN_YEAR);\r\n\r\n                secondsAccountedFor += LEAP_YEAR_IN_SECONDS * numLeapYears;\r\n                secondsAccountedFor += YEAR_IN_SECONDS * (year - ORIGIN_YEAR - numLeapYears);\r\n\r\n                while (secondsAccountedFor > timestamp) {\r\n                        if (isLeapYear(uint16(year - 1))) {\r\n                                secondsAccountedFor -= LEAP_YEAR_IN_SECONDS;\r\n                        }\r\n                        else {\r\n                                secondsAccountedFor -= YEAR_IN_SECONDS;\r\n                        }\r\n                        year -= 1;\r\n                }\r\n                return year;\r\n        }\r\n\r\n        function getMonth(uint timestamp) public pure returns (uint256) {\r\n                return parseTimestamp(timestamp).month;\r\n        }\r\n\r\n        function getDay(uint timestamp) public pure returns (uint256) {\r\n                return parseTimestamp(timestamp).day;\r\n        }\r\n\r\n        function getHour(uint timestamp) public pure returns (uint256) {\r\n                return uint256((timestamp / 60 / 60) % 24);\r\n        }\r\n\r\n        function getMinute(uint timestamp) public pure returns (uint256) {\r\n                return uint256((timestamp / 60) % 60);\r\n        }\r\n\r\n        function getSecond(uint timestamp) public pure returns (uint256) {\r\n                return uint256(timestamp % 60);\r\n        }\r\n\r\n        function getWeekday(uint timestamp) public pure returns (uint256) {\r\n                return uint256((timestamp / DAY_IN_SECONDS + 4) % 7);\r\n        }\r\n\r\n        function toTimestamp(uint16 year, uint8 month, uint8 day) public pure returns (uint timestamp) {\r\n                return toTimestamp(year, month, day, 0, 0, 0);\r\n        }\r\n\r\n        function toTimestamp(uint16 year, uint8 month, uint8 day, uint8 hour) public pure returns (uint timestamp) {\r\n                return toTimestamp(year, month, day, hour, 0, 0);\r\n        }\r\n\r\n        function toTimestamp(uint16 year, uint8 month, uint8 day, uint8 hour, uint8 minute) public pure returns (uint timestamp) {\r\n                return toTimestamp(year, month, day, hour, minute, 0);\r\n        }\r\n\r\n        function toTimestamp(uint256 year, uint256 month, uint256 day, uint256 hour, uint256 minute, uint256 second) public pure returns (uint timestamp) {\r\n                uint256 i;\r\n\r\n                // Year\r\n                for (i = ORIGIN_YEAR; i < year; i++) {\r\n                        if (isLeapYear(i)) {\r\n                                timestamp += LEAP_YEAR_IN_SECONDS;\r\n                        }\r\n                        else {\r\n                                timestamp += YEAR_IN_SECONDS;\r\n                        }\r\n                }\r\n\r\n                // Month\r\n                uint256[12] memory monthDayCounts;\r\n                monthDayCounts[0] = 31;\r\n                if (isLeapYear(year)) {\r\n                        monthDayCounts[1] = 29;\r\n                }\r\n                else {\r\n                        monthDayCounts[1] = 28;\r\n                }\r\n                monthDayCounts[2] = 31;\r\n                monthDayCounts[3] = 30;\r\n                monthDayCounts[4] = 31;\r\n                monthDayCounts[5] = 30;\r\n                monthDayCounts[6] = 31;\r\n                monthDayCounts[7] = 31;\r\n                monthDayCounts[8] = 30;\r\n                monthDayCounts[9] = 31;\r\n                monthDayCounts[10] = 30;\r\n                monthDayCounts[11] = 31;\r\n\r\n                for (i = 1; i < month; i++) {\r\n                        timestamp += DAY_IN_SECONDS * monthDayCounts[i - 1];\r\n                }\r\n\r\n                // Day\r\n                timestamp += DAY_IN_SECONDS * (day - 1);\r\n\r\n                // Hour\r\n                timestamp += HOUR_IN_SECONDS * (hour);\r\n\r\n                // Minute\r\n                timestamp += MINUTE_IN_SECONDS * (minute);\r\n\r\n                // Second\r\n                timestamp += second;\r\n\r\n                return timestamp;\r\n        }\r\n}",
  "sourcePath": "C:\\Users\\Balavignesh.0856\\Desktop\\GIT\\Mutual-Funds\\contracts\\Timing.sol",
  "compiler": {
    "name": "solc",
    "version": "0.4.19+commit.c4cbbb05.Emscripten.clang"
  },
  "schemaVersion": "2.0.0",
  "updatedAt": "2018-03-28T06:30:19.120Z"
}