{
  "contractName": "DMF",
  "abi": [
    {
      "constant": true,
      "inputs": [],
      "name": "etherCalculation",
      "outputs": [
        {
          "name": "",
          "type": "uint256"
        }
      ],
      "payable": false,
      "stateMutability": "view",
      "type": "function"
    },
    {
      "constant": true,
      "inputs": [],
      "name": "takecommission",
      "outputs": [
        {
          "name": "",
          "type": "uint256"
        }
      ],
      "payable": false,
      "stateMutability": "view",
      "type": "function"
    },
    {
      "constant": true,
      "inputs": [],
      "name": "TR",
      "outputs": [
        {
          "name": "",
          "type": "uint256"
        }
      ],
      "payable": false,
      "stateMutability": "view",
      "type": "function"
    },
    {
      "constant": true,
      "inputs": [
        {
          "name": "",
          "type": "uint256"
        }
      ],
      "name": "TotalInvestorAddress",
      "outputs": [
        {
          "name": "",
          "type": "address"
        }
      ],
      "payable": false,
      "stateMutability": "view",
      "type": "function"
    },
    {
      "constant": true,
      "inputs": [],
      "name": "InvestersTotalToken",
      "outputs": [
        {
          "name": "",
          "type": "uint256"
        }
      ],
      "payable": false,
      "stateMutability": "view",
      "type": "function"
    },
    {
      "constant": true,
      "inputs": [],
      "name": "calculations",
      "outputs": [
        {
          "name": "",
          "type": "uint256"
        }
      ],
      "payable": false,
      "stateMutability": "view",
      "type": "function"
    },
    {
      "constant": true,
      "inputs": [
        {
          "name": "",
          "type": "uint256"
        }
      ],
      "name": "ToatlportfolioMAddress",
      "outputs": [
        {
          "name": "",
          "type": "address"
        }
      ],
      "payable": false,
      "stateMutability": "view",
      "type": "function"
    },
    {
      "constant": true,
      "inputs": [],
      "name": "Pendingreturnaddress",
      "outputs": [
        {
          "name": "",
          "type": "address"
        }
      ],
      "payable": false,
      "stateMutability": "view",
      "type": "function"
    },
    {
      "constant": true,
      "inputs": [
        {
          "name": "",
          "type": "address"
        },
        {
          "name": "",
          "type": "address"
        }
      ],
      "name": "invester",
      "outputs": [
        {
          "name": "buyer",
          "type": "address"
        },
        {
          "name": "Eth",
          "type": "uint256"
        },
        {
          "name": "TokenCount",
          "type": "uint256"
        }
      ],
      "payable": false,
      "stateMutability": "view",
      "type": "function"
    },
    {
      "constant": true,
      "inputs": [],
      "name": "m2",
      "outputs": [
        {
          "name": "",
          "type": "address"
        }
      ],
      "payable": false,
      "stateMutability": "view",
      "type": "function"
    },
    {
      "constant": true,
      "inputs": [],
      "name": "PortfolioManagerprofit",
      "outputs": [
        {
          "name": "",
          "type": "uint256"
        }
      ],
      "payable": false,
      "stateMutability": "view",
      "type": "function"
    },
    {
      "constant": true,
      "inputs": [],
      "name": "newadd",
      "outputs": [
        {
          "name": "",
          "type": "address"
        }
      ],
      "payable": false,
      "stateMutability": "view",
      "type": "function"
    },
    {
      "constant": true,
      "inputs": [],
      "name": "m1",
      "outputs": [
        {
          "name": "",
          "type": "address"
        }
      ],
      "payable": false,
      "stateMutability": "view",
      "type": "function"
    },
    {
      "constant": true,
      "inputs": [
        {
          "name": "",
          "type": "address"
        }
      ],
      "name": "PM_soldTK_Ether",
      "outputs": [
        {
          "name": "",
          "type": "uint256"
        }
      ],
      "payable": false,
      "stateMutability": "view",
      "type": "function"
    },
    {
      "constant": true,
      "inputs": [],
      "name": "Token",
      "outputs": [
        {
          "name": "",
          "type": "address"
        }
      ],
      "payable": false,
      "stateMutability": "view",
      "type": "function"
    },
    {
      "constant": true,
      "inputs": [
        {
          "name": "",
          "type": "address"
        }
      ],
      "name": "Investment",
      "outputs": [
        {
          "name": "buyer",
          "type": "address"
        },
        {
          "name": "Eth",
          "type": "uint256"
        },
        {
          "name": "TokenCount",
          "type": "uint256"
        }
      ],
      "payable": false,
      "stateMutability": "view",
      "type": "function"
    },
    {
      "constant": true,
      "inputs": [
        {
          "name": "",
          "type": "address"
        }
      ],
      "name": "Portfolio",
      "outputs": [
        {
          "name": "portfolioM",
          "type": "address"
        },
        {
          "name": "Eth",
          "type": "uint256"
        },
        {
          "name": "tokenName",
          "type": "string"
        },
        {
          "name": "count1",
          "type": "uint256"
        },
        {
          "name": "count2",
          "type": "uint256"
        },
        {
          "name": "commissionForPortfolio",
          "type": "uint256"
        }
      ],
      "payable": false,
      "stateMutability": "view",
      "type": "function"
    },
    {
      "constant": true,
      "inputs": [
        {
          "name": "",
          "type": "address"
        },
        {
          "name": "",
          "type": "address"
        }
      ],
      "name": "Market",
      "outputs": [
        {
          "name": "contractAdd",
          "type": "address"
        },
        {
          "name": "name",
          "type": "string"
        },
        {
          "name": "symbol",
          "type": "string"
        },
        {
          "name": "decimal",
          "type": "uint256"
        },
        {
          "name": "totalbuycount",
          "type": "uint256"
        }
      ],
      "payable": false,
      "stateMutability": "view",
      "type": "function"
    },
    {
      "inputs": [
        {
          "name": "na",
          "type": "address"
        },
        {
          "name": "Mark1",
          "type": "address"
        },
        {
          "name": "Mark2",
          "type": "address"
        }
      ],
      "payable": true,
      "stateMutability": "payable",
      "type": "constructor"
    },
    {
      "constant": false,
      "inputs": [],
      "name": "PortfolioReg",
      "outputs": [],
      "payable": true,
      "stateMutability": "payable",
      "type": "function"
    },
    {
      "constant": true,
      "inputs": [],
      "name": "GetBal",
      "outputs": [
        {
          "name": "",
          "type": "uint256"
        }
      ],
      "payable": false,
      "stateMutability": "view",
      "type": "function"
    },
    {
      "constant": true,
      "inputs": [],
      "name": "getContractaddress",
      "outputs": [
        {
          "name": "",
          "type": "address"
        }
      ],
      "payable": false,
      "stateMutability": "view",
      "type": "function"
    },
    {
      "constant": false,
      "inputs": [
        {
          "name": "_add_",
          "type": "address"
        }
      ],
      "name": "InvesterGetToken",
      "outputs": [],
      "payable": true,
      "stateMutability": "payable",
      "type": "function"
    },
    {
      "constant": true,
      "inputs": [],
      "name": "getBalance",
      "outputs": [
        {
          "name": "",
          "type": "uint256"
        }
      ],
      "payable": false,
      "stateMutability": "view",
      "type": "function"
    },
    {
      "constant": false,
      "inputs": [],
      "name": "Dividends",
      "outputs": [],
      "payable": false,
      "stateMutability": "nonpayable",
      "type": "function"
    },
    {
      "constant": true,
      "inputs": [],
      "name": "getAllBalance",
      "outputs": [
        {
          "name": "",
          "type": "uint256"
        }
      ],
      "payable": false,
      "stateMutability": "view",
      "type": "function"
    },
    {
      "constant": false,
      "inputs": [
        {
          "name": "_add_",
          "type": "address"
        },
        {
          "name": "value",
          "type": "uint256"
        }
      ],
      "name": "ReturnTokenToPortfolioManager",
      "outputs": [],
      "payable": true,
      "stateMutability": "payable",
      "type": "function"
    },
    {
      "constant": true,
      "inputs": [],
      "name": "PortfolioManagerList",
      "outputs": [
        {
          "name": "",
          "type": "address"
        }
      ],
      "payable": false,
      "stateMutability": "view",
      "type": "function"
    },
    {
      "constant": false,
      "inputs": [
        {
          "name": "_contractadd",
          "type": "address"
        },
        {
          "name": "_name",
          "type": "string"
        },
        {
          "name": "_symbol",
          "type": "string"
        },
        {
          "name": "_totacount",
          "type": "uint256"
        }
      ],
      "name": "PurchasingMarket1token",
      "outputs": [],
      "payable": false,
      "stateMutability": "nonpayable",
      "type": "function"
    },
    {
      "constant": false,
      "inputs": [
        {
          "name": "_contractadd",
          "type": "address"
        },
        {
          "name": "_name",
          "type": "string"
        },
        {
          "name": "_symbol",
          "type": "string"
        },
        {
          "name": "_totacount",
          "type": "uint256"
        }
      ],
      "name": "PurchasingMarket2token",
      "outputs": [],
      "payable": false,
      "stateMutability": "nonpayable",
      "type": "function"
    },
    {
      "constant": true,
      "inputs": [],
      "name": "DisplayPurchasedTK1",
      "outputs": [
        {
          "name": "",
          "type": "address"
        },
        {
          "name": "",
          "type": "string"
        },
        {
          "name": "",
          "type": "string"
        },
        {
          "name": "",
          "type": "uint256"
        },
        {
          "name": "",
          "type": "uint256"
        }
      ],
      "payable": false,
      "stateMutability": "view",
      "type": "function"
    },
    {
      "constant": true,
      "inputs": [],
      "name": "DisplayPurchasedTK2",
      "outputs": [
        {
          "name": "",
          "type": "address"
        },
        {
          "name": "",
          "type": "string"
        },
        {
          "name": "",
          "type": "string"
        },
        {
          "name": "",
          "type": "uint256"
        },
        {
          "name": "",
          "type": "uint256"
        }
      ],
      "payable": false,
      "stateMutability": "view",
      "type": "function"
    },
    {
      "constant": true,
      "inputs": [
        {
          "name": "a",
          "type": "address"
        }
      ],
      "name": "listOfPortfolioManager",
      "outputs": [
        {
          "name": "",
          "type": "address"
        },
        {
          "name": "",
          "type": "uint256"
        },
        {
          "name": "",
          "type": "uint256"
        },
        {
          "name": "",
          "type": "uint256"
        },
        {
          "name": "",
          "type": "uint256"
        }
      ],
      "payable": false,
      "stateMutability": "view",
      "type": "function"
    },
    {
      "constant": true,
      "inputs": [],
      "name": "Pcount",
      "outputs": [
        {
          "name": "",
          "type": "uint256"
        }
      ],
      "payable": false,
      "stateMutability": "view",
      "type": "function"
    },
    {
      "constant": true,
      "inputs": [
        {
          "name": "a",
          "type": "uint256"
        }
      ],
      "name": "getPortfolioAddress",
      "outputs": [
        {
          "name": "",
          "type": "address"
        }
      ],
      "payable": false,
      "stateMutability": "view",
      "type": "function"
    },
    {
      "constant": true,
      "inputs": [
        {
          "name": "a",
          "type": "uint256"
        },
        {
          "name": "a1",
          "type": "uint256"
        }
      ],
      "name": "getInvesterAddress",
      "outputs": [
        {
          "name": "",
          "type": "address"
        },
        {
          "name": "",
          "type": "address"
        }
      ],
      "payable": false,
      "stateMutability": "view",
      "type": "function"
    },
    {
      "constant": true,
      "inputs": [],
      "name": "Icount",
      "outputs": [
        {
          "name": "",
          "type": "uint256"
        }
      ],
      "payable": false,
      "stateMutability": "view",
      "type": "function"
    }
  ],
  "bytecode": "0x606060405266038d7ea4c6800060045567016345785d8a00006005556064600655600a600755600060085560006009556040516060806200584c8339810160405280805190602001909190805190602001909190805190602001909190505033601160006101000a81548173ffffffffffffffffffffffffffffffffffffffff021916908373ffffffffffffffffffffffffffffffffffffffff16021790555030601260006101000a81548173ffffffffffffffffffffffffffffffffffffffff021916908373ffffffffffffffffffffffffffffffffffffffff160217905550620000ea620002d2565b604051809103906000f08015156200010157600080fd5b6000806101000a81548173ffffffffffffffffffffffffffffffffffffffff021916908373ffffffffffffffffffffffffffffffffffffffff16021790555082600f60006101000a81548173ffffffffffffffffffffffffffffffffffffffff021916908373ffffffffffffffffffffffffffffffffffffffff16021790555081600d60006101000a81548173ffffffffffffffffffffffffffffffffffffffff021916908373ffffffffffffffffffffffffffffffffffffffff16021790555080600e60006101000a81548173ffffffffffffffffffffffffffffffffffffffff021916908373ffffffffffffffffffffffffffffffffffffffff160217905550600e60009054906101000a900473ffffffffffffffffffffffffffffffffffffffff16600260006101000a81548173ffffffffffffffffffffffffffffffffffffffff021916908373ffffffffffffffffffffffffffffffffffffffff160217905550600d60009054906101000a900473ffffffffffffffffffffffffffffffffffffffff16600160006101000a81548173ffffffffffffffffffffffffffffffffffffffff021916908373ffffffffffffffffffffffffffffffffffffffff160217905550505050620002e3565b6040516111c4806200468883390190565b61439580620002f36000396000f3006060604052600436106101c2576000357c0100000000000000000000000000000000000000000000000000000000900463ffffffff16806308306bb2146101c75780630c593ca11461022a5780630d0e242f146102f257806312065fe01461031b578063208345ea146103445780632722271f1461036d57806331e69acb1461037757806334133df9146103a057806336c38cc7146103c95780633989d2601461042c5780633d71473b1461045557806352aa83821461047e5780637691edc4146104e1578063822bdca7146105a95780638321e9cf146106485780639074a6551461069d57806391aa69ca14610743578063971c34281461079857806398d50eae146107c15780639e9c5f91146107ea578063a77f92ff1461083f578063b759c28e14610894578063b9392a60146108e9578063ba04fa8d14610a24578063bf8869b514610a71578063c241267614610a9a578063c53dd11c14610aef578063c76f1bba14610b26578063d4691adc14610bbb578063d789824014610c10578063de85406514610c97578063e2aa68dd14610d98578063eb9969a814610ed3578063ed88b05c14610efc578063f15f14c51461107a578063f93498c41461108f575b600080fd5b34156101d257600080fd5b6101e860048080359060200190919050506110bd565b604051808273ffffffffffffffffffffffffffffffffffffffff1673ffffffffffffffffffffffffffffffffffffffff16815260200191505060405180910390f35b341561023557600080fd5b6102f0600480803573ffffffffffffffffffffffffffffffffffffffff1690602001909190803590602001908201803590602001908080601f0160208091040260200160405190810160405280939291908181526020018383808284378201915050505050509190803590602001908201803590602001908080601f01602080910402602001604051908101604052809392919081815260200183838082843782019150505050505091908035906020019091905050611101565b005b34156102fd57600080fd5b610305611620565b6040518082815260200191505060405180910390f35b341561032657600080fd5b61032e61162d565b6040518082815260200191505060405180910390f35b341561034f57600080fd5b610357611742565b6040518082815260200191505060405180910390f35b610375611748565b005b341561038257600080fd5b61038a611982565b6040518082815260200191505060405180910390f35b34156103ab57600080fd5b6103b3611988565b6040518082815260200191505060405180910390f35b34156103d457600080fd5b6103ea600480803590602001909190505061198e565b604051808273ffffffffffffffffffffffffffffffffffffffff1673ffffffffffffffffffffffffffffffffffffffff16815260200191505060405180910390f35b341561043757600080fd5b61043f6119cd565b6040518082815260200191505060405180910390f35b341561046057600080fd5b6104686119d3565b6040518082815260200191505060405180910390f35b341561048957600080fd5b61049f60048080359060200190919050506119d9565b604051808273ffffffffffffffffffffffffffffffffffffffff1673ffffffffffffffffffffffffffffffffffffffff16815260200191505060405180910390f35b34156104ec57600080fd5b6105a7600480803573ffffffffffffffffffffffffffffffffffffffff1690602001909190803590602001908201803590602001908080601f0160208091040260200160405190810160405280939291908181526020018383808284378201915050505050509190803590602001908201803590602001908080601f01602080910402602001604051908101604052809392919081815260200183838082843782019150505050505091908035906020019091905050611a18565b005b34156105b457600080fd5b6105d36004808035906020019091908035906020019091905050611f37565b604051808373ffffffffffffffffffffffffffffffffffffffff1673ffffffffffffffffffffffffffffffffffffffff1681526020018273ffffffffffffffffffffffffffffffffffffffff1673ffffffffffffffffffffffffffffffffffffffff1681526020019250505060405180910390f35b341561065357600080fd5b61065b611fbb565b604051808273ffffffffffffffffffffffffffffffffffffffff1673ffffffffffffffffffffffffffffffffffffffff16815260200191505060405180910390f35b34156106a857600080fd5b6106f3600480803573ffffffffffffffffffffffffffffffffffffffff1690602001909190803573ffffffffffffffffffffffffffffffffffffffff16906020019091905050611fe1565b604051808473ffffffffffffffffffffffffffffffffffffffff1673ffffffffffffffffffffffffffffffffffffffff168152602001838152602001828152602001935050505060405180910390f35b341561074e57600080fd5b610756612038565b604051808273ffffffffffffffffffffffffffffffffffffffff1673ffffffffffffffffffffffffffffffffffffffff16815260200191505060405180910390f35b34156107a357600080fd5b6107ab61205e565b6040518082815260200191505060405180910390f35b34156107cc57600080fd5b6107d4612064565b6040518082815260200191505060405180910390f35b34156107f557600080fd5b6107fd612071565b604051808273ffffffffffffffffffffffffffffffffffffffff1673ffffffffffffffffffffffffffffffffffffffff16815260200191505060405180910390f35b341561084a57600080fd5b610852612097565b604051808273ffffffffffffffffffffffffffffffffffffffff1673ffffffffffffffffffffffffffffffffffffffff16815260200191505060405180910390f35b341561089f57600080fd5b6108a76120bd565b604051808273ffffffffffffffffffffffffffffffffffffffff1673ffffffffffffffffffffffffffffffffffffffff16815260200191505060405180910390f35b34156108f457600080fd5b6108fc612118565b604051808673ffffffffffffffffffffffffffffffffffffffff1673ffffffffffffffffffffffffffffffffffffffff1681526020018060200180602001858152602001848152602001838103835287818151815260200191508051906020019080838360005b8381101561097e578082015181840152602081019050610963565b50505050905090810190601f1680156109ab5780820380516001836020036101000a031916815260200191505b50838103825286818151815260200191508051906020019080838360005b838110156109e45780820151818401526020810190506109c9565b50505050905090810190601f168015610a115780820380516001836020036101000a031916815260200191505b5097505050505050505060405180910390f35b3415610a2f57600080fd5b610a5b600480803573ffffffffffffffffffffffffffffffffffffffff16906020019091905050612535565b6040518082815260200191505060405180910390f35b3415610a7c57600080fd5b610a8461254d565b6040518082815260200191505060405180910390f35b3415610aa557600080fd5b610aad612586565b604051808273ffffffffffffffffffffffffffffffffffffffff1673ffffffffffffffffffffffffffffffffffffffff16815260200191505060405180910390f35b610b24600480803573ffffffffffffffffffffffffffffffffffffffff169060200190919080359060200190919050506125ab565b005b3415610b3157600080fd5b610b5d600480803573ffffffffffffffffffffffffffffffffffffffff16906020019091905050612abe565b604051808673ffffffffffffffffffffffffffffffffffffffff1673ffffffffffffffffffffffffffffffffffffffff1681526020018581526020018481526020018381526020018281526020019550505050505060405180910390f35b3415610bc657600080fd5b610bce612d95565b604051808273ffffffffffffffffffffffffffffffffffffffff1673ffffffffffffffffffffffffffffffffffffffff16815260200191505060405180910390f35b3415610c1b57600080fd5b610c47600480803573ffffffffffffffffffffffffffffffffffffffff16906020019091905050612dbf565b604051808473ffffffffffffffffffffffffffffffffffffffff1673ffffffffffffffffffffffffffffffffffffffff168152602001838152602001828152602001935050505060405180910390f35b3415610ca257600080fd5b610cce600480803573ffffffffffffffffffffffffffffffffffffffff16906020019091905050612e09565b604051808773ffffffffffffffffffffffffffffffffffffffff1673ffffffffffffffffffffffffffffffffffffffff16815260200186815260200180602001858152602001848152602001838152602001828103825286818151815260200191508051906020019080838360005b83811015610d58578082015181840152602081019050610d3d565b50505050905090810190601f168015610d855780820380516001836020036101000a031916815260200191505b5097505050505050505060405180910390f35b3415610da357600080fd5b610dab612efd565b604051808673ffffffffffffffffffffffffffffffffffffffff1673ffffffffffffffffffffffffffffffffffffffff1681526020018060200180602001858152602001848152602001838103835287818151815260200191508051906020019080838360005b83811015610e2d578082015181840152602081019050610e12565b50505050905090810190601f168015610e5a5780820380516001836020036101000a031916815260200191505b50838103825286818151815260200191508051906020019080838360005b83811015610e93578082015181840152602081019050610e78565b50505050905090810190601f168015610ec05780820380516001836020036101000a031916815260200191505b5097505050505050505060405180910390f35b3415610ede57600080fd5b610ee661331a565b6040518082815260200191505060405180910390f35b3415610f0757600080fd5b610f52600480803573ffffffffffffffffffffffffffffffffffffffff1690602001909190803573ffffffffffffffffffffffffffffffffffffffff169060200190919050506133f4565b604051808673ffffffffffffffffffffffffffffffffffffffff1673ffffffffffffffffffffffffffffffffffffffff1681526020018060200180602001858152602001848152602001838103835287818151815260200191508051906020019080838360005b83811015610fd4578082015181840152602081019050610fb9565b50505050905090810190601f1680156110015780820380516001836020036101000a031916815260200191505b50838103825286818151815260200191508051906020019080838360005b8381101561103a57808201518184015260208101905061101f565b50505050905090810190601f1680156110675780820380516001836020036101000a031916815260200191505b5097505050505050505060405180910390f35b341561108557600080fd5b61108d613587565b005b6110bb600480803573ffffffffffffffffffffffffffffffffffffffff16906020019091905050613696565b005b60006013828154811015156110ce57fe5b906000526020600020900160009054906101000a900473ffffffffffffffffffffffffffffffffffffffff169050919050565b6000806000601960003373ffffffffffffffffffffffffffffffffffffffff1673ffffffffffffffffffffffffffffffffffffffff16815260200190815260200160002054925061116367016345785d8a000085613d7790919063ffffffff16565b9150611180670de0b6b3a764000083613da890919063ffffffff16565b600b81905550600b548311151561119657600080fd5b600d60009054906101000a900473ffffffffffffffffffffffffffffffffffffffff1673ffffffffffffffffffffffffffffffffffffffff16622625a083604051600060405180830381858888f193505050505085601860003373ffffffffffffffffffffffffffffffffffffffff1673ffffffffffffffffffffffffffffffffffffffff16815260200190815260200160002060008973ffffffffffffffffffffffffffffffffffffffff1673ffffffffffffffffffffffffffffffffffffffff168152602001908152602001600020600101908051906020019061127d929190614258565b5084601860003373ffffffffffffffffffffffffffffffffffffffff1673ffffffffffffffffffffffffffffffffffffffff16815260200190815260200160002060008973ffffffffffffffffffffffffffffffffffffffff1673ffffffffffffffffffffffffffffffffffffffff1681526020019081526020016000206002019080519060200190611311929190614258565b506000601860003373ffffffffffffffffffffffffffffffffffffffff1673ffffffffffffffffffffffffffffffffffffffff16815260200190815260200160002060008973ffffffffffffffffffffffffffffffffffffffff1673ffffffffffffffffffffffffffffffffffffffff1681526020019081526020016000206003018190555083601860003373ffffffffffffffffffffffffffffffffffffffff1673ffffffffffffffffffffffffffffffffffffffff16815260200190815260200160002060008973ffffffffffffffffffffffffffffffffffffffff1673ffffffffffffffffffffffffffffffffffffffff1681526020019081526020016000206004018190555086601860003373ffffffffffffffffffffffffffffffffffffffff1673ffffffffffffffffffffffffffffffffffffffff16815260200190815260200160002060008973ffffffffffffffffffffffffffffffffffffffff1673ffffffffffffffffffffffffffffffffffffffff16815260200190815260200160002060000160006101000a81548173ffffffffffffffffffffffffffffffffffffffff021916908373ffffffffffffffffffffffffffffffffffffffff16021790555085601560003373ffffffffffffffffffffffffffffffffffffffff1673ffffffffffffffffffffffffffffffffffffffff168152602001908152602001600020600201908051906020019061152f929190614258565b5083601560003373ffffffffffffffffffffffffffffffffffffffff1673ffffffffffffffffffffffffffffffffffffffff168152602001908152602001600020600301819055506115ce600b54601560003373ffffffffffffffffffffffffffffffffffffffff1673ffffffffffffffffffffffffffffffffffffffff16815260200190815260200160002060010154613dcc90919063ffffffff16565b905080601560003373ffffffffffffffffffffffffffffffffffffffff1673ffffffffffffffffffffffffffffffffffffffff1681526020019081526020016000206001018190555050505050505050565b6000601480549050905090565b6000600f60009054906101000a900473ffffffffffffffffffffffffffffffffffffffff1673ffffffffffffffffffffffffffffffffffffffff166370a082316014600081548110151561167d57fe5b906000526020600020900160009054906101000a900473ffffffffffffffffffffffffffffffffffffffff166040518263ffffffff167c0100000000000000000000000000000000000000000000000000000000028152600401808273ffffffffffffffffffffffffffffffffffffffff1673ffffffffffffffffffffffffffffffffffffffff168152602001915050602060405180830381600087803b151561172657600080fd5b5af1151561173357600080fd5b50505060405180519050905090565b600c5481565b600080600033601560003373ffffffffffffffffffffffffffffffffffffffff1673ffffffffffffffffffffffffffffffffffffffff16815260200190815260200160002060000160006101000a81548173ffffffffffffffffffffffffffffffffffffffff021916908373ffffffffffffffffffffffffffffffffffffffff1602179055506117e9670de0b6b3a764000034613da890919063ffffffff16565b92506118126064611804600a86613d7790919063ffffffff16565b613da890919063ffffffff16565b915061182982600a54613de890919063ffffffff16565b600a819055506118428284613dcc90919063ffffffff16565b905061189981601560003373ffffffffffffffffffffffffffffffffffffffff1673ffffffffffffffffffffffffffffffffffffffff16815260200190815260200160002060010154613de890919063ffffffff16565b601560003373ffffffffffffffffffffffffffffffffffffffff1673ffffffffffffffffffffffffffffffffffffffff1681526020019081526020016000206001018190555061193181601960003373ffffffffffffffffffffffffffffffffffffffff1673ffffffffffffffffffffffffffffffffffffffff16815260200190815260200160002054613de890919063ffffffff16565b601960003373ffffffffffffffffffffffffffffffffffffffff1673ffffffffffffffffffffffffffffffffffffffff1681526020019081526020016000208190555061197d34613e04565b505050565b600a5481565b60035481565b60148181548110151561199d57fe5b90600052602060002090016000915054906101000a900473ffffffffffffffffffffffffffffffffffffffff1681565b60095481565b600b5481565b6013818154811015156119e857fe5b90600052602060002090016000915054906101000a900473ffffffffffffffffffffffffffffffffffffffff1681565b6000806000601960003373ffffffffffffffffffffffffffffffffffffffff1673ffffffffffffffffffffffffffffffffffffffff168152602001908152602001600020549250611a7a67016345785d8a000085613d7790919063ffffffff16565b9150611a97670de0b6b3a764000083613da890919063ffffffff16565b600b81905550600b5483111515611aad57600080fd5b600e60009054906101000a900473ffffffffffffffffffffffffffffffffffffffff1673ffffffffffffffffffffffffffffffffffffffff16622625a083604051600060405180830381858888f193505050505085601860003373ffffffffffffffffffffffffffffffffffffffff1673ffffffffffffffffffffffffffffffffffffffff16815260200190815260200160002060008973ffffffffffffffffffffffffffffffffffffffff1673ffffffffffffffffffffffffffffffffffffffff1681526020019081526020016000206001019080519060200190611b94929190614258565b5084601860003373ffffffffffffffffffffffffffffffffffffffff1673ffffffffffffffffffffffffffffffffffffffff16815260200190815260200160002060008973ffffffffffffffffffffffffffffffffffffffff1673ffffffffffffffffffffffffffffffffffffffff1681526020019081526020016000206002019080519060200190611c28929190614258565b506000601860003373ffffffffffffffffffffffffffffffffffffffff1673ffffffffffffffffffffffffffffffffffffffff16815260200190815260200160002060008973ffffffffffffffffffffffffffffffffffffffff1673ffffffffffffffffffffffffffffffffffffffff1681526020019081526020016000206003018190555083601860003373ffffffffffffffffffffffffffffffffffffffff1673ffffffffffffffffffffffffffffffffffffffff16815260200190815260200160002060008973ffffffffffffffffffffffffffffffffffffffff1673ffffffffffffffffffffffffffffffffffffffff1681526020019081526020016000206004018190555086601860003373ffffffffffffffffffffffffffffffffffffffff1673ffffffffffffffffffffffffffffffffffffffff16815260200190815260200160002060008973ffffffffffffffffffffffffffffffffffffffff1673ffffffffffffffffffffffffffffffffffffffff16815260200190815260200160002060000160006101000a81548173ffffffffffffffffffffffffffffffffffffffff021916908373ffffffffffffffffffffffffffffffffffffffff16021790555085601560003373ffffffffffffffffffffffffffffffffffffffff1673ffffffffffffffffffffffffffffffffffffffff1681526020019081526020016000206002019080519060200190611e46929190614258565b5083601560003373ffffffffffffffffffffffffffffffffffffffff1673ffffffffffffffffffffffffffffffffffffffff16815260200190815260200160002060040181905550611ee5600b54601560003373ffffffffffffffffffffffffffffffffffffffff1673ffffffffffffffffffffffffffffffffffffffff16815260200190815260200160002060010154613dcc90919063ffffffff16565b905080601560003373ffffffffffffffffffffffffffffffffffffffff1673ffffffffffffffffffffffffffffffffffffffff1681526020019081526020016000206001018190555050505050505050565b600080601384815481101515611f4957fe5b906000526020600020900160009054906101000a900473ffffffffffffffffffffffffffffffffffffffff16601484815481101515611f8457fe5b906000526020600020900160009054906101000a900473ffffffffffffffffffffffffffffffffffffffff16915091509250929050565b601060009054906101000a900473ffffffffffffffffffffffffffffffffffffffff1681565b6016602052816000526040600020602052806000526040600020600091509150508060000160009054906101000a900473ffffffffffffffffffffffffffffffffffffffff16908060030154908060040154905083565b600e60009054906101000a900473ffffffffffffffffffffffffffffffffffffffff1681565b60085481565b6000601380549050905090565b601260009054906101000a900473ffffffffffffffffffffffffffffffffffffffff1681565b600d60009054906101000a900473ffffffffffffffffffffffffffffffffffffffff1681565b60008060009050601380549050811015612113576013818154811015156120e057fe5b906000526020600020900160009054906101000a900473ffffffffffffffffffffffffffffffffffffffff169150612114565b5b5090565b60006121226142d8565b61212a6142d8565b600080600080600080601860003373ffffffffffffffffffffffffffffffffffffffff1673ffffffffffffffffffffffffffffffffffffffff1681526020019081526020016000206000600d60009054906101000a900473ffffffffffffffffffffffffffffffffffffffff1673ffffffffffffffffffffffffffffffffffffffff1673ffffffffffffffffffffffffffffffffffffffff1681526020019081526020016000206001019350601860003373ffffffffffffffffffffffffffffffffffffffff1673ffffffffffffffffffffffffffffffffffffffff1681526020019081526020016000206000600d60009054906101000a900473ffffffffffffffffffffffffffffffffffffffff1673ffffffffffffffffffffffffffffffffffffffff1673ffffffffffffffffffffffffffffffffffffffff1681526020019081526020016000206002019250601860003373ffffffffffffffffffffffffffffffffffffffff1673ffffffffffffffffffffffffffffffffffffffff1681526020019081526020016000206000600d60009054906101000a900473ffffffffffffffffffffffffffffffffffffffff1673ffffffffffffffffffffffffffffffffffffffff1673ffffffffffffffffffffffffffffffffffffffff168152602001908152602001600020600301549150601860003373ffffffffffffffffffffffffffffffffffffffff1673ffffffffffffffffffffffffffffffffffffffff1681526020019081526020016000206000600d60009054906101000a900473ffffffffffffffffffffffffffffffffffffffff1673ffffffffffffffffffffffffffffffffffffffff1673ffffffffffffffffffffffffffffffffffffffff168152602001908152602001600020600401549050600d60009054906101000a900473ffffffffffffffffffffffffffffffffffffffff1684848484838054600181600116156101000203166002900480601f01602080910402602001604051908101604052809291908181526020018280546001816001161561010002031660029004801561247d5780601f106124525761010080835404028352916020019161247d565b820191906000526020600020905b81548152906001019060200180831161246057829003601f168201915b50505050509350828054600181600116156101000203166002900480601f0160208091040260200160405190810160405280929190818152602001828054600181600116156101000203166002900480156125195780601f106124ee57610100808354040283529160200191612519565b820191906000526020600020905b8154815290600101906020018083116124fc57829003601f168201915b5050505050925098509850985098509850505050509091929394565b60196020528060005260406000206000915090505481565b6000612581670de0b6b3a76400003073ffffffffffffffffffffffffffffffffffffffff1631613da890919063ffffffff16565b905090565b6000809054906101000a900473ffffffffffffffffffffffffffffffffffffffff1681565b600080600f60009054906101000a900473ffffffffffffffffffffffffffffffffffffffff1673ffffffffffffffffffffffffffffffffffffffff166323b872dd3386866040518463ffffffff167c0100000000000000000000000000000000000000000000000000000000028152600401808473ffffffffffffffffffffffffffffffffffffffff1673ffffffffffffffffffffffffffffffffffffffff1681526020018373ffffffffffffffffffffffffffffffffffffffff1673ffffffffffffffffffffffffffffffffffffffff1681526020018281526020019350505050602060405180830381600087803b15156126a657600080fd5b5af115156126b357600080fd5b50505060405180519050506126d360055484613d7790919063ffffffff16565b60038190555061271461270560646126f7600a600354613d7790919063ffffffff16565b613da890919063ffffffff16565b83613de890919063ffffffff16565b9150612745612734670de0b6b3a764000084613da890919063ffffffff16565b600a54613de890919063ffffffff16565b600a819055506127c86127776064612769600a600354613d7790919063ffffffff16565b613da890919063ffffffff16565b601560008773ffffffffffffffffffffffffffffffffffffffff1673ffffffffffffffffffffffffffffffffffffffff16815260200190815260200160002060050154613de890919063ffffffff16565b601560008673ffffffffffffffffffffffffffffffffffffffff1673ffffffffffffffffffffffffffffffffffffffff168152602001908152602001600020600501819055506128898261287b61286a601560008973ffffffffffffffffffffffffffffffffffffffff1673ffffffffffffffffffffffffffffffffffffffff1681526020019081526020016000206005015486613de890919063ffffffff16565b600354613dcc90919063ffffffff16565b613de890919063ffffffff16565b90508373ffffffffffffffffffffffffffffffffffffffff166108fc601560008773ffffffffffffffffffffffffffffffffffffffff1673ffffffffffffffffffffffffffffffffffffffff168152602001908152602001600020600501549081150290604051600060405180830381858888f19350505050151561290d57600080fd5b601260009054906101000a900473ffffffffffffffffffffffffffffffffffffffff1673ffffffffffffffffffffffffffffffffffffffff16622625a083604051600060405180830381858888f19350505050503373ffffffffffffffffffffffffffffffffffffffff166108fc829081150290604051600060405180830381858888f1935050505015156129a157600080fd5b612a35600354601660003373ffffffffffffffffffffffffffffffffffffffff1673ffffffffffffffffffffffffffffffffffffffff16815260200190815260200160002060008773ffffffffffffffffffffffffffffffffffffffff1673ffffffffffffffffffffffffffffffffffffffff16815260200190815260200160002060030154613dcc90919063ffffffff16565b601660003373ffffffffffffffffffffffffffffffffffffffff1673ffffffffffffffffffffffffffffffffffffffff16815260200190815260200160002060008673ffffffffffffffffffffffffffffffffffffffff1673ffffffffffffffffffffffffffffffffffffffff1681526020019081526020016000206003018190555050505050565b600080600080600080600090505b601380549050811015612d8a57601560008873ffffffffffffffffffffffffffffffffffffffff1673ffffffffffffffffffffffffffffffffffffffff16815260200190815260200160002060000160009054906101000a900473ffffffffffffffffffffffffffffffffffffffff1673ffffffffffffffffffffffffffffffffffffffff168773ffffffffffffffffffffffffffffffffffffffff161415612d7d57601560008873ffffffffffffffffffffffffffffffffffffffff1673ffffffffffffffffffffffffffffffffffffffff16815260200190815260200160002060000160009054906101000a900473ffffffffffffffffffffffffffffffffffffffff16601560008973ffffffffffffffffffffffffffffffffffffffff1673ffffffffffffffffffffffffffffffffffffffff16815260200190815260200160002060010154600f60009054906101000a900473ffffffffffffffffffffffffffffffffffffffff1673ffffffffffffffffffffffffffffffffffffffff166370a082318a6040518263ffffffff167c0100000000000000000000000000000000000000000000000000000000028152600401808273ffffffffffffffffffffffffffffffffffffffff1673ffffffffffffffffffffffffffffffffffffffff168152602001915050602060405180830381600087803b1515612cd157600080fd5b5af11515612cde57600080fd5b50505060405180519050601560008b73ffffffffffffffffffffffffffffffffffffffff1673ffffffffffffffffffffffffffffffffffffffff16815260200190815260200160002060030154601560008c73ffffffffffffffffffffffffffffffffffffffff1673ffffffffffffffffffffffffffffffffffffffff1681526020019081526020016000206004015495509550955095509550612d8b565b8080600101915050612acc565b5b5091939590929450565b6000601260009054906101000a900473ffffffffffffffffffffffffffffffffffffffff16905090565b60176020528060005260406000206000915090508060000160009054906101000a900473ffffffffffffffffffffffffffffffffffffffff16908060030154908060040154905083565b60156020528060005260406000206000915090508060000160009054906101000a900473ffffffffffffffffffffffffffffffffffffffff1690806001015490806002018054600181600116156101000203166002900480601f016020809104026020016040519081016040528092919081815260200182805460018160011615610100020316600290048015612ee15780601f10612eb657610100808354040283529160200191612ee1565b820191906000526020600020905b815481529060010190602001808311612ec457829003601f168201915b5050505050908060030154908060040154908060050154905086565b6000612f076142d8565b612f0f6142d8565b600080600080600080601860003373ffffffffffffffffffffffffffffffffffffffff1673ffffffffffffffffffffffffffffffffffffffff1681526020019081526020016000206000600e60009054906101000a900473ffffffffffffffffffffffffffffffffffffffff1673ffffffffffffffffffffffffffffffffffffffff1673ffffffffffffffffffffffffffffffffffffffff1681526020019081526020016000206001019350601860003373ffffffffffffffffffffffffffffffffffffffff1673ffffffffffffffffffffffffffffffffffffffff1681526020019081526020016000206000600e60009054906101000a900473ffffffffffffffffffffffffffffffffffffffff1673ffffffffffffffffffffffffffffffffffffffff1673ffffffffffffffffffffffffffffffffffffffff1681526020019081526020016000206002019250601860003373ffffffffffffffffffffffffffffffffffffffff1673ffffffffffffffffffffffffffffffffffffffff1681526020019081526020016000206000600e60009054906101000a900473ffffffffffffffffffffffffffffffffffffffff1673ffffffffffffffffffffffffffffffffffffffff1673ffffffffffffffffffffffffffffffffffffffff168152602001908152602001600020600301549150601860003373ffffffffffffffffffffffffffffffffffffffff1673ffffffffffffffffffffffffffffffffffffffff1681526020019081526020016000206000600e60009054906101000a900473ffffffffffffffffffffffffffffffffffffffff1673ffffffffffffffffffffffffffffffffffffffff1673ffffffffffffffffffffffffffffffffffffffff168152602001908152602001600020600401549050600e60009054906101000a900473ffffffffffffffffffffffffffffffffffffffff1684848484838054600181600116156101000203166002900480601f0160208091040260200160405190810160405280929190818152602001828054600181600116156101000203166002900480156132625780601f1061323757610100808354040283529160200191613262565b820191906000526020600020905b81548152906001019060200180831161324557829003601f168201915b50505050509350828054600181600116156101000203166002900480601f0160208091040260200160405190810160405280929190818152602001828054600181600116156101000203166002900480156132fe5780601f106132d3576101008083540402835291602001916132fe565b820191906000526020600020905b8154815290600101906020018083116132e157829003601f168201915b5050505050925098509850985098509850505050509091929394565b6000600f60009054906101000a900473ffffffffffffffffffffffffffffffffffffffff1673ffffffffffffffffffffffffffffffffffffffff166370a08231336040518263ffffffff167c0100000000000000000000000000000000000000000000000000000000028152600401808273ffffffffffffffffffffffffffffffffffffffff1673ffffffffffffffffffffffffffffffffffffffff168152602001915050602060405180830381600087803b15156133d857600080fd5b5af115156133e557600080fd5b50505060405180519050905090565b6018602052816000526040600020602052806000526040600020600091509150508060000160009054906101000a900473ffffffffffffffffffffffffffffffffffffffff1690806001018054600181600116156101000203166002900480601f0160208091040260200160405190810160405280929190818152602001828054600181600116156101000203166002900480156134d35780601f106134a8576101008083540402835291602001916134d3565b820191906000526020600020905b8154815290600101906020018083116134b657829003601f168201915b505050505090806002018054600181600116156101000203166002900480601f0160208091040260200160405190810160405280929190818152602001828054600181600116156101000203166002900480156135715780601f1061354657610100808354040283529160200191613571565b820191906000526020600020905b81548152906001019060200180831161355457829003601f168201915b5050505050908060030154908060040154905085565b600f60009054906101000a900473ffffffffffffffffffffffffffffffffffffffff1673ffffffffffffffffffffffffffffffffffffffff166379c65068336006546040518363ffffffff167c0100000000000000000000000000000000000000000000000000000000028152600401808373ffffffffffffffffffffffffffffffffffffffff1673ffffffffffffffffffffffffffffffffffffffff16815260200182815260200192505050600060405180830381600087803b151561364d57600080fd5b5af1151561365a57600080fd5b5050506136866064613678600a600654613d7790919063ffffffff16565b613da890919063ffffffff16565b600881905550613694613f58565b565b6000806136ae60055434613da890919063ffffffff16565b91506136c582600954613de890919063ffffffff16565b600981905550600f60009054906101000a900473ffffffffffffffffffffffffffffffffffffffff1673ffffffffffffffffffffffffffffffffffffffff166323b872dd8433856040518463ffffffff167c0100000000000000000000000000000000000000000000000000000000028152600401808473ffffffffffffffffffffffffffffffffffffffff1673ffffffffffffffffffffffffffffffffffffffff1681526020018373ffffffffffffffffffffffffffffffffffffffff1673ffffffffffffffffffffffffffffffffffffffff1681526020018281526020019350505050602060405180830381600087803b15156137c357600080fd5b5af115156137d057600080fd5b5050506040518051905050601480548060010182816137ef91906142ec565b9160005260206000209001600033909190916101000a81548173ffffffffffffffffffffffffffffffffffffffff021916908373ffffffffffffffffffffffffffffffffffffffff16021790555050601760003373ffffffffffffffffffffffffffffffffffffffff1673ffffffffffffffffffffffffffffffffffffffff168152602001908152602001600020600101805480600101828161389291906142ec565b9160005260206000209001600085909190916101000a81548173ffffffffffffffffffffffffffffffffffffffff021916908373ffffffffffffffffffffffffffffffffffffffff16021790555050601760003373ffffffffffffffffffffffffffffffffffffffff1673ffffffffffffffffffffffffffffffffffffffff16815260200190815260200160002060020180548060010182816139359190614318565b91600052602060002090016000349091909150555033601660003373ffffffffffffffffffffffffffffffffffffffff1673ffffffffffffffffffffffffffffffffffffffff16815260200190815260200160002060008573ffffffffffffffffffffffffffffffffffffffff1673ffffffffffffffffffffffffffffffffffffffff16815260200190815260200160002060000160006101000a81548173ffffffffffffffffffffffffffffffffffffffff021916908373ffffffffffffffffffffffffffffffffffffffff160217905550613a9a34601660003373ffffffffffffffffffffffffffffffffffffffff1673ffffffffffffffffffffffffffffffffffffffff16815260200190815260200160002060008673ffffffffffffffffffffffffffffffffffffffff1673ffffffffffffffffffffffffffffffffffffffff16815260200190815260200160002060030154613de890919063ffffffff16565b601660003373ffffffffffffffffffffffffffffffffffffffff1673ffffffffffffffffffffffffffffffffffffffff16815260200190815260200160002060008573ffffffffffffffffffffffffffffffffffffffff1673ffffffffffffffffffffffffffffffffffffffff16815260200190815260200160002060030181905550613b38670de0b6b3a764000034613da890919063ffffffff16565b905080601660003373ffffffffffffffffffffffffffffffffffffffff1673ffffffffffffffffffffffffffffffffffffffff16815260200190815260200160002060008573ffffffffffffffffffffffffffffffffffffffff1673ffffffffffffffffffffffffffffffffffffffff1681526020019081526020016000206003018190555081601660003373ffffffffffffffffffffffffffffffffffffffff1673ffffffffffffffffffffffffffffffffffffffff16815260200190815260200160002060008573ffffffffffffffffffffffffffffffffffffffff1673ffffffffffffffffffffffffffffffffffffffff16815260200190815260200160002060040181905550613c9481601960008673ffffffffffffffffffffffffffffffffffffffff1673ffffffffffffffffffffffffffffffffffffffff16815260200190815260200160002054613de890919063ffffffff16565b601960008573ffffffffffffffffffffffffffffffffffffffff1673ffffffffffffffffffffffffffffffffffffffff16815260200190815260200160002081905550613d2c81601560008673ffffffffffffffffffffffffffffffffffffffff1673ffffffffffffffffffffffffffffffffffffffff16815260200190815260200160002060010154613de890919063ffffffff16565b601560008573ffffffffffffffffffffffffffffffffffffffff1673ffffffffffffffffffffffffffffffffffffffff16815260200190815260200160002060010181905550505050565b600081830290506000831480613d975750818382811515613d9457fe5b04145b1515613da257600080fd5b92915050565b60008082111515613db857600080fd5b8183811515613dc357fe5b04905092915050565b6000828211151515613ddd57600080fd5b818303905092915050565b60008183019050828110151515613dfe57600080fd5b92915050565b6000613e1b60045483613da890919063ffffffff16565b9050600f60009054906101000a900473ffffffffffffffffffffffffffffffffffffffff1673ffffffffffffffffffffffffffffffffffffffff166379c6506833836040518363ffffffff167c0100000000000000000000000000000000000000000000000000000000028152600401808373ffffffffffffffffffffffffffffffffffffffff1673ffffffffffffffffffffffffffffffffffffffff16815260200182815260200192505050600060405180830381600087803b1515613ee157600080fd5b5af11515613eee57600080fd5b50505060138054806001018281613f0591906142ec565b9160005260206000209001600033909190916101000a81548173ffffffffffffffffffffffffffffffffffffffff021916908373ffffffffffffffffffffffffffffffffffffffff160217905550505050565b600080600091505b60148054905082101561425457614063600954614055613f8d600854600654613dcc90919063ffffffff16565b60166000601488815481101515613fa057fe5b906000526020600020900160009054906101000a900473ffffffffffffffffffffffffffffffffffffffff1673ffffffffffffffffffffffffffffffffffffffff1673ffffffffffffffffffffffffffffffffffffffff16815260200190815260200160002060003373ffffffffffffffffffffffffffffffffffffffff1673ffffffffffffffffffffffffffffffffffffffff16815260200190815260200160002060040154613d7790919063ffffffff16565b613da890919063ffffffff16565b9050600f60009054906101000a900473ffffffffffffffffffffffffffffffffffffffff1673ffffffffffffffffffffffffffffffffffffffff166379c650686014848154811015156140b257fe5b906000526020600020900160009054906101000a900473ffffffffffffffffffffffffffffffffffffffff16836040518363ffffffff167c0100000000000000000000000000000000000000000000000000000000028152600401808373ffffffffffffffffffffffffffffffffffffffff1673ffffffffffffffffffffffffffffffffffffffff16815260200182815260200192505050600060405180830381600087803b151561416357600080fd5b5af1151561417057600080fd5b505050600f60009054906101000a900473ffffffffffffffffffffffffffffffffffffffff1673ffffffffffffffffffffffffffffffffffffffff1663171ce59733836040518363ffffffff167c0100000000000000000000000000000000000000000000000000000000028152600401808373ffffffffffffffffffffffffffffffffffffffff1673ffffffffffffffffffffffffffffffffffffffff16815260200182815260200192505050600060405180830381600087803b151561423757600080fd5b5af1151561424457600080fd5b5050508180600101925050613f60565b5050565b828054600181600116156101000203166002900490600052602060002090601f016020900481019282601f1061429957805160ff19168380011785556142c7565b828001600101855582156142c7579182015b828111156142c65782518255916020019190600101906142ab565b5b5090506142d49190614344565b5090565b602060405190810160405280600081525090565b815481835581811511614313578183600052602060002091820191016143129190614344565b5b505050565b81548183558181151161433f5781836000526020600020918201910161433e9190614344565b5b505050565b61436691905b8082111561436257600081600090555060010161434a565b5090565b905600a165627a7a7230582073076d04063a92a1d70405debf15740e99172a50cd99df36df75d672f0bf7a08002960606040526040805190810160405280600981526020017f546f6b656e20312e3000000000000000000000000000000000000000000000008152506000908051906020019062000051929190620001a2565b5034156200005e57600080fd5b620186a0600381905550600354600760003373ffffffffffffffffffffffffffffffffffffffff1673ffffffffffffffffffffffffffffffffffffffff168152602001908152602001600020819055506040805190810160405280600381526020017f445458000000000000000000000000000000000000000000000000000000000081525060029080519060200190620000fb929190620001a2565b506040805190810160405280600c81526020017f5068656f6e6978546f6b656e00000000000000000000000000000000000000008152506001908051906020019062000149929190620001a2565b506101f4600481905550600060058190555033600660006101000a81548173ffffffffffffffffffffffffffffffffffffffff021916908373ffffffffffffffffffffffffffffffffffffffff16021790555062000251565b828054600181600116156101000203166002900490600052602060002090601f016020900481019282601f10620001e557805160ff191683800117855562000216565b8280016001018555821562000216579182015b8281111562000215578251825591602001919060010190620001f8565b5b50905062000225919062000229565b5090565b6200024e91905b808211156200024a57600081600090555060010162000230565b5090565b90565b610f6380620002616000396000f3006060604052600436106100db576000357c0100000000000000000000000000000000000000000000000000000000900463ffffffff16806306fdde03146100e0578063095ea7b31461016e578063171ce597146101c857806318160ddd146101ff57806323b872dd14610228578063313ce567146102a15780635c658165146102ca578063661884631461033657806370a082311461039057806372dd529b146103dd57806379c650681461040657806395d89b4114610448578063a9059cbb146104d6578063d73dd62314610530578063dd62ed3e1461058a575b600080fd5b34156100eb57600080fd5b6100f36105f6565b6040518080602001828103825283818151815260200191508051906020019080838360005b83811015610133578082015181840152602081019050610118565b50505050905090810190601f1680156101605780820380516001836020036101000a031916815260200191505b509250505060405180910390f35b341561017957600080fd5b6101ae600480803573ffffffffffffffffffffffffffffffffffffffff16906020019091908035906020019091905050610694565b604051808215151515815260200191505060405180910390f35b6101fd600480803573ffffffffffffffffffffffffffffffffffffffff16906020019091908035906020019091905050610721565b005b341561020a57600080fd5b6102126107aa565b6040518082815260200191505060405180910390f35b341561023357600080fd5b610287600480803573ffffffffffffffffffffffffffffffffffffffff1690602001909190803573ffffffffffffffffffffffffffffffffffffffff169060200190919080359060200190919050506107b4565b604051808215151515815260200191505060405180910390f35b34156102ac57600080fd5b6102b4610930565b6040518082815260200191505060405180910390f35b34156102d557600080fd5b610320600480803573ffffffffffffffffffffffffffffffffffffffff1690602001909190803573ffffffffffffffffffffffffffffffffffffffff16906020019091905050610936565b6040518082815260200191505060405180910390f35b341561034157600080fd5b610376600480803573ffffffffffffffffffffffffffffffffffffffff1690602001909190803590602001909190505061095b565b604051808215151515815260200191505060405180910390f35b341561039b57600080fd5b6103c7600480803573ffffffffffffffffffffffffffffffffffffffff16906020019091905050610a66565b6040518082815260200191505060405180910390f35b34156103e857600080fd5b6103f0610aaf565b6040518082815260200191505060405180910390f35b341561041157600080fd5b610446600480803573ffffffffffffffffffffffffffffffffffffffff16906020019091908035906020019091905050610ab5565b005b341561045357600080fd5b61045b610b3e565b6040518080602001828103825283818151815260200191508051906020019080838360005b8381101561049b578082015181840152602081019050610480565b50505050905090810190601f1680156104c85780820380516001836020036101000a031916815260200191505b509250505060405180910390f35b34156104e157600080fd5b610516600480803573ffffffffffffffffffffffffffffffffffffffff16906020019091908035906020019091905050610bdc565b604051808215151515815260200191505060405180910390f35b341561053b57600080fd5b610570600480803573ffffffffffffffffffffffffffffffffffffffff16906020019091908035906020019091905050610da5565b604051808215151515815260200191505060405180910390f35b341561059557600080fd5b6105e0600480803573ffffffffffffffffffffffffffffffffffffffff1690602001909190803573ffffffffffffffffffffffffffffffffffffffff16906020019091905050610eb0565b6040518082815260200191505060405180910390f35b60018054600181600116156101000203166002900480601f01602080910402602001604051908101604052809291908181526020018280546001816001161561010002031660029004801561068c5780601f106106615761010080835404028352916020019161068c565b820191906000526020600020905b81548152906001019060200180831161066f57829003601f168201915b505050505081565b600081600860003373ffffffffffffffffffffffffffffffffffffffff1673ffffffffffffffffffffffffffffffffffffffff16815260200190815260200160002060008573ffffffffffffffffffffffffffffffffffffffff1673ffffffffffffffffffffffffffffffffffffffff168152602001908152602001600020819055506001905092915050565b80600760008473ffffffffffffffffffffffffffffffffffffffff1673ffffffffffffffffffffffffffffffffffffffff1681526020019081526020016000205403600760008473ffffffffffffffffffffffffffffffffffffffff1673ffffffffffffffffffffffffffffffffffffffff168152602001908152602001600020819055505050565b6000600354905090565b600081600760008673ffffffffffffffffffffffffffffffffffffffff1673ffffffffffffffffffffffffffffffffffffffff1681526020019081526020016000205403600760008673ffffffffffffffffffffffffffffffffffffffff1673ffffffffffffffffffffffffffffffffffffffff1681526020019081526020016000208190555081600760008573ffffffffffffffffffffffffffffffffffffffff1673ffffffffffffffffffffffffffffffffffffffff1681526020019081526020016000205401600760008573ffffffffffffffffffffffffffffffffffffffff1673ffffffffffffffffffffffffffffffffffffffff168152602001908152602001600020819055508273ffffffffffffffffffffffffffffffffffffffff168473ffffffffffffffffffffffffffffffffffffffff167fddf252ad1be2c89b69c2b068fc378daa952ba7f163c4a11628f55a4df523b3ef846040518082815260200191505060405180910390a3600190509392505050565b60055481565b6008602052816000526040600020602052806000526040600020600091509150505481565b600081600860003373ffffffffffffffffffffffffffffffffffffffff1673ffffffffffffffffffffffffffffffffffffffff16815260200190815260200160002060008573ffffffffffffffffffffffffffffffffffffffff1673ffffffffffffffffffffffffffffffffffffffff1681526020019081526020016000205403600860003373ffffffffffffffffffffffffffffffffffffffff1673ffffffffffffffffffffffffffffffffffffffff16815260200190815260200160002060008573ffffffffffffffffffffffffffffffffffffffff1673ffffffffffffffffffffffffffffffffffffffff168152602001908152602001600020819055506001905092915050565b6000600760008373ffffffffffffffffffffffffffffffffffffffff1673ffffffffffffffffffffffffffffffffffffffff168152602001908152602001600020549050919050565b60035481565b80600760008473ffffffffffffffffffffffffffffffffffffffff1673ffffffffffffffffffffffffffffffffffffffff1681526020019081526020016000205401600760008473ffffffffffffffffffffffffffffffffffffffff1673ffffffffffffffffffffffffffffffffffffffff168152602001908152602001600020819055505050565b60028054600181600116156101000203166002900480601f016020809104026020016040519081016040528092919081815260200182805460018160011615610100020316600290048015610bd45780601f10610ba957610100808354040283529160200191610bd4565b820191906000526020600020905b815481529060010190602001808311610bb757829003601f168201915b505050505081565b6000600760003373ffffffffffffffffffffffffffffffffffffffff1673ffffffffffffffffffffffffffffffffffffffff168152602001908152602001600020548211151515610c2c57600080fd5b81600760003373ffffffffffffffffffffffffffffffffffffffff1673ffffffffffffffffffffffffffffffffffffffff1681526020019081526020016000205403600760003373ffffffffffffffffffffffffffffffffffffffff1673ffffffffffffffffffffffffffffffffffffffff1681526020019081526020016000208190555081600760008573ffffffffffffffffffffffffffffffffffffffff1673ffffffffffffffffffffffffffffffffffffffff1681526020019081526020016000205401600760008573ffffffffffffffffffffffffffffffffffffffff1673ffffffffffffffffffffffffffffffffffffffff168152602001908152602001600020819055508273ffffffffffffffffffffffffffffffffffffffff163373ffffffffffffffffffffffffffffffffffffffff167fddf252ad1be2c89b69c2b068fc378daa952ba7f163c4a11628f55a4df523b3ef846040518082815260200191505060405180910390a36001905092915050565b600081600860003373ffffffffffffffffffffffffffffffffffffffff1673ffffffffffffffffffffffffffffffffffffffff16815260200190815260200160002060008573ffffffffffffffffffffffffffffffffffffffff1673ffffffffffffffffffffffffffffffffffffffff1681526020019081526020016000205401600860003373ffffffffffffffffffffffffffffffffffffffff1673ffffffffffffffffffffffffffffffffffffffff16815260200190815260200160002060008573ffffffffffffffffffffffffffffffffffffffff1673ffffffffffffffffffffffffffffffffffffffff168152602001908152602001600020819055506001905092915050565b6000600860008473ffffffffffffffffffffffffffffffffffffffff1673ffffffffffffffffffffffffffffffffffffffff16815260200190815260200160002060008373ffffffffffffffffffffffffffffffffffffffff1673ffffffffffffffffffffffffffffffffffffffff168152602001908152602001600020549050929150505600a165627a7a7230582030a3f48472251daf2d22117bfef62d34aae698aaa02a3af5630c6107a889ccd80029",
  "source": "pragma solidity ^0.4.18;\r\nimport \"./MarketToken1.sol\";\r\nimport \"./FundToken.sol\";\r\nimport \"./MarketToken2.sol\";\r\nimport \"./SafeMath.sol\";\r\ncontract DMF \r\n{\r\n    using SafeMath for uint256;\r\n        FundToken public Token;       // Object Creation \r\n        Mam1 ab;\r\n        Man2 bb;\r\n//Global Variable Declaration part\r\n        uint public TR;\r\n        uint256 rate = 0.001 ether; //rate of Fundtoken For PortfolioManager\r\n        uint256 cost = 0.1 ether; //rate of Fundtokens For Investor \r\n        uint256 dividendToken = 100; //divident tokens count for give the profit to Investor\r\n        uint256 profitToken = 10; //profit tokens for the Portfolio manager \r\n        uint256 public PortfolioManagerprofit = 0; //For the Portfoliomanager profit tokens \r\n        uint256 public InvestersTotalToken=0; //invester total token count\r\n        uint256 public takecommission;\r\n        uint256 public calculations;\r\n        //uint256 public commissionForDmf;\r\n        uint256 public etherCalculation;\r\n        address public m1;\r\n        address public m2;\r\n        address contractAddress; //Fundtoken\r\n        address public Pendingreturnaddress;\r\n        address owner; //owner variable for assigning contract Owner\r\n        address public newadd; //For getting the Contract Address\r\n//ArrayList\r\n        address[] public ToatlportfolioMAddress; //Array for storing the each register PortfolioManager\r\n        address[] public TotalInvestorAddress; //Array for storing the each register Investors\r\n//Structure Area\r\n//Structure For PortfolioManager Details\r\n        struct PortfolioDetails\r\n        {\r\n            address portfolioM;\r\n            uint256 Eth;\r\n            string tokenName;\r\n            uint256 count1;\r\n            uint256 count2;\r\n            uint commissionForPortfolio;\r\n        }\r\n//Structure For Investor Details  \r\n        struct InvestorDetails\r\n        {\r\n            address buyer;\r\n            address[] PortfolioHolders; \r\n            uint256[] PortfolioHoldersEther;\r\n            uint256 Eth;\r\n            uint256 TokenCount;\r\n        }\r\n\r\n//Structure For MarketToken Purchase Details\r\n        struct MarketTokenPurchase\r\n        {\r\n            address contractAdd;\r\n            string name;\r\n            string symbol;\r\n            uint256 decimal;\r\n            uint256 totalbuycount;\r\n        }\r\n//Mapping Area\r\n//Map for getting and storing the PortfolioManager resgistration Details\r\n        mapping(address => PortfolioDetails) public Portfolio ;\r\n//map for getting and storing the Investor getting token details\r\n        mapping(address => mapping( address =>  InvestorDetails)) public invester ; \r\n        mapping(address=> InvestorDetails) public Investment;\r\n//Map for getting the MarketToken Purchase details by the Portfoliomanager\r\n        mapping(address => mapping(address => MarketTokenPurchase)) public Market; \r\n//Portfoliomanager Sold Tokens Ether \r\n        mapping(address => uint256) public PM_soldTK_Ether; \r\n//Constructor For initialize the contract Owner Address and Contract Deployed Address\r\n        function DMF(address na,address Mark1,address Mark2)public payable\r\n        {\r\n            owner=msg.sender;\r\n            newadd=address(this);\r\n            Token=new FundToken();\r\n            contractAddress=na;\r\n            m1=Mark1;\r\n            m2=Mark2;\r\n            bb= Man2(m2);\r\n            ab= Mam1(m1);\r\n        }\r\n//Function For PortfolioManager Resgistration\r\n        function PortfolioReg() public payable\r\n        {\r\n            Portfolio[msg.sender].portfolioM= msg.sender;\r\n            uint256 add = msg.value.div(1 ether);\r\n            uint256 a= (add.mul(10)).div(100);\r\n            takecommission=takecommission.add(a);\r\n            uint256 show = add.sub(a);\r\n            Portfolio[msg.sender].Eth= Portfolio[msg.sender].Eth.add(show);\r\n            PM_soldTK_Ether[msg.sender] = PM_soldTK_Ether[msg.sender].add(show);\r\n            GetFundToken(msg.value);\r\n        }\r\n//Function For Getting the Fundtokens by the PortfolioManager\r\n        function GetFundToken(uint256 value) private\r\n        {\r\n            uint256 tokens = value.div(rate);\r\n            FundToken(contractAddress).mintToken(msg.sender,tokens);\r\n            ToatlportfolioMAddress.push(msg.sender);\r\n        }\r\n//Function For Getting the Contract Ether Balance \r\n        function GetBal()public view returns(uint256)\r\n        {\r\n            return this.balance.div(1 ether);\r\n        }\r\n //Function For Getting the Contract Address\r\n        function getContractaddress() public view returns(address)\r\n        {\r\n            return newadd;\r\n        }\r\n //Function For Buying the FundTokens by the Investor From the PortfolioManager\r\n        function InvesterGetToken(address _add_) public payable\r\n        {\r\n            uint256 tokens = msg.value.div(cost);\r\n            InvestersTotalToken=InvestersTotalToken.add(tokens);\r\n            FundToken(contractAddress).transferFrom(_add_,msg.sender,tokens);\r\n            TotalInvestorAddress.push(msg.sender);\r\n            Investment[msg.sender].PortfolioHolders.push(_add_);\r\n            Investment[msg.sender].PortfolioHoldersEther.push(msg.value);\r\n            invester[msg.sender][_add_].buyer = msg.sender;\r\n            invester[msg.sender][_add_].Eth = invester[msg.sender][_add_].Eth.add(msg.value);\r\n            uint256 test = msg.value.div(1 ether);\r\n            invester[msg.sender][_add_].Eth = test;\r\n            invester[msg.sender][_add_].TokenCount = tokens;\r\n            PM_soldTK_Ether[_add_] = PM_soldTK_Ether[_add_].add(test);\r\n            Portfolio[_add_].Eth = Portfolio[_add_].Eth.add(test);\r\n        }\r\n//Function For Getting the Investor Balance of Tokens\r\n        function getBalance() public view returns(uint256)\r\n        {\r\n            return FundToken(contractAddress).balanceOf(TotalInvestorAddress[0]);\r\n        }\r\n /** The dividends calculations\r\n        Investor1 = (( Investor1_fund TK) / (Inves1_FUndTK + Inves2_FUndTK + ... )) * 90;\r\n*/\r\n//Function For issue the Dividends yo the User\r\n        function Dividends() public  \r\n        {\r\n            FundToken(contractAddress).mintToken(msg.sender,dividendToken); //minting the token \r\n            PortfolioManagerprofit = (dividendToken.mul(10)).div(100); //taking the portfolio share\r\n            //FundToken(contractAddress).mintToken(msg.sender,PortfolioManagerprofit);\r\n            ShareETK_ToI();\r\n        }\r\n//function for split the profit to each tokens\r\n        function ShareETK_ToI() private \r\n        {\r\n            for(uint256 i=0;i<TotalInvestorAddress.length;i++)\r\n            {\r\n                uint256 b = (invester[TotalInvestorAddress[i]][msg.sender].TokenCount.mul((dividendToken.sub(PortfolioManagerprofit)))).div(InvestersTotalToken);\r\n               // uint256 a =  b  / InvestersTotalToken;\r\n                FundToken(contractAddress).mintToken(TotalInvestorAddress[i],b);\r\n                FundToken(contractAddress).tokenDecrease(msg.sender,b);\r\n            }\r\n        }\r\n//getting All the Investor and PortfolioManager balance \r\n        function getAllBalance() public view returns(uint256)\r\n        {\r\n            return FundToken(contractAddress).balanceOf(msg.sender);\r\n        }\r\n//Function for Sell The Tokens to the PortfolioManager\r\n        function ReturnTokenToPortfolioManager(address _add_,uint256 value)public payable\r\n        {\r\n            FundToken(contractAddress).transferFrom(msg.sender,_add_,value);\r\n            TR = value.mul(cost);\r\n           uint256 commissionForDmf= commissionForDmf.add((TR.mul(10)).div(100));\r\n        \r\n            takecommission = takecommission.add((commissionForDmf.div(1 ether)));\r\n            Portfolio[_add_].commissionForPortfolio = Portfolio[_add_].commissionForPortfolio.add((TR.mul(10)).div(100)); \r\n            uint256 a= (TR.sub(commissionForDmf.add(Portfolio[_add_].commissionForPortfolio))).add(commissionForDmf);\r\n            _add_.transfer(Portfolio[_add_].commissionForPortfolio);\r\n            //address x = msg.sender;\r\n            newadd.call.gas(2500000).value(commissionForDmf)();\r\n            (msg.sender).transfer(a);\r\n            invester[msg.sender][_add_].Eth= invester[msg.sender][_add_].Eth.sub(TR);\r\n        }\r\n        function PortfolioManagerList()public view returns(address)\r\n        {\r\n            for(uint256 i=0;i<ToatlportfolioMAddress.length;i++)\r\n            {\r\n                return ToatlportfolioMAddress[i];\r\n            }\r\n        }\r\n//Function for Purchase the market tokens by the PortfolioManager\r\n       function PurchasingMarket1token(address _contractadd,string _name,string _symbol,uint256 _totacount) public \r\n       {\r\n            uint256 howmuchEther = PM_soldTK_Ether[msg.sender];\r\n            uint256 PurchaseTkTotalRate = _totacount.mul(0.1 ether);\r\n            calculations = PurchaseTkTotalRate.div(1 ether);\r\n            require(howmuchEther > calculations);\r\n            m1.call.gas(2500000).value(PurchaseTkTotalRate)();\r\n            Market[msg.sender][_contractadd].name = _name;\r\n            Market[msg.sender][_contractadd].symbol = _symbol;\r\n            Market[msg.sender][_contractadd].decimal = 0;\r\n            Market[msg.sender][_contractadd].totalbuycount = _totacount;\r\n            Market[msg.sender][_contractadd].contractAdd = _contractadd;\r\n            Portfolio[msg.sender].tokenName=_name;\r\n            Portfolio[msg.sender].count1=_totacount;\r\n            uint256 fg = Portfolio[msg.sender].Eth.sub(calculations);\r\n            Portfolio[msg.sender].Eth= fg;    \r\n       }\r\n        function PurchasingMarket2token(address _contractadd,string _name,string _symbol,uint256 _totacount) public \r\n        {\r\n            uint256 howmuchEther =  PM_soldTK_Ether[msg.sender];\r\n            uint256 PurchaseTkTotalRate = _totacount.mul(0.1 ether);\r\n            calculations = PurchaseTkTotalRate.div(1 ether);\r\n            require(howmuchEther > calculations);\r\n            m2.call.gas(2500000).value(PurchaseTkTotalRate)();\r\n            Market[msg.sender][_contractadd].name = _name;\r\n            Market[msg.sender][_contractadd].symbol = _symbol;\r\n            Market[msg.sender][_contractadd].decimal = 0;\r\n            Market[msg.sender][_contractadd].totalbuycount = _totacount; \r\n            Market[msg.sender][_contractadd].contractAdd = _contractadd;\r\n            Portfolio[msg.sender].tokenName=_name;\r\n            Portfolio[msg.sender].count2=_totacount;\r\n            uint256 fg = Portfolio[msg.sender].Eth.sub(calculations);\r\n            Portfolio[msg.sender].Eth= fg;\r\n        }\r\n       /* function DisplayPurchasedTKCount() public view returns(uint256)\r\n        {\r\n            uint256 count1 = Mam1(m1).DisplayBalance(newadd);\r\n            uint256 count2 = Man2(m2).DisplayBalance(newadd);\r\n            uint256 total = count1.add(count2);\r\n            return total;\r\n        } */\r\n        function DisplayPurchasedTK1() public view returns(address,string,string,uint256,uint256)\r\n        {\r\n            string _nn = Market[msg.sender][m1].name;\r\n            string _sm = Market[msg.sender][m1].symbol;\r\n            uint256 _dd =  Market[msg.sender][m1].decimal;\r\n            uint256 _pp = Market[msg.sender][m1].totalbuycount;\r\n            return(m1,_nn,_sm,_dd,_pp);\r\n        }\r\n        function DisplayPurchasedTK2() public view returns(address,string,string,uint256,uint256)\r\n        {\r\n            string _nn = Market[msg.sender][m2].name;\r\n            string _sm = Market[msg.sender][m2].symbol;\r\n            uint256 _dd =  Market[msg.sender][m2].decimal;\r\n            uint256 _pp = Market[msg.sender][m2].totalbuycount;\r\n            return(m2,_nn,_sm,_dd,_pp);\r\n        }\r\n//Function For Many PortfolioManager Details\r\n        function listOfPortfolioManager(address a)public view returns(address,uint256,uint256,uint256,uint256)\r\n        {\r\n            for(uint i=0;i<ToatlportfolioMAddress.length;i++)\r\n            {\r\n                if(a == Portfolio[a].portfolioM)\r\n                {\r\n                    return (Portfolio[a].portfolioM,Portfolio[a].Eth,FundToken(contractAddress).balanceOf(a),Portfolio[a].count1,Portfolio[a].count2);\r\n                }\r\n            }\r\n        }\r\n        function Pcount() public view returns(uint256)\r\n        {\r\n            return ToatlportfolioMAddress.length;\r\n        }\r\n        function getPortfolioAddress(uint a) public view returns(address)\r\n        {\r\n            return ToatlportfolioMAddress[a];\r\n        }\r\n        function getInvesterAddress(uint a,uint a1) public view returns(address,address)\r\n        {\r\n            return (ToatlportfolioMAddress[a],TotalInvestorAddress[a1]);\r\n        }\r\n        function Icount() public view returns(uint256)\r\n        {\r\n            return TotalInvestorAddress.length;\r\n        }\r\n}                                                                                     ",
  "sourcePath": "C:\\Users\\Sevvandhi.0860\\Desktop\\Mutualfund\\Mutual-Funds\\contracts\\DMF.sol",
  "compiler": {
    "name": "solc",
    "version": "0.4.21+commit.dfe3193c.Emscripten.clang"
  },
  "schemaVersion": "2.0.0",
  "updatedAt": "2018-05-12T07:13:58.685Z"
}