{
  "contractName": "DMF",
  "abi": [
    {
      "constant": true,
      "inputs": [
        {
          "name": "",
          "type": "address"
        }
      ],
      "name": "Purchase",
      "outputs": [
        {
          "name": "",
          "type": "address"
        }
      ],
      "payable": false,
      "stateMutability": "view",
      "type": "function"
    },
    {
      "constant": true,
      "inputs": [],
      "name": "takecommission",
      "outputs": [
        {
          "name": "",
          "type": "uint256"
        }
      ],
      "payable": false,
      "stateMutability": "view",
      "type": "function"
    },
    {
      "constant": true,
      "inputs": [
        {
          "name": "",
          "type": "uint256"
        }
      ],
      "name": "TotalInvestorAddress",
      "outputs": [
        {
          "name": "",
          "type": "address"
        }
      ],
      "payable": false,
      "stateMutability": "view",
      "type": "function"
    },
    {
      "constant": true,
      "inputs": [
        {
          "name": "",
          "type": "uint256"
        }
      ],
      "name": "ToatlportfolioMAddress",
      "outputs": [
        {
          "name": "",
          "type": "address"
        }
      ],
      "payable": false,
      "stateMutability": "view",
      "type": "function"
    },
    {
      "constant": true,
      "inputs": [
        {
          "name": "",
          "type": "address"
        },
        {
          "name": "",
          "type": "address"
        }
      ],
      "name": "invester",
      "outputs": [
        {
          "name": "buyer",
          "type": "address"
        },
        {
          "name": "Eth",
          "type": "uint256"
        },
        {
          "name": "TokenCount",
          "type": "uint256"
        }
      ],
      "payable": false,
      "stateMutability": "view",
      "type": "function"
    },
    {
      "constant": true,
      "inputs": [],
      "name": "newadd",
      "outputs": [
        {
          "name": "",
          "type": "address"
        }
      ],
      "payable": false,
      "stateMutability": "view",
      "type": "function"
    },
    {
      "constant": true,
      "inputs": [
        {
          "name": "",
          "type": "address"
        }
      ],
      "name": "PM_soldTK_Ether",
      "outputs": [
        {
          "name": "",
          "type": "uint256"
        }
      ],
      "payable": false,
      "stateMutability": "view",
      "type": "function"
    },
    {
      "constant": true,
      "inputs": [
        {
          "name": "",
          "type": "address"
        }
      ],
      "name": "Investment",
      "outputs": [
        {
          "name": "buyer",
          "type": "address"
        },
        {
          "name": "Eth",
          "type": "uint256"
        },
        {
          "name": "TokenCount",
          "type": "uint256"
        }
      ],
      "payable": false,
      "stateMutability": "view",
      "type": "function"
    },
    {
      "constant": true,
      "inputs": [
        {
          "name": "",
          "type": "address"
        }
      ],
      "name": "Portfolio",
      "outputs": [
        {
          "name": "portfolioM",
          "type": "address"
        },
        {
          "name": "Eth",
          "type": "uint256"
        },
        {
          "name": "tokenName",
          "type": "string"
        },
        {
          "name": "commissionForPortfolio",
          "type": "uint256"
        }
      ],
      "payable": false,
      "stateMutability": "view",
      "type": "function"
    },
    {
      "inputs": [
        {
          "name": "na",
          "type": "address"
        }
      ],
      "payable": true,
      "stateMutability": "payable",
      "type": "constructor"
    },
    {
      "constant": false,
      "inputs": [],
      "name": "PortfolioReg",
      "outputs": [],
      "payable": true,
      "stateMutability": "payable",
      "type": "function"
    },
    {
      "constant": true,
      "inputs": [],
      "name": "GetBal",
      "outputs": [
        {
          "name": "",
          "type": "uint256"
        }
      ],
      "payable": false,
      "stateMutability": "view",
      "type": "function"
    },
    {
      "constant": false,
      "inputs": [
        {
          "name": "_add_",
          "type": "address"
        }
      ],
      "name": "InvesterGetToken",
      "outputs": [],
      "payable": true,
      "stateMutability": "payable",
      "type": "function"
    },
    {
      "constant": true,
      "inputs": [
        {
          "name": "a",
          "type": "address"
        }
      ],
      "name": "getBalance",
      "outputs": [
        {
          "name": "",
          "type": "uint256"
        }
      ],
      "payable": false,
      "stateMutability": "view",
      "type": "function"
    },
    {
      "constant": false,
      "inputs": [],
      "name": "Dividends",
      "outputs": [],
      "payable": false,
      "stateMutability": "nonpayable",
      "type": "function"
    },
    {
      "constant": false,
      "inputs": [
        {
          "name": "_add_",
          "type": "address"
        },
        {
          "name": "value",
          "type": "uint256"
        }
      ],
      "name": "ReturnTokenToPortfolioManager",
      "outputs": [],
      "payable": true,
      "stateMutability": "payable",
      "type": "function"
    },
    {
      "constant": false,
      "inputs": [
        {
          "name": "buyToken",
          "type": "address"
        },
        {
          "name": "amountoftoken",
          "type": "uint256"
        }
      ],
      "name": "purchaseToken",
      "outputs": [],
      "payable": false,
      "stateMutability": "nonpayable",
      "type": "function"
    },
    {
      "constant": false,
      "inputs": [
        {
          "name": "amountoftoken",
          "type": "uint256"
        }
      ],
      "name": "returnPurchasedToken",
      "outputs": [],
      "payable": true,
      "stateMutability": "payable",
      "type": "function"
    },
    {
      "constant": true,
      "inputs": [],
      "name": "Pcount",
      "outputs": [
        {
          "name": "",
          "type": "uint256"
        }
      ],
      "payable": false,
      "stateMutability": "view",
      "type": "function"
    },
    {
      "constant": true,
      "inputs": [],
      "name": "Icount",
      "outputs": [
        {
          "name": "",
          "type": "uint256"
        }
      ],
      "payable": false,
      "stateMutability": "view",
      "type": "function"
    }
  ],
  "bytecode": "0x608060405266038d7ea4c6800060015567016345785d8a00006002556064600355600a600455600060055560006006556040516020806123918339810180604052810190808051906020019092919050505033600b60006101000a81548173ffffffffffffffffffffffffffffffffffffffff021916908373ffffffffffffffffffffffffffffffffffffffff16021790555030600c60006101000a81548173ffffffffffffffffffffffffffffffffffffffff021916908373ffffffffffffffffffffffffffffffffffffffff16021790555080600a60006101000a81548173ffffffffffffffffffffffffffffffffffffffff021916908373ffffffffffffffffffffffffffffffffffffffff1602179055505061226d806101246000396000f300608060405260043610610107576000357c0100000000000000000000000000000000000000000000000000000000900463ffffffff1680630d0e242f1461010c5780631cc2c91114610137578063233e0877146101845780632722271f1461020757806331e69acb1461021157806336c38cc71461023c57806352aa8382146102a95780639074a6551461031657806398d50eae146103c75780639e9c5f91146103f2578063a0ae86fd14610449578063ba04fa8d14610469578063bf8869b5146104c0578063c53dd11c146104eb578063d78982401461052b578063de854065146105bc578063f15f14c5146106b9578063f8b2cb4f146106d0578063f93498c414610727575b600080fd5b34801561011857600080fd5b5061012161075d565b6040518082815260200191505060405180910390f35b34801561014357600080fd5b50610182600480360381019080803573ffffffffffffffffffffffffffffffffffffffff1690602001909291908035906020019092919050505061076a565b005b34801561019057600080fd5b506101c5600480360381019080803573ffffffffffffffffffffffffffffffffffffffff169060200190929190505050610838565b604051808273ffffffffffffffffffffffffffffffffffffffff1673ffffffffffffffffffffffffffffffffffffffff16815260200191505060405180910390f35b61020f61086b565b005b34801561021d57600080fd5b50610226610aa5565b6040518082815260200191505060405180910390f35b34801561024857600080fd5b5061026760048036038101908080359060200190929190505050610aab565b604051808273ffffffffffffffffffffffffffffffffffffffff1673ffffffffffffffffffffffffffffffffffffffff16815260200191505060405180910390f35b3480156102b557600080fd5b506102d460048036038101908080359060200190929190505050610ae9565b604051808273ffffffffffffffffffffffffffffffffffffffff1673ffffffffffffffffffffffffffffffffffffffff16815260200191505060405180910390f35b34801561032257600080fd5b50610377600480360381019080803573ffffffffffffffffffffffffffffffffffffffff169060200190929190803573ffffffffffffffffffffffffffffffffffffffff169060200190929190505050610b27565b604051808473ffffffffffffffffffffffffffffffffffffffff1673ffffffffffffffffffffffffffffffffffffffff168152602001838152602001828152602001935050505060405180910390f35b3480156103d357600080fd5b506103dc610b7e565b6040518082815260200191505060405180910390f35b3480156103fe57600080fd5b50610407610b8b565b604051808273ffffffffffffffffffffffffffffffffffffffff1673ffffffffffffffffffffffffffffffffffffffff16815260200191505060405180910390f35b61046760048036038101908080359060200190929190505050610bb1565b005b34801561047557600080fd5b506104aa600480360381019080803573ffffffffffffffffffffffffffffffffffffffff169060200190929190505050610c74565b6040518082815260200191505060405180910390f35b3480156104cc57600080fd5b506104d5610c8c565b6040518082815260200191505060405180910390f35b610529600480360381019080803573ffffffffffffffffffffffffffffffffffffffff16906020019092919080359060200190929190505050610cc5565b005b34801561053757600080fd5b5061056c600480360381019080803573ffffffffffffffffffffffffffffffffffffffff16906020019092919050505061120b565b604051808473ffffffffffffffffffffffffffffffffffffffff1673ffffffffffffffffffffffffffffffffffffffff168152602001838152602001828152602001935050505060405180910390f35b3480156105c857600080fd5b506105fd600480360381019080803573ffffffffffffffffffffffffffffffffffffffff169060200190929190505050611255565b604051808573ffffffffffffffffffffffffffffffffffffffff1673ffffffffffffffffffffffffffffffffffffffff16815260200184815260200180602001838152602001828103825284818151815260200191508051906020019080838360005b8381101561067b578082015181840152602081019050610660565b50505050905090810190601f1680156106a85780820380516001836020036101000a031916815260200191505b509550505050505060405180910390f35b3480156106c557600080fd5b506106ce61133d565b005b3480156106dc57600080fd5b50610711600480360381019080803573ffffffffffffffffffffffffffffffffffffffff169060200190929190505050611534565b6040518082815260200191505060405180910390f35b61075b600480360381019080803573ffffffffffffffffffffffffffffffffffffffff169060200190929190505050611635565b005b6000600e80549050905090565b81601260003373ffffffffffffffffffffffffffffffffffffffff1673ffffffffffffffffffffffffffffffffffffffff16815260200190815260200160002060006101000a81548173ffffffffffffffffffffffffffffffffffffffff021916908373ffffffffffffffffffffffffffffffffffffffff1602179055508173ffffffffffffffffffffffffffffffffffffffff16622625a061081e67016345785d8a000084611d4490919063ffffffff16565b604051600060405180830381858888f19350505050505050565b60126020528060005260406000206000915054906101000a900473ffffffffffffffffffffffffffffffffffffffff1681565b600080600033600f60003373ffffffffffffffffffffffffffffffffffffffff1673ffffffffffffffffffffffffffffffffffffffff16815260200190815260200160002060000160006101000a81548173ffffffffffffffffffffffffffffffffffffffff021916908373ffffffffffffffffffffffffffffffffffffffff16021790555061090c670de0b6b3a764000034611d7590919063ffffffff16565b92506109356064610927600a86611d4490919063ffffffff16565b611d7590919063ffffffff16565b915061094c82600754611d9990919063ffffffff16565b6007819055506109658284611db590919063ffffffff16565b90506109bc81600f60003373ffffffffffffffffffffffffffffffffffffffff1673ffffffffffffffffffffffffffffffffffffffff16815260200190815260200160002060010154611d9990919063ffffffff16565b600f60003373ffffffffffffffffffffffffffffffffffffffff1673ffffffffffffffffffffffffffffffffffffffff16815260200190815260200160002060010181905550610a5481601360003373ffffffffffffffffffffffffffffffffffffffff1673ffffffffffffffffffffffffffffffffffffffff16815260200190815260200160002054611d9990919063ffffffff16565b601360003373ffffffffffffffffffffffffffffffffffffffff1673ffffffffffffffffffffffffffffffffffffffff16815260200190815260200160002081905550610aa034611dd1565b505050565b60075481565b600e81815481101515610aba57fe5b906000526020600020016000915054906101000a900473ffffffffffffffffffffffffffffffffffffffff1681565b600d81815481101515610af857fe5b906000526020600020016000915054906101000a900473ffffffffffffffffffffffffffffffffffffffff1681565b6010602052816000526040600020602052806000526040600020600091509150508060000160009054906101000a900473ffffffffffffffffffffffffffffffffffffffff16908060030154908060040154905083565b6000600d80549050905090565b600c60009054906101000a900473ffffffffffffffffffffffffffffffffffffffff1681565b601260003373ffffffffffffffffffffffffffffffffffffffff1673ffffffffffffffffffffffffffffffffffffffff16815260200190815260200160002060009054906101000a900473ffffffffffffffffffffffffffffffffffffffff1673ffffffffffffffffffffffffffffffffffffffff166108fc610c4567016345785d8a000084611d4490919063ffffffff16565b9081150290604051600060405180830381858888f19350505050158015610c70573d6000803e3d6000fd5b5050565b60136020528060005260406000206000915090505481565b6000610cc0670de0b6b3a76400003073ffffffffffffffffffffffffffffffffffffffff1631611d7590919063ffffffff16565b905090565b600080600a60009054906101000a900473ffffffffffffffffffffffffffffffffffffffff1673ffffffffffffffffffffffffffffffffffffffff166323b872dd3386866040518463ffffffff167c0100000000000000000000000000000000000000000000000000000000028152600401808473ffffffffffffffffffffffffffffffffffffffff1673ffffffffffffffffffffffffffffffffffffffff1681526020018373ffffffffffffffffffffffffffffffffffffffff1673ffffffffffffffffffffffffffffffffffffffff1681526020018281526020019350505050602060405180830381600087803b158015610dc157600080fd5b505af1158015610dd5573d6000803e3d6000fd5b505050506040513d6020811015610deb57600080fd5b810190808051906020019092919050505050610e1260025484611d4490919063ffffffff16565b600081905550610e53610e446064610e36600a600054611d4490919063ffffffff16565b611d7590919063ffffffff16565b83611d9990919063ffffffff16565b9150610e84610e73670de0b6b3a764000084611d7590919063ffffffff16565b600754611d9990919063ffffffff16565b600781905550610f07610eb66064610ea8600a600054611d4490919063ffffffff16565b611d7590919063ffffffff16565b600f60008773ffffffffffffffffffffffffffffffffffffffff1673ffffffffffffffffffffffffffffffffffffffff16815260200190815260200160002060030154611d9990919063ffffffff16565b600f60008673ffffffffffffffffffffffffffffffffffffffff1673ffffffffffffffffffffffffffffffffffffffff16815260200190815260200160002060030181905550610fc882610fba610fa9600f60008973ffffffffffffffffffffffffffffffffffffffff1673ffffffffffffffffffffffffffffffffffffffff1681526020019081526020016000206003015486611d9990919063ffffffff16565b600054611db590919063ffffffff16565b611d9990919063ffffffff16565b90508373ffffffffffffffffffffffffffffffffffffffff166108fc600f60008773ffffffffffffffffffffffffffffffffffffffff1673ffffffffffffffffffffffffffffffffffffffff168152602001908152602001600020600301549081150290604051600060405180830381858888f19350505050158015611052573d6000803e3d6000fd5b50600c60009054906101000a900473ffffffffffffffffffffffffffffffffffffffff1673ffffffffffffffffffffffffffffffffffffffff16622625a083604051600060405180830381858888f19350505050503373ffffffffffffffffffffffffffffffffffffffff166108fc829081150290604051600060405180830381858888f193505050501580156110ed573d6000803e3d6000fd5b50611182600054601060003373ffffffffffffffffffffffffffffffffffffffff1673ffffffffffffffffffffffffffffffffffffffff16815260200190815260200160002060008773ffffffffffffffffffffffffffffffffffffffff1673ffffffffffffffffffffffffffffffffffffffff16815260200190815260200160002060030154611db590919063ffffffff16565b601060003373ffffffffffffffffffffffffffffffffffffffff1673ffffffffffffffffffffffffffffffffffffffff16815260200190815260200160002060008673ffffffffffffffffffffffffffffffffffffffff1673ffffffffffffffffffffffffffffffffffffffff1681526020019081526020016000206003018190555050505050565b60116020528060005260406000206000915090508060000160009054906101000a900473ffffffffffffffffffffffffffffffffffffffff16908060030154908060040154905083565b600f6020528060005260406000206000915090508060000160009054906101000a900473ffffffffffffffffffffffffffffffffffffffff1690806001015490806002018054600181600116156101000203166002900480601f01602080910402602001604051908101604052809291908181526020018280546001816001161561010002031660029004801561132d5780601f106113025761010080835404028352916020019161132d565b820191906000526020600020905b81548152906001019060200180831161131057829003601f168201915b5050505050908060030154905084565b600a60009054906101000a900473ffffffffffffffffffffffffffffffffffffffff1673ffffffffffffffffffffffffffffffffffffffff166379c65068336003546040518363ffffffff167c0100000000000000000000000000000000000000000000000000000000028152600401808373ffffffffffffffffffffffffffffffffffffffff1673ffffffffffffffffffffffffffffffffffffffff16815260200182815260200192505050600060405180830381600087803b15801561140457600080fd5b505af1158015611418573d6000803e3d6000fd5b505050506114456064611437600a600354611d4490919063ffffffff16565b611d7590919063ffffffff16565b600581905550600a60009054906101000a900473ffffffffffffffffffffffffffffffffffffffff1673ffffffffffffffffffffffffffffffffffffffff166379c65068336005546040518363ffffffff167c0100000000000000000000000000000000000000000000000000000000028152600401808373ffffffffffffffffffffffffffffffffffffffff1673ffffffffffffffffffffffffffffffffffffffff16815260200182815260200192505050600060405180830381600087803b15801561151257600080fd5b505af1158015611526573d6000803e3d6000fd5b50505050611532611f31565b565b6000600a60009054906101000a900473ffffffffffffffffffffffffffffffffffffffff1673ffffffffffffffffffffffffffffffffffffffff166370a08231836040518263ffffffff167c0100000000000000000000000000000000000000000000000000000000028152600401808273ffffffffffffffffffffffffffffffffffffffff1673ffffffffffffffffffffffffffffffffffffffff168152602001915050602060405180830381600087803b1580156115f357600080fd5b505af1158015611607573d6000803e3d6000fd5b505050506040513d602081101561161d57600080fd5b81019080805190602001909291905050509050919050565b60008061164d60025434611d7590919063ffffffff16565b915061166482600654611d9990919063ffffffff16565b600681905550600a60009054906101000a900473ffffffffffffffffffffffffffffffffffffffff1673ffffffffffffffffffffffffffffffffffffffff166323b872dd8433856040518463ffffffff167c0100000000000000000000000000000000000000000000000000000000028152600401808473ffffffffffffffffffffffffffffffffffffffff1673ffffffffffffffffffffffffffffffffffffffff1681526020018373ffffffffffffffffffffffffffffffffffffffff1673ffffffffffffffffffffffffffffffffffffffff1681526020018281526020019350505050602060405180830381600087803b15801561176357600080fd5b505af1158015611777573d6000803e3d6000fd5b505050506040513d602081101561178d57600080fd5b810190808051906020019092919050505050600e3390806001815401808255809150509060018203906000526020600020016000909192909190916101000a81548173ffffffffffffffffffffffffffffffffffffffff021916908373ffffffffffffffffffffffffffffffffffffffff16021790555050601160003373ffffffffffffffffffffffffffffffffffffffff1673ffffffffffffffffffffffffffffffffffffffff1681526020019081526020016000206001018390806001815401808255809150509060018203906000526020600020016000909192909190916101000a81548173ffffffffffffffffffffffffffffffffffffffff021916908373ffffffffffffffffffffffffffffffffffffffff16021790555050601160003373ffffffffffffffffffffffffffffffffffffffff1673ffffffffffffffffffffffffffffffffffffffff16815260200190815260200160002060020134908060018154018082558091505090600182039060005260206000200160009091929091909150555033601060003373ffffffffffffffffffffffffffffffffffffffff1673ffffffffffffffffffffffffffffffffffffffff16815260200190815260200160002060008573ffffffffffffffffffffffffffffffffffffffff1673ffffffffffffffffffffffffffffffffffffffff16815260200190815260200160002060000160006101000a81548173ffffffffffffffffffffffffffffffffffffffff021916908373ffffffffffffffffffffffffffffffffffffffff160217905550611a6734601060003373ffffffffffffffffffffffffffffffffffffffff1673ffffffffffffffffffffffffffffffffffffffff16815260200190815260200160002060008673ffffffffffffffffffffffffffffffffffffffff1673ffffffffffffffffffffffffffffffffffffffff16815260200190815260200160002060030154611d9990919063ffffffff16565b601060003373ffffffffffffffffffffffffffffffffffffffff1673ffffffffffffffffffffffffffffffffffffffff16815260200190815260200160002060008573ffffffffffffffffffffffffffffffffffffffff1673ffffffffffffffffffffffffffffffffffffffff16815260200190815260200160002060030181905550611b05670de0b6b3a764000034611d7590919063ffffffff16565b905080601060003373ffffffffffffffffffffffffffffffffffffffff1673ffffffffffffffffffffffffffffffffffffffff16815260200190815260200160002060008573ffffffffffffffffffffffffffffffffffffffff1673ffffffffffffffffffffffffffffffffffffffff1681526020019081526020016000206003018190555081601060003373ffffffffffffffffffffffffffffffffffffffff1673ffffffffffffffffffffffffffffffffffffffff16815260200190815260200160002060008573ffffffffffffffffffffffffffffffffffffffff1673ffffffffffffffffffffffffffffffffffffffff16815260200190815260200160002060040181905550611c6181601360008673ffffffffffffffffffffffffffffffffffffffff1673ffffffffffffffffffffffffffffffffffffffff16815260200190815260200160002054611d9990919063ffffffff16565b601360008573ffffffffffffffffffffffffffffffffffffffff1673ffffffffffffffffffffffffffffffffffffffff16815260200190815260200160002081905550611cf981600f60008673ffffffffffffffffffffffffffffffffffffffff1673ffffffffffffffffffffffffffffffffffffffff16815260200190815260200160002060010154611d9990919063ffffffff16565b600f60008573ffffffffffffffffffffffffffffffffffffffff1673ffffffffffffffffffffffffffffffffffffffff16815260200190815260200160002060010181905550505050565b600081830290506000831480611d645750818382811515611d6157fe5b04145b1515611d6f57600080fd5b92915050565b60008082111515611d8557600080fd5b8183811515611d9057fe5b04905092915050565b60008183019050828110151515611daf57600080fd5b92915050565b6000828211151515611dc657600080fd5b818303905092915050565b6000611de860015483611d7590919063ffffffff16565b9050600a60009054906101000a900473ffffffffffffffffffffffffffffffffffffffff1673ffffffffffffffffffffffffffffffffffffffff166379c6506833836040518363ffffffff167c0100000000000000000000000000000000000000000000000000000000028152600401808373ffffffffffffffffffffffffffffffffffffffff1673ffffffffffffffffffffffffffffffffffffffff16815260200182815260200192505050600060405180830381600087803b158015611eaf57600080fd5b505af1158015611ec3573d6000803e3d6000fd5b50505050600d3390806001815401808255809150509060018203906000526020600020016000909192909190916101000a81548173ffffffffffffffffffffffffffffffffffffffff021916908373ffffffffffffffffffffffffffffffffffffffff160217905550505050565b600080600091505b600e8054905082101561223d5761203b60065461202d611f66600554600354611db590919063ffffffff16565b60106000600e88815481101515611f7957fe5b9060005260206000200160009054906101000a900473ffffffffffffffffffffffffffffffffffffffff1673ffffffffffffffffffffffffffffffffffffffff1673ffffffffffffffffffffffffffffffffffffffff16815260200190815260200160002060003373ffffffffffffffffffffffffffffffffffffffff1673ffffffffffffffffffffffffffffffffffffffff16815260200190815260200160002060040154611d4490919063ffffffff16565b611d7590919063ffffffff16565b9050600a60009054906101000a900473ffffffffffffffffffffffffffffffffffffffff1673ffffffffffffffffffffffffffffffffffffffff166379c65068600e8481548110151561208a57fe5b9060005260206000200160009054906101000a900473ffffffffffffffffffffffffffffffffffffffff16836040518363ffffffff167c0100000000000000000000000000000000000000000000000000000000028152600401808373ffffffffffffffffffffffffffffffffffffffff1673ffffffffffffffffffffffffffffffffffffffff16815260200182815260200192505050600060405180830381600087803b15801561213b57600080fd5b505af115801561214f573d6000803e3d6000fd5b50505050600a60009054906101000a900473ffffffffffffffffffffffffffffffffffffffff1673ffffffffffffffffffffffffffffffffffffffff1663171ce59733836040518363ffffffff167c0100000000000000000000000000000000000000000000000000000000028152600401808373ffffffffffffffffffffffffffffffffffffffff1673ffffffffffffffffffffffffffffffffffffffff16815260200182815260200192505050600060405180830381600087803b15801561221857600080fd5b505af115801561222c573d6000803e3d6000fd5b505050508180600101925050611f39565b50505600a165627a7a72305820910448516eb60659c6b4c6bb8acc295f3030475d2564ad58665411a1c85e10410029",
  "source": "pragma solidity ^0.4.18;\r\nimport \"./FundToken.sol\";\r\nimport \"./SafeMath.sol\";\r\ncontract DMF \r\n{\r\n    using SafeMath for uint256;\r\n   \r\n        uint  TR;\r\n        uint256 rate = 0.001 ether; //rate of Fundtoken For PortfolioManager\r\n        uint256 cost = 0.1 ether; //rate of Fundtokens For Investor \r\n        uint256 dividendToken = 100; //divident tokens count for give the profit to Investor\r\n        uint256 profitToken = 10; //profit tokens for the Portfolio manager \r\n        uint256 PortfolioManagerprofit = 0; //For the Portfoliomanager profit tokens \r\n        uint256  InvestersTotalToken=0; //invester total token count\r\n        uint256 public takecommission;\r\n        uint256  calculations;\r\n        //uint256 public commissionForDmf;\r\n        uint256 etherCalculation;\r\n       \r\n        address contractAddress; //Fundtoken\r\n        address owner; //owner variable for assigning contract Owner\r\n        address public newadd; //For getting the Contract Address\r\n//ArrayList\r\n        address[] public ToatlportfolioMAddress; //Array for storing the each register PortfolioManager\r\n        address[] public TotalInvestorAddress; //Array for storing the each register Investors\r\n\r\n//Structure For PortfolioManager Details\r\n        struct PortfolioDetails\r\n        {\r\n            address portfolioM;\r\n            uint256 Eth;\r\n            string tokenName;\r\n          //uint256 count1;\r\n          //  uint256 count2;\r\n            uint commissionForPortfolio;\r\n        }\r\n//Structure For Investor Details  \r\n        struct InvestorDetails\r\n        {\r\n            address buyer;\r\n            address[] PortfolioHolders; \r\n            uint256[] PortfolioHoldersEther;\r\n            uint256 Eth;\r\n            uint256 TokenCount;\r\n        }\r\n\r\n//Structure For MarketToken Purchase Details\r\n       \r\n//Mapping Area\r\n//Map for getting and storing the PortfolioManager resgistration Details\r\n        mapping(address => PortfolioDetails) public Portfolio ;\r\n//map for getting and storing the Investor getting token details\r\n        mapping(address => mapping( address =>  InvestorDetails)) public invester ; \r\n        mapping(address=> InvestorDetails) public Investment;\r\n//Map for getting the MarketToken Purchase details by the Portfoliomanager\r\n       mapping(address => address) public Purchase; \r\n//Portfoliomanager Sold Tokens Ether \r\n        mapping(address => uint256) public PM_soldTK_Ether; \r\n//Constructor For initialize the contract Owner Address and Contract Deployed Address\r\n        function DMF(address na)public payable\r\n        {\r\n            owner=msg.sender;\r\n            newadd=address(this);\r\n            contractAddress=na;\r\n        }\r\n//Function For PortfolioManager Resgistration\r\n        function PortfolioReg() public payable\r\n        {\r\n            Portfolio[msg.sender].portfolioM= msg.sender;\r\n            uint256 add = msg.value.div(1 ether);\r\n            uint256 a= (add.mul(10)).div(100);\r\n            takecommission=takecommission.add(a);\r\n            uint256 show = add.sub(a);\r\n            Portfolio[msg.sender].Eth= Portfolio[msg.sender].Eth.add(show);\r\n            PM_soldTK_Ether[msg.sender] = PM_soldTK_Ether[msg.sender].add(show);\r\n            GetFundToken(msg.value);\r\n        }\r\n//Function For Getting the Fundtokens by the PortfolioManager\r\n        function GetFundToken(uint256 value) private\r\n        {\r\n            uint256 tokens = value.div(rate);\r\n            FundToken(contractAddress).mintToken(msg.sender,tokens);\r\n            ToatlportfolioMAddress.push(msg.sender);\r\n        }\r\n//Function For Getting the Contract Ether Balance \r\n        function GetBal()public view returns(uint256)\r\n        {\r\n            return this.balance.div(1 ether);\r\n        }\r\n //Function For Getting the Contract Address\r\n    \r\n //Function For Buying the FundTokens by the Investor From the PortfolioManager\r\n        function InvesterGetToken(address _add_) public payable\r\n        {\r\n            uint256 tokens = msg.value.div(cost);\r\n            InvestersTotalToken=InvestersTotalToken.add(tokens);\r\n            FundToken(contractAddress).transferFrom(_add_,msg.sender,tokens);\r\n            TotalInvestorAddress.push(msg.sender);\r\n            Investment[msg.sender].PortfolioHolders.push(_add_);\r\n            Investment[msg.sender].PortfolioHoldersEther.push(msg.value);\r\n            invester[msg.sender][_add_].buyer = msg.sender;\r\n            invester[msg.sender][_add_].Eth = invester[msg.sender][_add_].Eth.add(msg.value);\r\n            uint256 test = msg.value.div(1 ether);\r\n            invester[msg.sender][_add_].Eth = test;\r\n            invester[msg.sender][_add_].TokenCount = tokens;\r\n            PM_soldTK_Ether[_add_] = PM_soldTK_Ether[_add_].add(test);\r\n            Portfolio[_add_].Eth = Portfolio[_add_].Eth.add(test);\r\n        }\r\n//Function For Getting the Investor Balance of Tokens\r\n        function getBalance(address a) public view returns(uint256)\r\n        {\r\n            return FundToken(contractAddress).balanceOf(a);\r\n        }\r\n /** The dividends calculations\r\n        Investor1 = (( Investor1_fund TK) / (Inves1_FUndTK + Inves2_FUndTK + ... )) * 90;\r\n*/\r\n//Function For issue the Dividends yo the User\r\n        function Dividends() public  \r\n        {\r\n            FundToken(contractAddress).mintToken(msg.sender,dividendToken); //minting the token \r\n            PortfolioManagerprofit = (dividendToken.mul(10)).div(100); //taking the portfolio share\r\n            FundToken(contractAddress).mintToken(msg.sender,PortfolioManagerprofit);\r\n            ShareETK_ToI();\r\n        }\r\n//function for split the profit to each tokens\r\n        function ShareETK_ToI() private \r\n        {\r\n            for(uint256 i=0;i<TotalInvestorAddress.length;i++)\r\n            {\r\n                uint256 b = (invester[TotalInvestorAddress[i]][msg.sender].TokenCount.mul((dividendToken.sub(PortfolioManagerprofit)))).div(InvestersTotalToken);\r\n               // uint256 a =  b  / InvestersTotalToken;\r\n               FundToken(contractAddress).mintToken(TotalInvestorAddress[i],b);\r\n                FundToken(contractAddress).tokenDecrease(msg.sender,b);\r\n            }\r\n        }\r\n//getting All the Investor and PortfolioManager balance \r\n       // function getAllBalance() public view returns(uint256)\r\n       // {\r\n       //     return FundToken(contractAddress).balanceOf(msg.sender);\r\n        //}\r\n//Function for Sell The Tokens to the PortfolioManager\r\n        function ReturnTokenToPortfolioManager(address _add_,uint256 value)public payable\r\n        {\r\n            FundToken(contractAddress).transferFrom(msg.sender,_add_,value);\r\n            TR = value.mul(cost);\r\n           uint256 commissionForDmf= commissionForDmf.add((TR.mul(10)).div(100));\r\n        \r\n            takecommission = takecommission.add((commissionForDmf.div(1 ether)));\r\n            Portfolio[_add_].commissionForPortfolio = Portfolio[_add_].commissionForPortfolio.add((TR.mul(10)).div(100)); \r\n            uint256 a= (TR.sub(commissionForDmf.add(Portfolio[_add_].commissionForPortfolio))).add(commissionForDmf);\r\n            _add_.transfer(Portfolio[_add_].commissionForPortfolio);\r\n            //address x = msg.sender;\r\n            newadd.call.gas(2500000).value(commissionForDmf)();\r\n            (msg.sender).transfer(a);\r\n            invester[msg.sender][_add_].Eth= invester[msg.sender][_add_].Eth.sub(TR);\r\n        }\r\n        \r\n        function purchaseToken(address buyToken,uint256 amountoftoken) public{\r\n           Purchase[msg.sender]=buyToken;\r\n            buyToken.call.gas(2500000).value(amountoftoken.mul(0.1 ether))();\r\n        }\r\n        function returnPurchasedToken(uint256 amountoftoken) public payable {\r\n            Purchase[msg.sender].transfer(amountoftoken.mul(0.1 ether));\r\n        }\r\n\r\n//Function For Many PortfolioManager Details\r\n        function Pcount() public view returns(uint256)\r\n        {\r\n            return ToatlportfolioMAddress.length;\r\n        }\r\n        function Icount() public view returns(uint256)\r\n        {\r\n            return TotalInvestorAddress.length;\r\n        }\r\n}                                                                                                            \r\n",
  "sourcePath": "C:\\Users\\Sevvandhi.0860\\Desktop\\Mutualfund\\Mutual-Funds\\contracts\\DMF.sol",
  "compiler": {
    "name": "solc",
    "version": "0.4.23+commit.124ca40d.Emscripten.clang"
  },
  "schemaVersion": "2.0.0",
  "updatedAt": "2018-05-15T09:11:07.892Z"
}