{
  "contractName": "DMF",
  "abi": [
    {
      "constant": true,
      "inputs": [
        {
          "name": "",
          "type": "address"
        }
      ],
      "name": "BuyTK",
      "outputs": [
        {
          "name": "portfolioM",
          "type": "address"
        },
        {
          "name": "Eth",
          "type": "uint256"
        }
      ],
      "payable": false,
      "stateMutability": "view",
      "type": "function"
    },
    {
      "constant": true,
      "inputs": [],
      "name": "pprofit",
      "outputs": [
        {
          "name": "",
          "type": "uint256"
        }
      ],
      "payable": false,
      "stateMutability": "view",
      "type": "function"
    },
    {
      "constant": true,
      "inputs": [],
      "name": "total",
      "outputs": [
        {
          "name": "",
          "type": "uint256"
        }
      ],
      "payable": false,
      "stateMutability": "view",
      "type": "function"
    },
    {
      "constant": true,
      "inputs": [
        {
          "name": "",
          "type": "uint256"
        }
      ],
      "name": "Investor",
      "outputs": [
        {
          "name": "",
          "type": "address"
        }
      ],
      "payable": false,
      "stateMutability": "view",
      "type": "function"
    },
    {
      "constant": true,
      "inputs": [],
      "name": "newadd",
      "outputs": [
        {
          "name": "",
          "type": "address"
        }
      ],
      "payable": false,
      "stateMutability": "view",
      "type": "function"
    },
    {
      "constant": true,
      "inputs": [],
      "name": "Token",
      "outputs": [
        {
          "name": "",
          "type": "address"
        }
      ],
      "payable": false,
      "stateMutability": "view",
      "type": "function"
    },
    {
      "constant": true,
      "inputs": [
        {
          "name": "",
          "type": "address"
        }
      ],
      "name": "BuyInves",
      "outputs": [
        {
          "name": "buyer",
          "type": "address"
        },
        {
          "name": "Eth",
          "type": "uint256"
        },
        {
          "name": "howTK",
          "type": "uint256"
        }
      ],
      "payable": false,
      "stateMutability": "view",
      "type": "function"
    },
    {
      "inputs": [
        {
          "name": "na",
          "type": "address"
        }
      ],
      "payable": false,
      "stateMutability": "nonpayable",
      "type": "constructor"
    },
    {
      "payable": true,
      "stateMutability": "payable",
      "type": "fallback"
    },
    {
      "constant": false,
      "inputs": [],
      "name": "PortfolioReg",
      "outputs": [],
      "payable": true,
      "stateMutability": "payable",
      "type": "function"
    },
    {
      "constant": true,
      "inputs": [],
      "name": "GetBal",
      "outputs": [
        {
          "name": "",
          "type": "uint256"
        }
      ],
      "payable": false,
      "stateMutability": "view",
      "type": "function"
    },
    {
      "constant": true,
      "inputs": [],
      "name": "getContractaddress",
      "outputs": [
        {
          "name": "",
          "type": "address"
        }
      ],
      "payable": false,
      "stateMutability": "view",
      "type": "function"
    },
    {
      "constant": false,
      "inputs": [],
      "name": "getTokens",
      "outputs": [],
      "payable": true,
      "stateMutability": "payable",
      "type": "function"
    },
    {
      "constant": true,
      "inputs": [],
      "name": "getBalance",
      "outputs": [
        {
          "name": "",
          "type": "uint256"
        }
      ],
      "payable": false,
      "stateMutability": "view",
      "type": "function"
    },
    {
      "constant": false,
      "inputs": [],
      "name": "Dividends",
      "outputs": [
        {
          "name": "",
          "type": "uint256"
        }
      ],
      "payable": false,
      "stateMutability": "nonpayable",
      "type": "function"
    },
    {
      "constant": true,
      "inputs": [],
      "name": "getAllBalance",
      "outputs": [
        {
          "name": "",
          "type": "uint256"
        }
      ],
      "payable": false,
      "stateMutability": "view",
      "type": "function"
    }
  ],
  "bytecode": "0x606060405266038d7ea4c68000600355662386f26fc100006004556064600555600a60065560006007556000600855341561003957600080fd5b60405160208061277e8339810160405280805190602001909190505033600160006101000a81548173ffffffffffffffffffffffffffffffffffffffff021916908373ffffffffffffffffffffffffffffffffffffffff16021790555030600260006101000a81548173ffffffffffffffffffffffffffffffffffffffff021916908373ffffffffffffffffffffffffffffffffffffffff1602179055506100df61017b565b604051809103906000f08015156100f557600080fd5b6000806101000a81548173ffffffffffffffffffffffffffffffffffffffff021916908373ffffffffffffffffffffffffffffffffffffffff16021790555080600960006101000a81548173ffffffffffffffffffffffffffffffffffffffff021916908373ffffffffffffffffffffffffffffffffffffffff1602179055505061018b565b60405161125a8061152483390190565b61138a8061019a6000396000f3006060604052600436106100d0576000357c0100000000000000000000000000000000000000000000000000000000900463ffffffff1680630c9548e0146100d257806312065fe0146101525780632722271f1461017b5780632a8f2848146101855780632ddbd13a146101ae5780639a4de081146101d75780639e9c5f911461023a578063aa6ca8081461028f578063bf8869b514610299578063c2412676146102c2578063c5924f7414610317578063d4691adc1461039e578063eb9969a8146103f3578063f15f14c51461041c575b005b34156100dd57600080fd5b610109600480803573ffffffffffffffffffffffffffffffffffffffff16906020019091905050610445565b604051808373ffffffffffffffffffffffffffffffffffffffff1673ffffffffffffffffffffffffffffffffffffffff1681526020018281526020019250505060405180910390f35b341561015d57600080fd5b610165610489565b6040518082815260200191505060405180910390f35b6101836105ab565b005b341561019057600080fd5b6101986106c2565b6040518082815260200191505060405180910390f35b34156101b957600080fd5b6101c16106c8565b6040518082815260200191505060405180910390f35b34156101e257600080fd5b6101f860048080359060200190919050506106ce565b604051808273ffffffffffffffffffffffffffffffffffffffff1673ffffffffffffffffffffffffffffffffffffffff16815260200191505060405180910390f35b341561024557600080fd5b61024d61070d565b604051808273ffffffffffffffffffffffffffffffffffffffff1673ffffffffffffffffffffffffffffffffffffffff16815260200191505060405180910390f35b610297610733565b005b34156102a457600080fd5b6102ac610b20565b6040518082815260200191505060405180910390f35b34156102cd57600080fd5b6102d5610b52565b604051808273ffffffffffffffffffffffffffffffffffffffff1673ffffffffffffffffffffffffffffffffffffffff16815260200191505060405180910390f35b341561032257600080fd5b61034e600480803573ffffffffffffffffffffffffffffffffffffffff16906020019091905050610b77565b604051808473ffffffffffffffffffffffffffffffffffffffff1673ffffffffffffffffffffffffffffffffffffffff168152602001838152602001828152602001935050505060405180910390f35b34156103a957600080fd5b6103b1610bc1565b604051808273ffffffffffffffffffffffffffffffffffffffff1673ffffffffffffffffffffffffffffffffffffffff16815260200191505060405180910390f35b34156103fe57600080fd5b610406610beb565b6040518082815260200191505060405180910390f35b341561042757600080fd5b61042f610cd2565b6040518082815260200191505060405180910390f35b600c6020528060005260406000206000915090508060000160009054906101000a900473ffffffffffffffffffffffffffffffffffffffff16908060010154905082565b6000600960009054906101000a900473ffffffffffffffffffffffffffffffffffffffff1673ffffffffffffffffffffffffffffffffffffffff1663eff0746d600b60008154811015156104d957fe5b906000526020600020900160009054906101000a900473ffffffffffffffffffffffffffffffffffffffff166000604051602001526040518263ffffffff167c0100000000000000000000000000000000000000000000000000000000028152600401808273ffffffffffffffffffffffffffffffffffffffff1673ffffffffffffffffffffffffffffffffffffffff168152602001915050602060405180830381600087803b151561058b57600080fd5b6102c65a03f1151561059c57600080fd5b50505060405180519050905090565b33600c60003373ffffffffffffffffffffffffffffffffffffffff1673ffffffffffffffffffffffffffffffffffffffff16815260200190815260200160002060000160006101000a81548173ffffffffffffffffffffffffffffffffffffffff021916908373ffffffffffffffffffffffffffffffffffffffff16021790555034600c60003373ffffffffffffffffffffffffffffffffffffffff1673ffffffffffffffffffffffffffffffffffffffff1681526020019081526020016000206001015401600c60003373ffffffffffffffffffffffffffffffffffffffff1673ffffffffffffffffffffffffffffffffffffffff168152602001908152602001600020600101819055506106c034610feb565b565b60085481565b60075481565b600b818154811015156106dd57fe5b90600052602060002090016000915054906101000a900473ffffffffffffffffffffffffffffffffffffffff1681565b600260009054906101000a900473ffffffffffffffffffffffffffffffffffffffff1681565b60006004543481151561074257fe5b049050600960009054906101000a900473ffffffffffffffffffffffffffffffffffffffff1673ffffffffffffffffffffffffffffffffffffffff16633723bfd733836040518363ffffffff167c0100000000000000000000000000000000000000000000000000000000028152600401808373ffffffffffffffffffffffffffffffffffffffff1673ffffffffffffffffffffffffffffffffffffffff16815260200182815260200192505050600060405180830381600087803b151561080957600080fd5b6102c65a03f1151561081a57600080fd5b505050600960009054906101000a900473ffffffffffffffffffffffffffffffffffffffff1673ffffffffffffffffffffffffffffffffffffffff1663e1895093600a600081548110151561086b57fe5b906000526020600020900160009054906101000a900473ffffffffffffffffffffffffffffffffffffffff16836040518363ffffffff167c0100000000000000000000000000000000000000000000000000000000028152600401808373ffffffffffffffffffffffffffffffffffffffff1673ffffffffffffffffffffffffffffffffffffffff16815260200182815260200192505050600060405180830381600087803b151561091c57600080fd5b6102c65a03f1151561092d57600080fd5b505050600a600081548110151561094057fe5b906000526020600020900160009054906101000a900473ffffffffffffffffffffffffffffffffffffffff1673ffffffffffffffffffffffffffffffffffffffff166108fc349081150290604051600060405180830381858888f1935050505015156109ab57600080fd5b600b80548060010182816109bf919061130d565b9160005260206000209001600033909190916101000a81548173ffffffffffffffffffffffffffffffffffffffff021916908373ffffffffffffffffffffffffffffffffffffffff1602179055505033600d60003373ffffffffffffffffffffffffffffffffffffffff1673ffffffffffffffffffffffffffffffffffffffff16815260200190815260200160002060000160006101000a81548173ffffffffffffffffffffffffffffffffffffffff021916908373ffffffffffffffffffffffffffffffffffffffff16021790555034600d60003373ffffffffffffffffffffffffffffffffffffffff1673ffffffffffffffffffffffffffffffffffffffff1681526020019081526020016000206001018190555080600d60003373ffffffffffffffffffffffffffffffffffffffff1673ffffffffffffffffffffffffffffffffffffffff1681526020019081526020016000206002018190555050565b6000670de0b6b3a76400003073ffffffffffffffffffffffffffffffffffffffff1631811515610b4c57fe5b04905090565b6000809054906101000a900473ffffffffffffffffffffffffffffffffffffffff1681565b600d6020528060005260406000206000915090508060000160009054906101000a900473ffffffffffffffffffffffffffffffffffffffff16908060010154908060020154905083565b6000600260009054906101000a900473ffffffffffffffffffffffffffffffffffffffff16905090565b6000600960009054906101000a900473ffffffffffffffffffffffffffffffffffffffff1673ffffffffffffffffffffffffffffffffffffffff1663eff0746d336000604051602001526040518263ffffffff167c0100000000000000000000000000000000000000000000000000000000028152600401808273ffffffffffffffffffffffffffffffffffffffff1673ffffffffffffffffffffffffffffffffffffffff168152602001915050602060405180830381600087803b1515610cb257600080fd5b6102c65a03f11515610cc357600080fd5b50505060405180519050905090565b600080600a6000815481101515610ce557fe5b906000526020600020900160009054906101000a900473ffffffffffffffffffffffffffffffffffffffff1673ffffffffffffffffffffffffffffffffffffffff163373ffffffffffffffffffffffffffffffffffffffff161415610fe657600960009054906101000a900473ffffffffffffffffffffffffffffffffffffffff1673ffffffffffffffffffffffffffffffffffffffff1663e1895093600160009054906101000a900473ffffffffffffffffffffffffffffffffffffffff166005546040518363ffffffff167c0100000000000000000000000000000000000000000000000000000000028152600401808373ffffffffffffffffffffffffffffffffffffffff1673ffffffffffffffffffffffffffffffffffffffff16815260200182815260200192505050600060405180830381600087803b1515610e2c57600080fd5b6102c65a03f11515610e3d57600080fd5b5050506064600a60055402811515610e5157fe5b04600881905550600960009054906101000a900473ffffffffffffffffffffffffffffffffffffffff1673ffffffffffffffffffffffffffffffffffffffff16633723bfd7336008546040518363ffffffff167c0100000000000000000000000000000000000000000000000000000000028152600401808373ffffffffffffffffffffffffffffffffffffffff1673ffffffffffffffffffffffffffffffffffffffff16815260200182815260200192505050600060405180830381600087803b1515610f1e57600080fd5b6102c65a03f11515610f2f57600080fd5b505050600090505b600b80549050811015610fdd57600d6000600b83815481101515610f5757fe5b906000526020600020900160009054906101000a900473ffffffffffffffffffffffffffffffffffffffff1673ffffffffffffffffffffffffffffffffffffffff1673ffffffffffffffffffffffffffffffffffffffff168152602001908152602001600020600201546007600082825401925050819055508080600101915050610f37565b610fe561113c565b5b600080fd5b600060035482811515610ffa57fe5b049050600960009054906101000a900473ffffffffffffffffffffffffffffffffffffffff1673ffffffffffffffffffffffffffffffffffffffff16633723bfd733836040518363ffffffff167c0100000000000000000000000000000000000000000000000000000000028152600401808373ffffffffffffffffffffffffffffffffffffffff1673ffffffffffffffffffffffffffffffffffffffff16815260200182815260200192505050600060405180830381600087803b15156110c157600080fd5b6102c65a03f115156110d257600080fd5b505050600a80548060010182816110e9919061130d565b9160005260206000209001600033909190916101000a81548173ffffffffffffffffffffffffffffffffffffffff021916908373ffffffffffffffffffffffffffffffffffffffff160217905550505050565b60008060008092505b600b805490508310156113085760085460055403600d6000600b8681548110151561116c57fe5b906000526020600020900160009054906101000a900473ffffffffffffffffffffffffffffffffffffffff1673ffffffffffffffffffffffffffffffffffffffff1673ffffffffffffffffffffffffffffffffffffffff16815260200190815260200160002060020154029150600754828115156111e657fe5b049050600960009054906101000a900473ffffffffffffffffffffffffffffffffffffffff1673ffffffffffffffffffffffffffffffffffffffff16633723bfd7600b8581548110151561123657fe5b906000526020600020900160009054906101000a900473ffffffffffffffffffffffffffffffffffffffff16836040518363ffffffff167c0100000000000000000000000000000000000000000000000000000000028152600401808373ffffffffffffffffffffffffffffffffffffffff1673ffffffffffffffffffffffffffffffffffffffff16815260200182815260200192505050600060405180830381600087803b15156112e757600080fd5b6102c65a03f115156112f857600080fd5b5050508280600101935050611145565b505050565b815481835581811511611334578183600052602060002091820191016113339190611339565b5b505050565b61135b91905b8082111561135757600081600090555060010161133f565b5090565b905600a165627a7a72305820c2704368a5c8ceec431c849335006216527499d817dadd9a4d559eb57123eaa9002960606040526040805190810160405280600981526020017f546f6b656e20312e3000000000000000000000000000000000000000000000008152506000908051906020019062000051929190620001a2565b5034156200005e57600080fd5b620186a0600381905550600354600760003373ffffffffffffffffffffffffffffffffffffffff1673ffffffffffffffffffffffffffffffffffffffff168152602001908152602001600020819055506040805190810160405280600381526020017f445458000000000000000000000000000000000000000000000000000000000081525060029080519060200190620000fb929190620001a2565b506040805190810160405280600c81526020017f446f7374726978546f6b656e00000000000000000000000000000000000000008152506001908051906020019062000149929190620001a2565b506101f4600481905550600060058190555033600660006101000a81548173ffffffffffffffffffffffffffffffffffffffff021916908373ffffffffffffffffffffffffffffffffffffffff16021790555062000251565b828054600181600116156101000203166002900490600052602060002090601f016020900481019282601f10620001e557805160ff191683800117855562000216565b8280016001018555821562000216579182015b8281111562000215578251825591602001919060010190620001f8565b5b50905062000225919062000229565b5090565b6200024e91905b808211156200024a57600081600090555060010162000230565b5090565b90565b610ff980620002616000396000f3006060604052600436106100e6576000357c0100000000000000000000000000000000000000000000000000000000900463ffffffff16806306fdde03146100eb578063095ea7b31461017957806318160ddd146101d357806323b872dd146101fc578063313ce567146102755780633723bfd71461029e5780635c658165146102d5578063661884631461034157806370a082311461039b57806372dd529b146103e857806395d89b4114610411578063a9059cbb1461049f578063d73dd623146104f9578063dd62ed3e14610553578063e1895093146105bf578063eff0746d146105f6575b600080fd5b34156100f657600080fd5b6100fe610643565b6040518080602001828103825283818151815260200191508051906020019080838360005b8381101561013e578082015181840152602081019050610123565b50505050905090810190601f16801561016b5780820380516001836020036101000a031916815260200191505b509250505060405180910390f35b341561018457600080fd5b6101b9600480803573ffffffffffffffffffffffffffffffffffffffff169060200190919080359060200190919050506106e1565b604051808215151515815260200191505060405180910390f35b34156101de57600080fd5b6101e661076e565b6040518082815260200191505060405180910390f35b341561020757600080fd5b61025b600480803573ffffffffffffffffffffffffffffffffffffffff1690602001909190803573ffffffffffffffffffffffffffffffffffffffff16906020019091908035906020019091905050610778565b604051808215151515815260200191505060405180910390f35b341561028057600080fd5b6102886108f4565b6040518082815260200191505060405180910390f35b6102d3600480803573ffffffffffffffffffffffffffffffffffffffff169060200190919080359060200190919050506108fa565b005b34156102e057600080fd5b61032b600480803573ffffffffffffffffffffffffffffffffffffffff1690602001909190803573ffffffffffffffffffffffffffffffffffffffff16906020019091905050610983565b6040518082815260200191505060405180910390f35b341561034c57600080fd5b610381600480803573ffffffffffffffffffffffffffffffffffffffff169060200190919080359060200190919050506109a8565b604051808215151515815260200191505060405180910390f35b34156103a657600080fd5b6103d2600480803573ffffffffffffffffffffffffffffffffffffffff16906020019091905050610ab3565b6040518082815260200191505060405180910390f35b34156103f357600080fd5b6103fb610afc565b6040518082815260200191505060405180910390f35b341561041c57600080fd5b610424610b02565b6040518080602001828103825283818151815260200191508051906020019080838360005b83811015610464578082015181840152602081019050610449565b50505050905090810190601f1680156104915780820380516001836020036101000a031916815260200191505b509250505060405180910390f35b34156104aa57600080fd5b6104df600480803573ffffffffffffffffffffffffffffffffffffffff16906020019091908035906020019091905050610ba0565b604051808215151515815260200191505060405180910390f35b341561050457600080fd5b610539600480803573ffffffffffffffffffffffffffffffffffffffff16906020019091908035906020019091905050610d69565b604051808215151515815260200191505060405180910390f35b341561055e57600080fd5b6105a9600480803573ffffffffffffffffffffffffffffffffffffffff1690602001909190803573ffffffffffffffffffffffffffffffffffffffff16906020019091905050610e74565b6040518082815260200191505060405180910390f35b6105f4600480803573ffffffffffffffffffffffffffffffffffffffff16906020019091908035906020019091905050610efb565b005b341561060157600080fd5b61062d600480803573ffffffffffffffffffffffffffffffffffffffff16906020019091905050610f84565b6040518082815260200191505060405180910390f35b60018054600181600116156101000203166002900480601f0160208091040260200160405190810160405280929190818152602001828054600181600116156101000203166002900480156106d95780601f106106ae576101008083540402835291602001916106d9565b820191906000526020600020905b8154815290600101906020018083116106bc57829003601f168201915b505050505081565b600081600860003373ffffffffffffffffffffffffffffffffffffffff1673ffffffffffffffffffffffffffffffffffffffff16815260200190815260200160002060008573ffffffffffffffffffffffffffffffffffffffff1673ffffffffffffffffffffffffffffffffffffffff168152602001908152602001600020819055506001905092915050565b6000600354905090565b600081600760008673ffffffffffffffffffffffffffffffffffffffff1673ffffffffffffffffffffffffffffffffffffffff1681526020019081526020016000205403600760008673ffffffffffffffffffffffffffffffffffffffff1673ffffffffffffffffffffffffffffffffffffffff1681526020019081526020016000208190555081600760008573ffffffffffffffffffffffffffffffffffffffff1673ffffffffffffffffffffffffffffffffffffffff1681526020019081526020016000205401600760008573ffffffffffffffffffffffffffffffffffffffff1673ffffffffffffffffffffffffffffffffffffffff168152602001908152602001600020819055508273ffffffffffffffffffffffffffffffffffffffff168473ffffffffffffffffffffffffffffffffffffffff167fddf252ad1be2c89b69c2b068fc378daa952ba7f163c4a11628f55a4df523b3ef846040518082815260200191505060405180910390a3600190509392505050565b60055481565b80600760008473ffffffffffffffffffffffffffffffffffffffff1673ffffffffffffffffffffffffffffffffffffffff1681526020019081526020016000205401600760008473ffffffffffffffffffffffffffffffffffffffff1673ffffffffffffffffffffffffffffffffffffffff168152602001908152602001600020819055505050565b6008602052816000526040600020602052806000526040600020600091509150505481565b600081600860003373ffffffffffffffffffffffffffffffffffffffff1673ffffffffffffffffffffffffffffffffffffffff16815260200190815260200160002060008573ffffffffffffffffffffffffffffffffffffffff1673ffffffffffffffffffffffffffffffffffffffff1681526020019081526020016000205403600860003373ffffffffffffffffffffffffffffffffffffffff1673ffffffffffffffffffffffffffffffffffffffff16815260200190815260200160002060008573ffffffffffffffffffffffffffffffffffffffff1673ffffffffffffffffffffffffffffffffffffffff168152602001908152602001600020819055506001905092915050565b6000600760008373ffffffffffffffffffffffffffffffffffffffff1673ffffffffffffffffffffffffffffffffffffffff168152602001908152602001600020549050919050565b60035481565b60028054600181600116156101000203166002900480601f016020809104026020016040519081016040528092919081815260200182805460018160011615610100020316600290048015610b985780601f10610b6d57610100808354040283529160200191610b98565b820191906000526020600020905b815481529060010190602001808311610b7b57829003601f168201915b505050505081565b6000600760003373ffffffffffffffffffffffffffffffffffffffff1673ffffffffffffffffffffffffffffffffffffffff168152602001908152602001600020548211151515610bf057600080fd5b81600760003373ffffffffffffffffffffffffffffffffffffffff1673ffffffffffffffffffffffffffffffffffffffff1681526020019081526020016000205403600760003373ffffffffffffffffffffffffffffffffffffffff1673ffffffffffffffffffffffffffffffffffffffff1681526020019081526020016000208190555081600760008573ffffffffffffffffffffffffffffffffffffffff1673ffffffffffffffffffffffffffffffffffffffff1681526020019081526020016000205401600760008573ffffffffffffffffffffffffffffffffffffffff1673ffffffffffffffffffffffffffffffffffffffff168152602001908152602001600020819055508273ffffffffffffffffffffffffffffffffffffffff163373ffffffffffffffffffffffffffffffffffffffff167fddf252ad1be2c89b69c2b068fc378daa952ba7f163c4a11628f55a4df523b3ef846040518082815260200191505060405180910390a36001905092915050565b600081600860003373ffffffffffffffffffffffffffffffffffffffff1673ffffffffffffffffffffffffffffffffffffffff16815260200190815260200160002060008573ffffffffffffffffffffffffffffffffffffffff1673ffffffffffffffffffffffffffffffffffffffff1681526020019081526020016000205401600860003373ffffffffffffffffffffffffffffffffffffffff1673ffffffffffffffffffffffffffffffffffffffff16815260200190815260200160002060008573ffffffffffffffffffffffffffffffffffffffff1673ffffffffffffffffffffffffffffffffffffffff168152602001908152602001600020819055506001905092915050565b6000600860008473ffffffffffffffffffffffffffffffffffffffff1673ffffffffffffffffffffffffffffffffffffffff16815260200190815260200160002060008373ffffffffffffffffffffffffffffffffffffffff1673ffffffffffffffffffffffffffffffffffffffff16815260200190815260200160002054905092915050565b80600760008473ffffffffffffffffffffffffffffffffffffffff1673ffffffffffffffffffffffffffffffffffffffff1681526020019081526020016000205403600760008473ffffffffffffffffffffffffffffffffffffffff1673ffffffffffffffffffffffffffffffffffffffff168152602001908152602001600020819055505050565b6000600760008373ffffffffffffffffffffffffffffffffffffffff1673ffffffffffffffffffffffffffffffffffffffff1681526020019081526020016000205490509190505600a165627a7a723058209193ffe9379da8e67aa2aea60c9869e05c945d485cb331c98d1b532b24fb19fb0029",
  "source": "pragma solidity ^0.4.18;\r\n\r\nimport \"./FundToken.sol\";\r\n\r\n\r\ncontract DMF {\r\n    \r\n        FundToken public Token; //obj for Fundtoken\r\n    \r\n        //modifier only access the functions by Portfolio manager \r\n        modifier OnlyPortfolio()\r\n        {\r\n            if(msg.sender == portfolioMAdd[0])\r\n            {\r\n                _;\r\n            }\r\n            revert();\r\n        }\r\n        //Global Variable Declaration part\r\n\r\n        address owner; //owner variable for assigning contract Owner\r\n        address public newadd; //For getting the Contract Address\r\n        uint256 rate = 0.001 ether; //rate of Fundtoken For PortfolioManager\r\n        uint256 cost = 0.01 ether;  //rate of FundToken For Investors\r\n        uint256 dividendTK = 100; //divident tokens count for give the profit to Investor\r\n        uint256 profitTk = 10; //profit tokens for the Portfolio manager \r\n        uint256 public total = 0; \r\n        uint256 public pprofit = 0; //For the Portfoliomanager profit tokens \r\n        address contractAddress; //Fundtoken\r\n        \r\n    //ArrayList\r\n     address[] portfolioMAdd; //Array for storing the each register PortfolioManager\r\n     address[] public Investor; //Array for storing the each register Investors\r\n   \r\n    //Phase -2\r\n                            //Structure Area\r\n\r\n\r\n     //Structure For PortfolioManager Details\r\n            struct PortfolioMFTK\r\n            {\r\n                address portfolioM;\r\n                //address contractAdd;\r\n                uint256 Eth;\r\n            }\r\n    //Structure For Investor Details  \r\n            struct InvestorPTk\r\n            {\r\n                address buyer;\r\n                uint256 Eth;\r\n                uint256 howTK;\r\n            }\r\n\r\n    //Constructor For initialize the contract Owner Address and Contract Deployed Address\r\n            function DMF(address na)public{\r\n                owner=msg.sender;\r\n                newadd=address(this);\r\n                Token=new FundToken();\r\n                 contractAddress=na;\r\n                \r\n            }\r\n       \r\n           \r\n                             //Mapping Area\r\n\r\n      mapping(address => PortfolioMFTK) public BuyTK; //Map for getting and storing the PortfolioManager resgistration Details\r\n      mapping(address => InvestorPTk) public BuyInves; //map for getting and storing the Investor getting token details\r\n      //Fallback Function For Holding the Ether in Contract\r\n      function () public payable{\r\n          \r\n      }\r\n      \r\n\r\n                                //Function Area\r\n        //Function For PortfolioManager Resgistration\r\n        function PortfolioReg() public payable{\r\n            BuyTK[msg.sender].portfolioM= msg.sender;\r\n            BuyTK[msg.sender].Eth=BuyTK[msg.sender].Eth + msg.value;\r\n         \r\n            GetFundToken(msg.value);\r\n        }\r\n        \r\n       \r\n\r\n        //Function For Getting the Fundtokens by the PortfolioManager\r\n         function GetFundToken(uint256 value) private{\r\n            uint256 tokens = value / rate;\r\n            FundToken(contractAddress).updateD(msg.sender,tokens);\r\n            //Transfer(0,msg.sender,msg.value);\r\n           \r\n           \r\n            portfolioMAdd.push(msg.sender);\r\n         }\r\n\r\n        //Function For Getting the Contract Ether Balance \r\n      function GetBal()public view returns(uint256){\r\n          return this.balance/ 1 ether; //converting wei value to ether\r\n      }\r\n      \r\n\r\n      //Function For Getting the Contract Address\r\n      function getContractaddress() public view returns(address)\r\n      {\r\n          return newadd;\r\n      }\r\n      \r\n      \r\n      //Phase-3\r\n\r\n      //Function For Buying the FundTokens by the Investor From the PortfolioManager\r\n      function getTokens() public payable\r\n      {\r\n          uint256 tokens = msg.value / cost;\r\n          FundToken(contractAddress).updateD(msg.sender,tokens);\r\n          FundToken(contractAddress).dDetails(portfolioMAdd[0],tokens);\r\n          portfolioMAdd[0].transfer(msg.value);\r\n          Investor.push(msg.sender);\r\n          BuyInves[msg.sender].buyer = msg.sender;\r\n          BuyInves[msg.sender].Eth = msg.value;\r\n          BuyInves[msg.sender].howTK = tokens;\r\n          \r\n      }\r\n    \r\n  \r\n\r\n    //Phase-4\r\n\r\n\r\n    //Function For Getting the Investor Balance of Tokens\r\n    function getBalance() public view returns(uint256)\r\n    {\r\n       return  FundToken(contractAddress).gettheD(Investor[0]);\r\n    }\r\n\r\n    //Phase-5\r\n    \r\n    /** The dividends calculations\r\n        Investor1 = (( Investor1_fund TK) / (Inves1_FUndTK + Inves2_FUndTK + ... )) * 90;\r\n     */\r\n    //Function For issue the Dividends yo the User\r\n    function Dividends() public OnlyPortfolio  returns(uint256)  \r\n    {\r\n        \r\n        FundToken(contractAddress).dDetails(owner,dividendTK); //minting the token \r\n        pprofit = (dividendTK * 10) / 100; //taking the portfolio share\r\n        FundToken(contractAddress).updateD(msg.sender,pprofit);\r\n        for(uint256 i =0;i < Investor.length; i++)\r\n        {\r\n          total +=  BuyInves[Investor[i]].howTK;\r\n        }\r\n        \r\n         ShareETK_ToI();\r\n         \r\n         \r\n    }\r\n    \r\n    \r\n    \r\n    //function for split the profit to each tokens\r\n    function ShareETK_ToI() private \r\n    {\r\n        for(uint256 i=0;i<Investor.length;i++)\r\n        {\r\n            uint256 b = BuyInves[Investor[i]].howTK * (dividendTK - pprofit);\r\n             uint256 a =  b  / total;\r\n           FundToken(contractAddress).updateD(Investor[i],a);\r\n        }\r\n    }\r\n    \r\n    \r\n    //getting All the Investor and PortfolioManager balance \r\n    function getAllBalance() public view returns(uint256)\r\n    {\r\n     return FundToken(contractAddress).gettheD(msg.sender);\r\n    }\r\n    \r\n\r\n   \r\n}",
  "sourcePath": "C:\\Users\\Balavignesh.0856\\Desktop\\GREEN\\Mutual-Funds\\contracts\\DMF.sol",
  "compiler": {
    "name": "solc",
    "version": "0.4.19+commit.c4cbbb05.Emscripten.clang"
  },
  "schemaVersion": "2.0.0",
  "updatedAt": "2018-03-30T11:40:12.519Z"
}