{
  "contractName": "DMF",
  "abi": [
    {
      "constant": true,
      "inputs": [
        {
          "name": "",
          "type": "address"
        }
      ],
      "name": "Purchase",
      "outputs": [
        {
          "name": "",
          "type": "address"
        }
      ],
      "payable": false,
      "stateMutability": "view",
      "type": "function"
    },
    {
      "constant": true,
      "inputs": [],
      "name": "takecommission",
      "outputs": [
        {
          "name": "",
          "type": "uint256"
        }
      ],
      "payable": false,
      "stateMutability": "view",
      "type": "function"
    },
    {
      "constant": true,
      "inputs": [
        {
          "name": "",
          "type": "uint256"
        }
      ],
      "name": "TotalInvestorAddress",
      "outputs": [
        {
          "name": "",
          "type": "address"
        }
      ],
      "payable": false,
      "stateMutability": "view",
      "type": "function"
    },
    {
      "constant": true,
      "inputs": [
        {
          "name": "",
          "type": "uint256"
        }
      ],
      "name": "ToatlportfolioMAddress",
      "outputs": [
        {
          "name": "",
          "type": "address"
        }
      ],
      "payable": false,
      "stateMutability": "view",
      "type": "function"
    },
    {
      "constant": true,
      "inputs": [
        {
          "name": "",
          "type": "address"
        },
        {
          "name": "",
          "type": "address"
        }
      ],
      "name": "invester",
      "outputs": [
        {
          "name": "Eth",
          "type": "uint256"
        },
        {
          "name": "TokenCount",
          "type": "uint256"
        }
      ],
      "payable": false,
      "stateMutability": "view",
      "type": "function"
    },
    {
      "constant": true,
      "inputs": [],
      "name": "newadd",
      "outputs": [
        {
          "name": "",
          "type": "address"
        }
      ],
      "payable": false,
      "stateMutability": "view",
      "type": "function"
    },
    {
      "constant": true,
      "inputs": [
        {
          "name": "",
          "type": "address"
        }
      ],
      "name": "PM_soldTK_Ether",
      "outputs": [
        {
          "name": "",
          "type": "uint256"
        }
      ],
      "payable": false,
      "stateMutability": "view",
      "type": "function"
    },
    {
      "constant": true,
      "inputs": [
        {
          "name": "",
          "type": "address"
        }
      ],
      "name": "Investment",
      "outputs": [
        {
          "name": "Eth",
          "type": "uint256"
        },
        {
          "name": "TokenCount",
          "type": "uint256"
        }
      ],
      "payable": false,
      "stateMutability": "view",
      "type": "function"
    },
    {
      "constant": true,
      "inputs": [
        {
          "name": "",
          "type": "address"
        }
      ],
      "name": "Portfolio",
      "outputs": [
        {
          "name": "Eth",
          "type": "uint256"
        },
        {
          "name": "commissionForPortfolio",
          "type": "uint256"
        }
      ],
      "payable": false,
      "stateMutability": "view",
      "type": "function"
    },
    {
      "inputs": [
        {
          "name": "na",
          "type": "address"
        }
      ],
      "payable": true,
      "stateMutability": "payable",
      "type": "constructor"
    },
    {
      "constant": false,
      "inputs": [],
      "name": "PortfolioReg",
      "outputs": [],
      "payable": true,
      "stateMutability": "payable",
      "type": "function"
    },
    {
      "constant": true,
      "inputs": [],
      "name": "GetBal",
      "outputs": [
        {
          "name": "",
          "type": "uint256"
        }
      ],
      "payable": false,
      "stateMutability": "view",
      "type": "function"
    },
    {
      "constant": false,
      "inputs": [
        {
          "name": "_add_",
          "type": "address"
        }
      ],
      "name": "InvesterGetToken",
      "outputs": [],
      "payable": true,
      "stateMutability": "payable",
      "type": "function"
    },
    {
      "constant": true,
      "inputs": [
        {
          "name": "a",
          "type": "address"
        }
      ],
      "name": "getBalance",
      "outputs": [
        {
          "name": "",
          "type": "uint256"
        }
      ],
      "payable": false,
      "stateMutability": "view",
      "type": "function"
    },
    {
      "constant": false,
      "inputs": [],
      "name": "Dividends",
      "outputs": [],
      "payable": false,
      "stateMutability": "nonpayable",
      "type": "function"
    },
    {
      "constant": false,
      "inputs": [
        {
          "name": "_add_",
          "type": "address"
        },
        {
          "name": "value",
          "type": "uint256"
        }
      ],
      "name": "ReturnTokenToPortfolioManager",
      "outputs": [],
      "payable": true,
      "stateMutability": "payable",
      "type": "function"
    },
    {
      "constant": false,
      "inputs": [
        {
          "name": "buyToken",
          "type": "address"
        },
        {
          "name": "amountoftoken",
          "type": "uint256"
        }
      ],
      "name": "purchaseToken",
      "outputs": [],
      "payable": true,
      "stateMutability": "payable",
      "type": "function"
    },
    {
      "constant": true,
      "inputs": [],
      "name": "values",
      "outputs": [
        {
          "name": "",
          "type": "uint256"
        },
        {
          "name": "",
          "type": "uint256"
        }
      ],
      "payable": false,
      "stateMutability": "view",
      "type": "function"
    },
    {
      "constant": true,
      "inputs": [
        {
          "name": "a",
          "type": "address"
        }
      ],
      "name": "Investercount",
      "outputs": [
        {
          "name": "",
          "type": "uint256"
        }
      ],
      "payable": false,
      "stateMutability": "view",
      "type": "function"
    },
    {
      "constant": true,
      "inputs": [
        {
          "name": "a",
          "type": "address"
        }
      ],
      "name": "portfoliocount",
      "outputs": [
        {
          "name": "",
          "type": "uint256"
        }
      ],
      "payable": false,
      "stateMutability": "view",
      "type": "function"
    },
    {
      "constant": true,
      "inputs": [
        {
          "name": "a",
          "type": "address"
        },
        {
          "name": "i",
          "type": "uint256"
        }
      ],
      "name": "InvesterList",
      "outputs": [
        {
          "name": "",
          "type": "address"
        }
      ],
      "payable": false,
      "stateMutability": "view",
      "type": "function"
    },
    {
      "constant": true,
      "inputs": [
        {
          "name": "a",
          "type": "address"
        },
        {
          "name": "i",
          "type": "uint256"
        }
      ],
      "name": "PortfolioList",
      "outputs": [
        {
          "name": "",
          "type": "address"
        }
      ],
      "payable": false,
      "stateMutability": "view",
      "type": "function"
    }
  ],
  "bytecode": "0x6080604052600080556040516020806122858339810180604052810190808051906020019092919050505030600360006101000a81548173ffffffffffffffffffffffffffffffffffffffff021916908373ffffffffffffffffffffffffffffffffffffffff16021790555080600260006101000a81548173ffffffffffffffffffffffffffffffffffffffff021916908373ffffffffffffffffffffffffffffffffffffffff160217905550506121c9806100bc6000396000f30060806040526004361061011d576000357c0100000000000000000000000000000000000000000000000000000000900463ffffffff1680631cc2c91114610122578063233e0877146101625780632722271f146101e557806331e69acb146101ef57806336c38cc71461021a57806352aa8382146102875780635c6beb54146102f45780639074a65514610381578063971217b7146103ff5780639e9c5f9114610431578063a35a3aec14610488578063ba04fa8d14610515578063bf8869b51461056c578063c53dd11c14610597578063c9e9da34146105d7578063d78982401461062e578063de8540651461068c578063efa951c7146106ea578063f15f14c514610741578063f8b2cb4f14610758578063f93498c4146107af575b600080fd5b610160600480360381019080803573ffffffffffffffffffffffffffffffffffffffff169060200190929190803590602001909291905050506107e5565b005b34801561016e57600080fd5b506101a3600480360381019080803573ffffffffffffffffffffffffffffffffffffffff16906020019092919050505061091f565b604051808273ffffffffffffffffffffffffffffffffffffffff1673ffffffffffffffffffffffffffffffffffffffff16815260200191505060405180910390f35b6101ed610952565b005b3480156101fb57600080fd5b50610204610b0c565b6040518082815260200191505060405180910390f35b34801561022657600080fd5b5061024560048036038101908080359060200190929190505050610b12565b604051808273ffffffffffffffffffffffffffffffffffffffff1673ffffffffffffffffffffffffffffffffffffffff16815260200191505060405180910390f35b34801561029357600080fd5b506102b260048036038101908080359060200190929190505050610b50565b604051808273ffffffffffffffffffffffffffffffffffffffff1673ffffffffffffffffffffffffffffffffffffffff16815260200191505060405180910390f35b34801561030057600080fd5b5061033f600480360381019080803573ffffffffffffffffffffffffffffffffffffffff16906020019092919080359060200190929190505050610b8e565b604051808273ffffffffffffffffffffffffffffffffffffffff1673ffffffffffffffffffffffffffffffffffffffff16815260200191505060405180910390f35b34801561038d57600080fd5b506103e2600480360381019080803573ffffffffffffffffffffffffffffffffffffffff169060200190929190803573ffffffffffffffffffffffffffffffffffffffff169060200190929190505050610c12565b604051808381526020018281526020019250505060405180910390f35b34801561040b57600080fd5b50610414610c43565b604051808381526020018281526020019250505060405180910390f35b34801561043d57600080fd5b50610446610c5a565b604051808273ffffffffffffffffffffffffffffffffffffffff1673ffffffffffffffffffffffffffffffffffffffff16815260200191505060405180910390f35b34801561049457600080fd5b506104d3600480360381019080803573ffffffffffffffffffffffffffffffffffffffff16906020019092919080359060200190929190505050610c80565b604051808273ffffffffffffffffffffffffffffffffffffffff1673ffffffffffffffffffffffffffffffffffffffff16815260200191505060405180910390f35b34801561052157600080fd5b50610556600480360381019080803573ffffffffffffffffffffffffffffffffffffffff169060200190929190505050610d04565b6040518082815260200191505060405180910390f35b34801561057857600080fd5b50610581610d1c565b6040518082815260200191505060405180910390f35b6105d5600480360381019080803573ffffffffffffffffffffffffffffffffffffffff16906020019092919080359060200190929190505050610d77565b005b3480156105e357600080fd5b50610618600480360381019080803573ffffffffffffffffffffffffffffffffffffffff169060200190929190505050611266565b6040518082815260200191505060405180910390f35b34801561063a57600080fd5b5061066f600480360381019080803573ffffffffffffffffffffffffffffffffffffffff1690602001909291905050506112b5565b604051808381526020018281526020019250505060405180910390f35b34801561069857600080fd5b506106cd600480360381019080803573ffffffffffffffffffffffffffffffffffffffff1690602001909291905050506112d9565b604051808381526020018281526020019250505060405180910390f35b3480156106f657600080fd5b5061072b600480360381019080803573ffffffffffffffffffffffffffffffffffffffff1690602001909291905050506112fd565b6040518082815260200191505060405180910390f35b34801561074d57600080fd5b5061075661134c565b005b34801561076457600080fd5b50610799600480360381019080803573ffffffffffffffffffffffffffffffffffffffff16906020019092919050505061180b565b6040518082815260200191505060405180910390f35b6107e3600480360381019080803573ffffffffffffffffffffffffffffffffffffffff16906020019092919050505061190c565b005b60008273ffffffffffffffffffffffffffffffffffffffff1663a9059cbb33846040518363ffffffff167c0100000000000000000000000000000000000000000000000000000000028152600401808373ffffffffffffffffffffffffffffffffffffffff1673ffffffffffffffffffffffffffffffffffffffff16815260200182815260200192505050602060405180830381600087803b15801561088a57600080fd5b505af115801561089e573d6000803e3d6000fd5b505050506040513d60208110156108b457600080fd5b81019080805190602001909291905050505067016345785d8a0000820290508273ffffffffffffffffffffffffffffffffffffffff166108fc829081150290604051600060405180830381858888f19350505050158015610919573d6000803e3d6000fd5b50505050565b60096020528060005260406000206000915054906101000a900473ffffffffffffffffffffffffffffffffffffffff1681565b6000806000610972670de0b6b3a764000034611faa90919063ffffffff16565b925061099b606461098d600a86611fce90919063ffffffff16565b611faa90919063ffffffff16565b91506109b282600154611fff90919063ffffffff16565b6001819055506109cb828461201b90919063ffffffff16565b9050610a2281600660003373ffffffffffffffffffffffffffffffffffffffff1673ffffffffffffffffffffffffffffffffffffffff16815260200190815260200160002060000154611fff90919063ffffffff16565b600660003373ffffffffffffffffffffffffffffffffffffffff1673ffffffffffffffffffffffffffffffffffffffff16815260200190815260200160002060000181905550610aba81600a60003373ffffffffffffffffffffffffffffffffffffffff1673ffffffffffffffffffffffffffffffffffffffff16815260200190815260200160002054611fff90919063ffffffff16565b600a60003373ffffffffffffffffffffffffffffffffffffffff1673ffffffffffffffffffffffffffffffffffffffff16815260200190815260200160002081905550610b073433612037565b505050565b60015481565b600581815481101515610b2157fe5b906000526020600020016000915054906101000a900473ffffffffffffffffffffffffffffffffffffffff1681565b600481815481101515610b5f57fe5b906000526020600020016000915054906101000a900473ffffffffffffffffffffffffffffffffffffffff1681565b6000600760008473ffffffffffffffffffffffffffffffffffffffff1673ffffffffffffffffffffffffffffffffffffffff16815260200190815260200160002060000182815481101515610bdf57fe5b9060005260206000200160009054906101000a900473ffffffffffffffffffffffffffffffffffffffff16905092915050565b6008602052816000526040600020602052806000526040600020600091509150508060010154908060020154905082565b600080600480549050600580549050915091509091565b600360009054906101000a900473ffffffffffffffffffffffffffffffffffffffff1681565b6000600660008473ffffffffffffffffffffffffffffffffffffffff1673ffffffffffffffffffffffffffffffffffffffff16815260200190815260200160002060010182815481101515610cd157fe5b9060005260206000200160009054906101000a900473ffffffffffffffffffffffffffffffffffffffff16905092915050565b600a6020528060005260406000206000915090505481565b6000610d72670de0b6b3a7640000600360009054906101000a900473ffffffffffffffffffffffffffffffffffffffff1673ffffffffffffffffffffffffffffffffffffffff1631611faa90919063ffffffff16565b905090565b6000806000600260009054906101000a900473ffffffffffffffffffffffffffffffffffffffff1673ffffffffffffffffffffffffffffffffffffffff166323b872dd3387876040518463ffffffff167c0100000000000000000000000000000000000000000000000000000000028152600401808473ffffffffffffffffffffffffffffffffffffffff1673ffffffffffffffffffffffffffffffffffffffff1681526020018373ffffffffffffffffffffffffffffffffffffffff1673ffffffffffffffffffffffffffffffffffffffff1681526020018281526020019350505050602060405180830381600087803b158015610e7557600080fd5b505af1158015610e89573d6000803e3d6000fd5b505050506040513d6020811015610e9f57600080fd5b810190808051906020019092919050505050610ecc67016345785d8a000085611fce90919063ffffffff16565b9250610f07610ef86064610eea600a87611fce90919063ffffffff16565b611faa90919063ffffffff16565b83611fff90919063ffffffff16565b9150610f38610f27670de0b6b3a764000084611faa90919063ffffffff16565b600154611fff90919063ffffffff16565b600181905550610fb9610f686064610f5a600a87611fce90919063ffffffff16565b611faa90919063ffffffff16565b600660008873ffffffffffffffffffffffffffffffffffffffff1673ffffffffffffffffffffffffffffffffffffffff16815260200190815260200160002060020154611fff90919063ffffffff16565b600660008773ffffffffffffffffffffffffffffffffffffffff1673ffffffffffffffffffffffffffffffffffffffff168152602001908152602001600020600201819055506110788261106a61105b600660008a73ffffffffffffffffffffffffffffffffffffffff1673ffffffffffffffffffffffffffffffffffffffff1681526020019081526020016000206002015486611fff90919063ffffffff16565b8661201b90919063ffffffff16565b611fff90919063ffffffff16565b90508473ffffffffffffffffffffffffffffffffffffffff166108fc600660008873ffffffffffffffffffffffffffffffffffffffff1673ffffffffffffffffffffffffffffffffffffffff168152602001908152602001600020600201549081150290604051600060405180830381858888f19350505050158015611102573d6000803e3d6000fd5b503373ffffffffffffffffffffffffffffffffffffffff166108fc829081150290604051600060405180830381858888f19350505050158015611149573d6000803e3d6000fd5b506111dc83600860003373ffffffffffffffffffffffffffffffffffffffff1673ffffffffffffffffffffffffffffffffffffffff16815260200190815260200160002060008873ffffffffffffffffffffffffffffffffffffffff1673ffffffffffffffffffffffffffffffffffffffff1681526020019081526020016000206001015461201b90919063ffffffff16565b600860003373ffffffffffffffffffffffffffffffffffffffff1673ffffffffffffffffffffffffffffffffffffffff16815260200190815260200160002060008773ffffffffffffffffffffffffffffffffffffffff1673ffffffffffffffffffffffffffffffffffffffff168152602001908152602001600020600101819055505050505050565b6000600660008373ffffffffffffffffffffffffffffffffffffffff1673ffffffffffffffffffffffffffffffffffffffff168152602001908152602001600020600101805490509050919050565b60076020528060005260406000206000915090508060010154908060020154905082565b60066020528060005260406000206000915090508060000154908060020154905082565b6000600760008373ffffffffffffffffffffffffffffffffffffffff1673ffffffffffffffffffffffffffffffffffffffff168152602001908152602001600020600001805490509050919050565b6000806000806064935060009250600260009054906101000a900473ffffffffffffffffffffffffffffffffffffffff1673ffffffffffffffffffffffffffffffffffffffff166379c6506833866040518363ffffffff167c0100000000000000000000000000000000000000000000000000000000028152600401808373ffffffffffffffffffffffffffffffffffffffff1673ffffffffffffffffffffffffffffffffffffffff16815260200182815260200192505050600060405180830381600087803b15801561141f57600080fd5b505af1158015611433573d6000803e3d6000fd5b5050505061145e6064611450600a87611fce90919063ffffffff16565b611faa90919063ffffffff16565b9250600260009054906101000a900473ffffffffffffffffffffffffffffffffffffffff1673ffffffffffffffffffffffffffffffffffffffff166379c6506833856040518363ffffffff167c0100000000000000000000000000000000000000000000000000000000028152600401808373ffffffffffffffffffffffffffffffffffffffff1673ffffffffffffffffffffffffffffffffffffffff16815260200182815260200192505050600060405180830381600087803b15801561152557600080fd5b505af1158015611539573d6000803e3d6000fd5b50505050600091505b600580549050821015611805576116036000546115f561156b868861201b90919063ffffffff16565b6007600060058881548110151561157e57fe5b9060005260206000200160009054906101000a900473ffffffffffffffffffffffffffffffffffffffff1673ffffffffffffffffffffffffffffffffffffffff1673ffffffffffffffffffffffffffffffffffffffff16815260200190815260200160002060020154611fce90919063ffffffff16565b611faa90919063ffffffff16565b9050600260009054906101000a900473ffffffffffffffffffffffffffffffffffffffff1673ffffffffffffffffffffffffffffffffffffffff166379c6506860058481548110151561165257fe5b9060005260206000200160009054906101000a900473ffffffffffffffffffffffffffffffffffffffff16836040518363ffffffff167c0100000000000000000000000000000000000000000000000000000000028152600401808373ffffffffffffffffffffffffffffffffffffffff1673ffffffffffffffffffffffffffffffffffffffff16815260200182815260200192505050600060405180830381600087803b15801561170357600080fd5b505af1158015611717573d6000803e3d6000fd5b50505050600260009054906101000a900473ffffffffffffffffffffffffffffffffffffffff1673ffffffffffffffffffffffffffffffffffffffff1663171ce59733836040518363ffffffff167c0100000000000000000000000000000000000000000000000000000000028152600401808373ffffffffffffffffffffffffffffffffffffffff1673ffffffffffffffffffffffffffffffffffffffff16815260200182815260200192505050600060405180830381600087803b1580156117e057600080fd5b505af11580156117f4573d6000803e3d6000fd5b505050508180600101925050611542565b50505050565b6000600260009054906101000a900473ffffffffffffffffffffffffffffffffffffffff1673ffffffffffffffffffffffffffffffffffffffff166370a08231836040518263ffffffff167c0100000000000000000000000000000000000000000000000000000000028152600401808273ffffffffffffffffffffffffffffffffffffffff1673ffffffffffffffffffffffffffffffffffffffff168152602001915050602060405180830381600087803b1580156118ca57600080fd5b505af11580156118de573d6000803e3d6000fd5b505050506040513d60208110156118f457600080fd5b81019080805190602001909291905050509050919050565b60008061192a67016345785d8a000034611faa90919063ffffffff16565b915061194182600054611fff90919063ffffffff16565b600081905550600260009054906101000a900473ffffffffffffffffffffffffffffffffffffffff1673ffffffffffffffffffffffffffffffffffffffff166323b872dd8433856040518463ffffffff167c0100000000000000000000000000000000000000000000000000000000028152600401808473ffffffffffffffffffffffffffffffffffffffff1673ffffffffffffffffffffffffffffffffffffffff1681526020018373ffffffffffffffffffffffffffffffffffffffff1673ffffffffffffffffffffffffffffffffffffffff1681526020018281526020019350505050602060405180830381600087803b158015611a4057600080fd5b505af1158015611a54573d6000803e3d6000fd5b505050506040513d6020811015611a6a57600080fd5b81019080805190602001909291905050505060053390806001815401808255809150509060018203906000526020600020016000909192909190916101000a81548173ffffffffffffffffffffffffffffffffffffffff021916908373ffffffffffffffffffffffffffffffffffffffff16021790555050600760003373ffffffffffffffffffffffffffffffffffffffff1673ffffffffffffffffffffffffffffffffffffffff1681526020019081526020016000206000018390806001815401808255809150509060018203906000526020600020016000909192909190916101000a81548173ffffffffffffffffffffffffffffffffffffffff021916908373ffffffffffffffffffffffffffffffffffffffff16021790555050611c1a34600860003373ffffffffffffffffffffffffffffffffffffffff1673ffffffffffffffffffffffffffffffffffffffff16815260200190815260200160002060008673ffffffffffffffffffffffffffffffffffffffff1673ffffffffffffffffffffffffffffffffffffffff16815260200190815260200160002060010154611fff90919063ffffffff16565b600860003373ffffffffffffffffffffffffffffffffffffffff1673ffffffffffffffffffffffffffffffffffffffff16815260200190815260200160002060008573ffffffffffffffffffffffffffffffffffffffff1673ffffffffffffffffffffffffffffffffffffffff16815260200190815260200160002060010181905550611d2f82600860003373ffffffffffffffffffffffffffffffffffffffff1673ffffffffffffffffffffffffffffffffffffffff16815260200190815260200160002060008673ffffffffffffffffffffffffffffffffffffffff1673ffffffffffffffffffffffffffffffffffffffff16815260200190815260200160002060020154611fff90919063ffffffff16565b600860003373ffffffffffffffffffffffffffffffffffffffff1673ffffffffffffffffffffffffffffffffffffffff16815260200190815260200160002060008573ffffffffffffffffffffffffffffffffffffffff1673ffffffffffffffffffffffffffffffffffffffff16815260200190815260200160002060020181905550611dcd670de0b6b3a764000034611faa90919063ffffffff16565b9050611e2181600a60008673ffffffffffffffffffffffffffffffffffffffff1673ffffffffffffffffffffffffffffffffffffffff16815260200190815260200160002054611fff90919063ffffffff16565b600a60008573ffffffffffffffffffffffffffffffffffffffff1673ffffffffffffffffffffffffffffffffffffffff16815260200190815260200160002081905550611eb981600660008673ffffffffffffffffffffffffffffffffffffffff1673ffffffffffffffffffffffffffffffffffffffff16815260200190815260200160002060000154611fff90919063ffffffff16565b600660008573ffffffffffffffffffffffffffffffffffffffff1673ffffffffffffffffffffffffffffffffffffffff16815260200190815260200160002060000181905550600660008473ffffffffffffffffffffffffffffffffffffffff1673ffffffffffffffffffffffffffffffffffffffff1681526020019081526020016000206001013390806001815401808255809150509060018203906000526020600020016000909192909190916101000a81548173ffffffffffffffffffffffffffffffffffffffff021916908373ffffffffffffffffffffffffffffffffffffffff16021790555050505050565b60008082111515611fba57600080fd5b8183811515611fc557fe5b04905092915050565b600081830290506000831480611fee5750818382811515611feb57fe5b04145b1515611ff957600080fd5b92915050565b6000818301905082811015151561201557600080fd5b92915050565b600082821115151561202c57600080fd5b818303905092915050565b600061205366038d7ea4c6800084611faa90919063ffffffff16565b9050600260009054906101000a900473ffffffffffffffffffffffffffffffffffffffff1673ffffffffffffffffffffffffffffffffffffffff166379c6506833836040518363ffffffff167c0100000000000000000000000000000000000000000000000000000000028152600401808373ffffffffffffffffffffffffffffffffffffffff1673ffffffffffffffffffffffffffffffffffffffff16815260200182815260200192505050600060405180830381600087803b15801561211a57600080fd5b505af115801561212e573d6000803e3d6000fd5b5050505060048290806001815401808255809150509060018203906000526020600020016000909192909190916101000a81548173ffffffffffffffffffffffffffffffffffffffff021916908373ffffffffffffffffffffffffffffffffffffffff160217905550505050505600a165627a7a7230582090ff57671d2e8d45f4f6aafbea363e0350c458da8cbc923640191471f1f1e2300029",
  "source": "pragma solidity ^0.4.23;\r\nimport \"./FundToken.sol\";\r\nimport \"./DostrixToken.sol\";\r\nimport \"./SafeMath.sol\";\r\ncontract DMF \r\n{\r\n    using SafeMath for uint256;\r\n        uint256  InvestersTotalToken=0; //invester total token count\r\n        uint256 public takecommission;\r\n        address contractAddress; //Fundtoken\r\n        address public newadd; \r\n//ArrayList\r\n        address[] public ToatlportfolioMAddress; //Array for storing the each register PortfolioManager\r\n        address[] public TotalInvestorAddress; //Array for storing the each register Investors\r\n\r\n//Structure For PortfolioManager Details\r\n        struct PortfolioDetails\r\n        {\r\n            uint256 Eth;\r\n          address[] investerAddressForPortfolio;\r\n            uint commissionForPortfolio;\r\n        }\r\n//Structure For Investor Details  \r\n        struct InvestorDetails\r\n        {\r\n            address[] PortfolioHolders; \r\n            uint256 Eth;\r\n            uint256 TokenCount;\r\n        }\r\n\r\n//Structure For MarketToken Purchase Details\r\n       \r\n//Mapping Area\r\n//Map for getting and storing the PortfolioManager resgistration Details\r\n        mapping(address => PortfolioDetails) public Portfolio ;\r\n//map for getting and storing the Investor getting token details\r\n        mapping(address=> InvestorDetails) public Investment;\r\n      mapping(address => mapping( address =>  InvestorDetails)) public invester ; \r\n        \r\n//Map for getting the MarketToken Purchase details by the Portfoliomanager\r\n       mapping(address => address) public Purchase; \r\n//Portfoliomanager Sold Tokens Ether \r\n        mapping(address => uint256) public PM_soldTK_Ether; \r\n//Constructor For initialize the contract Owner Address and Contract Deployed Address\r\n        constructor(address na) public payable\r\n        {\r\n            newadd=address(this);\r\n            contractAddress=na;\r\n        }\r\n//Function For PortfolioManager Resgistration\r\n        function PortfolioReg() public payable\r\n        {\r\n            uint256 add = msg.value.div(1 ether);\r\n            uint256 a= (add.mul(10)).div(100);\r\n            takecommission=takecommission.add(a);\r\n            uint256 show = add.sub(a);\r\n            Portfolio[msg.sender].Eth= Portfolio[msg.sender].Eth.add(show);\r\n            PM_soldTK_Ether[msg.sender] = PM_soldTK_Ether[msg.sender].add(show);\r\n            GetFundToken(msg.value,msg.sender);\r\n        }\r\n//Function For Getting the Fundtokens by the PortfolioManager\r\n        function GetFundToken(uint256 value,address add) private\r\n        {\r\n            uint256 tokens = value.div(0.001 ether);\r\n            FundToken(contractAddress).mintToken(msg.sender,tokens);\r\n            ToatlportfolioMAddress.push(add);\r\n        }\r\n//Function For Getting the Contract Ether Balance \r\n        function GetBal()public view returns(uint256)\r\n        {\r\n            return newadd.balance.div(1 ether);\r\n        }\r\n //Function For Getting the Contract Address\r\n    \r\n //Function For Buying the FundTokens by the Investor From the PortfolioManager\r\n        function InvesterGetToken(address _add_) public payable\r\n        {\r\n            uint256 tokens = msg.value.div(0.1 ether);\r\n            InvestersTotalToken=InvestersTotalToken.add(tokens);\r\n            FundToken(contractAddress).transferFrom(_add_,msg.sender,tokens);\r\n            TotalInvestorAddress.push(msg.sender);\r\n            Investment[msg.sender].PortfolioHolders.push(_add_);\r\n            invester[msg.sender][_add_].Eth=invester[msg.sender][_add_].Eth.add(msg.value);\r\n            invester[msg.sender][_add_].TokenCount=invester[msg.sender][_add_].TokenCount.add(tokens);\r\n            \r\n           // Investment[msg.sender].Eth = Investment[msg.sender].Eth.add(msg.value);\r\n            uint256 test = msg.value.div(1 ether);\r\n           // invester[msg.sender][_add_].Eth = test;\r\n          //  Investment[msg.sender].TokenCount = tokens;\r\n            PM_soldTK_Ether[_add_] = PM_soldTK_Ether[_add_].add(test);\r\n            Portfolio[_add_].Eth = Portfolio[_add_].Eth.add(test);\r\n            Portfolio[_add_].investerAddressForPortfolio.push(msg.sender);\r\n        }\r\n//Function For Getting the Investor Balance of Tokens\r\n        function getBalance(address a) public view returns(uint256)\r\n        {\r\n            return FundToken(contractAddress).balanceOf(a);\r\n        }\r\n /** The dividends calculations\r\n        Investor1 = (( Investor1_fund TK) / (Inves1_FUndTK + Inves2_FUndTK + ... )) * 90;\r\n*/\r\n//Function For issue the Dividends yo the User\r\n        function Dividends() public  \r\n        {\r\n             uint256 dividendToken = 100; \r\n             uint256 PortfolioManagerprofit = 0;\r\n            FundToken(contractAddress).mintToken(msg.sender,dividendToken); //minting the token \r\n            PortfolioManagerprofit = (dividendToken.mul(10)).div(100); //taking the portfolio share\r\n            FundToken(contractAddress).mintToken(msg.sender,PortfolioManagerprofit);\r\n            for(uint256 i=0;i<TotalInvestorAddress.length;i++)\r\n            {\r\n                uint256 b = (Investment[TotalInvestorAddress[i]].TokenCount.mul((dividendToken.sub(PortfolioManagerprofit)))).div(InvestersTotalToken);\r\n               FundToken(contractAddress).mintToken(TotalInvestorAddress[i],b);\r\n                FundToken(contractAddress).tokenDecrease(msg.sender,b);\r\n            }\r\n            \r\n        }\r\n        function ReturnTokenToPortfolioManager(address _add_,uint256 value)public payable\r\n        {\r\n             uint  TR;\r\n            FundToken(contractAddress).transferFrom(msg.sender,_add_,value);\r\n            TR = value.mul(0.1 ether);\r\n           uint256 commissionForDmf= commissionForDmf.add((TR.mul(10)).div(100));\r\n        \r\n            takecommission = takecommission.add((commissionForDmf.div(1 ether)));\r\n            Portfolio[_add_].commissionForPortfolio = Portfolio[_add_].commissionForPortfolio.add((TR.mul(10)).div(100)); \r\n            uint256 a= (TR.sub(commissionForDmf.add(Portfolio[_add_].commissionForPortfolio))).add(commissionForDmf);\r\n            _add_.transfer(Portfolio[_add_].commissionForPortfolio);\r\n            (msg.sender).transfer(a);\r\n            invester[msg.sender][_add_].Eth= invester[msg.sender][_add_].Eth.sub(TR);\r\n        }\r\n        \r\n        function purchaseToken(address buyToken,uint256 amountoftoken) public payable{\r\n            MarketToken(buyToken).transfer(msg.sender,amountoftoken);\r\n            uint256 ETH = amountoftoken * 0.1 ether;\r\n            buyToken.transfer(ETH);\r\n           \r\n        }\r\n        \r\n\r\n//Function For Many PortfolioManager Details\r\n        function values() public view returns(uint256,uint256)\r\n        {\r\n            return (ToatlportfolioMAddress.length,TotalInvestorAddress.length);\r\n        }\r\n        function Investercount(address a) public view returns(uint256){\r\n            return Portfolio[a].investerAddressForPortfolio.length;\r\n        }\r\n        function  portfoliocount(address a) public view returns(uint256){\r\n            return (Investment[a].PortfolioHolders.length);\r\n        }\r\n\r\n        function InvesterList(address a,uint256 i)public view returns(address){\r\n            \r\n            return Portfolio[a].investerAddressForPortfolio[i];\r\n            \r\n        }\r\n        function PortfolioList(address a,uint256 i)public view returns(address){\r\n           return Investment[a].PortfolioHolders[i];\r\n        }\r\n    \r\n}                                                                                                            \r\n",
  "sourcePath": "C:\\Users\\Balavignesh.0856\\Desktop\\LKDS\\POC\\MOSTRIX\\Mutual-Funds\\contracts\\DMF.sol",
  "compiler": {
    "name": "solc",
    "version": "0.4.24+commit.e67f0147.Emscripten.clang"
  },
  "schemaVersion": "2.0.0",
  "updatedAt": "2018-05-28T11:40:04.723Z"
}