{
  "contractName": "DMF",
  "abi": [
    {
      "constant": true,
      "inputs": [
        {
          "name": "",
          "type": "address"
        }
      ],
      "name": "Purchase",
      "outputs": [
        {
          "name": "",
          "type": "address"
        }
      ],
      "payable": false,
      "stateMutability": "view",
      "type": "function"
    },
    {
      "constant": true,
      "inputs": [],
      "name": "takecommission",
      "outputs": [
        {
          "name": "",
          "type": "uint256"
        }
      ],
      "payable": false,
      "stateMutability": "view",
      "type": "function"
    },
    {
      "constant": true,
      "inputs": [
        {
          "name": "",
          "type": "uint256"
        }
      ],
      "name": "TotalInvestorAddress",
      "outputs": [
        {
          "name": "",
          "type": "address"
        }
      ],
      "payable": false,
      "stateMutability": "view",
      "type": "function"
    },
    {
      "constant": true,
      "inputs": [
        {
          "name": "",
          "type": "uint256"
        }
      ],
      "name": "ToatlportfolioMAddress",
      "outputs": [
        {
          "name": "",
          "type": "address"
        }
      ],
      "payable": false,
      "stateMutability": "view",
      "type": "function"
    },
    {
      "constant": true,
      "inputs": [
        {
          "name": "",
          "type": "address"
        },
        {
          "name": "",
          "type": "address"
        }
      ],
      "name": "invester",
      "outputs": [
        {
          "name": "Eth",
          "type": "uint256"
        },
        {
          "name": "TokenCount",
          "type": "uint256"
        }
      ],
      "payable": false,
      "stateMutability": "view",
      "type": "function"
    },
    {
      "constant": true,
      "inputs": [],
      "name": "newadd",
      "outputs": [
        {
          "name": "",
          "type": "address"
        }
      ],
      "payable": false,
      "stateMutability": "view",
      "type": "function"
    },
    {
      "constant": true,
      "inputs": [
        {
          "name": "",
          "type": "address"
        }
      ],
      "name": "PM_soldTK_Ether",
      "outputs": [
        {
          "name": "",
          "type": "uint256"
        }
      ],
      "payable": false,
      "stateMutability": "view",
      "type": "function"
    },
    {
      "constant": true,
      "inputs": [
        {
          "name": "",
          "type": "address"
        }
      ],
      "name": "Investment",
      "outputs": [
        {
          "name": "Eth",
          "type": "uint256"
        },
        {
          "name": "TokenCount",
          "type": "uint256"
        }
      ],
      "payable": false,
      "stateMutability": "view",
      "type": "function"
    },
    {
      "constant": true,
      "inputs": [
        {
          "name": "",
          "type": "address"
        }
      ],
      "name": "Portfolio",
      "outputs": [
        {
          "name": "Eth",
          "type": "uint256"
        },
        {
          "name": "commissionForPortfolio",
          "type": "uint256"
        }
      ],
      "payable": false,
      "stateMutability": "view",
      "type": "function"
    },
    {
      "inputs": [
        {
          "name": "na",
          "type": "address"
        }
      ],
      "payable": true,
      "stateMutability": "payable",
      "type": "constructor"
    },
    {
      "constant": false,
      "inputs": [],
      "name": "PortfolioReg",
      "outputs": [],
      "payable": true,
      "stateMutability": "payable",
      "type": "function"
    },
    {
      "constant": true,
      "inputs": [],
      "name": "GetBal",
      "outputs": [
        {
          "name": "",
          "type": "uint256"
        }
      ],
      "payable": false,
      "stateMutability": "view",
      "type": "function"
    },
    {
      "constant": false,
      "inputs": [
        {
          "name": "_add_",
          "type": "address"
        }
      ],
      "name": "InvesterGetToken",
      "outputs": [],
      "payable": true,
      "stateMutability": "payable",
      "type": "function"
    },
    {
      "constant": true,
      "inputs": [
        {
          "name": "a",
          "type": "address"
        }
      ],
      "name": "getBalance",
      "outputs": [
        {
          "name": "",
          "type": "uint256"
        }
      ],
      "payable": false,
      "stateMutability": "view",
      "type": "function"
    },
    {
      "constant": false,
      "inputs": [],
      "name": "Dividends",
      "outputs": [],
      "payable": false,
      "stateMutability": "nonpayable",
      "type": "function"
    },
    {
      "constant": false,
      "inputs": [
        {
          "name": "_add_",
          "type": "address"
        },
        {
          "name": "value",
          "type": "uint256"
        }
      ],
      "name": "ReturnTokenToPortfolioManager",
      "outputs": [],
      "payable": true,
      "stateMutability": "payable",
      "type": "function"
    },
    {
      "constant": false,
      "inputs": [
        {
          "name": "buyToken",
          "type": "address"
        },
        {
          "name": "amountoftoken",
          "type": "uint256"
        }
      ],
      "name": "purchaseToken",
      "outputs": [],
      "payable": false,
      "stateMutability": "nonpayable",
      "type": "function"
    },
    {
      "constant": true,
      "inputs": [],
      "name": "values",
      "outputs": [
        {
          "name": "",
          "type": "uint256"
        },
        {
          "name": "",
          "type": "uint256"
        }
      ],
      "payable": false,
      "stateMutability": "view",
      "type": "function"
    },
    {
      "constant": true,
      "inputs": [
        {
          "name": "a",
          "type": "address"
        }
      ],
      "name": "Investercount",
      "outputs": [
        {
          "name": "",
          "type": "uint256"
        }
      ],
      "payable": false,
      "stateMutability": "view",
      "type": "function"
    },
    {
      "constant": true,
      "inputs": [
        {
          "name": "a",
          "type": "address"
        }
      ],
      "name": "portfoliocount",
      "outputs": [
        {
          "name": "",
          "type": "uint256"
        }
      ],
      "payable": false,
      "stateMutability": "view",
      "type": "function"
    },
    {
      "constant": true,
      "inputs": [
        {
          "name": "a",
          "type": "address"
        },
        {
          "name": "i",
          "type": "uint256"
        }
      ],
      "name": "InvesterList",
      "outputs": [
        {
          "name": "",
          "type": "address"
        }
      ],
      "payable": false,
      "stateMutability": "view",
      "type": "function"
    },
    {
      "constant": true,
      "inputs": [
        {
          "name": "a",
          "type": "address"
        },
        {
          "name": "i",
          "type": "uint256"
        }
      ],
      "name": "PortfolioList",
      "outputs": [
        {
          "name": "",
          "type": "address"
        }
      ],
      "payable": false,
      "stateMutability": "view",
      "type": "function"
    }
  ],
  "bytecode": "0x6080604052600080556040516020806123af8339810180604052810190808051906020019092919050505030600360006101000a81548173ffffffffffffffffffffffffffffffffffffffff021916908373ffffffffffffffffffffffffffffffffffffffff16021790555080600260006101000a81548173ffffffffffffffffffffffffffffffffffffffff021916908373ffffffffffffffffffffffffffffffffffffffff160217905550506122f3806100bc6000396000f30060806040526004361061011d576000357c0100000000000000000000000000000000000000000000000000000000900463ffffffff1680631cc2c91114610122578063233e08771461016f5780632722271f146101f257806331e69acb146101fc57806336c38cc71461022757806352aa8382146102945780635c6beb54146103015780639074a6551461038e578063971217b71461040c5780639e9c5f911461043e578063a35a3aec14610495578063ba04fa8d14610522578063bf8869b514610579578063c53dd11c146105a4578063c9e9da34146105e4578063d78982401461063b578063de85406514610699578063efa951c7146106f7578063f15f14c51461074e578063f8b2cb4f14610765578063f93498c4146107bc575b600080fd5b34801561012e57600080fd5b5061016d600480360381019080803573ffffffffffffffffffffffffffffffffffffffff169060200190929190803590602001909291905050506107f2565b005b34801561017b57600080fd5b506101b0600480360381019080803573ffffffffffffffffffffffffffffffffffffffff1690602001909291905050506109f5565b604051808273ffffffffffffffffffffffffffffffffffffffff1673ffffffffffffffffffffffffffffffffffffffff16815260200191505060405180910390f35b6101fa610a28565b005b34801561020857600080fd5b50610211610be2565b6040518082815260200191505060405180910390f35b34801561023357600080fd5b5061025260048036038101908080359060200190929190505050610be8565b604051808273ffffffffffffffffffffffffffffffffffffffff1673ffffffffffffffffffffffffffffffffffffffff16815260200191505060405180910390f35b3480156102a057600080fd5b506102bf60048036038101908080359060200190929190505050610c26565b604051808273ffffffffffffffffffffffffffffffffffffffff1673ffffffffffffffffffffffffffffffffffffffff16815260200191505060405180910390f35b34801561030d57600080fd5b5061034c600480360381019080803573ffffffffffffffffffffffffffffffffffffffff16906020019092919080359060200190929190505050610c64565b604051808273ffffffffffffffffffffffffffffffffffffffff1673ffffffffffffffffffffffffffffffffffffffff16815260200191505060405180910390f35b34801561039a57600080fd5b506103ef600480360381019080803573ffffffffffffffffffffffffffffffffffffffff169060200190929190803573ffffffffffffffffffffffffffffffffffffffff169060200190929190505050610ce8565b604051808381526020018281526020019250505060405180910390f35b34801561041857600080fd5b50610421610d19565b604051808381526020018281526020019250505060405180910390f35b34801561044a57600080fd5b50610453610d30565b604051808273ffffffffffffffffffffffffffffffffffffffff1673ffffffffffffffffffffffffffffffffffffffff16815260200191505060405180910390f35b3480156104a157600080fd5b506104e0600480360381019080803573ffffffffffffffffffffffffffffffffffffffff16906020019092919080359060200190929190505050610d56565b604051808273ffffffffffffffffffffffffffffffffffffffff1673ffffffffffffffffffffffffffffffffffffffff16815260200191505060405180910390f35b34801561052e57600080fd5b50610563600480360381019080803573ffffffffffffffffffffffffffffffffffffffff169060200190929190505050610dda565b6040518082815260200191505060405180910390f35b34801561058557600080fd5b5061058e610df2565b6040518082815260200191505060405180910390f35b6105e2600480360381019080803573ffffffffffffffffffffffffffffffffffffffff16906020019092919080359060200190929190505050610e4d565b005b3480156105f057600080fd5b50610625600480360381019080803573ffffffffffffffffffffffffffffffffffffffff169060200190929190505050611390565b6040518082815260200191505060405180910390f35b34801561064757600080fd5b5061067c600480360381019080803573ffffffffffffffffffffffffffffffffffffffff1690602001909291905050506113df565b604051808381526020018281526020019250505060405180910390f35b3480156106a557600080fd5b506106da600480360381019080803573ffffffffffffffffffffffffffffffffffffffff169060200190929190505050611403565b604051808381526020018281526020019250505060405180910390f35b34801561070357600080fd5b50610738600480360381019080803573ffffffffffffffffffffffffffffffffffffffff169060200190929190505050611427565b6040518082815260200191505060405180910390f35b34801561075a57600080fd5b50610763611476565b005b34801561077157600080fd5b506107a6600480360381019080803573ffffffffffffffffffffffffffffffffffffffff169060200190929190505050611935565b6040518082815260200191505060405180910390f35b6107f0600480360381019080803573ffffffffffffffffffffffffffffffffffffffff169060200190929190505050611a36565b005b81600960003373ffffffffffffffffffffffffffffffffffffffff1673ffffffffffffffffffffffffffffffffffffffff16815260200190815260200160002060006101000a81548173ffffffffffffffffffffffffffffffffffffffff021916908373ffffffffffffffffffffffffffffffffffffffff160217905550600260009054906101000a900473ffffffffffffffffffffffffffffffffffffffff1673ffffffffffffffffffffffffffffffffffffffff166323b872dd8333846040518463ffffffff167c0100000000000000000000000000000000000000000000000000000000028152600401808473ffffffffffffffffffffffffffffffffffffffff1673ffffffffffffffffffffffffffffffffffffffff1681526020018373ffffffffffffffffffffffffffffffffffffffff1673ffffffffffffffffffffffffffffffffffffffff1681526020018281526020019350505050602060405180830381600087803b15801561096957600080fd5b505af115801561097d573d6000803e3d6000fd5b505050506040513d602081101561099357600080fd5b8101908080519060200190929190505050508173ffffffffffffffffffffffffffffffffffffffff16622625a06109db67016345785d8a0000846120d490919063ffffffff16565b604051600060405180830381858888f19350505050505050565b60096020528060005260406000206000915054906101000a900473ffffffffffffffffffffffffffffffffffffffff1681565b6000806000610a48670de0b6b3a76400003461210590919063ffffffff16565b9250610a716064610a63600a866120d490919063ffffffff16565b61210590919063ffffffff16565b9150610a888260015461212990919063ffffffff16565b600181905550610aa1828461214590919063ffffffff16565b9050610af881600660003373ffffffffffffffffffffffffffffffffffffffff1673ffffffffffffffffffffffffffffffffffffffff1681526020019081526020016000206000015461212990919063ffffffff16565b600660003373ffffffffffffffffffffffffffffffffffffffff1673ffffffffffffffffffffffffffffffffffffffff16815260200190815260200160002060000181905550610b9081600a60003373ffffffffffffffffffffffffffffffffffffffff1673ffffffffffffffffffffffffffffffffffffffff1681526020019081526020016000205461212990919063ffffffff16565b600a60003373ffffffffffffffffffffffffffffffffffffffff1673ffffffffffffffffffffffffffffffffffffffff16815260200190815260200160002081905550610bdd3433612161565b505050565b60015481565b600581815481101515610bf757fe5b906000526020600020016000915054906101000a900473ffffffffffffffffffffffffffffffffffffffff1681565b600481815481101515610c3557fe5b906000526020600020016000915054906101000a900473ffffffffffffffffffffffffffffffffffffffff1681565b6000600760008473ffffffffffffffffffffffffffffffffffffffff1673ffffffffffffffffffffffffffffffffffffffff16815260200190815260200160002060000182815481101515610cb557fe5b9060005260206000200160009054906101000a900473ffffffffffffffffffffffffffffffffffffffff16905092915050565b6008602052816000526040600020602052806000526040600020600091509150508060010154908060020154905082565b600080600480549050600580549050915091509091565b600360009054906101000a900473ffffffffffffffffffffffffffffffffffffffff1681565b6000600660008473ffffffffffffffffffffffffffffffffffffffff1673ffffffffffffffffffffffffffffffffffffffff16815260200190815260200160002060010182815481101515610da757fe5b9060005260206000200160009054906101000a900473ffffffffffffffffffffffffffffffffffffffff16905092915050565b600a6020528060005260406000206000915090505481565b6000610e48670de0b6b3a7640000600360009054906101000a900473ffffffffffffffffffffffffffffffffffffffff1673ffffffffffffffffffffffffffffffffffffffff163161210590919063ffffffff16565b905090565b6000806000600260009054906101000a900473ffffffffffffffffffffffffffffffffffffffff1673ffffffffffffffffffffffffffffffffffffffff166323b872dd3387876040518463ffffffff167c0100000000000000000000000000000000000000000000000000000000028152600401808473ffffffffffffffffffffffffffffffffffffffff1673ffffffffffffffffffffffffffffffffffffffff1681526020018373ffffffffffffffffffffffffffffffffffffffff1673ffffffffffffffffffffffffffffffffffffffff1681526020018281526020019350505050602060405180830381600087803b158015610f4b57600080fd5b505af1158015610f5f573d6000803e3d6000fd5b505050506040513d6020811015610f7557600080fd5b810190808051906020019092919050505050610fa267016345785d8a0000856120d490919063ffffffff16565b9250610fdd610fce6064610fc0600a876120d490919063ffffffff16565b61210590919063ffffffff16565b8361212990919063ffffffff16565b915061100e610ffd670de0b6b3a76400008461210590919063ffffffff16565b60015461212990919063ffffffff16565b60018190555061108f61103e6064611030600a876120d490919063ffffffff16565b61210590919063ffffffff16565b600660008873ffffffffffffffffffffffffffffffffffffffff1673ffffffffffffffffffffffffffffffffffffffff1681526020019081526020016000206002015461212990919063ffffffff16565b600660008773ffffffffffffffffffffffffffffffffffffffff1673ffffffffffffffffffffffffffffffffffffffff1681526020019081526020016000206002018190555061114e82611140611131600660008a73ffffffffffffffffffffffffffffffffffffffff1673ffffffffffffffffffffffffffffffffffffffff168152602001908152602001600020600201548661212990919063ffffffff16565b8661214590919063ffffffff16565b61212990919063ffffffff16565b90508473ffffffffffffffffffffffffffffffffffffffff166108fc600660008873ffffffffffffffffffffffffffffffffffffffff1673ffffffffffffffffffffffffffffffffffffffff168152602001908152602001600020600201549081150290604051600060405180830381858888f193505050501580156111d8573d6000803e3d6000fd5b50600360009054906101000a900473ffffffffffffffffffffffffffffffffffffffff1673ffffffffffffffffffffffffffffffffffffffff16622625a083604051600060405180830381858888f19350505050503373ffffffffffffffffffffffffffffffffffffffff166108fc829081150290604051600060405180830381858888f19350505050158015611273573d6000803e3d6000fd5b5061130683600860003373ffffffffffffffffffffffffffffffffffffffff1673ffffffffffffffffffffffffffffffffffffffff16815260200190815260200160002060008873ffffffffffffffffffffffffffffffffffffffff1673ffffffffffffffffffffffffffffffffffffffff1681526020019081526020016000206001015461214590919063ffffffff16565b600860003373ffffffffffffffffffffffffffffffffffffffff1673ffffffffffffffffffffffffffffffffffffffff16815260200190815260200160002060008773ffffffffffffffffffffffffffffffffffffffff1673ffffffffffffffffffffffffffffffffffffffff168152602001908152602001600020600101819055505050505050565b6000600660008373ffffffffffffffffffffffffffffffffffffffff1673ffffffffffffffffffffffffffffffffffffffff168152602001908152602001600020600101805490509050919050565b60076020528060005260406000206000915090508060010154908060020154905082565b60066020528060005260406000206000915090508060000154908060020154905082565b6000600760008373ffffffffffffffffffffffffffffffffffffffff1673ffffffffffffffffffffffffffffffffffffffff168152602001908152602001600020600001805490509050919050565b6000806000806064935060009250600260009054906101000a900473ffffffffffffffffffffffffffffffffffffffff1673ffffffffffffffffffffffffffffffffffffffff166379c6506833866040518363ffffffff167c0100000000000000000000000000000000000000000000000000000000028152600401808373ffffffffffffffffffffffffffffffffffffffff1673ffffffffffffffffffffffffffffffffffffffff16815260200182815260200192505050600060405180830381600087803b15801561154957600080fd5b505af115801561155d573d6000803e3d6000fd5b50505050611588606461157a600a876120d490919063ffffffff16565b61210590919063ffffffff16565b9250600260009054906101000a900473ffffffffffffffffffffffffffffffffffffffff1673ffffffffffffffffffffffffffffffffffffffff166379c6506833856040518363ffffffff167c0100000000000000000000000000000000000000000000000000000000028152600401808373ffffffffffffffffffffffffffffffffffffffff1673ffffffffffffffffffffffffffffffffffffffff16815260200182815260200192505050600060405180830381600087803b15801561164f57600080fd5b505af1158015611663573d6000803e3d6000fd5b50505050600091505b60058054905082101561192f5761172d60005461171f611695868861214590919063ffffffff16565b600760006005888154811015156116a857fe5b9060005260206000200160009054906101000a900473ffffffffffffffffffffffffffffffffffffffff1673ffffffffffffffffffffffffffffffffffffffff1673ffffffffffffffffffffffffffffffffffffffff168152602001908152602001600020600201546120d490919063ffffffff16565b61210590919063ffffffff16565b9050600260009054906101000a900473ffffffffffffffffffffffffffffffffffffffff1673ffffffffffffffffffffffffffffffffffffffff166379c6506860058481548110151561177c57fe5b9060005260206000200160009054906101000a900473ffffffffffffffffffffffffffffffffffffffff16836040518363ffffffff167c0100000000000000000000000000000000000000000000000000000000028152600401808373ffffffffffffffffffffffffffffffffffffffff1673ffffffffffffffffffffffffffffffffffffffff16815260200182815260200192505050600060405180830381600087803b15801561182d57600080fd5b505af1158015611841573d6000803e3d6000fd5b50505050600260009054906101000a900473ffffffffffffffffffffffffffffffffffffffff1673ffffffffffffffffffffffffffffffffffffffff1663171ce59733836040518363ffffffff167c0100000000000000000000000000000000000000000000000000000000028152600401808373ffffffffffffffffffffffffffffffffffffffff1673ffffffffffffffffffffffffffffffffffffffff16815260200182815260200192505050600060405180830381600087803b15801561190a57600080fd5b505af115801561191e573d6000803e3d6000fd5b50505050818060010192505061166c565b50505050565b6000600260009054906101000a900473ffffffffffffffffffffffffffffffffffffffff1673ffffffffffffffffffffffffffffffffffffffff166370a08231836040518263ffffffff167c0100000000000000000000000000000000000000000000000000000000028152600401808273ffffffffffffffffffffffffffffffffffffffff1673ffffffffffffffffffffffffffffffffffffffff168152602001915050602060405180830381600087803b1580156119f457600080fd5b505af1158015611a08573d6000803e3d6000fd5b505050506040513d6020811015611a1e57600080fd5b81019080805190602001909291905050509050919050565b600080611a5467016345785d8a00003461210590919063ffffffff16565b9150611a6b8260005461212990919063ffffffff16565b600081905550600260009054906101000a900473ffffffffffffffffffffffffffffffffffffffff1673ffffffffffffffffffffffffffffffffffffffff166323b872dd8433856040518463ffffffff167c0100000000000000000000000000000000000000000000000000000000028152600401808473ffffffffffffffffffffffffffffffffffffffff1673ffffffffffffffffffffffffffffffffffffffff1681526020018373ffffffffffffffffffffffffffffffffffffffff1673ffffffffffffffffffffffffffffffffffffffff1681526020018281526020019350505050602060405180830381600087803b158015611b6a57600080fd5b505af1158015611b7e573d6000803e3d6000fd5b505050506040513d6020811015611b9457600080fd5b81019080805190602001909291905050505060053390806001815401808255809150509060018203906000526020600020016000909192909190916101000a81548173ffffffffffffffffffffffffffffffffffffffff021916908373ffffffffffffffffffffffffffffffffffffffff16021790555050600760003373ffffffffffffffffffffffffffffffffffffffff1673ffffffffffffffffffffffffffffffffffffffff1681526020019081526020016000206000018390806001815401808255809150509060018203906000526020600020016000909192909190916101000a81548173ffffffffffffffffffffffffffffffffffffffff021916908373ffffffffffffffffffffffffffffffffffffffff16021790555050611d4434600860003373ffffffffffffffffffffffffffffffffffffffff1673ffffffffffffffffffffffffffffffffffffffff16815260200190815260200160002060008673ffffffffffffffffffffffffffffffffffffffff1673ffffffffffffffffffffffffffffffffffffffff1681526020019081526020016000206001015461212990919063ffffffff16565b600860003373ffffffffffffffffffffffffffffffffffffffff1673ffffffffffffffffffffffffffffffffffffffff16815260200190815260200160002060008573ffffffffffffffffffffffffffffffffffffffff1673ffffffffffffffffffffffffffffffffffffffff16815260200190815260200160002060010181905550611e5982600860003373ffffffffffffffffffffffffffffffffffffffff1673ffffffffffffffffffffffffffffffffffffffff16815260200190815260200160002060008673ffffffffffffffffffffffffffffffffffffffff1673ffffffffffffffffffffffffffffffffffffffff1681526020019081526020016000206002015461212990919063ffffffff16565b600860003373ffffffffffffffffffffffffffffffffffffffff1673ffffffffffffffffffffffffffffffffffffffff16815260200190815260200160002060008573ffffffffffffffffffffffffffffffffffffffff1673ffffffffffffffffffffffffffffffffffffffff16815260200190815260200160002060020181905550611ef7670de0b6b3a76400003461210590919063ffffffff16565b9050611f4b81600a60008673ffffffffffffffffffffffffffffffffffffffff1673ffffffffffffffffffffffffffffffffffffffff1681526020019081526020016000205461212990919063ffffffff16565b600a60008573ffffffffffffffffffffffffffffffffffffffff1673ffffffffffffffffffffffffffffffffffffffff16815260200190815260200160002081905550611fe381600660008673ffffffffffffffffffffffffffffffffffffffff1673ffffffffffffffffffffffffffffffffffffffff1681526020019081526020016000206000015461212990919063ffffffff16565b600660008573ffffffffffffffffffffffffffffffffffffffff1673ffffffffffffffffffffffffffffffffffffffff16815260200190815260200160002060000181905550600660008473ffffffffffffffffffffffffffffffffffffffff1673ffffffffffffffffffffffffffffffffffffffff1681526020019081526020016000206001013390806001815401808255809150509060018203906000526020600020016000909192909190916101000a81548173ffffffffffffffffffffffffffffffffffffffff021916908373ffffffffffffffffffffffffffffffffffffffff16021790555050505050565b6000818302905060008314806120f457508183828115156120f157fe5b04145b15156120ff57600080fd5b92915050565b6000808211151561211557600080fd5b818381151561212057fe5b04905092915050565b6000818301905082811015151561213f57600080fd5b92915050565b600082821115151561215657600080fd5b818303905092915050565b600061217d66038d7ea4c680008461210590919063ffffffff16565b9050600260009054906101000a900473ffffffffffffffffffffffffffffffffffffffff1673ffffffffffffffffffffffffffffffffffffffff166379c6506833836040518363ffffffff167c0100000000000000000000000000000000000000000000000000000000028152600401808373ffffffffffffffffffffffffffffffffffffffff1673ffffffffffffffffffffffffffffffffffffffff16815260200182815260200192505050600060405180830381600087803b15801561224457600080fd5b505af1158015612258573d6000803e3d6000fd5b5050505060048290806001815401808255809150509060018203906000526020600020016000909192909190916101000a81548173ffffffffffffffffffffffffffffffffffffffff021916908373ffffffffffffffffffffffffffffffffffffffff160217905550505050505600a165627a7a72305820dd555e8bb988cd8aa70d02b55f4cc8e3b8a1bce82a26d2b325230a55c9abae400029",
  "source": "pragma solidity ^0.4.23;\r\nimport \"./FundToken.sol\";\r\nimport \"./SafeMath.sol\";\r\ncontract DMF \r\n{\r\n    using SafeMath for uint256;\r\n        uint256  InvestersTotalToken=0; //invester total token count\r\n        uint256 public takecommission;\r\n        address contractAddress; //Fundtoken\r\n        address public newadd; \r\n//ArrayList\r\n        address[] public ToatlportfolioMAddress; //Array for storing the each register PortfolioManager\r\n        address[] public TotalInvestorAddress; //Array for storing the each register Investors\r\n\r\n//Structure For PortfolioManager Details\r\n        struct PortfolioDetails\r\n        {\r\n            uint256 Eth;\r\n          address[] investerAddressForPortfolio;\r\n            uint commissionForPortfolio;\r\n        }\r\n//Structure For Investor Details  \r\n        struct InvestorDetails\r\n        {\r\n            address[] PortfolioHolders; \r\n            uint256 Eth;\r\n            uint256 TokenCount;\r\n        }\r\n\r\n//Structure For MarketToken Purchase Details\r\n       \r\n//Mapping Area\r\n//Map for getting and storing the PortfolioManager resgistration Details\r\n        mapping(address => PortfolioDetails) public Portfolio ;\r\n//map for getting and storing the Investor getting token details\r\n        mapping(address=> InvestorDetails) public Investment;\r\n      mapping(address => mapping( address =>  InvestorDetails)) public invester ; \r\n        \r\n//Map for getting the MarketToken Purchase details by the Portfoliomanager\r\n       mapping(address => address) public Purchase; \r\n//Portfoliomanager Sold Tokens Ether \r\n        mapping(address => uint256) public PM_soldTK_Ether; \r\n//Constructor For initialize the contract Owner Address and Contract Deployed Address\r\n        constructor(address na) public payable\r\n        {\r\n            newadd=address(this);\r\n            contractAddress=na;\r\n        }\r\n//Function For PortfolioManager Resgistration\r\n        function PortfolioReg() public payable\r\n        {\r\n            uint256 add = msg.value.div(1 ether);\r\n            uint256 a= (add.mul(10)).div(100);\r\n            takecommission=takecommission.add(a);\r\n            uint256 show = add.sub(a);\r\n            Portfolio[msg.sender].Eth= Portfolio[msg.sender].Eth.add(show);\r\n            PM_soldTK_Ether[msg.sender] = PM_soldTK_Ether[msg.sender].add(show);\r\n            GetFundToken(msg.value,msg.sender);\r\n        }\r\n//Function For Getting the Fundtokens by the PortfolioManager\r\n        function GetFundToken(uint256 value,address add) private\r\n        {\r\n            uint256 tokens = value.div(0.001 ether);\r\n            FundToken(contractAddress).mintToken(msg.sender,tokens);\r\n            ToatlportfolioMAddress.push(add);\r\n        }\r\n//Function For Getting the Contract Ether Balance \r\n        function GetBal()public view returns(uint256)\r\n        {\r\n            return newadd.balance.div(1 ether);\r\n        }\r\n //Function For Getting the Contract Address\r\n    \r\n //Function For Buying the FundTokens by the Investor From the PortfolioManager\r\n        function InvesterGetToken(address _add_) public payable\r\n        {\r\n            uint256 tokens = msg.value.div(0.1 ether);\r\n            InvestersTotalToken=InvestersTotalToken.add(tokens);\r\n            FundToken(contractAddress).transferFrom(_add_,msg.sender,tokens);\r\n            TotalInvestorAddress.push(msg.sender);\r\n            Investment[msg.sender].PortfolioHolders.push(_add_);\r\n            invester[msg.sender][_add_].Eth=invester[msg.sender][_add_].Eth.add(msg.value);\r\n            invester[msg.sender][_add_].TokenCount=invester[msg.sender][_add_].TokenCount.add(tokens);\r\n            \r\n           // Investment[msg.sender].Eth = Investment[msg.sender].Eth.add(msg.value);\r\n            uint256 test = msg.value.div(1 ether);\r\n           // invester[msg.sender][_add_].Eth = test;\r\n          //  Investment[msg.sender].TokenCount = tokens;\r\n            PM_soldTK_Ether[_add_] = PM_soldTK_Ether[_add_].add(test);\r\n            Portfolio[_add_].Eth = Portfolio[_add_].Eth.add(test);\r\n            Portfolio[_add_].investerAddressForPortfolio.push(msg.sender);\r\n        }\r\n//Function For Getting the Investor Balance of Tokens\r\n        function getBalance(address a) public view returns(uint256)\r\n        {\r\n            return FundToken(contractAddress).balanceOf(a);\r\n        }\r\n /** The dividends calculations\r\n        Investor1 = (( Investor1_fund TK) / (Inves1_FUndTK + Inves2_FUndTK + ... )) * 90;\r\n*/\r\n//Function For issue the Dividends yo the User\r\n        function Dividends() public  \r\n        {\r\n             uint256 dividendToken = 100; \r\n             uint256 PortfolioManagerprofit = 0;\r\n            FundToken(contractAddress).mintToken(msg.sender,dividendToken); //minting the token \r\n            PortfolioManagerprofit = (dividendToken.mul(10)).div(100); //taking the portfolio share\r\n            FundToken(contractAddress).mintToken(msg.sender,PortfolioManagerprofit);\r\n            for(uint256 i=0;i<TotalInvestorAddress.length;i++)\r\n            {\r\n                uint256 b = (Investment[TotalInvestorAddress[i]].TokenCount.mul((dividendToken.sub(PortfolioManagerprofit)))).div(InvestersTotalToken);\r\n               FundToken(contractAddress).mintToken(TotalInvestorAddress[i],b);\r\n                FundToken(contractAddress).tokenDecrease(msg.sender,b);\r\n            }\r\n            \r\n        }\r\n        function ReturnTokenToPortfolioManager(address _add_,uint256 value)public payable\r\n        {\r\n             uint  TR;\r\n            FundToken(contractAddress).transferFrom(msg.sender,_add_,value);\r\n            TR = value.mul(0.1 ether);\r\n           uint256 commissionForDmf= commissionForDmf.add((TR.mul(10)).div(100));\r\n        \r\n            takecommission = takecommission.add((commissionForDmf.div(1 ether)));\r\n            Portfolio[_add_].commissionForPortfolio = Portfolio[_add_].commissionForPortfolio.add((TR.mul(10)).div(100)); \r\n            uint256 a= (TR.sub(commissionForDmf.add(Portfolio[_add_].commissionForPortfolio))).add(commissionForDmf);\r\n            _add_.transfer(Portfolio[_add_].commissionForPortfolio);\r\n            //address x = msg.sender;\r\n            newadd.call.gas(2500000).value(commissionForDmf)();\r\n            (msg.sender).transfer(a);\r\n            invester[msg.sender][_add_].Eth= invester[msg.sender][_add_].Eth.sub(TR);\r\n        }\r\n        \r\n        function purchaseToken(address buyToken,uint256 amountoftoken) public{\r\n           Purchase[msg.sender]=buyToken;\r\n           FundToken(contractAddress).transferFrom(buyToken,msg.sender,amountoftoken);\r\n            buyToken.call.gas(2500000).value(amountoftoken.mul(0.1 ether))();\r\n        }\r\n        // function returnPurchasedToken( uint256 amountoftoken) public payable {\r\n        //     Purchase[msg.sender].transfer(amountoftoken.mul(0.1 ether));\r\n        //     FundToken(contractAddress).transferFrom(msg.sender,Purchase[msg.sender],amountoftoken);\r\n        // }\r\n\r\n//Function For Many PortfolioManager Details\r\n        function values() public view returns(uint256,uint256)\r\n        {\r\n            return (ToatlportfolioMAddress.length,TotalInvestorAddress.length);\r\n        }\r\n        function Investercount(address a) public view returns(uint256){\r\n            return Portfolio[a].investerAddressForPortfolio.length;\r\n        }\r\n        function  portfoliocount(address a) public view returns(uint256){\r\n            return (Investment[a].PortfolioHolders.length);\r\n        }\r\n\r\n        function InvesterList(address a,uint256 i)public view returns(address){\r\n            \r\n            return Portfolio[a].investerAddressForPortfolio[i];\r\n            \r\n        }\r\n        function PortfolioList(address a,uint256 i)public view returns(address){\r\n           return Investment[a].PortfolioHolders[i];\r\n        }\r\n    \r\n}                                                                                                            \r\n",
  "sourcePath": "C:\\Users\\Sultana.0862\\Desktop\\MutualFund3\\Mutual-Funds\\contracts\\DMF.sol",
  "compiler": {
    "name": "solc",
    "version": "0.4.23+commit.124ca40d.Emscripten.clang"
  },
  "schemaVersion": "2.0.0",
  "updatedAt": "2018-05-18T08:21:26.965Z"
}