{
  "contractName": "DMF",
  "abi": [
    {
      "constant": true,
      "inputs": [],
      "name": "etherCalculation",
      "outputs": [
        {
          "name": "",
          "type": "uint256"
        }
      ],
      "payable": false,
      "stateMutability": "view",
      "type": "function"
    },
    {
      "constant": true,
      "inputs": [],
      "name": "takecommission",
      "outputs": [
        {
          "name": "",
          "type": "uint256"
        }
      ],
      "payable": false,
      "stateMutability": "view",
      "type": "function"
    },
    {
      "constant": true,
      "inputs": [],
      "name": "TR",
      "outputs": [
        {
          "name": "",
          "type": "uint256"
        }
      ],
      "payable": false,
      "stateMutability": "view",
      "type": "function"
    },
    {
      "constant": true,
      "inputs": [
        {
          "name": "",
          "type": "uint256"
        }
      ],
      "name": "TotalInvestorAddress",
      "outputs": [
        {
          "name": "",
          "type": "address"
        }
      ],
      "payable": false,
      "stateMutability": "view",
      "type": "function"
    },
    {
      "constant": true,
      "inputs": [],
      "name": "InvestersTotalToken",
      "outputs": [
        {
          "name": "",
          "type": "uint256"
        }
      ],
      "payable": false,
      "stateMutability": "view",
      "type": "function"
    },
    {
      "constant": true,
      "inputs": [],
      "name": "calculations",
      "outputs": [
        {
          "name": "",
          "type": "uint256"
        }
      ],
      "payable": false,
      "stateMutability": "view",
      "type": "function"
    },
    {
      "constant": true,
      "inputs": [
        {
          "name": "",
          "type": "uint256"
        }
      ],
      "name": "ToatlportfolioMAddress",
      "outputs": [
        {
          "name": "",
          "type": "address"
        }
      ],
      "payable": false,
      "stateMutability": "view",
      "type": "function"
    },
    {
      "constant": true,
      "inputs": [],
      "name": "Pendingreturnaddress",
      "outputs": [
        {
          "name": "",
          "type": "address"
        }
      ],
      "payable": false,
      "stateMutability": "view",
      "type": "function"
    },
    {
      "constant": true,
      "inputs": [
        {
          "name": "",
          "type": "address"
        },
        {
          "name": "",
          "type": "address"
        }
      ],
      "name": "invester",
      "outputs": [
        {
          "name": "buyer",
          "type": "address"
        },
        {
          "name": "Eth",
          "type": "uint256"
        },
        {
          "name": "TokenCount",
          "type": "uint256"
        }
      ],
      "payable": false,
      "stateMutability": "view",
      "type": "function"
    },
    {
      "constant": true,
      "inputs": [],
      "name": "m2",
      "outputs": [
        {
          "name": "",
          "type": "address"
        }
      ],
      "payable": false,
      "stateMutability": "view",
      "type": "function"
    },
    {
      "constant": true,
      "inputs": [],
      "name": "PortfolioManagerprofit",
      "outputs": [
        {
          "name": "",
          "type": "uint256"
        }
      ],
      "payable": false,
      "stateMutability": "view",
      "type": "function"
    },
    {
      "constant": true,
      "inputs": [],
      "name": "newadd",
      "outputs": [
        {
          "name": "",
          "type": "address"
        }
      ],
      "payable": false,
      "stateMutability": "view",
      "type": "function"
    },
    {
      "constant": true,
      "inputs": [],
      "name": "m1",
      "outputs": [
        {
          "name": "",
          "type": "address"
        }
      ],
      "payable": false,
      "stateMutability": "view",
      "type": "function"
    },
    {
      "constant": true,
      "inputs": [
        {
          "name": "",
          "type": "address"
        }
      ],
      "name": "PM_soldTK_Ether",
      "outputs": [
        {
          "name": "",
          "type": "uint256"
        }
      ],
      "payable": false,
      "stateMutability": "view",
      "type": "function"
    },
    {
      "constant": true,
      "inputs": [],
      "name": "Token",
      "outputs": [
        {
          "name": "",
          "type": "address"
        }
      ],
      "payable": false,
      "stateMutability": "view",
      "type": "function"
    },
    {
      "constant": true,
      "inputs": [
        {
          "name": "",
          "type": "address"
        }
      ],
      "name": "Investment",
      "outputs": [
        {
          "name": "buyer",
          "type": "address"
        },
        {
          "name": "Eth",
          "type": "uint256"
        },
        {
          "name": "TokenCount",
          "type": "uint256"
        }
      ],
      "payable": false,
      "stateMutability": "view",
      "type": "function"
    },
    {
      "constant": true,
      "inputs": [
        {
          "name": "",
          "type": "address"
        }
      ],
      "name": "Portfolio",
      "outputs": [
        {
          "name": "portfolioM",
          "type": "address"
        },
        {
          "name": "Eth",
          "type": "uint256"
        },
        {
          "name": "tokenName",
          "type": "string"
        },
        {
          "name": "count1",
          "type": "uint256"
        },
        {
          "name": "count2",
          "type": "uint256"
        },
        {
          "name": "commissionForPortfolio",
          "type": "uint256"
        }
      ],
      "payable": false,
      "stateMutability": "view",
      "type": "function"
    },
    {
      "constant": true,
      "inputs": [
        {
          "name": "",
          "type": "address"
        },
        {
          "name": "",
          "type": "address"
        }
      ],
      "name": "Market",
      "outputs": [
        {
          "name": "contractAdd",
          "type": "address"
        },
        {
          "name": "name",
          "type": "string"
        },
        {
          "name": "symbol",
          "type": "string"
        },
        {
          "name": "decimal",
          "type": "uint256"
        },
        {
          "name": "totalbuycount",
          "type": "uint256"
        }
      ],
      "payable": false,
      "stateMutability": "view",
      "type": "function"
    },
    {
      "inputs": [
        {
          "name": "na",
          "type": "address"
        },
        {
          "name": "Mark1",
          "type": "address"
        },
        {
          "name": "Mark2",
          "type": "address"
        }
      ],
      "payable": true,
      "stateMutability": "payable",
      "type": "constructor"
    },
    {
      "constant": false,
      "inputs": [],
      "name": "PortfolioReg",
      "outputs": [],
      "payable": true,
      "stateMutability": "payable",
      "type": "function"
    },
    {
      "constant": true,
      "inputs": [],
      "name": "GetBal",
      "outputs": [
        {
          "name": "",
          "type": "uint256"
        }
      ],
      "payable": false,
      "stateMutability": "view",
      "type": "function"
    },
    {
      "constant": false,
      "inputs": [
        {
          "name": "_add_",
          "type": "address"
        }
      ],
      "name": "InvesterGetToken",
      "outputs": [],
      "payable": true,
      "stateMutability": "payable",
      "type": "function"
    },
    {
      "constant": true,
      "inputs": [
        {
          "name": "a",
          "type": "address"
        }
      ],
      "name": "getBalance",
      "outputs": [
        {
          "name": "",
          "type": "uint256"
        }
      ],
      "payable": false,
      "stateMutability": "view",
      "type": "function"
    },
    {
      "constant": false,
      "inputs": [],
      "name": "Dividends",
      "outputs": [],
      "payable": false,
      "stateMutability": "nonpayable",
      "type": "function"
    },
    {
      "constant": true,
      "inputs": [],
      "name": "getAllBalance",
      "outputs": [
        {
          "name": "",
          "type": "uint256"
        }
      ],
      "payable": false,
      "stateMutability": "view",
      "type": "function"
    },
    {
      "constant": false,
      "inputs": [
        {
          "name": "_add_",
          "type": "address"
        },
        {
          "name": "value",
          "type": "uint256"
        }
      ],
      "name": "ReturnTokenToPortfolioManager",
      "outputs": [],
      "payable": true,
      "stateMutability": "payable",
      "type": "function"
    },
    {
      "constant": false,
      "inputs": [
        {
          "name": "_contractadd",
          "type": "address"
        },
        {
          "name": "_name",
          "type": "string"
        },
        {
          "name": "_symbol",
          "type": "string"
        },
        {
          "name": "_totacount",
          "type": "uint256"
        }
      ],
      "name": "PurchasingMarket1token",
      "outputs": [],
      "payable": false,
      "stateMutability": "nonpayable",
      "type": "function"
    },
    {
      "constant": false,
      "inputs": [
        {
          "name": "_contractadd",
          "type": "address"
        },
        {
          "name": "_name",
          "type": "string"
        },
        {
          "name": "_symbol",
          "type": "string"
        },
        {
          "name": "_totacount",
          "type": "uint256"
        }
      ],
      "name": "PurchasingMarket2token",
      "outputs": [],
      "payable": false,
      "stateMutability": "nonpayable",
      "type": "function"
    },
    {
      "constant": true,
      "inputs": [],
      "name": "DisplayPurchasedTK1",
      "outputs": [
        {
          "name": "",
          "type": "address"
        },
        {
          "name": "",
          "type": "string"
        },
        {
          "name": "",
          "type": "string"
        },
        {
          "name": "",
          "type": "uint256"
        },
        {
          "name": "",
          "type": "uint256"
        }
      ],
      "payable": false,
      "stateMutability": "view",
      "type": "function"
    },
    {
      "constant": true,
      "inputs": [],
      "name": "DisplayPurchasedTK2",
      "outputs": [
        {
          "name": "",
          "type": "address"
        },
        {
          "name": "",
          "type": "string"
        },
        {
          "name": "",
          "type": "string"
        },
        {
          "name": "",
          "type": "uint256"
        },
        {
          "name": "",
          "type": "uint256"
        }
      ],
      "payable": false,
      "stateMutability": "view",
      "type": "function"
    },
    {
      "constant": true,
      "inputs": [],
      "name": "Pcount",
      "outputs": [
        {
          "name": "",
          "type": "uint256"
        }
      ],
      "payable": false,
      "stateMutability": "view",
      "type": "function"
    },
    {
      "constant": true,
      "inputs": [],
      "name": "Icount",
      "outputs": [
        {
          "name": "",
          "type": "uint256"
        }
      ],
      "payable": false,
      "stateMutability": "view",
      "type": "function"
    }
  ],
  "bytecode": "0x608060405266038d7ea4c6800060045567016345785d8a00006005556064600655600a60075560006008556000600955604051606080620052e783398101806040528101908080519060200190929190805190602001909291908051906020019092919050505033601160006101000a81548173ffffffffffffffffffffffffffffffffffffffff021916908373ffffffffffffffffffffffffffffffffffffffff16021790555030601260006101000a81548173ffffffffffffffffffffffffffffffffffffffff021916908373ffffffffffffffffffffffffffffffffffffffff160217905550620000f2620002e1565b604051809103906000f0801580156200010f573d6000803e3d6000fd5b506000806101000a81548173ffffffffffffffffffffffffffffffffffffffff021916908373ffffffffffffffffffffffffffffffffffffffff16021790555082600f60006101000a81548173ffffffffffffffffffffffffffffffffffffffff021916908373ffffffffffffffffffffffffffffffffffffffff16021790555081600d60006101000a81548173ffffffffffffffffffffffffffffffffffffffff021916908373ffffffffffffffffffffffffffffffffffffffff16021790555080600e60006101000a81548173ffffffffffffffffffffffffffffffffffffffff021916908373ffffffffffffffffffffffffffffffffffffffff160217905550600e60009054906101000a900473ffffffffffffffffffffffffffffffffffffffff16600260006101000a81548173ffffffffffffffffffffffffffffffffffffffff021916908373ffffffffffffffffffffffffffffffffffffffff160217905550600d60009054906101000a900473ffffffffffffffffffffffffffffffffffffffff16600160006101000a81548173ffffffffffffffffffffffffffffffffffffffff021916908373ffffffffffffffffffffffffffffffffffffffff160217905550505050620002f2565b60405161123c80620040ab83390190565b613da980620003026000396000f30060806040526004361061018b576000357c0100000000000000000000000000000000000000000000000000000000900463ffffffff1680630c593ca1146101905780630d0e242f14610269578063208345ea146102945780632722271f146102bf57806331e69acb146102c957806334133df9146102f457806336c38cc71461031f5780633989d2601461038c5780633d71473b146103b757806352aa8382146103e25780637691edc41461044f5780638321e9cf146105285780639074a6551461057f57806391aa69ca14610630578063971c34281461068757806398d50eae146106b25780639e9c5f91146106dd578063a77f92ff14610734578063b9392a601461078b578063ba04fa8d146108c8578063bf8869b51461091f578063c24126761461094a578063c53dd11c146109a1578063d7898240146109e1578063de85406514610a72578063e2aa68dd14610b7d578063eb9969a814610cba578063ed88b05c14610ce5578063f15f14c514610e6e578063f8b2cb4f14610e85578063f93498c414610edc575b600080fd5b34801561019c57600080fd5b50610267600480360381019080803573ffffffffffffffffffffffffffffffffffffffff169060200190929190803590602001908201803590602001908080601f0160208091040260200160405190810160405280939291908181526020018383808284378201915050505050509192919290803590602001908201803590602001908080601f016020809104026020016040519081016040528093929190818152602001838380828437820191505050505050919291929080359060200190929190505050610f12565b005b34801561027557600080fd5b5061027e611431565b6040518082815260200191505060405180910390f35b3480156102a057600080fd5b506102a961143e565b6040518082815260200191505060405180910390f35b6102c7611444565b005b3480156102d557600080fd5b506102de61167e565b6040518082815260200191505060405180910390f35b34801561030057600080fd5b50610309611684565b6040518082815260200191505060405180910390f35b34801561032b57600080fd5b5061034a6004803603810190808035906020019092919050505061168a565b604051808273ffffffffffffffffffffffffffffffffffffffff1673ffffffffffffffffffffffffffffffffffffffff16815260200191505060405180910390f35b34801561039857600080fd5b506103a16116c8565b6040518082815260200191505060405180910390f35b3480156103c357600080fd5b506103cc6116ce565b6040518082815260200191505060405180910390f35b3480156103ee57600080fd5b5061040d600480360381019080803590602001909291905050506116d4565b604051808273ffffffffffffffffffffffffffffffffffffffff1673ffffffffffffffffffffffffffffffffffffffff16815260200191505060405180910390f35b34801561045b57600080fd5b50610526600480360381019080803573ffffffffffffffffffffffffffffffffffffffff169060200190929190803590602001908201803590602001908080601f0160208091040260200160405190810160405280939291908181526020018383808284378201915050505050509192919290803590602001908201803590602001908080601f016020809104026020016040519081016040528093929190818152602001838380828437820191505050505050919291929080359060200190929190505050611712565b005b34801561053457600080fd5b5061053d611c31565b604051808273ffffffffffffffffffffffffffffffffffffffff1673ffffffffffffffffffffffffffffffffffffffff16815260200191505060405180910390f35b34801561058b57600080fd5b506105e0600480360381019080803573ffffffffffffffffffffffffffffffffffffffff169060200190929190803573ffffffffffffffffffffffffffffffffffffffff169060200190929190505050611c57565b604051808473ffffffffffffffffffffffffffffffffffffffff1673ffffffffffffffffffffffffffffffffffffffff168152602001838152602001828152602001935050505060405180910390f35b34801561063c57600080fd5b50610645611cae565b604051808273ffffffffffffffffffffffffffffffffffffffff1673ffffffffffffffffffffffffffffffffffffffff16815260200191505060405180910390f35b34801561069357600080fd5b5061069c611cd4565b6040518082815260200191505060405180910390f35b3480156106be57600080fd5b506106c7611cda565b6040518082815260200191505060405180910390f35b3480156106e957600080fd5b506106f2611ce7565b604051808273ffffffffffffffffffffffffffffffffffffffff1673ffffffffffffffffffffffffffffffffffffffff16815260200191505060405180910390f35b34801561074057600080fd5b50610749611d0d565b604051808273ffffffffffffffffffffffffffffffffffffffff1673ffffffffffffffffffffffffffffffffffffffff16815260200191505060405180910390f35b34801561079757600080fd5b506107a0611d33565b604051808673ffffffffffffffffffffffffffffffffffffffff1673ffffffffffffffffffffffffffffffffffffffff1681526020018060200180602001858152602001848152602001838103835287818151815260200191508051906020019080838360005b83811015610822578082015181840152602081019050610807565b50505050905090810190601f16801561084f5780820380516001836020036101000a031916815260200191505b50838103825286818151815260200191508051906020019080838360005b8381101561088857808201518184015260208101905061086d565b50505050905090810190601f1680156108b55780820380516001836020036101000a031916815260200191505b5097505050505050505060405180910390f35b3480156108d457600080fd5b50610909600480360381019080803573ffffffffffffffffffffffffffffffffffffffff16906020019092919050505061212d565b6040518082815260200191505060405180910390f35b34801561092b57600080fd5b50610934612145565b6040518082815260200191505060405180910390f35b34801561095657600080fd5b5061095f61217e565b604051808273ffffffffffffffffffffffffffffffffffffffff1673ffffffffffffffffffffffffffffffffffffffff16815260200191505060405180910390f35b6109df600480360381019080803573ffffffffffffffffffffffffffffffffffffffff169060200190929190803590602001909291905050506121a3565b005b3480156109ed57600080fd5b50610a22600480360381019080803573ffffffffffffffffffffffffffffffffffffffff1690602001909291905050506126e9565b604051808473ffffffffffffffffffffffffffffffffffffffff1673ffffffffffffffffffffffffffffffffffffffff168152602001838152602001828152602001935050505060405180910390f35b348015610a7e57600080fd5b50610ab3600480360381019080803573ffffffffffffffffffffffffffffffffffffffff169060200190929190505050612733565b604051808773ffffffffffffffffffffffffffffffffffffffff1673ffffffffffffffffffffffffffffffffffffffff16815260200186815260200180602001858152602001848152602001838152602001828103825286818151815260200191508051906020019080838360005b83811015610b3d578082015181840152602081019050610b22565b50505050905090810190601f168015610b6a5780820380516001836020036101000a031916815260200191505b5097505050505050505060405180910390f35b348015610b8957600080fd5b50610b92612827565b604051808673ffffffffffffffffffffffffffffffffffffffff1673ffffffffffffffffffffffffffffffffffffffff1681526020018060200180602001858152602001848152602001838103835287818151815260200191508051906020019080838360005b83811015610c14578082015181840152602081019050610bf9565b50505050905090810190601f168015610c415780820380516001836020036101000a031916815260200191505b50838103825286818151815260200191508051906020019080838360005b83811015610c7a578082015181840152602081019050610c5f565b50505050905090810190601f168015610ca75780820380516001836020036101000a031916815260200191505b5097505050505050505060405180910390f35b348015610cc657600080fd5b50610ccf612c21565b6040518082815260200191505060405180910390f35b348015610cf157600080fd5b50610d46600480360381019080803573ffffffffffffffffffffffffffffffffffffffff169060200190929190803573ffffffffffffffffffffffffffffffffffffffff169060200190929190505050612d20565b604051808673ffffffffffffffffffffffffffffffffffffffff1673ffffffffffffffffffffffffffffffffffffffff1681526020018060200180602001858152602001848152602001838103835287818151815260200191508051906020019080838360005b83811015610dc8578082015181840152602081019050610dad565b50505050905090810190601f168015610df55780820380516001836020036101000a031916815260200191505b50838103825286818151815260200191508051906020019080838360005b83811015610e2e578082015181840152602081019050610e13565b50505050905090810190601f168015610e5b5780820380516001836020036101000a031916815260200191505b5097505050505050505060405180910390f35b348015610e7a57600080fd5b50610e83612eb3565b005b348015610e9157600080fd5b50610ec6600480360381019080803573ffffffffffffffffffffffffffffffffffffffff169060200190929190505050612fcb565b6040518082815260200191505060405180910390f35b610f10600480360381019080803573ffffffffffffffffffffffffffffffffffffffff1690602001909291905050506130cc565b005b6000806000601960003373ffffffffffffffffffffffffffffffffffffffff1673ffffffffffffffffffffffffffffffffffffffff168152602001908152602001600020549250610f7467016345785d8a0000856137db90919063ffffffff16565b9150610f91670de0b6b3a76400008361380c90919063ffffffff16565b600b81905550600b5483111515610fa757600080fd5b600d60009054906101000a900473ffffffffffffffffffffffffffffffffffffffff1673ffffffffffffffffffffffffffffffffffffffff16622625a083604051600060405180830381858888f193505050505085601860003373ffffffffffffffffffffffffffffffffffffffff1673ffffffffffffffffffffffffffffffffffffffff16815260200190815260200160002060008973ffffffffffffffffffffffffffffffffffffffff1673ffffffffffffffffffffffffffffffffffffffff168152602001908152602001600020600101908051906020019061108e929190613cd8565b5084601860003373ffffffffffffffffffffffffffffffffffffffff1673ffffffffffffffffffffffffffffffffffffffff16815260200190815260200160002060008973ffffffffffffffffffffffffffffffffffffffff1673ffffffffffffffffffffffffffffffffffffffff1681526020019081526020016000206002019080519060200190611122929190613cd8565b506000601860003373ffffffffffffffffffffffffffffffffffffffff1673ffffffffffffffffffffffffffffffffffffffff16815260200190815260200160002060008973ffffffffffffffffffffffffffffffffffffffff1673ffffffffffffffffffffffffffffffffffffffff1681526020019081526020016000206003018190555083601860003373ffffffffffffffffffffffffffffffffffffffff1673ffffffffffffffffffffffffffffffffffffffff16815260200190815260200160002060008973ffffffffffffffffffffffffffffffffffffffff1673ffffffffffffffffffffffffffffffffffffffff1681526020019081526020016000206004018190555086601860003373ffffffffffffffffffffffffffffffffffffffff1673ffffffffffffffffffffffffffffffffffffffff16815260200190815260200160002060008973ffffffffffffffffffffffffffffffffffffffff1673ffffffffffffffffffffffffffffffffffffffff16815260200190815260200160002060000160006101000a81548173ffffffffffffffffffffffffffffffffffffffff021916908373ffffffffffffffffffffffffffffffffffffffff16021790555085601560003373ffffffffffffffffffffffffffffffffffffffff1673ffffffffffffffffffffffffffffffffffffffff1681526020019081526020016000206002019080519060200190611340929190613cd8565b5083601560003373ffffffffffffffffffffffffffffffffffffffff1673ffffffffffffffffffffffffffffffffffffffff168152602001908152602001600020600301819055506113df600b54601560003373ffffffffffffffffffffffffffffffffffffffff1673ffffffffffffffffffffffffffffffffffffffff1681526020019081526020016000206001015461383090919063ffffffff16565b905080601560003373ffffffffffffffffffffffffffffffffffffffff1673ffffffffffffffffffffffffffffffffffffffff1681526020019081526020016000206001018190555050505050505050565b6000601480549050905090565b600c5481565b600080600033601560003373ffffffffffffffffffffffffffffffffffffffff1673ffffffffffffffffffffffffffffffffffffffff16815260200190815260200160002060000160006101000a81548173ffffffffffffffffffffffffffffffffffffffff021916908373ffffffffffffffffffffffffffffffffffffffff1602179055506114e5670de0b6b3a76400003461380c90919063ffffffff16565b925061150e6064611500600a866137db90919063ffffffff16565b61380c90919063ffffffff16565b915061152582600a5461384c90919063ffffffff16565b600a8190555061153e828461383090919063ffffffff16565b905061159581601560003373ffffffffffffffffffffffffffffffffffffffff1673ffffffffffffffffffffffffffffffffffffffff1681526020019081526020016000206001015461384c90919063ffffffff16565b601560003373ffffffffffffffffffffffffffffffffffffffff1673ffffffffffffffffffffffffffffffffffffffff1681526020019081526020016000206001018190555061162d81601960003373ffffffffffffffffffffffffffffffffffffffff1673ffffffffffffffffffffffffffffffffffffffff1681526020019081526020016000205461384c90919063ffffffff16565b601960003373ffffffffffffffffffffffffffffffffffffffff1673ffffffffffffffffffffffffffffffffffffffff1681526020019081526020016000208190555061167934613868565b505050565b600a5481565b60035481565b60148181548110151561169957fe5b906000526020600020016000915054906101000a900473ffffffffffffffffffffffffffffffffffffffff1681565b60095481565b600b5481565b6013818154811015156116e357fe5b906000526020600020016000915054906101000a900473ffffffffffffffffffffffffffffffffffffffff1681565b6000806000601960003373ffffffffffffffffffffffffffffffffffffffff1673ffffffffffffffffffffffffffffffffffffffff16815260200190815260200160002054925061177467016345785d8a0000856137db90919063ffffffff16565b9150611791670de0b6b3a76400008361380c90919063ffffffff16565b600b81905550600b54831115156117a757600080fd5b600e60009054906101000a900473ffffffffffffffffffffffffffffffffffffffff1673ffffffffffffffffffffffffffffffffffffffff16622625a083604051600060405180830381858888f193505050505085601860003373ffffffffffffffffffffffffffffffffffffffff1673ffffffffffffffffffffffffffffffffffffffff16815260200190815260200160002060008973ffffffffffffffffffffffffffffffffffffffff1673ffffffffffffffffffffffffffffffffffffffff168152602001908152602001600020600101908051906020019061188e929190613cd8565b5084601860003373ffffffffffffffffffffffffffffffffffffffff1673ffffffffffffffffffffffffffffffffffffffff16815260200190815260200160002060008973ffffffffffffffffffffffffffffffffffffffff1673ffffffffffffffffffffffffffffffffffffffff1681526020019081526020016000206002019080519060200190611922929190613cd8565b506000601860003373ffffffffffffffffffffffffffffffffffffffff1673ffffffffffffffffffffffffffffffffffffffff16815260200190815260200160002060008973ffffffffffffffffffffffffffffffffffffffff1673ffffffffffffffffffffffffffffffffffffffff1681526020019081526020016000206003018190555083601860003373ffffffffffffffffffffffffffffffffffffffff1673ffffffffffffffffffffffffffffffffffffffff16815260200190815260200160002060008973ffffffffffffffffffffffffffffffffffffffff1673ffffffffffffffffffffffffffffffffffffffff1681526020019081526020016000206004018190555086601860003373ffffffffffffffffffffffffffffffffffffffff1673ffffffffffffffffffffffffffffffffffffffff16815260200190815260200160002060008973ffffffffffffffffffffffffffffffffffffffff1673ffffffffffffffffffffffffffffffffffffffff16815260200190815260200160002060000160006101000a81548173ffffffffffffffffffffffffffffffffffffffff021916908373ffffffffffffffffffffffffffffffffffffffff16021790555085601560003373ffffffffffffffffffffffffffffffffffffffff1673ffffffffffffffffffffffffffffffffffffffff1681526020019081526020016000206002019080519060200190611b40929190613cd8565b5083601560003373ffffffffffffffffffffffffffffffffffffffff1673ffffffffffffffffffffffffffffffffffffffff16815260200190815260200160002060040181905550611bdf600b54601560003373ffffffffffffffffffffffffffffffffffffffff1673ffffffffffffffffffffffffffffffffffffffff1681526020019081526020016000206001015461383090919063ffffffff16565b905080601560003373ffffffffffffffffffffffffffffffffffffffff1673ffffffffffffffffffffffffffffffffffffffff1681526020019081526020016000206001018190555050505050505050565b601060009054906101000a900473ffffffffffffffffffffffffffffffffffffffff1681565b6016602052816000526040600020602052806000526040600020600091509150508060000160009054906101000a900473ffffffffffffffffffffffffffffffffffffffff16908060030154908060040154905083565b600e60009054906101000a900473ffffffffffffffffffffffffffffffffffffffff1681565b60085481565b6000601380549050905090565b601260009054906101000a900473ffffffffffffffffffffffffffffffffffffffff1681565b600d60009054906101000a900473ffffffffffffffffffffffffffffffffffffffff1681565b6000606080600080600d60009054906101000a900473ffffffffffffffffffffffffffffffffffffffff16601860003373ffffffffffffffffffffffffffffffffffffffff1673ffffffffffffffffffffffffffffffffffffffff1681526020019081526020016000206000600d60009054906101000a900473ffffffffffffffffffffffffffffffffffffffff1673ffffffffffffffffffffffffffffffffffffffff1673ffffffffffffffffffffffffffffffffffffffff168152602001908152602001600020600101601860003373ffffffffffffffffffffffffffffffffffffffff1673ffffffffffffffffffffffffffffffffffffffff1681526020019081526020016000206000600d60009054906101000a900473ffffffffffffffffffffffffffffffffffffffff1673ffffffffffffffffffffffffffffffffffffffff1673ffffffffffffffffffffffffffffffffffffffff168152602001908152602001600020600201601860003373ffffffffffffffffffffffffffffffffffffffff1673ffffffffffffffffffffffffffffffffffffffff1681526020019081526020016000206000600d60009054906101000a900473ffffffffffffffffffffffffffffffffffffffff1673ffffffffffffffffffffffffffffffffffffffff1673ffffffffffffffffffffffffffffffffffffffff16815260200190815260200160002060030154601860003373ffffffffffffffffffffffffffffffffffffffff1673ffffffffffffffffffffffffffffffffffffffff1681526020019081526020016000206000600d60009054906101000a900473ffffffffffffffffffffffffffffffffffffffff1673ffffffffffffffffffffffffffffffffffffffff1673ffffffffffffffffffffffffffffffffffffffff16815260200190815260200160002060040154838054600181600116156101000203166002900480601f0160208091040260200160405190810160405280929190818152602001828054600181600116156101000203166002900480156120795780601f1061204e57610100808354040283529160200191612079565b820191906000526020600020905b81548152906001019060200180831161205c57829003601f168201915b50505050509350828054600181600116156101000203166002900480601f0160208091040260200160405190810160405280929190818152602001828054600181600116156101000203166002900480156121155780601f106120ea57610100808354040283529160200191612115565b820191906000526020600020905b8154815290600101906020018083116120f857829003601f168201915b50505050509250945094509450945094509091929394565b60196020528060005260406000206000915090505481565b6000612179670de0b6b3a76400003073ffffffffffffffffffffffffffffffffffffffff163161380c90919063ffffffff16565b905090565b6000809054906101000a900473ffffffffffffffffffffffffffffffffffffffff1681565b600080600f60009054906101000a900473ffffffffffffffffffffffffffffffffffffffff1673ffffffffffffffffffffffffffffffffffffffff166323b872dd3386866040518463ffffffff167c0100000000000000000000000000000000000000000000000000000000028152600401808473ffffffffffffffffffffffffffffffffffffffff1673ffffffffffffffffffffffffffffffffffffffff1681526020018373ffffffffffffffffffffffffffffffffffffffff1673ffffffffffffffffffffffffffffffffffffffff1681526020018281526020019350505050602060405180830381600087803b15801561229f57600080fd5b505af11580156122b3573d6000803e3d6000fd5b505050506040513d60208110156122c957600080fd5b8101908080519060200190929190505050506122f0600554846137db90919063ffffffff16565b6003819055506123316123226064612314600a6003546137db90919063ffffffff16565b61380c90919063ffffffff16565b8361384c90919063ffffffff16565b9150612362612351670de0b6b3a76400008461380c90919063ffffffff16565b600a5461384c90919063ffffffff16565b600a819055506123e56123946064612386600a6003546137db90919063ffffffff16565b61380c90919063ffffffff16565b601560008773ffffffffffffffffffffffffffffffffffffffff1673ffffffffffffffffffffffffffffffffffffffff1681526020019081526020016000206005015461384c90919063ffffffff16565b601560008673ffffffffffffffffffffffffffffffffffffffff1673ffffffffffffffffffffffffffffffffffffffff168152602001908152602001600020600501819055506124a682612498612487601560008973ffffffffffffffffffffffffffffffffffffffff1673ffffffffffffffffffffffffffffffffffffffff168152602001908152602001600020600501548661384c90919063ffffffff16565b60035461383090919063ffffffff16565b61384c90919063ffffffff16565b90508373ffffffffffffffffffffffffffffffffffffffff166108fc601560008773ffffffffffffffffffffffffffffffffffffffff1673ffffffffffffffffffffffffffffffffffffffff168152602001908152602001600020600501549081150290604051600060405180830381858888f19350505050158015612530573d6000803e3d6000fd5b50601260009054906101000a900473ffffffffffffffffffffffffffffffffffffffff1673ffffffffffffffffffffffffffffffffffffffff16622625a083604051600060405180830381858888f19350505050503373ffffffffffffffffffffffffffffffffffffffff166108fc829081150290604051600060405180830381858888f193505050501580156125cb573d6000803e3d6000fd5b50612660600354601660003373ffffffffffffffffffffffffffffffffffffffff1673ffffffffffffffffffffffffffffffffffffffff16815260200190815260200160002060008773ffffffffffffffffffffffffffffffffffffffff1673ffffffffffffffffffffffffffffffffffffffff1681526020019081526020016000206003015461383090919063ffffffff16565b601660003373ffffffffffffffffffffffffffffffffffffffff1673ffffffffffffffffffffffffffffffffffffffff16815260200190815260200160002060008673ffffffffffffffffffffffffffffffffffffffff1673ffffffffffffffffffffffffffffffffffffffff1681526020019081526020016000206003018190555050505050565b60176020528060005260406000206000915090508060000160009054906101000a900473ffffffffffffffffffffffffffffffffffffffff16908060030154908060040154905083565b60156020528060005260406000206000915090508060000160009054906101000a900473ffffffffffffffffffffffffffffffffffffffff1690806001015490806002018054600181600116156101000203166002900480601f01602080910402602001604051908101604052809291908181526020018280546001816001161561010002031660029004801561280b5780601f106127e05761010080835404028352916020019161280b565b820191906000526020600020905b8154815290600101906020018083116127ee57829003601f168201915b5050505050908060030154908060040154908060050154905086565b6000606080600080600e60009054906101000a900473ffffffffffffffffffffffffffffffffffffffff16601860003373ffffffffffffffffffffffffffffffffffffffff1673ffffffffffffffffffffffffffffffffffffffff1681526020019081526020016000206000600e60009054906101000a900473ffffffffffffffffffffffffffffffffffffffff1673ffffffffffffffffffffffffffffffffffffffff1673ffffffffffffffffffffffffffffffffffffffff168152602001908152602001600020600101601860003373ffffffffffffffffffffffffffffffffffffffff1673ffffffffffffffffffffffffffffffffffffffff1681526020019081526020016000206000600e60009054906101000a900473ffffffffffffffffffffffffffffffffffffffff1673ffffffffffffffffffffffffffffffffffffffff1673ffffffffffffffffffffffffffffffffffffffff168152602001908152602001600020600201601860003373ffffffffffffffffffffffffffffffffffffffff1673ffffffffffffffffffffffffffffffffffffffff1681526020019081526020016000206000600e60009054906101000a900473ffffffffffffffffffffffffffffffffffffffff1673ffffffffffffffffffffffffffffffffffffffff1673ffffffffffffffffffffffffffffffffffffffff16815260200190815260200160002060030154601860003373ffffffffffffffffffffffffffffffffffffffff1673ffffffffffffffffffffffffffffffffffffffff1681526020019081526020016000206000600e60009054906101000a900473ffffffffffffffffffffffffffffffffffffffff1673ffffffffffffffffffffffffffffffffffffffff1673ffffffffffffffffffffffffffffffffffffffff16815260200190815260200160002060040154838054600181600116156101000203166002900480601f016020809104026020016040519081016040528092919081815260200182805460018160011615610100020316600290048015612b6d5780601f10612b4257610100808354040283529160200191612b6d565b820191906000526020600020905b815481529060010190602001808311612b5057829003601f168201915b50505050509350828054600181600116156101000203166002900480601f016020809104026020016040519081016040528092919081815260200182805460018160011615610100020316600290048015612c095780601f10612bde57610100808354040283529160200191612c09565b820191906000526020600020905b815481529060010190602001808311612bec57829003601f168201915b50505050509250945094509450945094509091929394565b6000600f60009054906101000a900473ffffffffffffffffffffffffffffffffffffffff1673ffffffffffffffffffffffffffffffffffffffff166370a08231336040518263ffffffff167c0100000000000000000000000000000000000000000000000000000000028152600401808273ffffffffffffffffffffffffffffffffffffffff1673ffffffffffffffffffffffffffffffffffffffff168152602001915050602060405180830381600087803b158015612ce057600080fd5b505af1158015612cf4573d6000803e3d6000fd5b505050506040513d6020811015612d0a57600080fd5b8101908080519060200190929190505050905090565b6018602052816000526040600020602052806000526040600020600091509150508060000160009054906101000a900473ffffffffffffffffffffffffffffffffffffffff1690806001018054600181600116156101000203166002900480601f016020809104026020016040519081016040528092919081815260200182805460018160011615610100020316600290048015612dff5780601f10612dd457610100808354040283529160200191612dff565b820191906000526020600020905b815481529060010190602001808311612de257829003601f168201915b505050505090806002018054600181600116156101000203166002900480601f016020809104026020016040519081016040528092919081815260200182805460018160011615610100020316600290048015612e9d5780601f10612e7257610100808354040283529160200191612e9d565b820191906000526020600020905b815481529060010190602001808311612e8057829003601f168201915b5050505050908060030154908060040154905085565b600f60009054906101000a900473ffffffffffffffffffffffffffffffffffffffff1673ffffffffffffffffffffffffffffffffffffffff166379c65068336006546040518363ffffffff167c0100000000000000000000000000000000000000000000000000000000028152600401808373ffffffffffffffffffffffffffffffffffffffff1673ffffffffffffffffffffffffffffffffffffffff16815260200182815260200192505050600060405180830381600087803b158015612f7a57600080fd5b505af1158015612f8e573d6000803e3d6000fd5b50505050612fbb6064612fad600a6006546137db90919063ffffffff16565b61380c90919063ffffffff16565b600881905550612fc96139c8565b565b6000600f60009054906101000a900473ffffffffffffffffffffffffffffffffffffffff1673ffffffffffffffffffffffffffffffffffffffff166370a08231836040518263ffffffff167c0100000000000000000000000000000000000000000000000000000000028152600401808273ffffffffffffffffffffffffffffffffffffffff1673ffffffffffffffffffffffffffffffffffffffff168152602001915050602060405180830381600087803b15801561308a57600080fd5b505af115801561309e573d6000803e3d6000fd5b505050506040513d60208110156130b457600080fd5b81019080805190602001909291905050509050919050565b6000806130e46005543461380c90919063ffffffff16565b91506130fb8260095461384c90919063ffffffff16565b600981905550600f60009054906101000a900473ffffffffffffffffffffffffffffffffffffffff1673ffffffffffffffffffffffffffffffffffffffff166323b872dd8433856040518463ffffffff167c0100000000000000000000000000000000000000000000000000000000028152600401808473ffffffffffffffffffffffffffffffffffffffff1673ffffffffffffffffffffffffffffffffffffffff1681526020018373ffffffffffffffffffffffffffffffffffffffff1673ffffffffffffffffffffffffffffffffffffffff1681526020018281526020019350505050602060405180830381600087803b1580156131fa57600080fd5b505af115801561320e573d6000803e3d6000fd5b505050506040513d602081101561322457600080fd5b81019080805190602001909291905050505060143390806001815401808255809150509060018203906000526020600020016000909192909190916101000a81548173ffffffffffffffffffffffffffffffffffffffff021916908373ffffffffffffffffffffffffffffffffffffffff16021790555050601760003373ffffffffffffffffffffffffffffffffffffffff1673ffffffffffffffffffffffffffffffffffffffff1681526020019081526020016000206001018390806001815401808255809150509060018203906000526020600020016000909192909190916101000a81548173ffffffffffffffffffffffffffffffffffffffff021916908373ffffffffffffffffffffffffffffffffffffffff16021790555050601760003373ffffffffffffffffffffffffffffffffffffffff1673ffffffffffffffffffffffffffffffffffffffff16815260200190815260200160002060020134908060018154018082558091505090600182039060005260206000200160009091929091909150555033601660003373ffffffffffffffffffffffffffffffffffffffff1673ffffffffffffffffffffffffffffffffffffffff16815260200190815260200160002060008573ffffffffffffffffffffffffffffffffffffffff1673ffffffffffffffffffffffffffffffffffffffff16815260200190815260200160002060000160006101000a81548173ffffffffffffffffffffffffffffffffffffffff021916908373ffffffffffffffffffffffffffffffffffffffff1602179055506134fe34601660003373ffffffffffffffffffffffffffffffffffffffff1673ffffffffffffffffffffffffffffffffffffffff16815260200190815260200160002060008673ffffffffffffffffffffffffffffffffffffffff1673ffffffffffffffffffffffffffffffffffffffff1681526020019081526020016000206003015461384c90919063ffffffff16565b601660003373ffffffffffffffffffffffffffffffffffffffff1673ffffffffffffffffffffffffffffffffffffffff16815260200190815260200160002060008573ffffffffffffffffffffffffffffffffffffffff1673ffffffffffffffffffffffffffffffffffffffff1681526020019081526020016000206003018190555061359c670de0b6b3a76400003461380c90919063ffffffff16565b905080601660003373ffffffffffffffffffffffffffffffffffffffff1673ffffffffffffffffffffffffffffffffffffffff16815260200190815260200160002060008573ffffffffffffffffffffffffffffffffffffffff1673ffffffffffffffffffffffffffffffffffffffff1681526020019081526020016000206003018190555081601660003373ffffffffffffffffffffffffffffffffffffffff1673ffffffffffffffffffffffffffffffffffffffff16815260200190815260200160002060008573ffffffffffffffffffffffffffffffffffffffff1673ffffffffffffffffffffffffffffffffffffffff168152602001908152602001600020600401819055506136f881601960008673ffffffffffffffffffffffffffffffffffffffff1673ffffffffffffffffffffffffffffffffffffffff1681526020019081526020016000205461384c90919063ffffffff16565b601960008573ffffffffffffffffffffffffffffffffffffffff1673ffffffffffffffffffffffffffffffffffffffff1681526020019081526020016000208190555061379081601560008673ffffffffffffffffffffffffffffffffffffffff1673ffffffffffffffffffffffffffffffffffffffff1681526020019081526020016000206001015461384c90919063ffffffff16565b601560008573ffffffffffffffffffffffffffffffffffffffff1673ffffffffffffffffffffffffffffffffffffffff16815260200190815260200160002060010181905550505050565b6000818302905060008314806137fb57508183828115156137f857fe5b04145b151561380657600080fd5b92915050565b6000808211151561381c57600080fd5b818381151561382757fe5b04905092915050565b600082821115151561384157600080fd5b818303905092915050565b6000818301905082811015151561386257600080fd5b92915050565b600061387f6004548361380c90919063ffffffff16565b9050600f60009054906101000a900473ffffffffffffffffffffffffffffffffffffffff1673ffffffffffffffffffffffffffffffffffffffff166379c6506833836040518363ffffffff167c0100000000000000000000000000000000000000000000000000000000028152600401808373ffffffffffffffffffffffffffffffffffffffff1673ffffffffffffffffffffffffffffffffffffffff16815260200182815260200192505050600060405180830381600087803b15801561394657600080fd5b505af115801561395a573d6000803e3d6000fd5b5050505060133390806001815401808255809150509060018203906000526020600020016000909192909190916101000a81548173ffffffffffffffffffffffffffffffffffffffff021916908373ffffffffffffffffffffffffffffffffffffffff160217905550505050565b600080600091505b601480549050821015613cd457613ad2600954613ac46139fd60085460065461383090919063ffffffff16565b60166000601488815481101515613a1057fe5b9060005260206000200160009054906101000a900473ffffffffffffffffffffffffffffffffffffffff1673ffffffffffffffffffffffffffffffffffffffff1673ffffffffffffffffffffffffffffffffffffffff16815260200190815260200160002060003373ffffffffffffffffffffffffffffffffffffffff1673ffffffffffffffffffffffffffffffffffffffff168152602001908152602001600020600401546137db90919063ffffffff16565b61380c90919063ffffffff16565b9050600f60009054906101000a900473ffffffffffffffffffffffffffffffffffffffff1673ffffffffffffffffffffffffffffffffffffffff166379c65068601484815481101515613b2157fe5b9060005260206000200160009054906101000a900473ffffffffffffffffffffffffffffffffffffffff16836040518363ffffffff167c0100000000000000000000000000000000000000000000000000000000028152600401808373ffffffffffffffffffffffffffffffffffffffff1673ffffffffffffffffffffffffffffffffffffffff16815260200182815260200192505050600060405180830381600087803b158015613bd257600080fd5b505af1158015613be6573d6000803e3d6000fd5b50505050600f60009054906101000a900473ffffffffffffffffffffffffffffffffffffffff1673ffffffffffffffffffffffffffffffffffffffff1663171ce59733836040518363ffffffff167c0100000000000000000000000000000000000000000000000000000000028152600401808373ffffffffffffffffffffffffffffffffffffffff1673ffffffffffffffffffffffffffffffffffffffff16815260200182815260200192505050600060405180830381600087803b158015613caf57600080fd5b505af1158015613cc3573d6000803e3d6000fd5b5050505081806001019250506139d0565b5050565b828054600181600116156101000203166002900490600052602060002090601f016020900481019282601f10613d1957805160ff1916838001178555613d47565b82800160010185558215613d47579182015b82811115613d46578251825591602001919060010190613d2b565b5b509050613d549190613d58565b5090565b613d7a91905b80821115613d76576000816000905550600101613d5e565b5090565b905600a165627a7a7230582085d9ebc96c1a7f536769a55bafc4f564ada137e4af3c7aeca69778310787b0c8002960806040526040805190810160405280600981526020017f546f6b656e20312e3000000000000000000000000000000000000000000000008152506000908051906020019062000051929190620001a4565b503480156200005f57600080fd5b50620186a0600381905550600354600760003373ffffffffffffffffffffffffffffffffffffffff1673ffffffffffffffffffffffffffffffffffffffff168152602001908152602001600020819055506040805190810160405280600381526020017f445458000000000000000000000000000000000000000000000000000000000081525060029080519060200190620000fd929190620001a4565b506040805190810160405280600c81526020017f5068656f6e6978546f6b656e0000000000000000000000000000000000000000815250600190805190602001906200014b929190620001a4565b506101f4600481905550600060058190555033600660006101000a81548173ffffffffffffffffffffffffffffffffffffffff021916908373ffffffffffffffffffffffffffffffffffffffff16021790555062000253565b828054600181600116156101000203166002900490600052602060002090601f016020900481019282601f10620001e757805160ff191683800117855562000218565b8280016001018555821562000218579182015b8281111562000217578251825591602001919060010190620001fa565b5b5090506200022791906200022b565b5090565b6200025091905b808211156200024c57600081600090555060010162000232565b5090565b90565b610fd980620002636000396000f3006080604052600436106100db576000357c0100000000000000000000000000000000000000000000000000000000900463ffffffff16806306fdde03146100e0578063095ea7b314610170578063171ce597146101d557806318160ddd1461021557806323b872dd14610240578063313ce567146102c55780635c658165146102f0578063661884631461036757806370a08231146103cc57806372dd529b1461042357806379c650681461044e57806395d89b411461049b578063a9059cbb1461052b578063d73dd62314610590578063dd62ed3e146105f5575b600080fd5b3480156100ec57600080fd5b506100f561066c565b6040518080602001828103825283818151815260200191508051906020019080838360005b8381101561013557808201518184015260208101905061011a565b50505050905090810190601f1680156101625780820380516001836020036101000a031916815260200191505b509250505060405180910390f35b34801561017c57600080fd5b506101bb600480360381019080803573ffffffffffffffffffffffffffffffffffffffff1690602001909291908035906020019092919050505061070a565b604051808215151515815260200191505060405180910390f35b610213600480360381019080803573ffffffffffffffffffffffffffffffffffffffff16906020019092919080359060200190929190505050610797565b005b34801561022157600080fd5b5061022a610820565b6040518082815260200191505060405180910390f35b34801561024c57600080fd5b506102ab600480360381019080803573ffffffffffffffffffffffffffffffffffffffff169060200190929190803573ffffffffffffffffffffffffffffffffffffffff1690602001909291908035906020019092919050505061082a565b604051808215151515815260200191505060405180910390f35b3480156102d157600080fd5b506102da6109a6565b6040518082815260200191505060405180910390f35b3480156102fc57600080fd5b50610351600480360381019080803573ffffffffffffffffffffffffffffffffffffffff169060200190929190803573ffffffffffffffffffffffffffffffffffffffff1690602001909291905050506109ac565b6040518082815260200191505060405180910390f35b34801561037357600080fd5b506103b2600480360381019080803573ffffffffffffffffffffffffffffffffffffffff169060200190929190803590602001909291905050506109d1565b604051808215151515815260200191505060405180910390f35b3480156103d857600080fd5b5061040d600480360381019080803573ffffffffffffffffffffffffffffffffffffffff169060200190929190505050610adc565b6040518082815260200191505060405180910390f35b34801561042f57600080fd5b50610438610b25565b6040518082815260200191505060405180910390f35b34801561045a57600080fd5b50610499600480360381019080803573ffffffffffffffffffffffffffffffffffffffff16906020019092919080359060200190929190505050610b2b565b005b3480156104a757600080fd5b506104b0610bb4565b6040518080602001828103825283818151815260200191508051906020019080838360005b838110156104f05780820151818401526020810190506104d5565b50505050905090810190601f16801561051d5780820380516001836020036101000a031916815260200191505b509250505060405180910390f35b34801561053757600080fd5b50610576600480360381019080803573ffffffffffffffffffffffffffffffffffffffff16906020019092919080359060200190929190505050610c52565b604051808215151515815260200191505060405180910390f35b34801561059c57600080fd5b506105db600480360381019080803573ffffffffffffffffffffffffffffffffffffffff16906020019092919080359060200190929190505050610e1b565b604051808215151515815260200191505060405180910390f35b34801561060157600080fd5b50610656600480360381019080803573ffffffffffffffffffffffffffffffffffffffff169060200190929190803573ffffffffffffffffffffffffffffffffffffffff169060200190929190505050610f26565b6040518082815260200191505060405180910390f35b60018054600181600116156101000203166002900480601f0160208091040260200160405190810160405280929190818152602001828054600181600116156101000203166002900480156107025780601f106106d757610100808354040283529160200191610702565b820191906000526020600020905b8154815290600101906020018083116106e557829003601f168201915b505050505081565b600081600860003373ffffffffffffffffffffffffffffffffffffffff1673ffffffffffffffffffffffffffffffffffffffff16815260200190815260200160002060008573ffffffffffffffffffffffffffffffffffffffff1673ffffffffffffffffffffffffffffffffffffffff168152602001908152602001600020819055506001905092915050565b80600760008473ffffffffffffffffffffffffffffffffffffffff1673ffffffffffffffffffffffffffffffffffffffff1681526020019081526020016000205403600760008473ffffffffffffffffffffffffffffffffffffffff1673ffffffffffffffffffffffffffffffffffffffff168152602001908152602001600020819055505050565b6000600354905090565b600081600760008673ffffffffffffffffffffffffffffffffffffffff1673ffffffffffffffffffffffffffffffffffffffff1681526020019081526020016000205403600760008673ffffffffffffffffffffffffffffffffffffffff1673ffffffffffffffffffffffffffffffffffffffff1681526020019081526020016000208190555081600760008573ffffffffffffffffffffffffffffffffffffffff1673ffffffffffffffffffffffffffffffffffffffff1681526020019081526020016000205401600760008573ffffffffffffffffffffffffffffffffffffffff1673ffffffffffffffffffffffffffffffffffffffff168152602001908152602001600020819055508273ffffffffffffffffffffffffffffffffffffffff168473ffffffffffffffffffffffffffffffffffffffff167fddf252ad1be2c89b69c2b068fc378daa952ba7f163c4a11628f55a4df523b3ef846040518082815260200191505060405180910390a3600190509392505050565b60055481565b6008602052816000526040600020602052806000526040600020600091509150505481565b600081600860003373ffffffffffffffffffffffffffffffffffffffff1673ffffffffffffffffffffffffffffffffffffffff16815260200190815260200160002060008573ffffffffffffffffffffffffffffffffffffffff1673ffffffffffffffffffffffffffffffffffffffff1681526020019081526020016000205403600860003373ffffffffffffffffffffffffffffffffffffffff1673ffffffffffffffffffffffffffffffffffffffff16815260200190815260200160002060008573ffffffffffffffffffffffffffffffffffffffff1673ffffffffffffffffffffffffffffffffffffffff168152602001908152602001600020819055506001905092915050565b6000600760008373ffffffffffffffffffffffffffffffffffffffff1673ffffffffffffffffffffffffffffffffffffffff168152602001908152602001600020549050919050565b60035481565b80600760008473ffffffffffffffffffffffffffffffffffffffff1673ffffffffffffffffffffffffffffffffffffffff1681526020019081526020016000205401600760008473ffffffffffffffffffffffffffffffffffffffff1673ffffffffffffffffffffffffffffffffffffffff168152602001908152602001600020819055505050565b60028054600181600116156101000203166002900480601f016020809104026020016040519081016040528092919081815260200182805460018160011615610100020316600290048015610c4a5780601f10610c1f57610100808354040283529160200191610c4a565b820191906000526020600020905b815481529060010190602001808311610c2d57829003601f168201915b505050505081565b6000600760003373ffffffffffffffffffffffffffffffffffffffff1673ffffffffffffffffffffffffffffffffffffffff168152602001908152602001600020548211151515610ca257600080fd5b81600760003373ffffffffffffffffffffffffffffffffffffffff1673ffffffffffffffffffffffffffffffffffffffff1681526020019081526020016000205403600760003373ffffffffffffffffffffffffffffffffffffffff1673ffffffffffffffffffffffffffffffffffffffff1681526020019081526020016000208190555081600760008573ffffffffffffffffffffffffffffffffffffffff1673ffffffffffffffffffffffffffffffffffffffff1681526020019081526020016000205401600760008573ffffffffffffffffffffffffffffffffffffffff1673ffffffffffffffffffffffffffffffffffffffff168152602001908152602001600020819055508273ffffffffffffffffffffffffffffffffffffffff163373ffffffffffffffffffffffffffffffffffffffff167fddf252ad1be2c89b69c2b068fc378daa952ba7f163c4a11628f55a4df523b3ef846040518082815260200191505060405180910390a36001905092915050565b600081600860003373ffffffffffffffffffffffffffffffffffffffff1673ffffffffffffffffffffffffffffffffffffffff16815260200190815260200160002060008573ffffffffffffffffffffffffffffffffffffffff1673ffffffffffffffffffffffffffffffffffffffff1681526020019081526020016000205401600860003373ffffffffffffffffffffffffffffffffffffffff1673ffffffffffffffffffffffffffffffffffffffff16815260200190815260200160002060008573ffffffffffffffffffffffffffffffffffffffff1673ffffffffffffffffffffffffffffffffffffffff168152602001908152602001600020819055506001905092915050565b6000600860008473ffffffffffffffffffffffffffffffffffffffff1673ffffffffffffffffffffffffffffffffffffffff16815260200190815260200160002060008373ffffffffffffffffffffffffffffffffffffffff1673ffffffffffffffffffffffffffffffffffffffff168152602001908152602001600020549050929150505600a165627a7a723058200e3e7208718c56e506f32e273caf61ea01baadeb155c0f42f80062301b85c8ff0029",
  "source": "pragma solidity ^0.4.18;\r\nimport \"./MarketToken1.sol\";\r\nimport \"./FundToken.sol\";\r\nimport \"./MarketToken2.sol\";\r\nimport \"./SafeMath.sol\";\r\ncontract DMF \r\n{\r\n    using SafeMath for uint256;\r\n        FundToken public Token;       // Object Creation \r\n        Mam1 ab;\r\n        Man2 bb;\r\n//Global Variable Declaration part\r\n        uint public TR;\r\n        uint256 rate = 0.001 ether; //rate of Fundtoken For PortfolioManager\r\n        uint256 cost = 0.1 ether; //rate of Fundtokens For Investor \r\n        uint256 dividendToken = 100; //divident tokens count for give the profit to Investor\r\n        uint256 profitToken = 10; //profit tokens for the Portfolio manager \r\n        uint256 public PortfolioManagerprofit = 0; //For the Portfoliomanager profit tokens \r\n        uint256 public InvestersTotalToken=0; //invester total token count\r\n        uint256 public takecommission;\r\n        uint256 public calculations;\r\n        //uint256 public commissionForDmf;\r\n        uint256 public etherCalculation;\r\n        address public m1;\r\n        address public m2;\r\n        address contractAddress; //Fundtoken\r\n        address public Pendingreturnaddress;\r\n        address owner; //owner variable for assigning contract Owner\r\n        address public newadd; //For getting the Contract Address\r\n//ArrayList\r\n        address[] public ToatlportfolioMAddress; //Array for storing the each register PortfolioManager\r\n        address[] public TotalInvestorAddress; //Array for storing the each register Investors\r\n//Structure Area\r\n//Structure For PortfolioManager Details\r\n        struct PortfolioDetails\r\n        {\r\n            address portfolioM;\r\n            uint256 Eth;\r\n            string tokenName;\r\n            uint256 count1;\r\n            uint256 count2;\r\n            uint commissionForPortfolio;\r\n        }\r\n//Structure For Investor Details  \r\n        struct InvestorDetails\r\n        {\r\n            address buyer;\r\n            address[] PortfolioHolders; \r\n            uint256[] PortfolioHoldersEther;\r\n            uint256 Eth;\r\n            uint256 TokenCount;\r\n        }\r\n\r\n//Structure For MarketToken Purchase Details\r\n        struct MarketTokenPurchase\r\n        {\r\n            address contractAdd;\r\n            string name;\r\n            string symbol;\r\n            uint256 decimal;\r\n            uint256 totalbuycount;\r\n        }\r\n//Mapping Area\r\n//Map for getting and storing the PortfolioManager resgistration Details\r\n        mapping(address => PortfolioDetails) public Portfolio ;\r\n//map for getting and storing the Investor getting token details\r\n        mapping(address => mapping( address =>  InvestorDetails)) public invester ; \r\n        mapping(address=> InvestorDetails) public Investment;\r\n//Map for getting the MarketToken Purchase details by the Portfoliomanager\r\n        mapping(address => mapping(address => MarketTokenPurchase)) public Market; \r\n//Portfoliomanager Sold Tokens Ether \r\n        mapping(address => uint256) public PM_soldTK_Ether; \r\n//Constructor For initialize the contract Owner Address and Contract Deployed Address\r\n        function DMF(address na,address Mark1,address Mark2)public payable\r\n        {\r\n            owner=msg.sender;\r\n            newadd=address(this);\r\n            Token=new FundToken();\r\n            contractAddress=na;\r\n            m1=Mark1;\r\n            m2=Mark2;\r\n            bb= Man2(m2);\r\n            ab= Mam1(m1);\r\n        }\r\n//Function For PortfolioManager Resgistration\r\n        function PortfolioReg() public payable\r\n        {\r\n            Portfolio[msg.sender].portfolioM= msg.sender;\r\n            uint256 add = msg.value.div(1 ether);\r\n            uint256 a= (add.mul(10)).div(100);\r\n            takecommission=takecommission.add(a);\r\n            uint256 show = add.sub(a);\r\n            Portfolio[msg.sender].Eth= Portfolio[msg.sender].Eth.add(show);\r\n            PM_soldTK_Ether[msg.sender] = PM_soldTK_Ether[msg.sender].add(show);\r\n            GetFundToken(msg.value);\r\n        }\r\n//Function For Getting the Fundtokens by the PortfolioManager\r\n        function GetFundToken(uint256 value) private\r\n        {\r\n            uint256 tokens = value.div(rate);\r\n            FundToken(contractAddress).mintToken(msg.sender,tokens);\r\n            ToatlportfolioMAddress.push(msg.sender);\r\n        }\r\n//Function For Getting the Contract Ether Balance \r\n        function GetBal()public view returns(uint256)\r\n        {\r\n            return this.balance.div(1 ether);\r\n        }\r\n //Function For Getting the Contract Address\r\n    \r\n //Function For Buying the FundTokens by the Investor From the PortfolioManager\r\n        function InvesterGetToken(address _add_) public payable\r\n        {\r\n            uint256 tokens = msg.value.div(cost);\r\n            InvestersTotalToken=InvestersTotalToken.add(tokens);\r\n            FundToken(contractAddress).transferFrom(_add_,msg.sender,tokens);\r\n            TotalInvestorAddress.push(msg.sender);\r\n            Investment[msg.sender].PortfolioHolders.push(_add_);\r\n            Investment[msg.sender].PortfolioHoldersEther.push(msg.value);\r\n            invester[msg.sender][_add_].buyer = msg.sender;\r\n            invester[msg.sender][_add_].Eth = invester[msg.sender][_add_].Eth.add(msg.value);\r\n            uint256 test = msg.value.div(1 ether);\r\n            invester[msg.sender][_add_].Eth = test;\r\n            invester[msg.sender][_add_].TokenCount = tokens;\r\n            PM_soldTK_Ether[_add_] = PM_soldTK_Ether[_add_].add(test);\r\n            Portfolio[_add_].Eth = Portfolio[_add_].Eth.add(test);\r\n        }\r\n//Function For Getting the Investor Balance of Tokens\r\n        function getBalance(address a) public view returns(uint256)\r\n        {\r\n            return FundToken(contractAddress).balanceOf(a);\r\n        }\r\n /** The dividends calculations\r\n        Investor1 = (( Investor1_fund TK) / (Inves1_FUndTK + Inves2_FUndTK + ... )) * 90;\r\n*/\r\n//Function For issue the Dividends yo the User\r\n        function Dividends() public  \r\n        {\r\n            FundToken(contractAddress).mintToken(msg.sender,dividendToken); //minting the token \r\n            PortfolioManagerprofit = (dividendToken.mul(10)).div(100); //taking the portfolio share\r\n            //FundToken(contractAddress).mintToken(msg.sender,PortfolioManagerprofit);\r\n            ShareETK_ToI();\r\n        }\r\n//function for split the profit to each tokens\r\n        function ShareETK_ToI() private \r\n        {\r\n            for(uint256 i=0;i<TotalInvestorAddress.length;i++)\r\n            {\r\n                uint256 b = (invester[TotalInvestorAddress[i]][msg.sender].TokenCount.mul((dividendToken.sub(PortfolioManagerprofit)))).div(InvestersTotalToken);\r\n               // uint256 a =  b  / InvestersTotalToken;\r\n                FundToken(contractAddress).mintToken(TotalInvestorAddress[i],b);\r\n                FundToken(contractAddress).tokenDecrease(msg.sender,b);\r\n            }\r\n        }\r\n//getting All the Investor and PortfolioManager balance \r\n        function getAllBalance() public view returns(uint256)\r\n        {\r\n            return FundToken(contractAddress).balanceOf(msg.sender);\r\n        }\r\n//Function for Sell The Tokens to the PortfolioManager\r\n        function ReturnTokenToPortfolioManager(address _add_,uint256 value)public payable\r\n        {\r\n            FundToken(contractAddress).transferFrom(msg.sender,_add_,value);\r\n            TR = value.mul(cost);\r\n           uint256 commissionForDmf= commissionForDmf.add((TR.mul(10)).div(100));\r\n        \r\n            takecommission = takecommission.add((commissionForDmf.div(1 ether)));\r\n            Portfolio[_add_].commissionForPortfolio = Portfolio[_add_].commissionForPortfolio.add((TR.mul(10)).div(100)); \r\n            uint256 a= (TR.sub(commissionForDmf.add(Portfolio[_add_].commissionForPortfolio))).add(commissionForDmf);\r\n            _add_.transfer(Portfolio[_add_].commissionForPortfolio);\r\n            //address x = msg.sender;\r\n            newadd.call.gas(2500000).value(commissionForDmf)();\r\n            (msg.sender).transfer(a);\r\n            invester[msg.sender][_add_].Eth= invester[msg.sender][_add_].Eth.sub(TR);\r\n        }\r\n    \r\n//Function for Purchase the market tokens by the PortfolioManager\r\n       function PurchasingMarket1token(address _contractadd,string _name,string _symbol,uint256 _totacount) public \r\n       {\r\n            uint256 howmuchEther = PM_soldTK_Ether[msg.sender];\r\n            uint256 PurchaseTkTotalRate = _totacount.mul(0.1 ether);\r\n            calculations = PurchaseTkTotalRate.div(1 ether);\r\n            require(howmuchEther > calculations);\r\n            m1.call.gas(2500000).value(PurchaseTkTotalRate)();\r\n            Market[msg.sender][_contractadd].name = _name;\r\n            Market[msg.sender][_contractadd].symbol = _symbol;\r\n            Market[msg.sender][_contractadd].decimal = 0;\r\n            Market[msg.sender][_contractadd].totalbuycount = _totacount;\r\n            Market[msg.sender][_contractadd].contractAdd = _contractadd;\r\n            Portfolio[msg.sender].tokenName=_name;\r\n            Portfolio[msg.sender].count1=_totacount;\r\n            uint256 fg = Portfolio[msg.sender].Eth.sub(calculations);\r\n            Portfolio[msg.sender].Eth= fg;    \r\n       }\r\n        function PurchasingMarket2token(address _contractadd,string _name,string _symbol,uint256 _totacount) public \r\n        {\r\n            uint256 howmuchEther =  PM_soldTK_Ether[msg.sender];\r\n            uint256 PurchaseTkTotalRate = _totacount.mul(0.1 ether);\r\n            calculations = PurchaseTkTotalRate.div(1 ether);\r\n            require(howmuchEther > calculations);\r\n            m2.call.gas(2500000).value(PurchaseTkTotalRate)();\r\n            Market[msg.sender][_contractadd].name = _name;\r\n            Market[msg.sender][_contractadd].symbol = _symbol;\r\n            Market[msg.sender][_contractadd].decimal = 0;\r\n            Market[msg.sender][_contractadd].totalbuycount = _totacount; \r\n            Market[msg.sender][_contractadd].contractAdd = _contractadd;\r\n            Portfolio[msg.sender].tokenName=_name;\r\n            Portfolio[msg.sender].count2=_totacount;\r\n            uint256 fg = Portfolio[msg.sender].Eth.sub(calculations);\r\n            Portfolio[msg.sender].Eth= fg;\r\n        }\r\n       /* function DisplayPurchasedTKCount() public view returns(uint256)\r\n        {\r\n            uint256 count1 = Mam1(m1).DisplayBalance(newadd);\r\n            uint256 count2 = Man2(m2).DisplayBalance(newadd);\r\n            uint256 total = count1.add(count2);\r\n            return total;\r\n        } */\r\n        function DisplayPurchasedTK1() public view returns(address,string,string,uint256,uint256)\r\n        {\r\n            // string _nn = Market[msg.sender][m1].name;\r\n            // string _sm = Market[msg.sender][m1].symbol;\r\n            // uint256 _dd =  Market[msg.sender][m1].decimal;\r\n            //uint256 _pp = Market[msg.sender][m1].totalbuycount;\r\n            return(m1,Market[msg.sender][m1].name, Market[msg.sender][m1].symbol, Market[msg.sender][m1].decimal, Market[msg.sender][m1].totalbuycount);\r\n        }\r\n        function DisplayPurchasedTK2() public view returns(address,string,string,uint256,uint256)\r\n        {\r\n            //string _nn = Market[msg.sender][m2].name;\r\n            //string _sm = Market[msg.sender][m2].symbol;\r\n            //uint256 _dd =  Market[msg.sender][m2].decimal;\r\n            //uint256 _pp = Market[msg.sender][m2].totalbuycount;\r\n            return(m2,Market[msg.sender][m2].name, Market[msg.sender][m2].symbol, Market[msg.sender][m2].decimal, Market[msg.sender][m2].totalbuycount);\r\n        }\r\n//Function For Many PortfolioManager Details\r\n        function Pcount() public view returns(uint256)\r\n        {\r\n            return ToatlportfolioMAddress.length;\r\n        }\r\n        function Icount() public view returns(uint256)\r\n        {\r\n            return TotalInvestorAddress.length;\r\n        }\r\n}                                                                                     ",
  "sourcePath": "C:\\Users\\Sultana.0862\\Desktop\\aa\\Mutualfund\\Mutual-Funds\\contracts\\DMF.sol",
  "compiler": {
    "name": "solc",
    "version": "0.4.23+commit.124ca40d.Emscripten.clang"
  },
  "schemaVersion": "2.0.0",
  "updatedAt": "2018-05-14T07:46:30.436Z"
}