{
  "contractName": "DMF",
  "abi": [
    {
      "constant": true,
      "inputs": [],
      "name": "etherCalculation",
      "outputs": [
        {
          "name": "",
          "type": "uint256"
        }
      ],
      "payable": false,
      "stateMutability": "view",
      "type": "function"
    },
    {
      "constant": true,
      "inputs": [],
      "name": "takecommission",
      "outputs": [
        {
          "name": "",
          "type": "uint256"
        }
      ],
      "payable": false,
      "stateMutability": "view",
      "type": "function"
    },
    {
      "constant": true,
      "inputs": [],
      "name": "TR",
      "outputs": [
        {
          "name": "",
          "type": "uint256"
        }
      ],
      "payable": false,
      "stateMutability": "view",
      "type": "function"
    },
    {
      "constant": true,
      "inputs": [
        {
          "name": "",
          "type": "uint256"
        }
      ],
      "name": "TotalInvestorAddress",
      "outputs": [
        {
          "name": "",
          "type": "address"
        }
      ],
      "payable": false,
      "stateMutability": "view",
      "type": "function"
    },
    {
      "constant": true,
      "inputs": [],
      "name": "InvestersTotalToken",
      "outputs": [
        {
          "name": "",
          "type": "uint256"
        }
      ],
      "payable": false,
      "stateMutability": "view",
      "type": "function"
    },
    {
      "constant": true,
      "inputs": [],
      "name": "calculations",
      "outputs": [
        {
          "name": "",
          "type": "uint256"
        }
      ],
      "payable": false,
      "stateMutability": "view",
      "type": "function"
    },
    {
      "constant": true,
      "inputs": [],
      "name": "commissionForDmf",
      "outputs": [
        {
          "name": "",
          "type": "uint256"
        }
      ],
      "payable": false,
      "stateMutability": "view",
      "type": "function"
    },
    {
      "constant": true,
      "inputs": [],
      "name": "Pendingreturnaddress",
      "outputs": [
        {
          "name": "",
          "type": "address"
        }
      ],
      "payable": false,
      "stateMutability": "view",
      "type": "function"
    },
    {
      "constant": true,
      "inputs": [],
      "name": "xy",
      "outputs": [
        {
          "name": "",
          "type": "uint256"
        }
      ],
      "payable": false,
      "stateMutability": "view",
      "type": "function"
    },
    {
      "constant": true,
      "inputs": [
        {
          "name": "",
          "type": "address"
        },
        {
          "name": "",
          "type": "address"
        }
      ],
      "name": "invester",
      "outputs": [
        {
          "name": "buyer",
          "type": "address"
        },
        {
          "name": "Eth",
          "type": "uint256"
        },
        {
          "name": "TokenCount",
          "type": "uint256"
        }
      ],
      "payable": false,
      "stateMutability": "view",
      "type": "function"
    },
    {
      "constant": true,
      "inputs": [],
      "name": "m2",
      "outputs": [
        {
          "name": "",
          "type": "address"
        }
      ],
      "payable": false,
      "stateMutability": "view",
      "type": "function"
    },
    {
      "constant": true,
      "inputs": [],
      "name": "PortfolioManagerprofit",
      "outputs": [
        {
          "name": "",
          "type": "uint256"
        }
      ],
      "payable": false,
      "stateMutability": "view",
      "type": "function"
    },
    {
      "constant": true,
      "inputs": [],
      "name": "newadd",
      "outputs": [
        {
          "name": "",
          "type": "address"
        }
      ],
      "payable": false,
      "stateMutability": "view",
      "type": "function"
    },
    {
      "constant": true,
      "inputs": [],
      "name": "y",
      "outputs": [
        {
          "name": "",
          "type": "uint256"
        }
      ],
      "payable": false,
      "stateMutability": "view",
      "type": "function"
    },
    {
      "constant": true,
      "inputs": [],
      "name": "m1",
      "outputs": [
        {
          "name": "",
          "type": "address"
        }
      ],
      "payable": false,
      "stateMutability": "view",
      "type": "function"
    },
    {
      "constant": true,
      "inputs": [
        {
          "name": "",
          "type": "address"
        }
      ],
      "name": "PM_soldTK_Ether",
      "outputs": [
        {
          "name": "",
          "type": "uint256"
        }
      ],
      "payable": false,
      "stateMutability": "view",
      "type": "function"
    },
    {
      "constant": true,
      "inputs": [],
      "name": "Token",
      "outputs": [
        {
          "name": "",
          "type": "address"
        }
      ],
      "payable": false,
      "stateMutability": "view",
      "type": "function"
    },
    {
      "constant": true,
      "inputs": [
        {
          "name": "",
          "type": "address"
        }
      ],
      "name": "Portfolio",
      "outputs": [
        {
          "name": "portfolioM",
          "type": "address"
        },
        {
          "name": "Eth",
          "type": "uint256"
        },
        {
          "name": "tokenName",
          "type": "string"
        },
        {
          "name": "count1",
          "type": "uint256"
        },
        {
          "name": "count2",
          "type": "uint256"
        },
        {
          "name": "commissionForPortfolio",
          "type": "uint256"
        }
      ],
      "payable": false,
      "stateMutability": "view",
      "type": "function"
    },
    {
      "constant": true,
      "inputs": [
        {
          "name": "",
          "type": "address"
        },
        {
          "name": "",
          "type": "address"
        }
      ],
      "name": "Market",
      "outputs": [
        {
          "name": "contractAdd",
          "type": "address"
        },
        {
          "name": "name",
          "type": "string"
        },
        {
          "name": "symbol",
          "type": "string"
        },
        {
          "name": "decimal",
          "type": "uint256"
        },
        {
          "name": "totalbuycount",
          "type": "uint256"
        }
      ],
      "payable": false,
      "stateMutability": "view",
      "type": "function"
    },
    {
      "inputs": [
        {
          "name": "na",
          "type": "address"
        },
        {
          "name": "Mark1",
          "type": "address"
        },
        {
          "name": "Mark2",
          "type": "address"
        }
      ],
      "payable": true,
      "stateMutability": "payable",
      "type": "constructor"
    },
    {
      "constant": false,
      "inputs": [],
      "name": "PortfolioReg",
      "outputs": [],
      "payable": true,
      "stateMutability": "payable",
      "type": "function"
    },
    {
      "constant": true,
      "inputs": [],
      "name": "GetBal",
      "outputs": [
        {
          "name": "",
          "type": "uint256"
        }
      ],
      "payable": false,
      "stateMutability": "view",
      "type": "function"
    },
    {
      "constant": true,
      "inputs": [],
      "name": "getContractaddress",
      "outputs": [
        {
          "name": "",
          "type": "address"
        }
      ],
      "payable": false,
      "stateMutability": "view",
      "type": "function"
    },
    {
      "constant": false,
      "inputs": [
        {
          "name": "_add_",
          "type": "address"
        }
      ],
      "name": "InvesterGetToken",
      "outputs": [],
      "payable": true,
      "stateMutability": "payable",
      "type": "function"
    },
    {
      "constant": true,
      "inputs": [],
      "name": "getBalance",
      "outputs": [
        {
          "name": "",
          "type": "uint256"
        }
      ],
      "payable": false,
      "stateMutability": "view",
      "type": "function"
    },
    {
      "constant": false,
      "inputs": [],
      "name": "Dividends",
      "outputs": [],
      "payable": false,
      "stateMutability": "nonpayable",
      "type": "function"
    },
    {
      "constant": true,
      "inputs": [],
      "name": "getAllBalance",
      "outputs": [
        {
          "name": "",
          "type": "uint256"
        }
      ],
      "payable": false,
      "stateMutability": "view",
      "type": "function"
    },
    {
      "constant": false,
      "inputs": [
        {
          "name": "_add_",
          "type": "address"
        },
        {
          "name": "value",
          "type": "uint256"
        }
      ],
      "name": "ReturnTokenToPortfolioManager",
      "outputs": [],
      "payable": true,
      "stateMutability": "payable",
      "type": "function"
    },
    {
      "constant": true,
      "inputs": [],
      "name": "PortfolioManagerList",
      "outputs": [
        {
          "name": "",
          "type": "address"
        }
      ],
      "payable": false,
      "stateMutability": "view",
      "type": "function"
    },
    {
      "constant": false,
      "inputs": [
        {
          "name": "_contractadd",
          "type": "address"
        },
        {
          "name": "_name",
          "type": "string"
        },
        {
          "name": "_symbol",
          "type": "string"
        },
        {
          "name": "_totacount",
          "type": "uint256"
        }
      ],
      "name": "PurchasingMarket1token",
      "outputs": [],
      "payable": false,
      "stateMutability": "nonpayable",
      "type": "function"
    },
    {
      "constant": false,
      "inputs": [
        {
          "name": "_contractadd",
          "type": "address"
        },
        {
          "name": "_name",
          "type": "string"
        },
        {
          "name": "_symbol",
          "type": "string"
        },
        {
          "name": "_totacount",
          "type": "uint256"
        }
      ],
      "name": "PurchasingMarket2token",
      "outputs": [],
      "payable": false,
      "stateMutability": "nonpayable",
      "type": "function"
    },
    {
      "constant": true,
      "inputs": [],
      "name": "DisplayPurchasedTKCount",
      "outputs": [
        {
          "name": "",
          "type": "uint256"
        }
      ],
      "payable": false,
      "stateMutability": "view",
      "type": "function"
    },
    {
      "constant": true,
      "inputs": [],
      "name": "DisplayPurchasedTK1",
      "outputs": [
        {
          "name": "",
          "type": "address"
        },
        {
          "name": "",
          "type": "string"
        },
        {
          "name": "",
          "type": "string"
        },
        {
          "name": "",
          "type": "uint256"
        },
        {
          "name": "",
          "type": "uint256"
        }
      ],
      "payable": false,
      "stateMutability": "view",
      "type": "function"
    },
    {
      "constant": true,
      "inputs": [],
      "name": "DisplayPurchasedTK2",
      "outputs": [
        {
          "name": "",
          "type": "address"
        },
        {
          "name": "",
          "type": "string"
        },
        {
          "name": "",
          "type": "string"
        },
        {
          "name": "",
          "type": "uint256"
        },
        {
          "name": "",
          "type": "uint256"
        }
      ],
      "payable": false,
      "stateMutability": "view",
      "type": "function"
    },
    {
      "constant": true,
      "inputs": [
        {
          "name": "a",
          "type": "address"
        }
      ],
      "name": "listOfPortfolioManager",
      "outputs": [
        {
          "name": "",
          "type": "address"
        },
        {
          "name": "",
          "type": "uint256"
        },
        {
          "name": "",
          "type": "uint256"
        },
        {
          "name": "",
          "type": "uint256"
        },
        {
          "name": "",
          "type": "uint256"
        }
      ],
      "payable": false,
      "stateMutability": "view",
      "type": "function"
    },
    {
      "constant": true,
      "inputs": [],
      "name": "Pcount",
      "outputs": [
        {
          "name": "",
          "type": "uint256"
        }
      ],
      "payable": false,
      "stateMutability": "view",
      "type": "function"
    },
    {
      "constant": true,
      "inputs": [
        {
          "name": "a",
          "type": "uint256"
        }
      ],
      "name": "getPortfolioAddress",
      "outputs": [
        {
          "name": "",
          "type": "address"
        }
      ],
      "payable": false,
      "stateMutability": "view",
      "type": "function"
    },
    {
      "constant": true,
      "inputs": [
        {
          "name": "a",
          "type": "uint256"
        },
        {
          "name": "a1",
          "type": "uint256"
        }
      ],
      "name": "getInvesterAddress",
      "outputs": [
        {
          "name": "",
          "type": "address"
        },
        {
          "name": "",
          "type": "address"
        }
      ],
      "payable": false,
      "stateMutability": "view",
      "type": "function"
    },
    {
      "constant": true,
      "inputs": [],
      "name": "Icount",
      "outputs": [
        {
          "name": "",
          "type": "uint256"
        }
      ],
      "payable": false,
      "stateMutability": "view",
      "type": "function"
    }
  ],
  "bytecode": "0x606060405266038d7ea4c6800060095567016345785d8a0000600a556064600b55600a600c556000600d556000600f556040516060806200568f8339810160405280805190602001909190805190602001909190805190602001909190505033600760006101000a81548173ffffffffffffffffffffffffffffffffffffffff021916908373ffffffffffffffffffffffffffffffffffffffff16021790555030600860006101000a81548173ffffffffffffffffffffffffffffffffffffffff021916908373ffffffffffffffffffffffffffffffffffffffff160217905550620000ea620002d1565b604051809103906000f08015156200010157600080fd5b600660006101000a81548173ffffffffffffffffffffffffffffffffffffffff021916908373ffffffffffffffffffffffffffffffffffffffff16021790555082600e60006101000a81548173ffffffffffffffffffffffffffffffffffffffff021916908373ffffffffffffffffffffffffffffffffffffffff160217905550816000806101000a81548173ffffffffffffffffffffffffffffffffffffffff021916908373ffffffffffffffffffffffffffffffffffffffff16021790555080600160006101000a81548173ffffffffffffffffffffffffffffffffffffffff021916908373ffffffffffffffffffffffffffffffffffffffff160217905550600160009054906101000a900473ffffffffffffffffffffffffffffffffffffffff16600360006101000a81548173ffffffffffffffffffffffffffffffffffffffff021916908373ffffffffffffffffffffffffffffffffffffffff1602179055506000809054906101000a900473ffffffffffffffffffffffffffffffffffffffff16600260006101000a81548173ffffffffffffffffffffffffffffffffffffffff021916908373ffffffffffffffffffffffffffffffffffffffff160217905550505050620002e2565b6040516111c480620044cb83390190565b6141d980620002f26000396000f3006060604052600436106101d8576000357c0100000000000000000000000000000000000000000000000000000000900463ffffffff16806308306bb2146101dd5780630c593ca1146102405780630d0e242f1461030857806312065fe014610331578063208345ea1461035a5780632722271f1461038357806331e69acb1461038d57806334133df9146103b657806336c38cc7146103df5780633989d260146104425780633d71473b1461046b57806363d751ab1461049457806367e2ddd7146104bd5780637691edc4146104e6578063822bdca7146105ae5780638321e9cf1461064d578063858d8d27146106a25780639074a655146106cb57806391aa69ca14610771578063971c3428146107c657806398d50eae146107ef5780639e9c5f9114610818578063a56dfe4a1461086d578063a77f92ff14610896578063b759c28e146108eb578063b9392a6014610940578063ba04fa8d14610a7b578063bf8869b514610ac8578063c241267614610af1578063c53dd11c14610b46578063c76f1bba14610b7d578063d4691adc14610c12578063de85406514610c67578063e2aa68dd14610d85578063eb9969a814610ec0578063ed88b05c14610ee9578063f15f14c5146110a1578063f93498c4146110b6575b600080fd5b34156101e857600080fd5b6101fe60048080359060200190919050506110e4565b604051808273ffffffffffffffffffffffffffffffffffffffff1673ffffffffffffffffffffffffffffffffffffffff16815260200191505060405180910390f35b341561024b57600080fd5b610306600480803573ffffffffffffffffffffffffffffffffffffffff1690602001909190803590602001908201803590602001908080601f0160208091040260200160405190810160405280939291908181526020018383808284378201915050505050509190803590602001908201803590602001908080601f01602080910402602001604051908101604052809392919081815260200183838082843782019150505050505091908035906020019091905050611128565b005b341561031357600080fd5b61031b611619565b6040518082815260200191505060405180910390f35b341561033c57600080fd5b610344611626565b6040518082815260200191505060405180910390f35b341561036557600080fd5b61036d611748565b6040518082815260200191505060405180910390f35b61038b61174e565b005b341561039857600080fd5b6103a0611934565b6040518082815260200191505060405180910390f35b34156103c157600080fd5b6103c961193a565b6040518082815260200191505060405180910390f35b34156103ea57600080fd5b6104006004808035906020019091905050611940565b604051808273ffffffffffffffffffffffffffffffffffffffff1673ffffffffffffffffffffffffffffffffffffffff16815260200191505060405180910390f35b341561044d57600080fd5b61045561197f565b6040518082815260200191505060405180910390f35b341561047657600080fd5b61047e611985565b6040518082815260200191505060405180910390f35b341561049f57600080fd5b6104a761198b565b6040518082815260200191505060405180910390f35b34156104c857600080fd5b6104d0611ba6565b6040518082815260200191505060405180910390f35b34156104f157600080fd5b6105ac600480803573ffffffffffffffffffffffffffffffffffffffff1690602001909190803590602001908201803590602001908080601f0160208091040260200160405190810160405280939291908181526020018383808284378201915050505050509190803590602001908201803590602001908080601f01602080910402602001604051908101604052809392919081815260200183838082843782019150505050505091908035906020019091905050611bac565b005b34156105b957600080fd5b6105d860048080359060200190919080359060200190919050506120a4565b604051808373ffffffffffffffffffffffffffffffffffffffff1673ffffffffffffffffffffffffffffffffffffffff1681526020018273ffffffffffffffffffffffffffffffffffffffff1673ffffffffffffffffffffffffffffffffffffffff1681526020019250505060405180910390f35b341561065857600080fd5b610660612128565b604051808273ffffffffffffffffffffffffffffffffffffffff1673ffffffffffffffffffffffffffffffffffffffff16815260200191505060405180910390f35b34156106ad57600080fd5b6106b561214e565b6040518082815260200191505060405180910390f35b34156106d657600080fd5b610721600480803573ffffffffffffffffffffffffffffffffffffffff1690602001909190803573ffffffffffffffffffffffffffffffffffffffff16906020019091905050612154565b604051808473ffffffffffffffffffffffffffffffffffffffff1673ffffffffffffffffffffffffffffffffffffffff168152602001838152602001828152602001935050505060405180910390f35b341561077c57600080fd5b6107846121ab565b604051808273ffffffffffffffffffffffffffffffffffffffff1673ffffffffffffffffffffffffffffffffffffffff16815260200191505060405180910390f35b34156107d157600080fd5b6107d96121d1565b6040518082815260200191505060405180910390f35b34156107fa57600080fd5b6108026121d7565b6040518082815260200191505060405180910390f35b341561082357600080fd5b61082b6121e4565b604051808273ffffffffffffffffffffffffffffffffffffffff1673ffffffffffffffffffffffffffffffffffffffff16815260200191505060405180910390f35b341561087857600080fd5b61088061220a565b6040518082815260200191505060405180910390f35b34156108a157600080fd5b6108a9612210565b604051808273ffffffffffffffffffffffffffffffffffffffff1673ffffffffffffffffffffffffffffffffffffffff16815260200191505060405180910390f35b34156108f657600080fd5b6108fe612235565b604051808273ffffffffffffffffffffffffffffffffffffffff1673ffffffffffffffffffffffffffffffffffffffff16815260200191505060405180910390f35b341561094b57600080fd5b610953612290565b604051808673ffffffffffffffffffffffffffffffffffffffff1673ffffffffffffffffffffffffffffffffffffffff1681526020018060200180602001858152602001848152602001838103835287818151815260200191508051906020019080838360005b838110156109d55780820151818401526020810190506109ba565b50505050905090810190601f168015610a025780820380516001836020036101000a031916815260200191505b50838103825286818151815260200191508051906020019080838360005b83811015610a3b578082015181840152602081019050610a20565b50505050905090810190601f168015610a685780820380516001836020036101000a031916815260200191505b5097505050505050505060405180910390f35b3415610a8657600080fd5b610ab2600480803573ffffffffffffffffffffffffffffffffffffffff169060200190919050506126a8565b6040518082815260200191505060405180910390f35b3415610ad357600080fd5b610adb6126c0565b6040518082815260200191505060405180910390f35b3415610afc57600080fd5b610b046126f2565b604051808273ffffffffffffffffffffffffffffffffffffffff1673ffffffffffffffffffffffffffffffffffffffff16815260200191505060405180910390f35b610b7b600480803573ffffffffffffffffffffffffffffffffffffffff16906020019091908035906020019091905050612718565b005b3415610b8857600080fd5b610bb4600480803573ffffffffffffffffffffffffffffffffffffffff16906020019091905050612b6e565b604051808673ffffffffffffffffffffffffffffffffffffffff1673ffffffffffffffffffffffffffffffffffffffff1681526020018581526020018481526020018381526020018281526020019550505050505060405180910390f35b3415610c1d57600080fd5b610c25612e52565b604051808273ffffffffffffffffffffffffffffffffffffffff1673ffffffffffffffffffffffffffffffffffffffff16815260200191505060405180910390f35b3415610c7257600080fd5b610c9e600480803573ffffffffffffffffffffffffffffffffffffffff16906020019091905050612e7c565b604051808773ffffffffffffffffffffffffffffffffffffffff1673ffffffffffffffffffffffffffffffffffffffff16815260200186815260200180602001858152602001848152602001838152602001828103825286818154600181600116156101000203166002900481526020019150805460018160011615610100020316600290048015610d715780601f10610d4657610100808354040283529160200191610d71565b820191906000526020600020905b815481529060010190602001808311610d5457829003601f168201915b505097505050505050505060405180910390f35b3415610d9057600080fd5b610d98612ed7565b604051808673ffffffffffffffffffffffffffffffffffffffff1673ffffffffffffffffffffffffffffffffffffffff1681526020018060200180602001858152602001848152602001838103835287818151815260200191508051906020019080838360005b83811015610e1a578082015181840152602081019050610dff565b50505050905090810190601f168015610e475780820380516001836020036101000a031916815260200191505b50838103825286818151815260200191508051906020019080838360005b83811015610e80578082015181840152602081019050610e65565b50505050905090810190601f168015610ead5780820380516001836020036101000a031916815260200191505b5097505050505050505060405180910390f35b3415610ecb57600080fd5b610ed36132f4565b6040518082815260200191505060405180910390f35b3415610ef457600080fd5b610f3f600480803573ffffffffffffffffffffffffffffffffffffffff1690602001909190803573ffffffffffffffffffffffffffffffffffffffff169060200190919050506133db565b604051808673ffffffffffffffffffffffffffffffffffffffff1673ffffffffffffffffffffffffffffffffffffffff168152602001806020018060200185815260200184815260200183810383528781815460018160011615610100020316600290048152602001915080546001816001161561010002031660029004801561100a5780601f10610fdf5761010080835404028352916020019161100a565b820191906000526020600020905b815481529060010190602001808311610fed57829003601f168201915b505083810382528681815460018160011615610100020316600290048152602001915080546001816001161561010002031660029004801561108d5780601f106110625761010080835404028352916020019161108d565b820191906000526020600020905b81548152906001019060200180831161107057829003601f168201915b505097505050505050505060405180910390f35b34156110ac57600080fd5b6110b461343c565b005b6110e2600480803573ffffffffffffffffffffffffffffffffffffffff16906020019091905050613682565b005b60006011828154811015156110f557fe5b906000526020600020900160009054906101000a900473ffffffffffffffffffffffffffffffffffffffff169050919050565b600080601b60003373ffffffffffffffffffffffffffffffffffffffff1673ffffffffffffffffffffffffffffffffffffffff16815260200190815260200160002054915067016345785d8a000083029050670de0b6b3a76400008181151561118d57fe5b04601581905550601554821115156111a457600080fd5b6000809054906101000a900473ffffffffffffffffffffffffffffffffffffffff1673ffffffffffffffffffffffffffffffffffffffff16622625a082604051600060405180830381858888f193505050505084601a60003373ffffffffffffffffffffffffffffffffffffffff1673ffffffffffffffffffffffffffffffffffffffff16815260200190815260200160002060008873ffffffffffffffffffffffffffffffffffffffff1673ffffffffffffffffffffffffffffffffffffffff168152602001908152602001600020600101908051906020019061128a9291906140c8565b5083601a60003373ffffffffffffffffffffffffffffffffffffffff1673ffffffffffffffffffffffffffffffffffffffff16815260200190815260200160002060008873ffffffffffffffffffffffffffffffffffffffff1673ffffffffffffffffffffffffffffffffffffffff168152602001908152602001600020600201908051906020019061131e9291906140c8565b506000601a60003373ffffffffffffffffffffffffffffffffffffffff1673ffffffffffffffffffffffffffffffffffffffff16815260200190815260200160002060008873ffffffffffffffffffffffffffffffffffffffff1673ffffffffffffffffffffffffffffffffffffffff1681526020019081526020016000206003018190555082601a60003373ffffffffffffffffffffffffffffffffffffffff1673ffffffffffffffffffffffffffffffffffffffff16815260200190815260200160002060008873ffffffffffffffffffffffffffffffffffffffff1673ffffffffffffffffffffffffffffffffffffffff1681526020019081526020016000206004018190555085601a60003373ffffffffffffffffffffffffffffffffffffffff1673ffffffffffffffffffffffffffffffffffffffff16815260200190815260200160002060008873ffffffffffffffffffffffffffffffffffffffff1673ffffffffffffffffffffffffffffffffffffffff16815260200190815260200160002060000160006101000a81548173ffffffffffffffffffffffffffffffffffffffff021916908373ffffffffffffffffffffffffffffffffffffffff16021790555084601860003373ffffffffffffffffffffffffffffffffffffffff1673ffffffffffffffffffffffffffffffffffffffff168152602001908152602001600020600201908051906020019061153c9291906140c8565b5082601860003373ffffffffffffffffffffffffffffffffffffffff1673ffffffffffffffffffffffffffffffffffffffff16815260200190815260200160002060030181905550601554601860003373ffffffffffffffffffffffffffffffffffffffff1673ffffffffffffffffffffffffffffffffffffffff1681526020019081526020016000206001015403601860003373ffffffffffffffffffffffffffffffffffffffff1673ffffffffffffffffffffffffffffffffffffffff16815260200190815260200160002060010181905550505050505050565b6000601280549050905090565b6000600e60009054906101000a900473ffffffffffffffffffffffffffffffffffffffff1673ffffffffffffffffffffffffffffffffffffffff166370a082316012600081548110151561167657fe5b906000526020600020900160009054906101000a900473ffffffffffffffffffffffffffffffffffffffff166000604051602001526040518263ffffffff167c0100000000000000000000000000000000000000000000000000000000028152600401808273ffffffffffffffffffffffffffffffffffffffff1673ffffffffffffffffffffffffffffffffffffffff168152602001915050602060405180830381600087803b151561172857600080fd5b6102c65a03f1151561173957600080fd5b50505060405180519050905090565b60135481565b60008060008033601860003373ffffffffffffffffffffffffffffffffffffffff1673ffffffffffffffffffffffffffffffffffffffff16815260200190815260200160002060000160006101000a81548173ffffffffffffffffffffffffffffffffffffffff021916908373ffffffffffffffffffffffffffffffffffffffff160217905550670de0b6b3a7640000348115156117e857fe5b049350600a840292506064838115156117fd57fe5b04915081601460008282540192505081905550818403905080601860003373ffffffffffffffffffffffffffffffffffffffff1673ffffffffffffffffffffffffffffffffffffffff1681526020019081526020016000206001015401601860003373ffffffffffffffffffffffffffffffffffffffff1673ffffffffffffffffffffffffffffffffffffffff1681526020019081526020016000206001018190555080601b60003373ffffffffffffffffffffffffffffffffffffffff1673ffffffffffffffffffffffffffffffffffffffff1681526020019081526020016000205401601b60003373ffffffffffffffffffffffffffffffffffffffff1673ffffffffffffffffffffffffffffffffffffffff1681526020019081526020016000208190555061192e34613c91565b50505050565b60145481565b60175481565b60128181548110151561194f57fe5b90600052602060002090016000915054906101000a900473ffffffffffffffffffffffffffffffffffffffff1681565b600f5481565b60155481565b6000806000806000809054906101000a900473ffffffffffffffffffffffffffffffffffffffff1673ffffffffffffffffffffffffffffffffffffffff1663a773f89f600860009054906101000a900473ffffffffffffffffffffffffffffffffffffffff166000604051602001526040518263ffffffff167c0100000000000000000000000000000000000000000000000000000000028152600401808273ffffffffffffffffffffffffffffffffffffffff1673ffffffffffffffffffffffffffffffffffffffff168152602001915050602060405180830381600087803b1515611a7757600080fd5b6102c65a03f11515611a8857600080fd5b505050604051805190509250600160009054906101000a900473ffffffffffffffffffffffffffffffffffffffff1673ffffffffffffffffffffffffffffffffffffffff1663a773f89f600860009054906101000a900473ffffffffffffffffffffffffffffffffffffffff166000604051602001526040518263ffffffff167c0100000000000000000000000000000000000000000000000000000000028152600401808273ffffffffffffffffffffffffffffffffffffffff1673ffffffffffffffffffffffffffffffffffffffff168152602001915050602060405180830381600087803b1515611b7b57600080fd5b6102c65a03f11515611b8c57600080fd5b505050604051805190509150818301905080935050505090565b60165481565b6000806000601b60003373ffffffffffffffffffffffffffffffffffffffff1673ffffffffffffffffffffffffffffffffffffffff16815260200190815260200160002054925067016345785d8a000084029150670de0b6b3a764000082811515611c1357fe5b0460158190555060155483111515611c2a57600080fd5b600160009054906101000a900473ffffffffffffffffffffffffffffffffffffffff1673ffffffffffffffffffffffffffffffffffffffff16622625a083604051600060405180830381858888f193505050505085601a60003373ffffffffffffffffffffffffffffffffffffffff1673ffffffffffffffffffffffffffffffffffffffff16815260200190815260200160002060008973ffffffffffffffffffffffffffffffffffffffff1673ffffffffffffffffffffffffffffffffffffffff1681526020019081526020016000206001019080519060200190611d119291906140c8565b5084601a60003373ffffffffffffffffffffffffffffffffffffffff1673ffffffffffffffffffffffffffffffffffffffff16815260200190815260200160002060008973ffffffffffffffffffffffffffffffffffffffff1673ffffffffffffffffffffffffffffffffffffffff1681526020019081526020016000206002019080519060200190611da59291906140c8565b506000601a60003373ffffffffffffffffffffffffffffffffffffffff1673ffffffffffffffffffffffffffffffffffffffff16815260200190815260200160002060008973ffffffffffffffffffffffffffffffffffffffff1673ffffffffffffffffffffffffffffffffffffffff1681526020019081526020016000206003018190555083601a60003373ffffffffffffffffffffffffffffffffffffffff1673ffffffffffffffffffffffffffffffffffffffff16815260200190815260200160002060008973ffffffffffffffffffffffffffffffffffffffff1673ffffffffffffffffffffffffffffffffffffffff1681526020019081526020016000206004018190555086601a60003373ffffffffffffffffffffffffffffffffffffffff1673ffffffffffffffffffffffffffffffffffffffff16815260200190815260200160002060008973ffffffffffffffffffffffffffffffffffffffff1673ffffffffffffffffffffffffffffffffffffffff16815260200190815260200160002060000160006101000a81548173ffffffffffffffffffffffffffffffffffffffff021916908373ffffffffffffffffffffffffffffffffffffffff16021790555085601860003373ffffffffffffffffffffffffffffffffffffffff1673ffffffffffffffffffffffffffffffffffffffff1681526020019081526020016000206002019080519060200190611fc39291906140c8565b5083601860003373ffffffffffffffffffffffffffffffffffffffff1673ffffffffffffffffffffffffffffffffffffffff16815260200190815260200160002060040181905550601554601860003373ffffffffffffffffffffffffffffffffffffffff1673ffffffffffffffffffffffffffffffffffffffff1681526020019081526020016000206001015403905080601860003373ffffffffffffffffffffffffffffffffffffffff1673ffffffffffffffffffffffffffffffffffffffff1681526020019081526020016000206001018190555050505050505050565b6000806011848154811015156120b657fe5b906000526020600020900160009054906101000a900473ffffffffffffffffffffffffffffffffffffffff166012848154811015156120f157fe5b906000526020600020900160009054906101000a900473ffffffffffffffffffffffffffffffffffffffff16915091509250929050565b601060009054906101000a900473ffffffffffffffffffffffffffffffffffffffff1681565b60045481565b6019602052816000526040600020602052806000526040600020600091509150508060000160009054906101000a900473ffffffffffffffffffffffffffffffffffffffff16908060010154908060020154905083565b600160009054906101000a900473ffffffffffffffffffffffffffffffffffffffff1681565b600d5481565b6000601180549050905090565b600860009054906101000a900473ffffffffffffffffffffffffffffffffffffffff1681565b60055481565b6000809054906101000a900473ffffffffffffffffffffffffffffffffffffffff1681565b6000806000905060118054905081101561228b5760118181548110151561225857fe5b906000526020600020900160009054906101000a900473ffffffffffffffffffffffffffffffffffffffff16915061228c565b5b5090565b600061229a614148565b6122a2614148565b600080600080600080601a60003373ffffffffffffffffffffffffffffffffffffffff1673ffffffffffffffffffffffffffffffffffffffff16815260200190815260200160002060008060009054906101000a900473ffffffffffffffffffffffffffffffffffffffff1673ffffffffffffffffffffffffffffffffffffffff1673ffffffffffffffffffffffffffffffffffffffff1681526020019081526020016000206001019350601a60003373ffffffffffffffffffffffffffffffffffffffff1673ffffffffffffffffffffffffffffffffffffffff16815260200190815260200160002060008060009054906101000a900473ffffffffffffffffffffffffffffffffffffffff1673ffffffffffffffffffffffffffffffffffffffff1673ffffffffffffffffffffffffffffffffffffffff1681526020019081526020016000206002019250601a60003373ffffffffffffffffffffffffffffffffffffffff1673ffffffffffffffffffffffffffffffffffffffff16815260200190815260200160002060008060009054906101000a900473ffffffffffffffffffffffffffffffffffffffff1673ffffffffffffffffffffffffffffffffffffffff1673ffffffffffffffffffffffffffffffffffffffff168152602001908152602001600020600301549150601a60003373ffffffffffffffffffffffffffffffffffffffff1673ffffffffffffffffffffffffffffffffffffffff16815260200190815260200160002060008060009054906101000a900473ffffffffffffffffffffffffffffffffffffffff1673ffffffffffffffffffffffffffffffffffffffff1673ffffffffffffffffffffffffffffffffffffffff1681526020019081526020016000206004015490506000809054906101000a900473ffffffffffffffffffffffffffffffffffffffff1684848484838054600181600116156101000203166002900480601f0160208091040260200160405190810160405280929190818152602001828054600181600116156101000203166002900480156125f05780601f106125c5576101008083540402835291602001916125f0565b820191906000526020600020905b8154815290600101906020018083116125d357829003601f168201915b50505050509350828054600181600116156101000203166002900480601f01602080910402602001604051908101604052809291908181526020018280546001816001161561010002031660029004801561268c5780601f106126615761010080835404028352916020019161268c565b820191906000526020600020905b81548152906001019060200180831161266f57829003601f168201915b5050505050925098509850985098509850505050509091929394565b601b6020528060005260406000206000915090505481565b6000670de0b6b3a76400003073ffffffffffffffffffffffffffffffffffffffff16318115156126ec57fe5b04905090565b600660009054906101000a900473ffffffffffffffffffffffffffffffffffffffff1681565b600080600080600e60009054906101000a900473ffffffffffffffffffffffffffffffffffffffff1673ffffffffffffffffffffffffffffffffffffffff166323b872dd3388886000604051602001526040518463ffffffff167c0100000000000000000000000000000000000000000000000000000000028152600401808473ffffffffffffffffffffffffffffffffffffffff1673ffffffffffffffffffffffffffffffffffffffff1681526020018373ffffffffffffffffffffffffffffffffffffffff1673ffffffffffffffffffffffffffffffffffffffff1681526020018281526020019350505050602060405180830381600087803b151561281f57600080fd5b6102c65a03f1151561283057600080fd5b5050506040518051905050600a5485026017819055506064600a6017540281151561285757fe5b04601660008282540192505081905550670de0b6b3a764000060165481151561287c57fe5b049350836014600082825401925050819055506064600a601754028115156128a057fe5b04601860008873ffffffffffffffffffffffffffffffffffffffff1673ffffffffffffffffffffffffffffffffffffffff16815260200190815260200160002060050160008282540192505081905550601860008773ffffffffffffffffffffffffffffffffffffffff1673ffffffffffffffffffffffffffffffffffffffff1681526020019081526020016000206005015460165401925060165483601754030191508573ffffffffffffffffffffffffffffffffffffffff166108fc601860008973ffffffffffffffffffffffffffffffffffffffff1673ffffffffffffffffffffffffffffffffffffffff168152602001908152602001600020600501549081150290604051600060405180830381858888f1935050505015156129c657600080fd5b339050600860009054906101000a900473ffffffffffffffffffffffffffffffffffffffff1673ffffffffffffffffffffffffffffffffffffffff16622625a0601654604051600060405180830381858888f19350505050508073ffffffffffffffffffffffffffffffffffffffff166108fc839081150290604051600060405180830381858888f193505050501515612a5f57600080fd5b601754601960003373ffffffffffffffffffffffffffffffffffffffff1673ffffffffffffffffffffffffffffffffffffffff16815260200190815260200160002060008873ffffffffffffffffffffffffffffffffffffffff1673ffffffffffffffffffffffffffffffffffffffff1681526020019081526020016000206001015403601960003373ffffffffffffffffffffffffffffffffffffffff1673ffffffffffffffffffffffffffffffffffffffff16815260200190815260200160002060008873ffffffffffffffffffffffffffffffffffffffff1673ffffffffffffffffffffffffffffffffffffffff16815260200190815260200160002060010181905550505050505050565b600080600080600080600090505b601180549050811015612e4757601860008873ffffffffffffffffffffffffffffffffffffffff1673ffffffffffffffffffffffffffffffffffffffff16815260200190815260200160002060000160009054906101000a900473ffffffffffffffffffffffffffffffffffffffff1673ffffffffffffffffffffffffffffffffffffffff168773ffffffffffffffffffffffffffffffffffffffff161415612e3a57601860008873ffffffffffffffffffffffffffffffffffffffff1673ffffffffffffffffffffffffffffffffffffffff16815260200190815260200160002060000160009054906101000a900473ffffffffffffffffffffffffffffffffffffffff16601860008973ffffffffffffffffffffffffffffffffffffffff1673ffffffffffffffffffffffffffffffffffffffff16815260200190815260200160002060010154600e60009054906101000a900473ffffffffffffffffffffffffffffffffffffffff1673ffffffffffffffffffffffffffffffffffffffff166370a082318a6000604051602001526040518263ffffffff167c0100000000000000000000000000000000000000000000000000000000028152600401808273ffffffffffffffffffffffffffffffffffffffff1673ffffffffffffffffffffffffffffffffffffffff168152602001915050602060405180830381600087803b1515612d8a57600080fd5b6102c65a03f11515612d9b57600080fd5b50505060405180519050601860008b73ffffffffffffffffffffffffffffffffffffffff1673ffffffffffffffffffffffffffffffffffffffff16815260200190815260200160002060030154601860008c73ffffffffffffffffffffffffffffffffffffffff1673ffffffffffffffffffffffffffffffffffffffff1681526020019081526020016000206004015495509550955095509550612e48565b8080600101915050612b7c565b5b5091939590929450565b6000600860009054906101000a900473ffffffffffffffffffffffffffffffffffffffff16905090565b60186020528060005260406000206000915090508060000160009054906101000a900473ffffffffffffffffffffffffffffffffffffffff169080600101549080600201908060030154908060040154908060050154905086565b6000612ee1614148565b612ee9614148565b600080600080600080601a60003373ffffffffffffffffffffffffffffffffffffffff1673ffffffffffffffffffffffffffffffffffffffff1681526020019081526020016000206000600160009054906101000a900473ffffffffffffffffffffffffffffffffffffffff1673ffffffffffffffffffffffffffffffffffffffff1673ffffffffffffffffffffffffffffffffffffffff1681526020019081526020016000206001019350601a60003373ffffffffffffffffffffffffffffffffffffffff1673ffffffffffffffffffffffffffffffffffffffff1681526020019081526020016000206000600160009054906101000a900473ffffffffffffffffffffffffffffffffffffffff1673ffffffffffffffffffffffffffffffffffffffff1673ffffffffffffffffffffffffffffffffffffffff1681526020019081526020016000206002019250601a60003373ffffffffffffffffffffffffffffffffffffffff1673ffffffffffffffffffffffffffffffffffffffff1681526020019081526020016000206000600160009054906101000a900473ffffffffffffffffffffffffffffffffffffffff1673ffffffffffffffffffffffffffffffffffffffff1673ffffffffffffffffffffffffffffffffffffffff168152602001908152602001600020600301549150601a60003373ffffffffffffffffffffffffffffffffffffffff1673ffffffffffffffffffffffffffffffffffffffff1681526020019081526020016000206000600160009054906101000a900473ffffffffffffffffffffffffffffffffffffffff1673ffffffffffffffffffffffffffffffffffffffff1673ffffffffffffffffffffffffffffffffffffffff168152602001908152602001600020600401549050600160009054906101000a900473ffffffffffffffffffffffffffffffffffffffff1684848484838054600181600116156101000203166002900480601f01602080910402602001604051908101604052809291908181526020018280546001816001161561010002031660029004801561323c5780601f106132115761010080835404028352916020019161323c565b820191906000526020600020905b81548152906001019060200180831161321f57829003601f168201915b50505050509350828054600181600116156101000203166002900480601f0160208091040260200160405190810160405280929190818152602001828054600181600116156101000203166002900480156132d85780601f106132ad576101008083540402835291602001916132d8565b820191906000526020600020905b8154815290600101906020018083116132bb57829003601f168201915b5050505050925098509850985098509850505050509091929394565b6000600e60009054906101000a900473ffffffffffffffffffffffffffffffffffffffff1673ffffffffffffffffffffffffffffffffffffffff166370a08231336000604051602001526040518263ffffffff167c0100000000000000000000000000000000000000000000000000000000028152600401808273ffffffffffffffffffffffffffffffffffffffff1673ffffffffffffffffffffffffffffffffffffffff168152602001915050602060405180830381600087803b15156133bb57600080fd5b6102c65a03f115156133cc57600080fd5b50505060405180519050905090565b601a602052816000526040600020602052806000526040600020600091509150508060000160009054906101000a900473ffffffffffffffffffffffffffffffffffffffff1690806001019080600201908060030154908060040154905085565b6011600081548110151561344c57fe5b906000526020600020900160009054906101000a900473ffffffffffffffffffffffffffffffffffffffff1673ffffffffffffffffffffffffffffffffffffffff163373ffffffffffffffffffffffffffffffffffffffff16141561368057600e60009054906101000a900473ffffffffffffffffffffffffffffffffffffffff1673ffffffffffffffffffffffffffffffffffffffff166379c6506833600b546040518363ffffffff167c0100000000000000000000000000000000000000000000000000000000028152600401808373ffffffffffffffffffffffffffffffffffffffff1673ffffffffffffffffffffffffffffffffffffffff16815260200182815260200192505050600060405180830381600087803b151561357157600080fd5b6102c65a03f1151561358257600080fd5b5050506064600a600b540281151561359657fe5b04600d81905550600e60009054906101000a900473ffffffffffffffffffffffffffffffffffffffff1673ffffffffffffffffffffffffffffffffffffffff166379c6506833600d546040518363ffffffff167c0100000000000000000000000000000000000000000000000000000000028152600401808373ffffffffffffffffffffffffffffffffffffffff1673ffffffffffffffffffffffffffffffffffffffff16815260200182815260200192505050600060405180830381600087803b151561366357600080fd5b6102c65a03f1151561367457600080fd5b50505061367f613de2565b5b565b600080600a543481151561369257fe5b04915081600f60008282540192505081905550600e60009054906101000a900473ffffffffffffffffffffffffffffffffffffffff1673ffffffffffffffffffffffffffffffffffffffff166323b872dd8433856000604051602001526040518463ffffffff167c0100000000000000000000000000000000000000000000000000000000028152600401808473ffffffffffffffffffffffffffffffffffffffff1673ffffffffffffffffffffffffffffffffffffffff1681526020018373ffffffffffffffffffffffffffffffffffffffff1673ffffffffffffffffffffffffffffffffffffffff1681526020018281526020019350505050602060405180830381600087803b15156137a657600080fd5b6102c65a03f115156137b757600080fd5b5050506040518051905050601280548060010182816137d6919061415c565b9160005260206000209001600033909190916101000a81548173ffffffffffffffffffffffffffffffffffffffff021916908373ffffffffffffffffffffffffffffffffffffffff1602179055505033601960003373ffffffffffffffffffffffffffffffffffffffff1673ffffffffffffffffffffffffffffffffffffffff16815260200190815260200160002060008573ffffffffffffffffffffffffffffffffffffffff1673ffffffffffffffffffffffffffffffffffffffff16815260200190815260200160002060000160006101000a81548173ffffffffffffffffffffffffffffffffffffffff021916908373ffffffffffffffffffffffffffffffffffffffff16021790555034601960003373ffffffffffffffffffffffffffffffffffffffff1673ffffffffffffffffffffffffffffffffffffffff16815260200190815260200160002060008573ffffffffffffffffffffffffffffffffffffffff1673ffffffffffffffffffffffffffffffffffffffff1681526020019081526020016000206001015401601960003373ffffffffffffffffffffffffffffffffffffffff1673ffffffffffffffffffffffffffffffffffffffff16815260200190815260200160002060008573ffffffffffffffffffffffffffffffffffffffff1673ffffffffffffffffffffffffffffffffffffffff16815260200190815260200160002060010181905550670de0b6b3a7640000348115156139fb57fe5b04905080601960003373ffffffffffffffffffffffffffffffffffffffff1673ffffffffffffffffffffffffffffffffffffffff168152602001908152602001600020600060116000815481101515613a5057fe5b906000526020600020900160009054906101000a900473ffffffffffffffffffffffffffffffffffffffff1673ffffffffffffffffffffffffffffffffffffffff1673ffffffffffffffffffffffffffffffffffffffff1681526020019081526020016000206001018190555081601960003373ffffffffffffffffffffffffffffffffffffffff1673ffffffffffffffffffffffffffffffffffffffff168152602001908152602001600020600060116000815481101515613b0f57fe5b906000526020600020900160009054906101000a900473ffffffffffffffffffffffffffffffffffffffff1673ffffffffffffffffffffffffffffffffffffffff1673ffffffffffffffffffffffffffffffffffffffff1681526020019081526020016000206002018190555080601b60008573ffffffffffffffffffffffffffffffffffffffff1673ffffffffffffffffffffffffffffffffffffffff1681526020019081526020016000205401601b60008573ffffffffffffffffffffffffffffffffffffffff1673ffffffffffffffffffffffffffffffffffffffff1681526020019081526020016000208190555080601860008573ffffffffffffffffffffffffffffffffffffffff1673ffffffffffffffffffffffffffffffffffffffff1681526020019081526020016000206001015401601860008573ffffffffffffffffffffffffffffffffffffffff1673ffffffffffffffffffffffffffffffffffffffff16815260200190815260200160002060010181905550505050565b600060095482811515613ca057fe5b049050600e60009054906101000a900473ffffffffffffffffffffffffffffffffffffffff1673ffffffffffffffffffffffffffffffffffffffff166379c6506833836040518363ffffffff167c0100000000000000000000000000000000000000000000000000000000028152600401808373ffffffffffffffffffffffffffffffffffffffff1673ffffffffffffffffffffffffffffffffffffffff16815260200182815260200192505050600060405180830381600087803b1515613d6757600080fd5b6102c65a03f11515613d7857600080fd5b50505060118054806001018281613d8f919061415c565b9160005260206000209001600033909190916101000a81548173ffffffffffffffffffffffffffffffffffffffff021916908373ffffffffffffffffffffffffffffffffffffffff160217905550505050565b60008060008092505b6012805490508310156140c357600d54600b540360196000601286815481101515613e1257fe5b906000526020600020900160009054906101000a900473ffffffffffffffffffffffffffffffffffffffff1673ffffffffffffffffffffffffffffffffffffffff1673ffffffffffffffffffffffffffffffffffffffff16815260200190815260200160002060003373ffffffffffffffffffffffffffffffffffffffff1673ffffffffffffffffffffffffffffffffffffffff16815260200190815260200160002060020154029150600f5482811515613ec957fe5b049050600e60009054906101000a900473ffffffffffffffffffffffffffffffffffffffff1673ffffffffffffffffffffffffffffffffffffffff166379c65068601285815481101515613f1957fe5b906000526020600020900160009054906101000a900473ffffffffffffffffffffffffffffffffffffffff16836040518363ffffffff167c0100000000000000000000000000000000000000000000000000000000028152600401808373ffffffffffffffffffffffffffffffffffffffff1673ffffffffffffffffffffffffffffffffffffffff16815260200182815260200192505050600060405180830381600087803b1515613fca57600080fd5b6102c65a03f11515613fdb57600080fd5b505050600e60009054906101000a900473ffffffffffffffffffffffffffffffffffffffff1673ffffffffffffffffffffffffffffffffffffffff1663171ce59733836040518363ffffffff167c0100000000000000000000000000000000000000000000000000000000028152600401808373ffffffffffffffffffffffffffffffffffffffff1673ffffffffffffffffffffffffffffffffffffffff16815260200182815260200192505050600060405180830381600087803b15156140a257600080fd5b6102c65a03f115156140b357600080fd5b5050508280600101935050613deb565b505050565b828054600181600116156101000203166002900490600052602060002090601f016020900481019282601f1061410957805160ff1916838001178555614137565b82800160010185558215614137579182015b8281111561413657825182559160200191906001019061411b565b5b5090506141449190614188565b5090565b602060405190810160405280600081525090565b815481835581811511614183578183600052602060002091820191016141829190614188565b5b505050565b6141aa91905b808211156141a657600081600090555060010161418e565b5090565b905600a165627a7a723058208e5ebe5cd72e6d149e22f3ba24442fa118bbdca1adb0e09d71985acca68c3d48002960606040526040805190810160405280600981526020017f546f6b656e20312e3000000000000000000000000000000000000000000000008152506000908051906020019062000051929190620001a2565b5034156200005e57600080fd5b620186a0600381905550600354600760003373ffffffffffffffffffffffffffffffffffffffff1673ffffffffffffffffffffffffffffffffffffffff168152602001908152602001600020819055506040805190810160405280600381526020017f445458000000000000000000000000000000000000000000000000000000000081525060029080519060200190620000fb929190620001a2565b506040805190810160405280600c81526020017f5068656f6e6978546f6b656e00000000000000000000000000000000000000008152506001908051906020019062000149929190620001a2565b506101f4600481905550600060058190555033600660006101000a81548173ffffffffffffffffffffffffffffffffffffffff021916908373ffffffffffffffffffffffffffffffffffffffff16021790555062000251565b828054600181600116156101000203166002900490600052602060002090601f016020900481019282601f10620001e557805160ff191683800117855562000216565b8280016001018555821562000216579182015b8281111562000215578251825591602001919060010190620001f8565b5b50905062000225919062000229565b5090565b6200024e91905b808211156200024a57600081600090555060010162000230565b5090565b90565b610f6380620002616000396000f3006060604052600436106100db576000357c0100000000000000000000000000000000000000000000000000000000900463ffffffff16806306fdde03146100e0578063095ea7b31461016e578063171ce597146101c857806318160ddd146101ff57806323b872dd14610228578063313ce567146102a15780635c658165146102ca578063661884631461033657806370a082311461039057806372dd529b146103dd57806379c650681461040657806395d89b4114610448578063a9059cbb146104d6578063d73dd62314610530578063dd62ed3e1461058a575b600080fd5b34156100eb57600080fd5b6100f36105f6565b6040518080602001828103825283818151815260200191508051906020019080838360005b83811015610133578082015181840152602081019050610118565b50505050905090810190601f1680156101605780820380516001836020036101000a031916815260200191505b509250505060405180910390f35b341561017957600080fd5b6101ae600480803573ffffffffffffffffffffffffffffffffffffffff16906020019091908035906020019091905050610694565b604051808215151515815260200191505060405180910390f35b6101fd600480803573ffffffffffffffffffffffffffffffffffffffff16906020019091908035906020019091905050610721565b005b341561020a57600080fd5b6102126107aa565b6040518082815260200191505060405180910390f35b341561023357600080fd5b610287600480803573ffffffffffffffffffffffffffffffffffffffff1690602001909190803573ffffffffffffffffffffffffffffffffffffffff169060200190919080359060200190919050506107b4565b604051808215151515815260200191505060405180910390f35b34156102ac57600080fd5b6102b4610930565b6040518082815260200191505060405180910390f35b34156102d557600080fd5b610320600480803573ffffffffffffffffffffffffffffffffffffffff1690602001909190803573ffffffffffffffffffffffffffffffffffffffff16906020019091905050610936565b6040518082815260200191505060405180910390f35b341561034157600080fd5b610376600480803573ffffffffffffffffffffffffffffffffffffffff1690602001909190803590602001909190505061095b565b604051808215151515815260200191505060405180910390f35b341561039b57600080fd5b6103c7600480803573ffffffffffffffffffffffffffffffffffffffff16906020019091905050610a66565b6040518082815260200191505060405180910390f35b34156103e857600080fd5b6103f0610aaf565b6040518082815260200191505060405180910390f35b341561041157600080fd5b610446600480803573ffffffffffffffffffffffffffffffffffffffff16906020019091908035906020019091905050610ab5565b005b341561045357600080fd5b61045b610b3e565b6040518080602001828103825283818151815260200191508051906020019080838360005b8381101561049b578082015181840152602081019050610480565b50505050905090810190601f1680156104c85780820380516001836020036101000a031916815260200191505b509250505060405180910390f35b34156104e157600080fd5b610516600480803573ffffffffffffffffffffffffffffffffffffffff16906020019091908035906020019091905050610bdc565b604051808215151515815260200191505060405180910390f35b341561053b57600080fd5b610570600480803573ffffffffffffffffffffffffffffffffffffffff16906020019091908035906020019091905050610da5565b604051808215151515815260200191505060405180910390f35b341561059557600080fd5b6105e0600480803573ffffffffffffffffffffffffffffffffffffffff1690602001909190803573ffffffffffffffffffffffffffffffffffffffff16906020019091905050610eb0565b6040518082815260200191505060405180910390f35b60018054600181600116156101000203166002900480601f01602080910402602001604051908101604052809291908181526020018280546001816001161561010002031660029004801561068c5780601f106106615761010080835404028352916020019161068c565b820191906000526020600020905b81548152906001019060200180831161066f57829003601f168201915b505050505081565b600081600860003373ffffffffffffffffffffffffffffffffffffffff1673ffffffffffffffffffffffffffffffffffffffff16815260200190815260200160002060008573ffffffffffffffffffffffffffffffffffffffff1673ffffffffffffffffffffffffffffffffffffffff168152602001908152602001600020819055506001905092915050565b80600760008473ffffffffffffffffffffffffffffffffffffffff1673ffffffffffffffffffffffffffffffffffffffff1681526020019081526020016000205403600760008473ffffffffffffffffffffffffffffffffffffffff1673ffffffffffffffffffffffffffffffffffffffff168152602001908152602001600020819055505050565b6000600354905090565b600081600760008673ffffffffffffffffffffffffffffffffffffffff1673ffffffffffffffffffffffffffffffffffffffff1681526020019081526020016000205403600760008673ffffffffffffffffffffffffffffffffffffffff1673ffffffffffffffffffffffffffffffffffffffff1681526020019081526020016000208190555081600760008573ffffffffffffffffffffffffffffffffffffffff1673ffffffffffffffffffffffffffffffffffffffff1681526020019081526020016000205401600760008573ffffffffffffffffffffffffffffffffffffffff1673ffffffffffffffffffffffffffffffffffffffff168152602001908152602001600020819055508273ffffffffffffffffffffffffffffffffffffffff168473ffffffffffffffffffffffffffffffffffffffff167fddf252ad1be2c89b69c2b068fc378daa952ba7f163c4a11628f55a4df523b3ef846040518082815260200191505060405180910390a3600190509392505050565b60055481565b6008602052816000526040600020602052806000526040600020600091509150505481565b600081600860003373ffffffffffffffffffffffffffffffffffffffff1673ffffffffffffffffffffffffffffffffffffffff16815260200190815260200160002060008573ffffffffffffffffffffffffffffffffffffffff1673ffffffffffffffffffffffffffffffffffffffff1681526020019081526020016000205403600860003373ffffffffffffffffffffffffffffffffffffffff1673ffffffffffffffffffffffffffffffffffffffff16815260200190815260200160002060008573ffffffffffffffffffffffffffffffffffffffff1673ffffffffffffffffffffffffffffffffffffffff168152602001908152602001600020819055506001905092915050565b6000600760008373ffffffffffffffffffffffffffffffffffffffff1673ffffffffffffffffffffffffffffffffffffffff168152602001908152602001600020549050919050565b60035481565b80600760008473ffffffffffffffffffffffffffffffffffffffff1673ffffffffffffffffffffffffffffffffffffffff1681526020019081526020016000205401600760008473ffffffffffffffffffffffffffffffffffffffff1673ffffffffffffffffffffffffffffffffffffffff168152602001908152602001600020819055505050565b60028054600181600116156101000203166002900480601f016020809104026020016040519081016040528092919081815260200182805460018160011615610100020316600290048015610bd45780601f10610ba957610100808354040283529160200191610bd4565b820191906000526020600020905b815481529060010190602001808311610bb757829003601f168201915b505050505081565b6000600760003373ffffffffffffffffffffffffffffffffffffffff1673ffffffffffffffffffffffffffffffffffffffff168152602001908152602001600020548211151515610c2c57600080fd5b81600760003373ffffffffffffffffffffffffffffffffffffffff1673ffffffffffffffffffffffffffffffffffffffff1681526020019081526020016000205403600760003373ffffffffffffffffffffffffffffffffffffffff1673ffffffffffffffffffffffffffffffffffffffff1681526020019081526020016000208190555081600760008573ffffffffffffffffffffffffffffffffffffffff1673ffffffffffffffffffffffffffffffffffffffff1681526020019081526020016000205401600760008573ffffffffffffffffffffffffffffffffffffffff1673ffffffffffffffffffffffffffffffffffffffff168152602001908152602001600020819055508273ffffffffffffffffffffffffffffffffffffffff163373ffffffffffffffffffffffffffffffffffffffff167fddf252ad1be2c89b69c2b068fc378daa952ba7f163c4a11628f55a4df523b3ef846040518082815260200191505060405180910390a36001905092915050565b600081600860003373ffffffffffffffffffffffffffffffffffffffff1673ffffffffffffffffffffffffffffffffffffffff16815260200190815260200160002060008573ffffffffffffffffffffffffffffffffffffffff1673ffffffffffffffffffffffffffffffffffffffff1681526020019081526020016000205401600860003373ffffffffffffffffffffffffffffffffffffffff1673ffffffffffffffffffffffffffffffffffffffff16815260200190815260200160002060008573ffffffffffffffffffffffffffffffffffffffff1673ffffffffffffffffffffffffffffffffffffffff168152602001908152602001600020819055506001905092915050565b6000600860008473ffffffffffffffffffffffffffffffffffffffff1673ffffffffffffffffffffffffffffffffffffffff16815260200190815260200160002060008373ffffffffffffffffffffffffffffffffffffffff1673ffffffffffffffffffffffffffffffffffffffff168152602001908152602001600020549050929150505600a165627a7a72305820de43180fe6076bacd35f6d51c9d23f31a36a5f15344b25f9843f809d02de80910029",
  "source": "pragma solidity ^0.4.18;\r\n\r\nimport \"./MarketToken1.sol\";\r\nimport \"./FundToken.sol\";\r\nimport \"./MarketToken2.sol\";\r\n\r\ncontract DMF {\r\n//rketToken1 public a;\r\n            address public m1;\r\n            address public m2;\r\n           Mam1 ab;\r\n           Man2 bb;\r\n           uint256 public xy;\r\n           uint256 public y;\r\n           \r\n        FundToken public Token; //obj for Fundtoken3\r\n       \r\n         \r\n     //Constructor For initialize the contract Owner Address and Contract Deployed Address\r\n            function DMF(address na,address Mark1,address Mark2)public payable{\r\n                owner=msg.sender;\r\n                newadd=address(this);\r\n                Token=new FundToken();\r\n                 contractAddress=na;\r\n                 m1=Mark1;\r\n                 m2=Mark2;\r\n                bb= Man2(m2);\r\n                 ab= Mam1(m1);\r\n                \r\n            \r\n                \r\n            }\r\n       \r\n        //modifier only access the functions by Portfolio manager \r\n        modifier OnlyPortfolio()\r\n        {\r\n            if(msg.sender == ToatlportfolioMAddress[0])\r\n            {\r\n                _;\r\n            }\r\n        }\r\n        //Global Variable Declaration part\r\n\r\n        address owner; //owner variable for assigning contract Owner\r\n        address public newadd; //For getting the Contract Address\r\n        uint256 rate = 0.001 ether; //rate of Fundtoken For PortfolioManager\r\n        uint256 cost = 0.1 ether; //rate of Fundtokens For Investor \r\n        uint256 dividendToken = 100; //divident tokens count for give the profit to Investor\r\n        uint256 profitToken = 10; //profit tokens for the Portfolio manager \r\n        uint256 public PortfolioManagerprofit = 0; //For the Portfoliomanager profit tokens \r\n        address contractAddress; //Fundtoken\r\n        uint256 public InvestersTotalToken=0; //invester total token count\r\n    \r\n        \r\n        address public Pendingreturnaddress;\r\n    //ArrayList\r\n     address[] ToatlportfolioMAddress; //Array for storing the each register PortfolioManager\r\n     address[] public TotalInvestorAddress; //Array for storing the each register Investors\r\n     uint256 public etherCalculation;\r\n     uint256 public takecommission;\r\n     uint256 public calculations;\r\n     uint256 public commissionForDmf;\r\n    // uint public commissionForPortfolio;\r\n     uint public TR;\r\n    //Phase -2                                                                                                                                                                                                                                                                \r\n                            //Structure Area\r\n     \r\n\r\n     //Structure For PortfolioManager Details\r\n            struct PortfolioDetails\r\n            {\r\n                address portfolioM;\r\n                //address contractAdd;\r\n                uint256 Eth;\r\n                string tokenName;\r\n                uint256 count1;\r\n                uint256 count2;\r\n                uint commissionForPortfolio;\r\n            }\r\n    //Structure For Investor Details  \r\n            struct InvestorDetails\r\n            {\r\n                address buyer;\r\n                uint256 Eth;\r\n                uint256 TokenCount;\r\n            }\r\n\r\n   //Structure For MarketToken Purchase Details\r\n   struct MarketTokenPurchase\r\n   {\r\n       address contractAdd;\r\n       string name;\r\n       string symbol;\r\n       uint256 decimal;\r\n       uint256 totalbuycount;\r\n\r\n   }\r\n   \r\n          //For assigning totalsuply \r\n    //Mapping Area\r\n\r\n    mapping(address => PortfolioDetails) public Portfolio ; //Map for getting and storing the PortfolioManager resgistration Details\r\n    mapping(address => mapping( address =>  InvestorDetails)) public invester ; //map for getting and storing the Investor getting token details\r\n    mapping(address => mapping(address => MarketTokenPurchase)) public Market; //Map for getting the MarketToken Purchase details by the Portfoliomanager\r\n    mapping(address => uint256) public PM_soldTK_Ether; //Portfoliomanager Sold Tokens Ether \r\n      //Fallback Function For Holding the Ether in Contract\r\n     \r\n\r\n                                //Function Area\r\n         //Function For PortfolioManager Resgistration\r\n        function PortfolioReg() public payable{\r\n        Portfolio[msg.sender].portfolioM= msg.sender;\r\n        uint256 add = msg.value / 1 ether;\r\n        uint256 a= add * 10;\r\n        uint256 trim = a /100;\r\n        takecommission += trim;\r\n        uint256 show = add - trim;\r\n        Portfolio[msg.sender].Eth= Portfolio[msg.sender].Eth + show;\r\n        PM_soldTK_Ether[msg.sender] = PM_soldTK_Ether[msg.sender] + show;\r\n        GetFundToken(msg.value);\r\n        }\r\n        \r\n        \r\n       \r\n\r\n        //Function For Getting the Fundtokens by the PortfolioManager\r\n         function GetFundToken(uint256 value) private{\r\n            uint256 tokens = value / rate;\r\n            FundToken(contractAddress).mintToken(msg.sender,tokens);\r\n            //Transfer(0,msg.sender,msg.value);\r\n           \r\n           \r\n            ToatlportfolioMAddress.push(msg.sender);\r\n         }\r\n\r\n        //Function For Getting the Contract Ether Balance \r\n      function GetBal()public view returns(uint256){\r\n          return this.balance/ 1 ether;\r\n         // 1 ether; //converting wei value to ether\r\n      }\r\n      \r\n\r\n      //Function For Getting the Contract Address\r\n      function getContractaddress() public view returns(address)\r\n      {\r\n          return newadd;\r\n      }\r\n      \r\n      \r\n      //Phase-3\r\n\r\n      //Function For Buying the FundTokens by the Investor From the PortfolioManager\r\n      function InvesterGetToken(address _add_) public payable\r\n      {\r\n          uint256 tokens = msg.value / cost;\r\n          InvestersTotalToken += tokens;\r\n          FundToken(contractAddress).transferFrom(_add_,msg.sender,tokens);\r\n          TotalInvestorAddress.push(msg.sender);\r\n          invester[msg.sender][_add_].buyer = msg.sender;\r\n          invester[msg.sender][_add_].Eth = invester[msg.sender][_add_].Eth + msg.value;\r\n          uint256 test = msg.value / 1 ether;\r\n          invester[msg.sender][ToatlportfolioMAddress[0]].Eth = test;\r\n          invester[msg.sender][ToatlportfolioMAddress[0]].TokenCount = tokens;\r\n          PM_soldTK_Ether[_add_] = PM_soldTK_Ether[_add_] + test;\r\n          Portfolio[_add_].Eth = Portfolio[_add_].Eth + test;\r\n         \r\n          \r\n      }\r\n    \r\n  \r\n\r\n    //Phase-4\r\n\r\n\r\n    //Function For Getting the Investor Balance of Tokens\r\n    function getBalance() public view returns(uint256)\r\n    {\r\n       return FundToken(contractAddress).balanceOf(TotalInvestorAddress[0]);\r\n    }\r\n\r\n    //Phase-5\r\n    \r\n    /** The dividends calculations\r\n        Investor1 = (( Investor1_fund TK) / (Inves1_FUndTK + Inves2_FUndTK + ... )) * 90;\r\n     */\r\n    //Function For issue the Dividends yo the User\r\n   function Dividends() public OnlyPortfolio   \r\n    {\r\n        \r\n        FundToken(contractAddress).mintToken(msg.sender,dividendToken); //minting the token \r\n        PortfolioManagerprofit = (dividendToken* 10) / 100; //taking the portfolio share\r\n        FundToken(contractAddress).mintToken(msg.sender,PortfolioManagerprofit);\r\n       \r\n        \r\n         ShareETK_ToI();\r\n         \r\n         \r\n    }\r\n    \r\n    \r\n    \r\n    \r\n    //function for split the profit to each tokens\r\n    function ShareETK_ToI() private \r\n    {\r\n        for(uint256 i=0;i<TotalInvestorAddress.length;i++)\r\n        {\r\n            uint256 b = invester[TotalInvestorAddress[i]][msg.sender].TokenCount * (dividendToken - PortfolioManagerprofit);\r\n             uint256 a =  b  / InvestersTotalToken;\r\n           FundToken(contractAddress).mintToken(TotalInvestorAddress[i],a);\r\n           FundToken(contractAddress).tokenDecrease(msg.sender,a);\r\n        }\r\n    }\r\n    //function for split the profit to each tokens\r\n    \r\n    \r\n    //getting All the Investor and PortfolioManager balance \r\n    function getAllBalance() public view returns(uint256)\r\n    {\r\n     return FundToken(contractAddress).balanceOf(msg.sender);\r\n    }\r\n    \r\n \r\n      //Phase-6 \r\n      \r\n      //Function for Sell The Tokens to the PortfolioManager\r\n     function ReturnTokenToPortfolioManager(address _add_,uint256 value)public payable{\r\n    \r\n        FundToken(contractAddress).transferFrom(msg.sender,_add_,value);\r\n        TR = value * cost;\r\n        commissionForDmf += TR * 10 / 100;\r\n        uint256 dash = commissionForDmf / 1 ether;\r\n        takecommission += dash;\r\n        Portfolio[_add_].commissionForPortfolio += TR * 10 /100; \r\n        uint256 a= commissionForDmf + Portfolio[_add_].commissionForPortfolio;\r\n        uint256 b= TR - a + commissionForDmf;\r\n         _add_.transfer(Portfolio[_add_].commissionForPortfolio);\r\n         address x = msg.sender;\r\n         newadd.call.gas(2500000).value(commissionForDmf)();\r\n         x.transfer(b);\r\n         invester[msg.sender][_add_].Eth= invester[msg.sender][_add_].Eth - TR;\r\n     }\r\n     \r\n    \r\n   \r\n\r\n   function PortfolioManagerList()public view returns(address){\r\n       for(uint256 i=0;i<ToatlportfolioMAddress.length;i++)\r\n       {\r\n           return ToatlportfolioMAddress[i];\r\n       }\r\n   }\r\n\r\n\r\n   //Phase-7\r\n\r\n                //Two Sample Market is successfully created \r\n\r\n    \r\n\r\n   //Phase-8\r\n   \r\n   //Function for Purchase the market tokens by the PortfolioManager\r\n \r\n\r\nfunction PurchasingMarket1token(address _contractadd,string _name,string _symbol,uint256 _totacount) public \r\n   {\r\n       \r\n        uint256 howmuchEther = PM_soldTK_Ether[msg.sender];\r\n        uint256 PurchaseTkTotalRate = _totacount * 0.1 ether;\r\n        calculations = PurchaseTkTotalRate / 1 ether;\r\n        require(howmuchEther > calculations);\r\n        //xy = _totacount * 0.1 ether;\r\n        m1.call.gas(2500000).value(PurchaseTkTotalRate)();\r\n        Market[msg.sender][_contractadd].name = _name;\r\n        Market[msg.sender][_contractadd].symbol = _symbol;\r\n        Market[msg.sender][_contractadd].decimal = 0;\r\n        Market[msg.sender][_contractadd].totalbuycount = _totacount;\r\n        Market[msg.sender][_contractadd].contractAdd = _contractadd;\r\n        Portfolio[msg.sender].tokenName=_name;\r\n        Portfolio[msg.sender].count1=_totacount;\r\n        Portfolio[msg.sender].Eth= Portfolio[msg.sender].Eth - calculations;\r\n        \r\n    }\r\n   function PurchasingMarket2token(address _contractadd,string _name,string _symbol,uint256 _totacount) public \r\n   {\r\n        uint256 howmuchEther =  PM_soldTK_Ether[msg.sender];\r\n        uint256 PurchaseTkTotalRate = _totacount * 0.1 ether;\r\n         calculations = PurchaseTkTotalRate / 1 ether;\r\n        require(howmuchEther > calculations);\r\n       // y = _totacount * 0.1 ether;\r\n        m2.call.gas(2500000).value(PurchaseTkTotalRate)();\r\n        Market[msg.sender][_contractadd].name = _name;\r\n        Market[msg.sender][_contractadd].symbol = _symbol;\r\n        Market[msg.sender][_contractadd].decimal = 0;\r\n        Market[msg.sender][_contractadd].totalbuycount = _totacount; \r\n        Market[msg.sender][_contractadd].contractAdd = _contractadd;\r\n        Portfolio[msg.sender].tokenName=_name;\r\n        Portfolio[msg.sender].count2=_totacount;\r\n        uint256 fg = Portfolio[msg.sender].Eth - calculations;\r\n        Portfolio[msg.sender].Eth= fg;\r\n   }\r\n\r\n   function DisplayPurchasedTKCount() public view returns(uint256)\r\n   {\r\n       uint256 count1 = Mam1(m1).DisplayBalance(newadd);\r\n       uint256 count2 = Man2(m2).DisplayBalance(newadd);\r\n       uint256 total = count1 + count2;\r\n       return total;\r\n    }\r\n\r\n\r\n    function DisplayPurchasedTK1() public view returns(address,string,string,uint256,uint256)\r\n    {\r\n     string _nn = Market[msg.sender][m1].name;\r\n     string _sm = Market[msg.sender][m1].symbol;\r\n     uint256 _dd =  Market[msg.sender][m1].decimal;\r\n     uint256 _pp = Market[msg.sender][m1].totalbuycount;\r\n\r\n     return(m1,_nn,_sm,_dd,_pp);\r\n    }\r\n\r\n function DisplayPurchasedTK2() public view returns(address,string,string,uint256,uint256)\r\n    {\r\n     string _nn = Market[msg.sender][m2].name;\r\n     string _sm = Market[msg.sender][m2].symbol;\r\n     uint256 _dd =  Market[msg.sender][m2].decimal;\r\n     uint256 _pp = Market[msg.sender][m2].totalbuycount;\r\n\r\n     return(m2,_nn,_sm,_dd,_pp);\r\n    }\r\n\r\n\r\n\r\n    //Phase-9\r\n\r\n    //Function For Many PortfolioManager Details\r\n    function listOfPortfolioManager(address a)public view returns(address,uint256,uint256,uint256,uint256){\r\n       for(uint i=0;i<ToatlportfolioMAddress.length;i++){\r\n           if(a == Portfolio[a].portfolioM){\r\n                return (Portfolio[a].portfolioM,Portfolio[a].Eth,FundToken(contractAddress).balanceOf(a),Portfolio[a].count1,Portfolio[a].count2);\r\n           }\r\n       }\r\n   }\r\n   function Pcount() public view returns(uint256){\r\n       return ToatlportfolioMAddress.length;\r\n   }\r\n   function getPortfolioAddress(uint a) public view returns(address){\r\n       return ToatlportfolioMAddress[a];\r\n   }\r\n    function getInvesterAddress(uint a,uint a1) public view returns(address,address){\r\n       return (ToatlportfolioMAddress[a],TotalInvestorAddress[a1]);\r\n   }\r\n    function Icount() public view returns(uint256){\r\n       return TotalInvestorAddress.length;\r\n   }\r\n  \r\n}                                                                                     ",
  "sourcePath": "C:\\Users\\Balavignesh.0856\\Desktop\\FINAL\\Mutual-Funds\\contracts\\DMF.sol",
  "compiler": {
    "name": "solc",
    "version": "0.4.19+commit.c4cbbb05.Emscripten.clang"
  },
  "schemaVersion": "2.0.0",
  "updatedAt": "2018-04-13T10:03:52.455Z"
}