{
  "contractName": "DMF",
  "abi": [
    {
      "constant": true,
      "inputs": [
        {
          "name": "",
          "type": "address"
        }
      ],
      "name": "Market",
      "outputs": [
        {
          "name": "contractAdd",
          "type": "address"
        },
        {
          "name": "name",
          "type": "string"
        },
        {
          "name": "symbol",
          "type": "string"
        },
        {
          "name": "decimal",
          "type": "uint256"
        },
        {
          "name": "totalbuycount",
          "type": "uint256"
        }
      ],
      "payable": false,
      "stateMutability": "view",
      "type": "function"
    },
    {
      "constant": true,
      "inputs": [],
      "name": "etherCalculation",
      "outputs": [
        {
          "name": "",
          "type": "uint256"
        }
      ],
      "payable": false,
      "stateMutability": "view",
      "type": "function"
    },
    {
      "constant": true,
      "inputs": [
        {
          "name": "",
          "type": "uint256"
        }
      ],
      "name": "TotalInvestorAddress",
      "outputs": [
        {
          "name": "",
          "type": "address"
        }
      ],
      "payable": false,
      "stateMutability": "view",
      "type": "function"
    },
    {
      "constant": true,
      "inputs": [],
      "name": "InvestersTotalToken",
      "outputs": [
        {
          "name": "",
          "type": "uint256"
        }
      ],
      "payable": false,
      "stateMutability": "view",
      "type": "function"
    },
    {
      "constant": true,
      "inputs": [
        {
          "name": "",
          "type": "address"
        }
      ],
      "name": "invester",
      "outputs": [
        {
          "name": "buyer",
          "type": "address"
        },
        {
          "name": "Eth",
          "type": "uint256"
        },
        {
          "name": "TokenCount",
          "type": "uint256"
        }
      ],
      "payable": false,
      "stateMutability": "view",
      "type": "function"
    },
    {
      "constant": true,
      "inputs": [],
      "name": "Pendingreturnaddress",
      "outputs": [
        {
          "name": "",
          "type": "address"
        }
      ],
      "payable": false,
      "stateMutability": "view",
      "type": "function"
    },
    {
      "constant": true,
      "inputs": [],
      "name": "xy",
      "outputs": [
        {
          "name": "",
          "type": "uint256"
        }
      ],
      "payable": false,
      "stateMutability": "view",
      "type": "function"
    },
    {
      "constant": true,
      "inputs": [],
      "name": "m2",
      "outputs": [
        {
          "name": "",
          "type": "address"
        }
      ],
      "payable": false,
      "stateMutability": "view",
      "type": "function"
    },
    {
      "constant": true,
      "inputs": [],
      "name": "PortfolioManagerprofit",
      "outputs": [
        {
          "name": "",
          "type": "uint256"
        }
      ],
      "payable": false,
      "stateMutability": "view",
      "type": "function"
    },
    {
      "constant": true,
      "inputs": [],
      "name": "newadd",
      "outputs": [
        {
          "name": "",
          "type": "address"
        }
      ],
      "payable": false,
      "stateMutability": "view",
      "type": "function"
    },
    {
      "constant": true,
      "inputs": [],
      "name": "y",
      "outputs": [
        {
          "name": "",
          "type": "uint256"
        }
      ],
      "payable": false,
      "stateMutability": "view",
      "type": "function"
    },
    {
      "constant": true,
      "inputs": [],
      "name": "m1",
      "outputs": [
        {
          "name": "",
          "type": "address"
        }
      ],
      "payable": false,
      "stateMutability": "view",
      "type": "function"
    },
    {
      "constant": true,
      "inputs": [],
      "name": "Token",
      "outputs": [
        {
          "name": "",
          "type": "address"
        }
      ],
      "payable": false,
      "stateMutability": "view",
      "type": "function"
    },
    {
      "constant": true,
      "inputs": [
        {
          "name": "",
          "type": "address"
        }
      ],
      "name": "Portfolio",
      "outputs": [
        {
          "name": "portfolioM",
          "type": "address"
        },
        {
          "name": "Eth",
          "type": "uint256"
        }
      ],
      "payable": false,
      "stateMutability": "view",
      "type": "function"
    },
    {
      "inputs": [
        {
          "name": "na",
          "type": "address"
        },
        {
          "name": "Mark1",
          "type": "address"
        },
        {
          "name": "Mark2",
          "type": "address"
        }
      ],
      "payable": true,
      "stateMutability": "payable",
      "type": "constructor"
    },
    {
      "constant": false,
      "inputs": [],
      "name": "PortfolioReg",
      "outputs": [],
      "payable": true,
      "stateMutability": "payable",
      "type": "function"
    },
    {
      "constant": true,
      "inputs": [],
      "name": "GetBal",
      "outputs": [
        {
          "name": "",
          "type": "uint256"
        }
      ],
      "payable": false,
      "stateMutability": "view",
      "type": "function"
    },
    {
      "constant": true,
      "inputs": [],
      "name": "getContractaddress",
      "outputs": [
        {
          "name": "",
          "type": "address"
        }
      ],
      "payable": false,
      "stateMutability": "view",
      "type": "function"
    },
    {
      "constant": false,
      "inputs": [],
      "name": "InvesterGetToken",
      "outputs": [],
      "payable": true,
      "stateMutability": "payable",
      "type": "function"
    },
    {
      "constant": true,
      "inputs": [],
      "name": "getBalance",
      "outputs": [
        {
          "name": "",
          "type": "uint256"
        }
      ],
      "payable": false,
      "stateMutability": "view",
      "type": "function"
    },
    {
      "constant": false,
      "inputs": [],
      "name": "Dividends",
      "outputs": [],
      "payable": false,
      "stateMutability": "nonpayable",
      "type": "function"
    },
    {
      "constant": true,
      "inputs": [],
      "name": "getAllBalance",
      "outputs": [
        {
          "name": "",
          "type": "uint256"
        }
      ],
      "payable": false,
      "stateMutability": "view",
      "type": "function"
    },
    {
      "constant": false,
      "inputs": [
        {
          "name": "value",
          "type": "uint256"
        }
      ],
      "name": "ReturnTokenToPortfolioManager",
      "outputs": [],
      "payable": true,
      "stateMutability": "payable",
      "type": "function"
    },
    {
      "constant": true,
      "inputs": [],
      "name": "listOfPortfolioManager",
      "outputs": [
        {
          "name": "",
          "type": "address"
        }
      ],
      "payable": false,
      "stateMutability": "view",
      "type": "function"
    },
    {
      "constant": false,
      "inputs": [
        {
          "name": "_contractadd",
          "type": "address"
        },
        {
          "name": "_name",
          "type": "string"
        },
        {
          "name": "_symbol",
          "type": "string"
        },
        {
          "name": "_totacount",
          "type": "uint256"
        }
      ],
      "name": "Purchasingtoken",
      "outputs": [],
      "payable": false,
      "stateMutability": "nonpayable",
      "type": "function"
    },
    {
      "constant": true,
      "inputs": [],
      "name": "DisplayPurchasedTKCount",
      "outputs": [
        {
          "name": "",
          "type": "uint256"
        }
      ],
      "payable": false,
      "stateMutability": "view",
      "type": "function"
    }
  ],
  "bytecode": "0x606060405266038d7ea4c6800060095567016345785d8a0000600a556064600b55600a600c556000600d556000600f556040516060806134bc8339810160405280805190602001909190805190602001909190805190602001909190505033600760006101000a81548173ffffffffffffffffffffffffffffffffffffffff021916908373ffffffffffffffffffffffffffffffffffffffff16021790555030600860006101000a81548173ffffffffffffffffffffffffffffffffffffffff021916908373ffffffffffffffffffffffffffffffffffffffff1602179055506100e76102cc565b604051809103906000f08015156100fd57600080fd5b600660006101000a81548173ffffffffffffffffffffffffffffffffffffffff021916908373ffffffffffffffffffffffffffffffffffffffff16021790555082600e60006101000a81548173ffffffffffffffffffffffffffffffffffffffff021916908373ffffffffffffffffffffffffffffffffffffffff160217905550816000806101000a81548173ffffffffffffffffffffffffffffffffffffffff021916908373ffffffffffffffffffffffffffffffffffffffff16021790555080600160006101000a81548173ffffffffffffffffffffffffffffffffffffffff021916908373ffffffffffffffffffffffffffffffffffffffff160217905550600160009054906101000a900473ffffffffffffffffffffffffffffffffffffffff16600360006101000a81548173ffffffffffffffffffffffffffffffffffffffff021916908373ffffffffffffffffffffffffffffffffffffffff1602179055506000809054906101000a900473ffffffffffffffffffffffffffffffffffffffff16600260006101000a81548173ffffffffffffffffffffffffffffffffffffffff021916908373ffffffffffffffffffffffffffffffffffffffff1602179055505050506102dc565b6040516111c4806122f883390190565b61200d806102eb6000396000f300606060405260043610610149576000357c0100000000000000000000000000000000000000000000000000000000900463ffffffff16806309eb08501461014e57806310a6f3b31461021657806312065fe0146103af578063208345ea146103d85780632722271f1461040157806336c38cc71461040b5780633989d2601461046e578063561b0eee1461049757806363d751ab146104ec578063680d94a714610515578063744cc76d1461051f5780638321e9cf146105a6578063858d8d27146105fb57806391aa69ca14610624578063971c3428146106795780639e9c5f91146106a2578063a56dfe4a146106f7578063a77f92ff14610720578063af1759fb14610775578063bf8869b51461078d578063c2412676146107b6578063d4691adc1461080b578063de85406514610860578063eb9969a8146108e0578063f15f14c514610909575b600080fd5b341561015957600080fd5b610214600480803573ffffffffffffffffffffffffffffffffffffffff1690602001909190803590602001908201803590602001908080601f0160208091040260200160405190810160405280939291908181526020018383808284378201915050505050509190803590602001908201803590602001908080601f0160208091040260200160405190810160405280939291908181526020018383808284378201915050505050509190803590602001909190505061091e565b005b341561022157600080fd5b61024d600480803573ffffffffffffffffffffffffffffffffffffffff16906020019091905050610c61565b604051808673ffffffffffffffffffffffffffffffffffffffff1673ffffffffffffffffffffffffffffffffffffffff16815260200180602001806020018581526020018481526020018381038352878181546001816001161561010002031660029004815260200191508054600181600116156101000203166002900480156103185780601f106102ed57610100808354040283529160200191610318565b820191906000526020600020905b8154815290600101906020018083116102fb57829003601f168201915b505083810382528681815460018160011615610100020316600290048152602001915080546001816001161561010002031660029004801561039b5780601f106103705761010080835404028352916020019161039b565b820191906000526020600020905b81548152906001019060200180831161037e57829003601f168201915b505097505050505050505060405180910390f35b34156103ba57600080fd5b6103c2610cb5565b6040518082815260200191505060405180910390f35b34156103e357600080fd5b6103eb610dd7565b6040518082815260200191505060405180910390f35b610409610ddd565b005b341561041657600080fd5b61042c6004808035906020019091905050610ef4565b604051808273ffffffffffffffffffffffffffffffffffffffff1673ffffffffffffffffffffffffffffffffffffffff16815260200191505060405180910390f35b341561047957600080fd5b610481610f33565b6040518082815260200191505060405180910390f35b34156104a257600080fd5b6104aa610f39565b604051808273ffffffffffffffffffffffffffffffffffffffff1673ffffffffffffffffffffffffffffffffffffffff16815260200191505060405180910390f35b34156104f757600080fd5b6104ff610f7c565b6040518082815260200191505060405180910390f35b61051d611197565b005b341561052a57600080fd5b610556600480803573ffffffffffffffffffffffffffffffffffffffff16906020019091905050611486565b604051808473ffffffffffffffffffffffffffffffffffffffff1673ffffffffffffffffffffffffffffffffffffffff168152602001838152602001828152602001935050505060405180910390f35b34156105b157600080fd5b6105b96114d0565b604051808273ffffffffffffffffffffffffffffffffffffffff1673ffffffffffffffffffffffffffffffffffffffff16815260200191505060405180910390f35b341561060657600080fd5b61060e6114f6565b6040518082815260200191505060405180910390f35b341561062f57600080fd5b6106376114fc565b604051808273ffffffffffffffffffffffffffffffffffffffff1673ffffffffffffffffffffffffffffffffffffffff16815260200191505060405180910390f35b341561068457600080fd5b61068c611522565b6040518082815260200191505060405180910390f35b34156106ad57600080fd5b6106b5611528565b604051808273ffffffffffffffffffffffffffffffffffffffff1673ffffffffffffffffffffffffffffffffffffffff16815260200191505060405180910390f35b341561070257600080fd5b61070a61154e565b6040518082815260200191505060405180910390f35b341561072b57600080fd5b610733611554565b604051808273ffffffffffffffffffffffffffffffffffffffff1673ffffffffffffffffffffffffffffffffffffffff16815260200191505060405180910390f35b61078b6004808035906020019091905050611579565b005b341561079857600080fd5b6107a0611723565b6040518082815260200191505060405180910390f35b34156107c157600080fd5b6107c9611755565b604051808273ffffffffffffffffffffffffffffffffffffffff1673ffffffffffffffffffffffffffffffffffffffff16815260200191505060405180910390f35b341561081657600080fd5b61081e61177b565b604051808273ffffffffffffffffffffffffffffffffffffffff1673ffffffffffffffffffffffffffffffffffffffff16815260200191505060405180910390f35b341561086b57600080fd5b610897600480803573ffffffffffffffffffffffffffffffffffffffff169060200190919050506117a5565b604051808373ffffffffffffffffffffffffffffffffffffffff1673ffffffffffffffffffffffffffffffffffffffff1681526020018281526020019250505060405180910390f35b34156108eb57600080fd5b6108f36117e9565b6040518082815260200191505060405180910390f35b341561091457600080fd5b61091c6118d0565b005b8373ffffffffffffffffffffffffffffffffffffffff166000809054906101000a900473ffffffffffffffffffffffffffffffffffffffff1673ffffffffffffffffffffffffffffffffffffffff1614156109de5767016345785d8a000081026004819055506000809054906101000a900473ffffffffffffffffffffffffffffffffffffffff1673ffffffffffffffffffffffffffffffffffffffff16622625a0600454604051600060405180830381858888f1935050505050610a9d565b8373ffffffffffffffffffffffffffffffffffffffff16600160009054906101000a900473ffffffffffffffffffffffffffffffffffffffff1673ffffffffffffffffffffffffffffffffffffffff161415610a9c5767016345785d8a00008102600581905550600160009054906101000a900473ffffffffffffffffffffffffffffffffffffffff1673ffffffffffffffffffffffffffffffffffffffff16622625a0600554604051600060405180830381858888f19350505050505b5b82601660003373ffffffffffffffffffffffffffffffffffffffff1673ffffffffffffffffffffffffffffffffffffffff1681526020019081526020016000206001019080519060200190610af3929190611f10565b5081601660003373ffffffffffffffffffffffffffffffffffffffff1673ffffffffffffffffffffffffffffffffffffffff1681526020019081526020016000206002019080519060200190610b4a929190611f10565b506000601660003373ffffffffffffffffffffffffffffffffffffffff1673ffffffffffffffffffffffffffffffffffffffff1681526020019081526020016000206003018190555080601660003373ffffffffffffffffffffffffffffffffffffffff1673ffffffffffffffffffffffffffffffffffffffff1681526020019081526020016000206004018190555083601660003373ffffffffffffffffffffffffffffffffffffffff1673ffffffffffffffffffffffffffffffffffffffff16815260200190815260200160002060000160006101000a81548173ffffffffffffffffffffffffffffffffffffffff021916908373ffffffffffffffffffffffffffffffffffffffff16021790555050505050565b60166020528060005260406000206000915090508060000160009054906101000a900473ffffffffffffffffffffffffffffffffffffffff1690806001019080600201908060030154908060040154905085565b6000600e60009054906101000a900473ffffffffffffffffffffffffffffffffffffffff1673ffffffffffffffffffffffffffffffffffffffff166370a0823160126000815481101515610d0557fe5b906000526020600020900160009054906101000a900473ffffffffffffffffffffffffffffffffffffffff166000604051602001526040518263ffffffff167c0100000000000000000000000000000000000000000000000000000000028152600401808273ffffffffffffffffffffffffffffffffffffffff1673ffffffffffffffffffffffffffffffffffffffff168152602001915050602060405180830381600087803b1515610db757600080fd5b6102c65a03f11515610dc857600080fd5b50505060405180519050905090565b60135481565b33601460003373ffffffffffffffffffffffffffffffffffffffff1673ffffffffffffffffffffffffffffffffffffffff16815260200190815260200160002060000160006101000a81548173ffffffffffffffffffffffffffffffffffffffff021916908373ffffffffffffffffffffffffffffffffffffffff16021790555034601460003373ffffffffffffffffffffffffffffffffffffffff1673ffffffffffffffffffffffffffffffffffffffff1681526020019081526020016000206001015401601460003373ffffffffffffffffffffffffffffffffffffffff1673ffffffffffffffffffffffffffffffffffffffff16815260200190815260200160002060010181905550610ef234611b16565b565b601281815481101515610f0357fe5b90600052602060002090016000915054906101000a900473ffffffffffffffffffffffffffffffffffffffff1681565b600f5481565b600060116000815481101515610f4b57fe5b906000526020600020900160009054906101000a900473ffffffffffffffffffffffffffffffffffffffff16905090565b6000806000806000809054906101000a900473ffffffffffffffffffffffffffffffffffffffff1673ffffffffffffffffffffffffffffffffffffffff1663a773f89f600860009054906101000a900473ffffffffffffffffffffffffffffffffffffffff166000604051602001526040518263ffffffff167c0100000000000000000000000000000000000000000000000000000000028152600401808273ffffffffffffffffffffffffffffffffffffffff1673ffffffffffffffffffffffffffffffffffffffff168152602001915050602060405180830381600087803b151561106857600080fd5b6102c65a03f1151561107957600080fd5b505050604051805190509250600160009054906101000a900473ffffffffffffffffffffffffffffffffffffffff1673ffffffffffffffffffffffffffffffffffffffff1663a773f89f600860009054906101000a900473ffffffffffffffffffffffffffffffffffffffff166000604051602001526040518263ffffffff167c0100000000000000000000000000000000000000000000000000000000028152600401808273ffffffffffffffffffffffffffffffffffffffff1673ffffffffffffffffffffffffffffffffffffffff168152602001915050602060405180830381600087803b151561116c57600080fd5b6102c65a03f1151561117d57600080fd5b505050604051805190509150818301905080935050505090565b6000600a54348115156111a657fe5b04905080600f60008282540192505081905550600e60009054906101000a900473ffffffffffffffffffffffffffffffffffffffff1673ffffffffffffffffffffffffffffffffffffffff166323b872dd6011600081548110151561120757fe5b906000526020600020900160009054906101000a900473ffffffffffffffffffffffffffffffffffffffff1633846000604051602001526040518463ffffffff167c0100000000000000000000000000000000000000000000000000000000028152600401808473ffffffffffffffffffffffffffffffffffffffff1673ffffffffffffffffffffffffffffffffffffffff1681526020018373ffffffffffffffffffffffffffffffffffffffff1673ffffffffffffffffffffffffffffffffffffffff1681526020018281526020019350505050602060405180830381600087803b15156112f557600080fd5b6102c65a03f1151561130657600080fd5b5050506040518051905050601280548060010182816113259190611f90565b9160005260206000209001600033909190916101000a81548173ffffffffffffffffffffffffffffffffffffffff021916908373ffffffffffffffffffffffffffffffffffffffff1602179055505033601560003373ffffffffffffffffffffffffffffffffffffffff1673ffffffffffffffffffffffffffffffffffffffff16815260200190815260200160002060000160006101000a81548173ffffffffffffffffffffffffffffffffffffffff021916908373ffffffffffffffffffffffffffffffffffffffff16021790555034601560003373ffffffffffffffffffffffffffffffffffffffff1673ffffffffffffffffffffffffffffffffffffffff1681526020019081526020016000206001018190555080601560003373ffffffffffffffffffffffffffffffffffffffff1673ffffffffffffffffffffffffffffffffffffffff1681526020019081526020016000206002018190555050565b60156020528060005260406000206000915090508060000160009054906101000a900473ffffffffffffffffffffffffffffffffffffffff16908060010154908060020154905083565b601060009054906101000a900473ffffffffffffffffffffffffffffffffffffffff1681565b60045481565b600160009054906101000a900473ffffffffffffffffffffffffffffffffffffffff1681565b600d5481565b600860009054906101000a900473ffffffffffffffffffffffffffffffffffffffff1681565b60055481565b6000809054906101000a900473ffffffffffffffffffffffffffffffffffffffff1681565b600080600e60009054906101000a900473ffffffffffffffffffffffffffffffffffffffff1673ffffffffffffffffffffffffffffffffffffffff166323b872dd33601160008154811015156115cb57fe5b906000526020600020900160009054906101000a900473ffffffffffffffffffffffffffffffffffffffff16866000604051602001526040518463ffffffff167c0100000000000000000000000000000000000000000000000000000000028152600401808473ffffffffffffffffffffffffffffffffffffffff1673ffffffffffffffffffffffffffffffffffffffff1681526020018373ffffffffffffffffffffffffffffffffffffffff1673ffffffffffffffffffffffffffffffffffffffff1681526020018281526020019350505050602060405180830381600087803b15156116b857600080fd5b6102c65a03f115156116c957600080fd5b5050506040518051905050600a54830291503390508073ffffffffffffffffffffffffffffffffffffffff166108fc839081150290604051600060405180830381858888f19350505050151561171e57600080fd5b505050565b6000670de0b6b3a76400003073ffffffffffffffffffffffffffffffffffffffff163181151561174f57fe5b04905090565b600660009054906101000a900473ffffffffffffffffffffffffffffffffffffffff1681565b6000600860009054906101000a900473ffffffffffffffffffffffffffffffffffffffff16905090565b60146020528060005260406000206000915090508060000160009054906101000a900473ffffffffffffffffffffffffffffffffffffffff16908060010154905082565b6000600e60009054906101000a900473ffffffffffffffffffffffffffffffffffffffff1673ffffffffffffffffffffffffffffffffffffffff166370a08231336000604051602001526040518263ffffffff167c0100000000000000000000000000000000000000000000000000000000028152600401808273ffffffffffffffffffffffffffffffffffffffff1673ffffffffffffffffffffffffffffffffffffffff168152602001915050602060405180830381600087803b15156118b057600080fd5b6102c65a03f115156118c157600080fd5b50505060405180519050905090565b601160008154811015156118e057fe5b906000526020600020900160009054906101000a900473ffffffffffffffffffffffffffffffffffffffff1673ffffffffffffffffffffffffffffffffffffffff163373ffffffffffffffffffffffffffffffffffffffff161415611b1457600e60009054906101000a900473ffffffffffffffffffffffffffffffffffffffff1673ffffffffffffffffffffffffffffffffffffffff166379c6506833600b546040518363ffffffff167c0100000000000000000000000000000000000000000000000000000000028152600401808373ffffffffffffffffffffffffffffffffffffffff1673ffffffffffffffffffffffffffffffffffffffff16815260200182815260200192505050600060405180830381600087803b1515611a0557600080fd5b6102c65a03f11515611a1657600080fd5b5050506064600a600b5402811515611a2a57fe5b04600d81905550600e60009054906101000a900473ffffffffffffffffffffffffffffffffffffffff1673ffffffffffffffffffffffffffffffffffffffff166379c6506833600d546040518363ffffffff167c0100000000000000000000000000000000000000000000000000000000028152600401808373ffffffffffffffffffffffffffffffffffffffff1673ffffffffffffffffffffffffffffffffffffffff16815260200182815260200192505050600060405180830381600087803b1515611af757600080fd5b6102c65a03f11515611b0857600080fd5b505050611b13611c67565b5b565b600060095482811515611b2557fe5b049050600e60009054906101000a900473ffffffffffffffffffffffffffffffffffffffff1673ffffffffffffffffffffffffffffffffffffffff166379c6506833836040518363ffffffff167c0100000000000000000000000000000000000000000000000000000000028152600401808373ffffffffffffffffffffffffffffffffffffffff1673ffffffffffffffffffffffffffffffffffffffff16815260200182815260200192505050600060405180830381600087803b1515611bec57600080fd5b6102c65a03f11515611bfd57600080fd5b50505060118054806001018281611c149190611f90565b9160005260206000209001600033909190916101000a81548173ffffffffffffffffffffffffffffffffffffffff021916908373ffffffffffffffffffffffffffffffffffffffff160217905550505050565b60008060008092505b601280549050831015611f0b57600d54600b540360156000601286815481101515611c9757fe5b906000526020600020900160009054906101000a900473ffffffffffffffffffffffffffffffffffffffff1673ffffffffffffffffffffffffffffffffffffffff1673ffffffffffffffffffffffffffffffffffffffff16815260200190815260200160002060020154029150600f5482811515611d1157fe5b049050600e60009054906101000a900473ffffffffffffffffffffffffffffffffffffffff1673ffffffffffffffffffffffffffffffffffffffff166379c65068601285815481101515611d6157fe5b906000526020600020900160009054906101000a900473ffffffffffffffffffffffffffffffffffffffff16836040518363ffffffff167c0100000000000000000000000000000000000000000000000000000000028152600401808373ffffffffffffffffffffffffffffffffffffffff1673ffffffffffffffffffffffffffffffffffffffff16815260200182815260200192505050600060405180830381600087803b1515611e1257600080fd5b6102c65a03f11515611e2357600080fd5b505050600e60009054906101000a900473ffffffffffffffffffffffffffffffffffffffff1673ffffffffffffffffffffffffffffffffffffffff1663171ce59733836040518363ffffffff167c0100000000000000000000000000000000000000000000000000000000028152600401808373ffffffffffffffffffffffffffffffffffffffff1673ffffffffffffffffffffffffffffffffffffffff16815260200182815260200192505050600060405180830381600087803b1515611eea57600080fd5b6102c65a03f11515611efb57600080fd5b5050508280600101935050611c70565b505050565b828054600181600116156101000203166002900490600052602060002090601f016020900481019282601f10611f5157805160ff1916838001178555611f7f565b82800160010185558215611f7f579182015b82811115611f7e578251825591602001919060010190611f63565b5b509050611f8c9190611fbc565b5090565b815481835581811511611fb757818360005260206000209182019101611fb69190611fbc565b5b505050565b611fde91905b80821115611fda576000816000905550600101611fc2565b5090565b905600a165627a7a72305820fda469d1c638e8b77be95bd1e525257e95bbf27f80e9015f1164b8b32304bda9002960606040526040805190810160405280600981526020017f546f6b656e20312e3000000000000000000000000000000000000000000000008152506000908051906020019062000051929190620001a2565b5034156200005e57600080fd5b620186a0600381905550600354600760003373ffffffffffffffffffffffffffffffffffffffff1673ffffffffffffffffffffffffffffffffffffffff168152602001908152602001600020819055506040805190810160405280600381526020017f445458000000000000000000000000000000000000000000000000000000000081525060029080519060200190620000fb929190620001a2565b506040805190810160405280600c81526020017f5068656f6e6978546f6b656e00000000000000000000000000000000000000008152506001908051906020019062000149929190620001a2565b506101f4600481905550600060058190555033600660006101000a81548173ffffffffffffffffffffffffffffffffffffffff021916908373ffffffffffffffffffffffffffffffffffffffff16021790555062000251565b828054600181600116156101000203166002900490600052602060002090601f016020900481019282601f10620001e557805160ff191683800117855562000216565b8280016001018555821562000216579182015b8281111562000215578251825591602001919060010190620001f8565b5b50905062000225919062000229565b5090565b6200024e91905b808211156200024a57600081600090555060010162000230565b5090565b90565b610f6380620002616000396000f3006060604052600436106100db576000357c0100000000000000000000000000000000000000000000000000000000900463ffffffff16806306fdde03146100e0578063095ea7b31461016e578063171ce597146101c857806318160ddd146101ff57806323b872dd14610228578063313ce567146102a15780635c658165146102ca578063661884631461033657806370a082311461039057806372dd529b146103dd57806379c650681461040657806395d89b4114610448578063a9059cbb146104d6578063d73dd62314610530578063dd62ed3e1461058a575b600080fd5b34156100eb57600080fd5b6100f36105f6565b6040518080602001828103825283818151815260200191508051906020019080838360005b83811015610133578082015181840152602081019050610118565b50505050905090810190601f1680156101605780820380516001836020036101000a031916815260200191505b509250505060405180910390f35b341561017957600080fd5b6101ae600480803573ffffffffffffffffffffffffffffffffffffffff16906020019091908035906020019091905050610694565b604051808215151515815260200191505060405180910390f35b6101fd600480803573ffffffffffffffffffffffffffffffffffffffff16906020019091908035906020019091905050610721565b005b341561020a57600080fd5b6102126107aa565b6040518082815260200191505060405180910390f35b341561023357600080fd5b610287600480803573ffffffffffffffffffffffffffffffffffffffff1690602001909190803573ffffffffffffffffffffffffffffffffffffffff169060200190919080359060200190919050506107b4565b604051808215151515815260200191505060405180910390f35b34156102ac57600080fd5b6102b4610930565b6040518082815260200191505060405180910390f35b34156102d557600080fd5b610320600480803573ffffffffffffffffffffffffffffffffffffffff1690602001909190803573ffffffffffffffffffffffffffffffffffffffff16906020019091905050610936565b6040518082815260200191505060405180910390f35b341561034157600080fd5b610376600480803573ffffffffffffffffffffffffffffffffffffffff1690602001909190803590602001909190505061095b565b604051808215151515815260200191505060405180910390f35b341561039b57600080fd5b6103c7600480803573ffffffffffffffffffffffffffffffffffffffff16906020019091905050610a66565b6040518082815260200191505060405180910390f35b34156103e857600080fd5b6103f0610aaf565b6040518082815260200191505060405180910390f35b341561041157600080fd5b610446600480803573ffffffffffffffffffffffffffffffffffffffff16906020019091908035906020019091905050610ab5565b005b341561045357600080fd5b61045b610b3e565b6040518080602001828103825283818151815260200191508051906020019080838360005b8381101561049b578082015181840152602081019050610480565b50505050905090810190601f1680156104c85780820380516001836020036101000a031916815260200191505b509250505060405180910390f35b34156104e157600080fd5b610516600480803573ffffffffffffffffffffffffffffffffffffffff16906020019091908035906020019091905050610bdc565b604051808215151515815260200191505060405180910390f35b341561053b57600080fd5b610570600480803573ffffffffffffffffffffffffffffffffffffffff16906020019091908035906020019091905050610da5565b604051808215151515815260200191505060405180910390f35b341561059557600080fd5b6105e0600480803573ffffffffffffffffffffffffffffffffffffffff1690602001909190803573ffffffffffffffffffffffffffffffffffffffff16906020019091905050610eb0565b6040518082815260200191505060405180910390f35b60018054600181600116156101000203166002900480601f01602080910402602001604051908101604052809291908181526020018280546001816001161561010002031660029004801561068c5780601f106106615761010080835404028352916020019161068c565b820191906000526020600020905b81548152906001019060200180831161066f57829003601f168201915b505050505081565b600081600860003373ffffffffffffffffffffffffffffffffffffffff1673ffffffffffffffffffffffffffffffffffffffff16815260200190815260200160002060008573ffffffffffffffffffffffffffffffffffffffff1673ffffffffffffffffffffffffffffffffffffffff168152602001908152602001600020819055506001905092915050565b80600760008473ffffffffffffffffffffffffffffffffffffffff1673ffffffffffffffffffffffffffffffffffffffff1681526020019081526020016000205403600760008473ffffffffffffffffffffffffffffffffffffffff1673ffffffffffffffffffffffffffffffffffffffff168152602001908152602001600020819055505050565b6000600354905090565b600081600760008673ffffffffffffffffffffffffffffffffffffffff1673ffffffffffffffffffffffffffffffffffffffff1681526020019081526020016000205403600760008673ffffffffffffffffffffffffffffffffffffffff1673ffffffffffffffffffffffffffffffffffffffff1681526020019081526020016000208190555081600760008573ffffffffffffffffffffffffffffffffffffffff1673ffffffffffffffffffffffffffffffffffffffff1681526020019081526020016000205401600760008573ffffffffffffffffffffffffffffffffffffffff1673ffffffffffffffffffffffffffffffffffffffff168152602001908152602001600020819055508273ffffffffffffffffffffffffffffffffffffffff168473ffffffffffffffffffffffffffffffffffffffff167fddf252ad1be2c89b69c2b068fc378daa952ba7f163c4a11628f55a4df523b3ef846040518082815260200191505060405180910390a3600190509392505050565b60055481565b6008602052816000526040600020602052806000526040600020600091509150505481565b600081600860003373ffffffffffffffffffffffffffffffffffffffff1673ffffffffffffffffffffffffffffffffffffffff16815260200190815260200160002060008573ffffffffffffffffffffffffffffffffffffffff1673ffffffffffffffffffffffffffffffffffffffff1681526020019081526020016000205403600860003373ffffffffffffffffffffffffffffffffffffffff1673ffffffffffffffffffffffffffffffffffffffff16815260200190815260200160002060008573ffffffffffffffffffffffffffffffffffffffff1673ffffffffffffffffffffffffffffffffffffffff168152602001908152602001600020819055506001905092915050565b6000600760008373ffffffffffffffffffffffffffffffffffffffff1673ffffffffffffffffffffffffffffffffffffffff168152602001908152602001600020549050919050565b60035481565b80600760008473ffffffffffffffffffffffffffffffffffffffff1673ffffffffffffffffffffffffffffffffffffffff1681526020019081526020016000205401600760008473ffffffffffffffffffffffffffffffffffffffff1673ffffffffffffffffffffffffffffffffffffffff168152602001908152602001600020819055505050565b60028054600181600116156101000203166002900480601f016020809104026020016040519081016040528092919081815260200182805460018160011615610100020316600290048015610bd45780601f10610ba957610100808354040283529160200191610bd4565b820191906000526020600020905b815481529060010190602001808311610bb757829003601f168201915b505050505081565b6000600760003373ffffffffffffffffffffffffffffffffffffffff1673ffffffffffffffffffffffffffffffffffffffff168152602001908152602001600020548211151515610c2c57600080fd5b81600760003373ffffffffffffffffffffffffffffffffffffffff1673ffffffffffffffffffffffffffffffffffffffff1681526020019081526020016000205403600760003373ffffffffffffffffffffffffffffffffffffffff1673ffffffffffffffffffffffffffffffffffffffff1681526020019081526020016000208190555081600760008573ffffffffffffffffffffffffffffffffffffffff1673ffffffffffffffffffffffffffffffffffffffff1681526020019081526020016000205401600760008573ffffffffffffffffffffffffffffffffffffffff1673ffffffffffffffffffffffffffffffffffffffff168152602001908152602001600020819055508273ffffffffffffffffffffffffffffffffffffffff163373ffffffffffffffffffffffffffffffffffffffff167fddf252ad1be2c89b69c2b068fc378daa952ba7f163c4a11628f55a4df523b3ef846040518082815260200191505060405180910390a36001905092915050565b600081600860003373ffffffffffffffffffffffffffffffffffffffff1673ffffffffffffffffffffffffffffffffffffffff16815260200190815260200160002060008573ffffffffffffffffffffffffffffffffffffffff1673ffffffffffffffffffffffffffffffffffffffff1681526020019081526020016000205401600860003373ffffffffffffffffffffffffffffffffffffffff1673ffffffffffffffffffffffffffffffffffffffff16815260200190815260200160002060008573ffffffffffffffffffffffffffffffffffffffff1673ffffffffffffffffffffffffffffffffffffffff168152602001908152602001600020819055506001905092915050565b6000600860008473ffffffffffffffffffffffffffffffffffffffff1673ffffffffffffffffffffffffffffffffffffffff16815260200190815260200160002060008373ffffffffffffffffffffffffffffffffffffffff1673ffffffffffffffffffffffffffffffffffffffff168152602001908152602001600020549050929150505600a165627a7a7230582016b52f9135102e74f03ee3009767174a58095acbdbbb0f04cad1a294071b7c240029",
  "source": "pragma solidity ^0.4.18;\r\n\r\nimport \"./MarketToken1.sol\";\r\nimport \"./FundToken.sol\";\r\nimport \"./MarketToken2.sol\";\r\n\r\ncontract DMF {\r\n//rketToken1 public a;\r\n            address public m1;\r\n            address public m2;\r\n           \r\n           Mam1 ab;\r\n           Man2 bb;\r\n           uint256 public xy;\r\n           uint256 public y;\r\n           \r\n        FundToken public Token; //obj for Fundtoken3\r\n       \r\n         \r\n     //Constructor For initialize the contract Owner Address and Contract Deployed Address\r\n            function DMF(address na,address Mark1,address Mark2)public payable{\r\n                owner=msg.sender;\r\n                newadd=address(this);\r\n                Token=new FundToken();\r\n                 contractAddress=na;\r\n                 m1=Mark1;\r\n                 m2=Mark2;\r\n                bb= Man2(m2);\r\n                 ab= Mam1(m1);\r\n                \r\n            \r\n                \r\n            }\r\n       \r\n        //modifier only access the functions by Portfolio manager \r\n        modifier OnlyPortfolio()\r\n        {\r\n            if(msg.sender == ToatlportfolioMAddress[0])\r\n            {\r\n                _;\r\n            }\r\n        }\r\n        //Global Variable Declaration part\r\n\r\n        address owner; //owner variable for assigning contract Owner\r\n        address public newadd; //For getting the Contract Address\r\n        uint256 rate = 0.001 ether; //rate of Fundtoken For PortfolioManager\r\n        uint256 cost = 0.1 ether; //rate of Fundtokens For Investor \r\n        uint256 dividendToken = 100; //divident tokens count for give the profit to Investor\r\n        uint256 profitToken = 10; //profit tokens for the Portfolio manager \r\n        uint256 public PortfolioManagerprofit = 0; //For the Portfoliomanager profit tokens \r\n        address contractAddress; //Fundtoken\r\n        uint256 public InvestersTotalToken=0; //invester total token count\r\n    \r\n        \r\n        address public Pendingreturnaddress;\r\n    //ArrayList\r\n     address[] ToatlportfolioMAddress; //Array for storing the each register PortfolioManager\r\n     address[] public TotalInvestorAddress; //Array for storing the each register Investors\r\n     uint256 public etherCalculation;\r\n\r\n\r\n     \r\n    //Phase -2                                                                                                                                                                                                                                                                \r\n                            //Structure Area\r\n     \r\n\r\n     //Structure For PortfolioManager Details\r\n            struct PortfolioDetails\r\n            {\r\n                address portfolioM;\r\n                //address contractAdd;\r\n                uint256 Eth;\r\n            }\r\n    //Structure For Investor Details  \r\n            struct InvestorDetails\r\n            {\r\n                address buyer;\r\n                uint256 Eth;\r\n                uint256 TokenCount;\r\n            }\r\n\r\n   //Structure For MarketToken Purchase Details\r\n   struct MarketTokenPurchase\r\n   {\r\n       address contractAdd;\r\n       string name;\r\n       string symbol;\r\n       uint256 decimal;\r\n       uint256 totalbuycount;\r\n\r\n   }\r\n   \r\n          //For assigning totalsuply \r\n    //Mapping Area\r\n\r\n    mapping(address => PortfolioDetails) public Portfolio ; //Map for getting and storing the PortfolioManager resgistration Details\r\n    mapping(address => InvestorDetails) public invester ; //map for getting and storing the Investor getting token details\r\n    mapping(address => MarketTokenPurchase) public Market; //Map for getting the MarketToken Purchase details by the Portfoliomanager\r\n     \r\n      //Fallback Function For Holding the Ether in Contract\r\n     \r\n\r\n                                //Function Area\r\n        //Function For PortfolioManager Resgistration\r\n        function PortfolioReg() public payable{\r\n        Portfolio[msg.sender].portfolioM= msg.sender;\r\n        Portfolio[msg.sender].Eth=Portfolio[msg.sender].Eth + msg.value;\r\n        GetFundToken(msg.value);\r\n        }\r\n        \r\n       \r\n\r\n        //Function For Getting the Fundtokens by the PortfolioManager\r\n         function GetFundToken(uint256 value) private{\r\n            uint256 tokens = value / rate;\r\n            FundToken(contractAddress).mintToken(msg.sender,tokens);\r\n            //Transfer(0,msg.sender,msg.value);\r\n           \r\n           \r\n            ToatlportfolioMAddress.push(msg.sender);\r\n         }\r\n\r\n        //Function For Getting the Contract Ether Balance \r\n      function GetBal()public view returns(uint256){\r\n          return this.balance/ 1 ether;\r\n         // 1 ether; //converting wei value to ether\r\n      }\r\n      \r\n\r\n      //Function For Getting the Contract Address\r\n      function getContractaddress() public view returns(address)\r\n      {\r\n          return newadd;\r\n      }\r\n      \r\n      \r\n      //Phase-3\r\n\r\n      //Function For Buying the FundTokens by the Investor From the PortfolioManager\r\n      function InvesterGetToken() public payable\r\n      {\r\n          uint256 tokens = msg.value / cost;\r\n          InvestersTotalToken += tokens;\r\n          FundToken(contractAddress).transferFrom(ToatlportfolioMAddress[0],msg.sender,tokens);\r\n          TotalInvestorAddress.push(msg.sender);\r\n          invester[msg.sender].buyer = msg.sender;\r\n          invester[msg.sender].Eth = msg.value;\r\n          invester[msg.sender].TokenCount = tokens;\r\n          \r\n      }\r\n    \r\n  \r\n\r\n    //Phase-4\r\n\r\n\r\n    //Function For Getting the Investor Balance of Tokens\r\n    function getBalance() public view returns(uint256)\r\n    {\r\n       return FundToken(contractAddress).balanceOf(TotalInvestorAddress[0]);\r\n    }\r\n\r\n    //Phase-5\r\n    \r\n    /** The dividends calculations\r\n        Investor1 = (( Investor1_fund TK) / (Inves1_FUndTK + Inves2_FUndTK + ... )) * 90;\r\n     */\r\n    //Function For issue the Dividends yo the User\r\n   function Dividends() public OnlyPortfolio   \r\n    {\r\n        \r\n        FundToken(contractAddress).mintToken(msg.sender,dividendToken); //minting the token \r\n        PortfolioManagerprofit = (dividendToken* 10) / 100; //taking the portfolio share\r\n        FundToken(contractAddress).mintToken(msg.sender,PortfolioManagerprofit);\r\n       \r\n        \r\n         ShareETK_ToI();\r\n         \r\n         \r\n    }\r\n    \r\n    \r\n    \r\n    \r\n    //function for split the profit to each tokens\r\n    function ShareETK_ToI() private \r\n    {\r\n        for(uint256 i=0;i<TotalInvestorAddress.length;i++)\r\n        {\r\n            uint256 b = invester[TotalInvestorAddress[i]].TokenCount * (dividendToken - PortfolioManagerprofit);\r\n             uint256 a =  b  / InvestersTotalToken;\r\n           FundToken(contractAddress).mintToken(TotalInvestorAddress[i],a);\r\n           FundToken(contractAddress).tokenDecrease(msg.sender,a);\r\n        }\r\n    }\r\n    //function for split the profit to each tokens\r\n    \r\n    \r\n    //getting All the Investor and PortfolioManager balance \r\n    function getAllBalance() public view returns(uint256)\r\n    {\r\n     return FundToken(contractAddress).balanceOf(msg.sender);\r\n    }\r\n    \r\n \r\n      //Phase-6 \r\n      \r\n      //Function for Sell The Tokens to the PortfolioManager\r\n    function ReturnTokenToPortfolioManager(uint256 value)public payable{\r\n     \r\n        FundToken(contractAddress).transferFrom(msg.sender,ToatlportfolioMAddress[0],value);\r\n        uint256 TR = value * cost;\r\n         address x = msg.sender;\r\n         x.transfer(TR);\r\n        \r\n     }\r\n     \r\n    \r\n   \r\n\r\n   function listOfPortfolioManager()public view returns(address){\r\n       return ToatlportfolioMAddress[0];\r\n   }\r\n\r\n\r\n   //Phase-7\r\n\r\n                //Two Sample Market is successfully created \r\n\r\n    \r\n\r\n   //Phase-8\r\n   \r\n   //Function for Purchase the market tokens by the PortfolioManager\r\n \r\n\r\nfunction Purchasingtoken(address _contractadd,string _name,string _symbol,uint256 _totacount) public \r\n   {\r\n       \r\n  \r\n    \r\n\r\n       if( m1 == _contractadd)\r\n       \r\n       {\r\n         \r\n          xy = _totacount * 0.1 ether;\r\n        \r\n        m1.call.gas(2500000).value(xy)();\r\n         \r\n           \r\n       }\r\n       else if(m2 == _contractadd)\r\n       {\r\n         \r\n        y = _totacount * 0.1 ether;\r\n        m2.call.gas(2500000).value(y)();\r\n          \r\n       }\r\n        Market[msg.sender].name = _name;\r\n       Market[msg.sender].symbol = _symbol;\r\n       Market[msg.sender].decimal = 0;\r\n       Market[msg.sender].totalbuycount = _totacount;\r\n       Market[msg.sender].contractAdd = _contractadd;\r\n         \r\n       \r\n       \r\n       \r\n   }\r\n   \r\n\r\n   function DisplayPurchasedTKCount() public view returns(uint256)\r\n   {\r\n       uint256 count1 = Mam1(m1).DisplayBalance(newadd);\r\n       uint256 count2 = Man2(m2).DisplayBalance(newadd);\r\n       uint256 total = count1 + count2;\r\n       return total;\r\n    }\r\n\r\n\r\n\r\n   \r\n}                                                                                     ",
  "sourcePath": "C:\\Users\\Balavignesh.0856\\Desktop\\URDC\\Mutual-Funds\\contracts\\DMF.sol",
  "compiler": {
    "name": "solc",
    "version": "0.4.19+commit.c4cbbb05.Emscripten.clang"
  },
  "schemaVersion": "2.0.0",
  "updatedAt": "2018-04-06T06:44:45.522Z"
}