{
  "contractName": "DMF",
  "abi": [
    {
      "constant": true,
      "inputs": [],
      "name": "name",
      "outputs": [
        {
          "name": "",
          "type": "string"
        }
      ],
      "payable": false,
      "stateMutability": "view",
      "type": "function"
    },
    {
      "constant": false,
      "inputs": [
        {
          "name": "spender",
          "type": "address"
        },
        {
          "name": "value",
          "type": "uint256"
        }
      ],
      "name": "approve",
      "outputs": [
        {
          "name": "",
          "type": "bool"
        }
      ],
      "payable": false,
      "stateMutability": "nonpayable",
      "type": "function"
    },
    {
      "constant": true,
      "inputs": [
        {
          "name": "",
          "type": "address"
        }
      ],
      "name": "BuyTK",
      "outputs": [
        {
          "name": "portfolioM",
          "type": "address"
        },
        {
          "name": "Eth",
          "type": "uint256"
        }
      ],
      "payable": false,
      "stateMutability": "view",
      "type": "function"
    },
    {
      "constant": true,
      "inputs": [],
      "name": "totalSupply",
      "outputs": [
        {
          "name": "",
          "type": "uint256"
        }
      ],
      "payable": false,
      "stateMutability": "view",
      "type": "function"
    },
    {
      "constant": false,
      "inputs": [
        {
          "name": "from",
          "type": "address"
        },
        {
          "name": "to",
          "type": "address"
        },
        {
          "name": "value",
          "type": "uint256"
        }
      ],
      "name": "transferFrom",
      "outputs": [
        {
          "name": "",
          "type": "bool"
        }
      ],
      "payable": false,
      "stateMutability": "nonpayable",
      "type": "function"
    },
    {
      "constant": true,
      "inputs": [],
      "name": "decimals",
      "outputs": [
        {
          "name": "",
          "type": "uint256"
        }
      ],
      "payable": false,
      "stateMutability": "view",
      "type": "function"
    },
    {
      "constant": true,
      "inputs": [
        {
          "name": "",
          "type": "address"
        },
        {
          "name": "",
          "type": "address"
        }
      ],
      "name": "allowed",
      "outputs": [
        {
          "name": "",
          "type": "uint256"
        }
      ],
      "payable": false,
      "stateMutability": "view",
      "type": "function"
    },
    {
      "constant": false,
      "inputs": [
        {
          "name": "_to",
          "type": "address"
        },
        {
          "name": "value",
          "type": "uint256"
        }
      ],
      "name": "decreaseApproval",
      "outputs": [
        {
          "name": "",
          "type": "bool"
        }
      ],
      "payable": false,
      "stateMutability": "nonpayable",
      "type": "function"
    },
    {
      "constant": true,
      "inputs": [
        {
          "name": "_addr",
          "type": "address"
        }
      ],
      "name": "balanceOf",
      "outputs": [
        {
          "name": "",
          "type": "uint256"
        }
      ],
      "payable": false,
      "stateMutability": "view",
      "type": "function"
    },
    {
      "constant": true,
      "inputs": [],
      "name": "totalsupply",
      "outputs": [
        {
          "name": "",
          "type": "uint256"
        }
      ],
      "payable": false,
      "stateMutability": "view",
      "type": "function"
    },
    {
      "constant": true,
      "inputs": [],
      "name": "symbol",
      "outputs": [
        {
          "name": "",
          "type": "string"
        }
      ],
      "payable": false,
      "stateMutability": "view",
      "type": "function"
    },
    {
      "constant": true,
      "inputs": [],
      "name": "newadd",
      "outputs": [
        {
          "name": "",
          "type": "address"
        }
      ],
      "payable": false,
      "stateMutability": "view",
      "type": "function"
    },
    {
      "constant": false,
      "inputs": [
        {
          "name": "to",
          "type": "address"
        },
        {
          "name": "value",
          "type": "uint256"
        }
      ],
      "name": "transfer",
      "outputs": [
        {
          "name": "",
          "type": "bool"
        }
      ],
      "payable": false,
      "stateMutability": "nonpayable",
      "type": "function"
    },
    {
      "constant": false,
      "inputs": [
        {
          "name": "_to",
          "type": "address"
        },
        {
          "name": "value",
          "type": "uint256"
        }
      ],
      "name": "increaseApproval",
      "outputs": [
        {
          "name": "",
          "type": "bool"
        }
      ],
      "payable": false,
      "stateMutability": "nonpayable",
      "type": "function"
    },
    {
      "constant": true,
      "inputs": [
        {
          "name": "_owner",
          "type": "address"
        },
        {
          "name": "_to",
          "type": "address"
        }
      ],
      "name": "allowance",
      "outputs": [
        {
          "name": "",
          "type": "uint256"
        }
      ],
      "payable": false,
      "stateMutability": "view",
      "type": "function"
    },
    {
      "inputs": [],
      "payable": false,
      "stateMutability": "nonpayable",
      "type": "constructor"
    },
    {
      "payable": true,
      "stateMutability": "payable",
      "type": "fallback"
    },
    {
      "anonymous": false,
      "inputs": [
        {
          "indexed": true,
          "name": "from",
          "type": "address"
        },
        {
          "indexed": true,
          "name": "to",
          "type": "address"
        },
        {
          "indexed": false,
          "name": "value",
          "type": "uint256"
        }
      ],
      "name": "Transfer",
      "type": "event"
    },
    {
      "constant": false,
      "inputs": [],
      "name": "PortfolioReg",
      "outputs": [],
      "payable": true,
      "stateMutability": "payable",
      "type": "function"
    },
    {
      "constant": true,
      "inputs": [],
      "name": "GetBal",
      "outputs": [
        {
          "name": "",
          "type": "uint256"
        }
      ],
      "payable": false,
      "stateMutability": "view",
      "type": "function"
    },
    {
      "constant": true,
      "inputs": [],
      "name": "getContractaddress",
      "outputs": [
        {
          "name": "",
          "type": "address"
        }
      ],
      "payable": false,
      "stateMutability": "view",
      "type": "function"
    },
    {
      "constant": false,
      "inputs": [],
      "name": "getTokens",
      "outputs": [],
      "payable": true,
      "stateMutability": "payable",
      "type": "function"
    },
    {
      "constant": true,
      "inputs": [],
      "name": "getBalance",
      "outputs": [
        {
          "name": "",
          "type": "uint256"
        }
      ],
      "payable": false,
      "stateMutability": "view",
      "type": "function"
    }
  ],
  "bytecode": "0x60606040526040805190810160405280600981526020017f546f6b656e20312e30000000000000000000000000000000000000000000000081525060009080519060200190620000519291906200023e565b5066038d7ea4c68000600b55662386f26fc10000600c556064600d5534156200007957600080fd5b612710600381905550600354600760003373ffffffffffffffffffffffffffffffffffffffff1673ffffffffffffffffffffffffffffffffffffffff168152602001908152602001600020819055506040805190810160405280600381526020017f445458000000000000000000000000000000000000000000000000000000000081525060029080519060200190620001159291906200023e565b506040805190810160405280600c81526020017f446f7374726978546f6b656e000000000000000000000000000000000000000081525060019080519060200190620001639291906200023e565b506101f4600481905550600060058190555033600660006101000a81548173ffffffffffffffffffffffffffffffffffffffff021916908373ffffffffffffffffffffffffffffffffffffffff16021790555033600960006101000a81548173ffffffffffffffffffffffffffffffffffffffff021916908373ffffffffffffffffffffffffffffffffffffffff16021790555030600a60006101000a81548173ffffffffffffffffffffffffffffffffffffffff021916908373ffffffffffffffffffffffffffffffffffffffff160217905550620002ed565b828054600181600116156101000203166002900490600052602060002090601f016020900481019282601f106200028157805160ff1916838001178555620002b2565b82800160010185558215620002b2579182015b82811115620002b157825182559160200191906001019062000294565b5b509050620002c19190620002c5565b5090565b620002ea91905b80821115620002e6576000816000905550600101620002cc565b5090565b90565b61160b80620002fd6000396000f300606060405260043610610112576000357c0100000000000000000000000000000000000000000000000000000000900463ffffffff16806306fdde0314610114578063095ea7b3146101a25780630c9548e0146101fc57806312065fe01461027c57806318160ddd146102a557806323b872dd146102ce5780632722271f14610347578063313ce567146103515780635c6581651461037a57806366188463146103e657806370a082311461044057806372dd529b1461048d57806395d89b41146104b65780639e9c5f9114610544578063a9059cbb14610599578063aa6ca808146105f3578063bf8869b5146105fd578063d4691adc14610626578063d73dd6231461067b578063dd62ed3e146106d5575b005b341561011f57600080fd5b610127610741565b6040518080602001828103825283818151815260200191508051906020019080838360005b8381101561016757808201518184015260208101905061014c565b50505050905090810190601f1680156101945780820380516001836020036101000a031916815260200191505b509250505060405180910390f35b34156101ad57600080fd5b6101e2600480803573ffffffffffffffffffffffffffffffffffffffff169060200190919080359060200190919050506107df565b604051808215151515815260200191505060405180910390f35b341561020757600080fd5b610233600480803573ffffffffffffffffffffffffffffffffffffffff1690602001909190505061086c565b604051808373ffffffffffffffffffffffffffffffffffffffff1673ffffffffffffffffffffffffffffffffffffffff1681526020018281526020019250505060405180910390f35b341561028757600080fd5b61028f6108b0565b6040518082815260200191505060405180910390f35b34156102b057600080fd5b6102b8610932565b6040518082815260200191505060405180910390f35b34156102d957600080fd5b61032d600480803573ffffffffffffffffffffffffffffffffffffffff1690602001909190803573ffffffffffffffffffffffffffffffffffffffff1690602001909190803590602001909190505061093c565b604051808215151515815260200191505060405180910390f35b61034f610ab8565b005b341561035c57600080fd5b610364610bce565b6040518082815260200191505060405180910390f35b341561038557600080fd5b6103d0600480803573ffffffffffffffffffffffffffffffffffffffff1690602001909190803573ffffffffffffffffffffffffffffffffffffffff16906020019091905050610bd4565b6040518082815260200191505060405180910390f35b34156103f157600080fd5b610426600480803573ffffffffffffffffffffffffffffffffffffffff16906020019091908035906020019091905050610bf9565b604051808215151515815260200191505060405180910390f35b341561044b57600080fd5b610477600480803573ffffffffffffffffffffffffffffffffffffffff16906020019091905050610d04565b6040518082815260200191505060405180910390f35b341561049857600080fd5b6104a0610d4d565b6040518082815260200191505060405180910390f35b34156104c157600080fd5b6104c9610d53565b6040518080602001828103825283818151815260200191508051906020019080838360005b838110156105095780820151818401526020810190506104ee565b50505050905090810190601f1680156105365780820380516001836020036101000a031916815260200191505b509250505060405180910390f35b341561054f57600080fd5b610557610df1565b604051808273ffffffffffffffffffffffffffffffffffffffff1673ffffffffffffffffffffffffffffffffffffffff16815260200191505060405180910390f35b34156105a457600080fd5b6105d9600480803573ffffffffffffffffffffffffffffffffffffffff16906020019091908035906020019091905050610e17565b604051808215151515815260200191505060405180910390f35b6105fb610fe0565b005b341561060857600080fd5b610610611253565b6040518082815260200191505060405180910390f35b341561063157600080fd5b610639611285565b604051808273ffffffffffffffffffffffffffffffffffffffff1673ffffffffffffffffffffffffffffffffffffffff16815260200191505060405180910390f35b341561068657600080fd5b6106bb600480803573ffffffffffffffffffffffffffffffffffffffff169060200190919080359060200190919050506112af565b604051808215151515815260200191505060405180910390f35b34156106e057600080fd5b61072b600480803573ffffffffffffffffffffffffffffffffffffffff1690602001909190803573ffffffffffffffffffffffffffffffffffffffff169060200190919050506113ba565b6040518082815260200191505060405180910390f35b60018054600181600116156101000203166002900480601f0160208091040260200160405190810160405280929190818152602001828054600181600116156101000203166002900480156107d75780601f106107ac576101008083540402835291602001916107d7565b820191906000526020600020905b8154815290600101906020018083116107ba57829003601f168201915b505050505081565b600081600860003373ffffffffffffffffffffffffffffffffffffffff1673ffffffffffffffffffffffffffffffffffffffff16815260200190815260200160002060008573ffffffffffffffffffffffffffffffffffffffff1673ffffffffffffffffffffffffffffffffffffffff168152602001908152602001600020819055506001905092915050565b60106020528060005260406000206000915090508060000160009054906101000a900473ffffffffffffffffffffffffffffffffffffffff16908060010154905082565b600060076000600f60008154811015156108c657fe5b906000526020600020900160009054906101000a900473ffffffffffffffffffffffffffffffffffffffff1673ffffffffffffffffffffffffffffffffffffffff1673ffffffffffffffffffffffffffffffffffffffff16815260200190815260200160002054905090565b6000600354905090565b600081600760008673ffffffffffffffffffffffffffffffffffffffff1673ffffffffffffffffffffffffffffffffffffffff1681526020019081526020016000205403600760008673ffffffffffffffffffffffffffffffffffffffff1673ffffffffffffffffffffffffffffffffffffffff1681526020019081526020016000208190555081600760008573ffffffffffffffffffffffffffffffffffffffff1673ffffffffffffffffffffffffffffffffffffffff1681526020019081526020016000205401600760008573ffffffffffffffffffffffffffffffffffffffff1673ffffffffffffffffffffffffffffffffffffffff168152602001908152602001600020819055508273ffffffffffffffffffffffffffffffffffffffff168473ffffffffffffffffffffffffffffffffffffffff167fddf252ad1be2c89b69c2b068fc378daa952ba7f163c4a11628f55a4df523b3ef846040518082815260200191505060405180910390a3600190509392505050565b33601060003373ffffffffffffffffffffffffffffffffffffffff1673ffffffffffffffffffffffffffffffffffffffff16815260200190815260200160002060000160006101000a81548173ffffffffffffffffffffffffffffffffffffffff021916908373ffffffffffffffffffffffffffffffffffffffff16021790555034601060003373ffffffffffffffffffffffffffffffffffffffff1673ffffffffffffffffffffffffffffffffffffffff1681526020019081526020016000206001015401601060003373ffffffffffffffffffffffffffffffffffffffff1673ffffffffffffffffffffffffffffffffffffffff16815260200190815260200160002060010181905550610bcc611441565b565b60055481565b6008602052816000526040600020602052806000526040600020600091509150505481565b600081600860003373ffffffffffffffffffffffffffffffffffffffff1673ffffffffffffffffffffffffffffffffffffffff16815260200190815260200160002060008573ffffffffffffffffffffffffffffffffffffffff1673ffffffffffffffffffffffffffffffffffffffff1681526020019081526020016000205403600860003373ffffffffffffffffffffffffffffffffffffffff1673ffffffffffffffffffffffffffffffffffffffff16815260200190815260200160002060008573ffffffffffffffffffffffffffffffffffffffff1673ffffffffffffffffffffffffffffffffffffffff168152602001908152602001600020819055506001905092915050565b6000600760008373ffffffffffffffffffffffffffffffffffffffff1673ffffffffffffffffffffffffffffffffffffffff168152602001908152602001600020549050919050565b60035481565b60028054600181600116156101000203166002900480601f016020809104026020016040519081016040528092919081815260200182805460018160011615610100020316600290048015610de95780601f10610dbe57610100808354040283529160200191610de9565b820191906000526020600020905b815481529060010190602001808311610dcc57829003601f168201915b505050505081565b600a60009054906101000a900473ffffffffffffffffffffffffffffffffffffffff1681565b6000600760003373ffffffffffffffffffffffffffffffffffffffff1673ffffffffffffffffffffffffffffffffffffffff168152602001908152602001600020548211151515610e6757600080fd5b81600760003373ffffffffffffffffffffffffffffffffffffffff1673ffffffffffffffffffffffffffffffffffffffff1681526020019081526020016000205403600760003373ffffffffffffffffffffffffffffffffffffffff1673ffffffffffffffffffffffffffffffffffffffff1681526020019081526020016000208190555081600760008573ffffffffffffffffffffffffffffffffffffffff1673ffffffffffffffffffffffffffffffffffffffff1681526020019081526020016000205401600760008573ffffffffffffffffffffffffffffffffffffffff1673ffffffffffffffffffffffffffffffffffffffff168152602001908152602001600020819055508273ffffffffffffffffffffffffffffffffffffffff163373ffffffffffffffffffffffffffffffffffffffff167fddf252ad1be2c89b69c2b068fc378daa952ba7f163c4a11628f55a4df523b3ef846040518082815260200191505060405180910390a36001905092915050565b6000600c5434811515610fef57fe5b04905080600760003373ffffffffffffffffffffffffffffffffffffffff1673ffffffffffffffffffffffffffffffffffffffff1681526020019081526020016000205401600760003373ffffffffffffffffffffffffffffffffffffffff1673ffffffffffffffffffffffffffffffffffffffff168152602001908152602001600020819055508060076000600e600081548110151561108c57fe5b906000526020600020900160009054906101000a900473ffffffffffffffffffffffffffffffffffffffff1673ffffffffffffffffffffffffffffffffffffffff1673ffffffffffffffffffffffffffffffffffffffff168152602001908152602001600020540360076000600e600081548110151561110857fe5b906000526020600020900160009054906101000a900473ffffffffffffffffffffffffffffffffffffffff1673ffffffffffffffffffffffffffffffffffffffff1673ffffffffffffffffffffffffffffffffffffffff16815260200190815260200160002081905550600e600081548110151561118257fe5b906000526020600020900160009054906101000a900473ffffffffffffffffffffffffffffffffffffffff1673ffffffffffffffffffffffffffffffffffffffff166108fc349081150290604051600060405180830381858888f1935050505015156111ed57600080fd5b600f8054806001018281611201919061158e565b9160005260206000209001600033909190916101000a81548173ffffffffffffffffffffffffffffffffffffffff021916908373ffffffffffffffffffffffffffffffffffffffff1602179055505050565b6000670de0b6b3a76400003073ffffffffffffffffffffffffffffffffffffffff163181151561127f57fe5b04905090565b6000600a60009054906101000a900473ffffffffffffffffffffffffffffffffffffffff16905090565b600081600860003373ffffffffffffffffffffffffffffffffffffffff1673ffffffffffffffffffffffffffffffffffffffff16815260200190815260200160002060008573ffffffffffffffffffffffffffffffffffffffff1673ffffffffffffffffffffffffffffffffffffffff1681526020019081526020016000205401600860003373ffffffffffffffffffffffffffffffffffffffff1673ffffffffffffffffffffffffffffffffffffffff16815260200190815260200160002060008573ffffffffffffffffffffffffffffffffffffffff1673ffffffffffffffffffffffffffffffffffffffff168152602001908152602001600020819055506001905092915050565b6000600860008473ffffffffffffffffffffffffffffffffffffffff1673ffffffffffffffffffffffffffffffffffffffff16815260200190815260200160002060008373ffffffffffffffffffffffffffffffffffffffff1673ffffffffffffffffffffffffffffffffffffffff16815260200190815260200160002054905092915050565b6000600b543481151561145057fe5b04905080600760003373ffffffffffffffffffffffffffffffffffffffff1673ffffffffffffffffffffffffffffffffffffffff1681526020019081526020016000205401600760003373ffffffffffffffffffffffffffffffffffffffff1673ffffffffffffffffffffffffffffffffffffffff168152602001908152602001600020819055503373ffffffffffffffffffffffffffffffffffffffff1660007fddf252ad1be2c89b69c2b068fc378daa952ba7f163c4a11628f55a4df523b3ef346040518082815260200191505060405180910390a3600e805480600101828161153c919061158e565b9160005260206000209001600033909190916101000a81548173ffffffffffffffffffffffffffffffffffffffff021916908373ffffffffffffffffffffffffffffffffffffffff1602179055505050565b8154818355818115116115b5578183600052602060002091820191016115b491906115ba565b5b505050565b6115dc91905b808211156115d85760008160009055506001016115c0565b5090565b905600a165627a7a72305820adedea3e56adcd049c780a76911eec95b236276bc61986e6518f938015c232d30029",
  "source": "pragma solidity ^0.4.18;\r\n\r\nimport \"./FundToken.sol\";\r\n\r\n\r\ncontract DMF is FundToken{\r\n    \r\n                            //Global Variable Declaration part\r\n\r\n        address owner; //owner variable for assigning contract Owner\r\n        address public newadd; //For getting the Contract Address\r\n        uint256 rate = 0.001 ether; //rate of Fundtoken For PortfolioManager\r\n        uint256 cost = 0.01 ether;  //rate of FundToken For Investors\r\n        uint256 dividendTK = 100; //divident tokens count for give the profit to Investor\r\n        \r\n    //ArrayList\r\n     address[] portfolioMAdd; //Array for storing the each register PortfolioManager\r\n     address[] Investor; //Array for storing the each register Investors\r\n   \r\n    //Phase -2\r\n                            //Structure Area\r\n\r\n\r\n     //Structure For PortfolioManager Details\r\n            struct PortfolioMFTK\r\n            {\r\n                address portfolioM;\r\n                //address contractAdd;\r\n                uint256 Eth;\r\n            }\r\n    //Structure For Investor Details  \r\n            struct InvestorPTk\r\n            {\r\n                address buyer;\r\n                uint256 Eth;\r\n                uint256 howTK;\r\n            }\r\n\r\n    //Constructor For initialize the contract Owner Address and Contract Deployed Address\r\n            function DMF()public{\r\n                owner=msg.sender;\r\n                newadd=address(this);\r\n                \r\n            }\r\n       \r\n           \r\n                             //Mapping Area\r\n\r\n      mapping(address => PortfolioMFTK) public BuyTK; //Map for getting and storing the PortfolioManager resgistration Details\r\n      \r\n      //Fallback Function For Holding the Ether in Contract\r\n      function () public payable{\r\n          \r\n      }\r\n      \r\n\r\n                                //Function Area\r\n        //Function For PortfolioManager Resgistration\r\n        function PortfolioReg() public payable{\r\n            BuyTK[msg.sender].portfolioM= msg.sender;\r\n            BuyTK[msg.sender].Eth=BuyTK[msg.sender].Eth + msg.value;\r\n         \r\n            GetFundToken();\r\n        }\r\n\r\n        //Function For Getting the Fundtokens by the PortfolioManager\r\n         function GetFundToken() private{\r\n            uint256 tokens = msg.value / rate;\r\n            balanceOf[msg.sender] = balanceOf[msg.sender] + tokens;\r\n            Transfer(0,msg.sender,msg.value);\r\n            portfolioMAdd.push(msg.sender);\r\n         }\r\n\r\n        //Function For Getting the Contract Ether Balance \r\n      function GetBal()public view returns(uint256){\r\n          return this.balance/ 1 ether; //converting wei value to ether\r\n      }\r\n      \r\n\r\n      //Function For Getting the Contract Address\r\n      function getContractaddress() public view returns(address)\r\n      {\r\n          return newadd;\r\n      }\r\n      \r\n      \r\n      //Phase-3\r\n\r\n      //Function For Buying the FundTokens by the Investor From the PortfolioManager\r\n      function getTokens() public payable\r\n      {\r\n          uint256 tokens = msg.value / cost;\r\n          balanceOf[msg.sender] = balanceOf[msg.sender] + tokens;\r\n          balanceOf[portfolioMAdd[0]] = balanceOf[portfolioMAdd[0]] - tokens;\r\n          portfolioMAdd[0].transfer(msg.value);\r\n          Investor.push(msg.sender);\r\n      }\r\n    \r\n\r\n    //Phase-4\r\n\r\n\r\n    //Function For Getting the Investor Balance of Tokens\r\n    function getBalance() public view returns(uint256)\r\n    {\r\n        return balanceOf[Investor[0]];\r\n    }\r\n\r\n    //Phase-5\r\n\r\n    \r\n\r\n   \r\n}",
  "sourcePath": "C:\\Users\\Balavignesh.0856\\Desktop\\GREEN\\Mutual-Funds\\contracts\\DMF.sol",
  "compiler": {
    "name": "solc",
    "version": "0.4.19+commit.c4cbbb05.Emscripten.clang"
  },
  "schemaVersion": "2.0.0",
  "updatedAt": "2018-03-30T05:05:17.027Z"
}