{
  "contractName": "DMF",
  "abi": [
    {
      "constant": true,
      "inputs": [],
      "name": "etherCalculation",
      "outputs": [
        {
          "name": "",
          "type": "uint256"
        }
      ],
      "payable": false,
      "stateMutability": "view",
      "type": "function"
    },
    {
      "constant": true,
      "inputs": [],
      "name": "takecommission",
      "outputs": [
        {
          "name": "",
          "type": "uint256"
        }
      ],
      "payable": false,
      "stateMutability": "view",
      "type": "function"
    },
    {
      "constant": true,
      "inputs": [],
      "name": "TR",
      "outputs": [
        {
          "name": "",
          "type": "uint256"
        }
      ],
      "payable": false,
      "stateMutability": "view",
      "type": "function"
    },
    {
      "constant": true,
      "inputs": [
        {
          "name": "",
          "type": "uint256"
        }
      ],
      "name": "TotalInvestorAddress",
      "outputs": [
        {
          "name": "",
          "type": "address"
        }
      ],
      "payable": false,
      "stateMutability": "view",
      "type": "function"
    },
    {
      "constant": true,
      "inputs": [],
      "name": "InvestersTotalToken",
      "outputs": [
        {
          "name": "",
          "type": "uint256"
        }
      ],
      "payable": false,
      "stateMutability": "view",
      "type": "function"
    },
    {
      "constant": true,
      "inputs": [],
      "name": "calculations",
      "outputs": [
        {
          "name": "",
          "type": "uint256"
        }
      ],
      "payable": false,
      "stateMutability": "view",
      "type": "function"
    },
    {
      "constant": true,
      "inputs": [
        {
          "name": "",
          "type": "uint256"
        }
      ],
      "name": "ToatlportfolioMAddress",
      "outputs": [
        {
          "name": "",
          "type": "address"
        }
      ],
      "payable": false,
      "stateMutability": "view",
      "type": "function"
    },
    {
      "constant": true,
      "inputs": [],
      "name": "commissionForDmf",
      "outputs": [
        {
          "name": "",
          "type": "uint256"
        }
      ],
      "payable": false,
      "stateMutability": "view",
      "type": "function"
    },
    {
      "constant": true,
      "inputs": [],
      "name": "Pendingreturnaddress",
      "outputs": [
        {
          "name": "",
          "type": "address"
        }
      ],
      "payable": false,
      "stateMutability": "view",
      "type": "function"
    },
    {
      "constant": true,
      "inputs": [
        {
          "name": "",
          "type": "address"
        },
        {
          "name": "",
          "type": "address"
        }
      ],
      "name": "invester",
      "outputs": [
        {
          "name": "buyer",
          "type": "address"
        },
        {
          "name": "Eth",
          "type": "uint256"
        },
        {
          "name": "TokenCount",
          "type": "uint256"
        }
      ],
      "payable": false,
      "stateMutability": "view",
      "type": "function"
    },
    {
      "constant": true,
      "inputs": [],
      "name": "m2",
      "outputs": [
        {
          "name": "",
          "type": "address"
        }
      ],
      "payable": false,
      "stateMutability": "view",
      "type": "function"
    },
    {
      "constant": true,
      "inputs": [],
      "name": "PortfolioManagerprofit",
      "outputs": [
        {
          "name": "",
          "type": "uint256"
        }
      ],
      "payable": false,
      "stateMutability": "view",
      "type": "function"
    },
    {
      "constant": true,
      "inputs": [],
      "name": "newadd",
      "outputs": [
        {
          "name": "",
          "type": "address"
        }
      ],
      "payable": false,
      "stateMutability": "view",
      "type": "function"
    },
    {
      "constant": true,
      "inputs": [],
      "name": "m1",
      "outputs": [
        {
          "name": "",
          "type": "address"
        }
      ],
      "payable": false,
      "stateMutability": "view",
      "type": "function"
    },
    {
      "constant": true,
      "inputs": [
        {
          "name": "",
          "type": "address"
        }
      ],
      "name": "PM_soldTK_Ether",
      "outputs": [
        {
          "name": "",
          "type": "uint256"
        }
      ],
      "payable": false,
      "stateMutability": "view",
      "type": "function"
    },
    {
      "constant": true,
      "inputs": [],
      "name": "Token",
      "outputs": [
        {
          "name": "",
          "type": "address"
        }
      ],
      "payable": false,
      "stateMutability": "view",
      "type": "function"
    },
    {
      "constant": true,
      "inputs": [
        {
          "name": "",
          "type": "address"
        }
      ],
      "name": "Portfolio",
      "outputs": [
        {
          "name": "portfolioM",
          "type": "address"
        },
        {
          "name": "Eth",
          "type": "uint256"
        },
        {
          "name": "tokenName",
          "type": "string"
        },
        {
          "name": "count1",
          "type": "uint256"
        },
        {
          "name": "count2",
          "type": "uint256"
        },
        {
          "name": "commissionForPortfolio",
          "type": "uint256"
        }
      ],
      "payable": false,
      "stateMutability": "view",
      "type": "function"
    },
    {
      "constant": true,
      "inputs": [
        {
          "name": "",
          "type": "address"
        },
        {
          "name": "",
          "type": "address"
        }
      ],
      "name": "Market",
      "outputs": [
        {
          "name": "contractAdd",
          "type": "address"
        },
        {
          "name": "name",
          "type": "string"
        },
        {
          "name": "symbol",
          "type": "string"
        },
        {
          "name": "decimal",
          "type": "uint256"
        },
        {
          "name": "totalbuycount",
          "type": "uint256"
        }
      ],
      "payable": false,
      "stateMutability": "view",
      "type": "function"
    },
    {
      "inputs": [
        {
          "name": "na",
          "type": "address"
        },
        {
          "name": "Mark1",
          "type": "address"
        },
        {
          "name": "Mark2",
          "type": "address"
        }
      ],
      "payable": true,
      "stateMutability": "payable",
      "type": "constructor"
    },
    {
      "constant": false,
      "inputs": [],
      "name": "PortfolioReg",
      "outputs": [],
      "payable": true,
      "stateMutability": "payable",
      "type": "function"
    },
    {
      "constant": true,
      "inputs": [],
      "name": "GetBal",
      "outputs": [
        {
          "name": "",
          "type": "uint256"
        }
      ],
      "payable": false,
      "stateMutability": "view",
      "type": "function"
    },
    {
      "constant": true,
      "inputs": [],
      "name": "getContractaddress",
      "outputs": [
        {
          "name": "",
          "type": "address"
        }
      ],
      "payable": false,
      "stateMutability": "view",
      "type": "function"
    },
    {
      "constant": false,
      "inputs": [
        {
          "name": "_add_",
          "type": "address"
        }
      ],
      "name": "InvesterGetToken",
      "outputs": [],
      "payable": true,
      "stateMutability": "payable",
      "type": "function"
    },
    {
      "constant": true,
      "inputs": [],
      "name": "getBalance",
      "outputs": [
        {
          "name": "",
          "type": "uint256"
        }
      ],
      "payable": false,
      "stateMutability": "view",
      "type": "function"
    },
    {
      "constant": false,
      "inputs": [],
      "name": "Dividends",
      "outputs": [],
      "payable": false,
      "stateMutability": "nonpayable",
      "type": "function"
    },
    {
      "constant": true,
      "inputs": [],
      "name": "getAllBalance",
      "outputs": [
        {
          "name": "",
          "type": "uint256"
        }
      ],
      "payable": false,
      "stateMutability": "view",
      "type": "function"
    },
    {
      "constant": false,
      "inputs": [
        {
          "name": "_add_",
          "type": "address"
        },
        {
          "name": "value",
          "type": "uint256"
        }
      ],
      "name": "ReturnTokenToPortfolioManager",
      "outputs": [],
      "payable": true,
      "stateMutability": "payable",
      "type": "function"
    },
    {
      "constant": true,
      "inputs": [],
      "name": "PortfolioManagerList",
      "outputs": [
        {
          "name": "",
          "type": "address"
        }
      ],
      "payable": false,
      "stateMutability": "view",
      "type": "function"
    },
    {
      "constant": false,
      "inputs": [
        {
          "name": "_contractadd",
          "type": "address"
        },
        {
          "name": "_name",
          "type": "string"
        },
        {
          "name": "_symbol",
          "type": "string"
        },
        {
          "name": "_totacount",
          "type": "uint256"
        }
      ],
      "name": "PurchasingMarket1token",
      "outputs": [],
      "payable": false,
      "stateMutability": "nonpayable",
      "type": "function"
    },
    {
      "constant": false,
      "inputs": [
        {
          "name": "_contractadd",
          "type": "address"
        },
        {
          "name": "_name",
          "type": "string"
        },
        {
          "name": "_symbol",
          "type": "string"
        },
        {
          "name": "_totacount",
          "type": "uint256"
        }
      ],
      "name": "PurchasingMarket2token",
      "outputs": [],
      "payable": false,
      "stateMutability": "nonpayable",
      "type": "function"
    },
    {
      "constant": true,
      "inputs": [],
      "name": "DisplayPurchasedTKCount",
      "outputs": [
        {
          "name": "",
          "type": "uint256"
        }
      ],
      "payable": false,
      "stateMutability": "view",
      "type": "function"
    },
    {
      "constant": true,
      "inputs": [],
      "name": "DisplayPurchasedTK1",
      "outputs": [
        {
          "name": "",
          "type": "address"
        },
        {
          "name": "",
          "type": "string"
        },
        {
          "name": "",
          "type": "string"
        },
        {
          "name": "",
          "type": "uint256"
        },
        {
          "name": "",
          "type": "uint256"
        }
      ],
      "payable": false,
      "stateMutability": "view",
      "type": "function"
    },
    {
      "constant": true,
      "inputs": [],
      "name": "DisplayPurchasedTK2",
      "outputs": [
        {
          "name": "",
          "type": "address"
        },
        {
          "name": "",
          "type": "string"
        },
        {
          "name": "",
          "type": "string"
        },
        {
          "name": "",
          "type": "uint256"
        },
        {
          "name": "",
          "type": "uint256"
        }
      ],
      "payable": false,
      "stateMutability": "view",
      "type": "function"
    },
    {
      "constant": true,
      "inputs": [
        {
          "name": "a",
          "type": "address"
        }
      ],
      "name": "listOfPortfolioManager",
      "outputs": [
        {
          "name": "",
          "type": "address"
        },
        {
          "name": "",
          "type": "uint256"
        },
        {
          "name": "",
          "type": "uint256"
        },
        {
          "name": "",
          "type": "uint256"
        },
        {
          "name": "",
          "type": "uint256"
        }
      ],
      "payable": false,
      "stateMutability": "view",
      "type": "function"
    },
    {
      "constant": true,
      "inputs": [],
      "name": "Pcount",
      "outputs": [
        {
          "name": "",
          "type": "uint256"
        }
      ],
      "payable": false,
      "stateMutability": "view",
      "type": "function"
    },
    {
      "constant": true,
      "inputs": [
        {
          "name": "a",
          "type": "uint256"
        }
      ],
      "name": "getPortfolioAddress",
      "outputs": [
        {
          "name": "",
          "type": "address"
        }
      ],
      "payable": false,
      "stateMutability": "view",
      "type": "function"
    },
    {
      "constant": true,
      "inputs": [
        {
          "name": "a",
          "type": "uint256"
        },
        {
          "name": "a1",
          "type": "uint256"
        }
      ],
      "name": "getInvesterAddress",
      "outputs": [
        {
          "name": "",
          "type": "address"
        },
        {
          "name": "",
          "type": "address"
        }
      ],
      "payable": false,
      "stateMutability": "view",
      "type": "function"
    },
    {
      "constant": true,
      "inputs": [],
      "name": "Icount",
      "outputs": [
        {
          "name": "",
          "type": "uint256"
        }
      ],
      "payable": false,
      "stateMutability": "view",
      "type": "function"
    }
  ],
  "bytecode": "0x606060405266038d7ea4c6800060045567016345785d8a00006005556064600655600a60075560006008556000600955604051606080620056668339810160405280805190602001909190805190602001909190805190602001909190505033601260006101000a81548173ffffffffffffffffffffffffffffffffffffffff021916908373ffffffffffffffffffffffffffffffffffffffff16021790555030601360006101000a81548173ffffffffffffffffffffffffffffffffffffffff021916908373ffffffffffffffffffffffffffffffffffffffff160217905550620000ea620002d2565b604051809103906000f08015156200010157600080fd5b6000806101000a81548173ffffffffffffffffffffffffffffffffffffffff021916908373ffffffffffffffffffffffffffffffffffffffff16021790555082601060006101000a81548173ffffffffffffffffffffffffffffffffffffffff021916908373ffffffffffffffffffffffffffffffffffffffff16021790555081600e60006101000a81548173ffffffffffffffffffffffffffffffffffffffff021916908373ffffffffffffffffffffffffffffffffffffffff16021790555080600f60006101000a81548173ffffffffffffffffffffffffffffffffffffffff021916908373ffffffffffffffffffffffffffffffffffffffff160217905550600f60009054906101000a900473ffffffffffffffffffffffffffffffffffffffff16600260006101000a81548173ffffffffffffffffffffffffffffffffffffffff021916908373ffffffffffffffffffffffffffffffffffffffff160217905550600e60009054906101000a900473ffffffffffffffffffffffffffffffffffffffff16600160006101000a81548173ffffffffffffffffffffffffffffffffffffffff021916908373ffffffffffffffffffffffffffffffffffffffff160217905550505050620002e3565b6040516111c480620044a283390190565b6141af80620002f36000396000f3006060604052600436106101cd576000357c0100000000000000000000000000000000000000000000000000000000900463ffffffff16806308306bb2146101d25780630c593ca1146102355780630d0e242f146102fd57806312065fe014610326578063208345ea1461034f5780632722271f1461037857806331e69acb1461038257806334133df9146103ab57806336c38cc7146103d45780633989d260146104375780633d71473b1461046057806352aa83821461048957806363d751ab146104ec57806367e2ddd7146105155780637691edc41461053e578063822bdca7146106065780638321e9cf146106a55780639074a655146106fa57806391aa69ca146107a0578063971c3428146107f557806398d50eae1461081e5780639e9c5f9114610847578063a77f92ff1461089c578063b759c28e146108f1578063b9392a6014610946578063ba04fa8d14610a81578063bf8869b514610ace578063c241267614610af7578063c53dd11c14610b4c578063c76f1bba14610b83578063d4691adc14610c18578063de85406514610c6d578063e2aa68dd14610d8b578063eb9969a814610ec6578063ed88b05c14610eef578063f15f14c5146110a7578063f93498c4146110bc575b600080fd5b34156101dd57600080fd5b6101f360048080359060200190919050506110ea565b604051808273ffffffffffffffffffffffffffffffffffffffff1673ffffffffffffffffffffffffffffffffffffffff16815260200191505060405180910390f35b341561024057600080fd5b6102fb600480803573ffffffffffffffffffffffffffffffffffffffff1690602001909190803590602001908201803590602001908080601f0160208091040260200160405190810160405280939291908181526020018383808284378201915050505050509190803590602001908201803590602001908080601f0160208091040260200160405190810160405280939291908181526020018383808284378201915050505050509190803590602001909190505061112e565b005b341561030857600080fd5b610310611626565b6040518082815260200191505060405180910390f35b341561033157600080fd5b610339611633565b6040518082815260200191505060405180910390f35b341561035a57600080fd5b610362611755565b6040518082815260200191505060405180910390f35b61038061175b565b005b341561038d57600080fd5b610395611941565b6040518082815260200191505060405180910390f35b34156103b657600080fd5b6103be611947565b6040518082815260200191505060405180910390f35b34156103df57600080fd5b6103f5600480803590602001909190505061194d565b604051808273ffffffffffffffffffffffffffffffffffffffff1673ffffffffffffffffffffffffffffffffffffffff16815260200191505060405180910390f35b341561044257600080fd5b61044a61198c565b6040518082815260200191505060405180910390f35b341561046b57600080fd5b610473611992565b6040518082815260200191505060405180910390f35b341561049457600080fd5b6104aa6004808035906020019091905050611998565b604051808273ffffffffffffffffffffffffffffffffffffffff1673ffffffffffffffffffffffffffffffffffffffff16815260200191505060405180910390f35b34156104f757600080fd5b6104ff6119d7565b6040518082815260200191505060405180910390f35b341561052057600080fd5b610528611bf3565b6040518082815260200191505060405180910390f35b341561054957600080fd5b610604600480803573ffffffffffffffffffffffffffffffffffffffff1690602001909190803590602001908201803590602001908080601f0160208091040260200160405190810160405280939291908181526020018383808284378201915050505050509190803590602001908201803590602001908080601f01602080910402602001604051908101604052809392919081815260200183838082843782019150505050505091908035906020019091905050611bf9565b005b341561061157600080fd5b61063060048080359060200190919080359060200190919050506120f1565b604051808373ffffffffffffffffffffffffffffffffffffffff1673ffffffffffffffffffffffffffffffffffffffff1681526020018273ffffffffffffffffffffffffffffffffffffffff1673ffffffffffffffffffffffffffffffffffffffff1681526020019250505060405180910390f35b34156106b057600080fd5b6106b8612175565b604051808273ffffffffffffffffffffffffffffffffffffffff1673ffffffffffffffffffffffffffffffffffffffff16815260200191505060405180910390f35b341561070557600080fd5b610750600480803573ffffffffffffffffffffffffffffffffffffffff1690602001909190803573ffffffffffffffffffffffffffffffffffffffff1690602001909190505061219b565b604051808473ffffffffffffffffffffffffffffffffffffffff1673ffffffffffffffffffffffffffffffffffffffff168152602001838152602001828152602001935050505060405180910390f35b34156107ab57600080fd5b6107b36121f2565b604051808273ffffffffffffffffffffffffffffffffffffffff1673ffffffffffffffffffffffffffffffffffffffff16815260200191505060405180910390f35b341561080057600080fd5b610808612218565b6040518082815260200191505060405180910390f35b341561082957600080fd5b61083161221e565b6040518082815260200191505060405180910390f35b341561085257600080fd5b61085a61222b565b604051808273ffffffffffffffffffffffffffffffffffffffff1673ffffffffffffffffffffffffffffffffffffffff16815260200191505060405180910390f35b34156108a757600080fd5b6108af612251565b604051808273ffffffffffffffffffffffffffffffffffffffff1673ffffffffffffffffffffffffffffffffffffffff16815260200191505060405180910390f35b34156108fc57600080fd5b610904612277565b604051808273ffffffffffffffffffffffffffffffffffffffff1673ffffffffffffffffffffffffffffffffffffffff16815260200191505060405180910390f35b341561095157600080fd5b6109596122d2565b604051808673ffffffffffffffffffffffffffffffffffffffff1673ffffffffffffffffffffffffffffffffffffffff1681526020018060200180602001858152602001848152602001838103835287818151815260200191508051906020019080838360005b838110156109db5780820151818401526020810190506109c0565b50505050905090810190601f168015610a085780820380516001836020036101000a031916815260200191505b50838103825286818151815260200191508051906020019080838360005b83811015610a41578082015181840152602081019050610a26565b50505050905090810190601f168015610a6e5780820380516001836020036101000a031916815260200191505b5097505050505050505060405180910390f35b3415610a8c57600080fd5b610ab8600480803573ffffffffffffffffffffffffffffffffffffffff169060200190919050506126ef565b6040518082815260200191505060405180910390f35b3415610ad957600080fd5b610ae1612707565b6040518082815260200191505060405180910390f35b3415610b0257600080fd5b610b0a612739565b604051808273ffffffffffffffffffffffffffffffffffffffff1673ffffffffffffffffffffffffffffffffffffffff16815260200191505060405180910390f35b610b81600480803573ffffffffffffffffffffffffffffffffffffffff1690602001909190803590602001909190505061275e565b005b3415610b8e57600080fd5b610bba600480803573ffffffffffffffffffffffffffffffffffffffff16906020019091905050612bb4565b604051808673ffffffffffffffffffffffffffffffffffffffff1673ffffffffffffffffffffffffffffffffffffffff1681526020018581526020018481526020018381526020018281526020019550505050505060405180910390f35b3415610c2357600080fd5b610c2b612e98565b604051808273ffffffffffffffffffffffffffffffffffffffff1673ffffffffffffffffffffffffffffffffffffffff16815260200191505060405180910390f35b3415610c7857600080fd5b610ca4600480803573ffffffffffffffffffffffffffffffffffffffff16906020019091905050612ec2565b604051808773ffffffffffffffffffffffffffffffffffffffff1673ffffffffffffffffffffffffffffffffffffffff16815260200186815260200180602001858152602001848152602001838152602001828103825286818154600181600116156101000203166002900481526020019150805460018160011615610100020316600290048015610d775780601f10610d4c57610100808354040283529160200191610d77565b820191906000526020600020905b815481529060010190602001808311610d5a57829003601f168201915b505097505050505050505060405180910390f35b3415610d9657600080fd5b610d9e612f1d565b604051808673ffffffffffffffffffffffffffffffffffffffff1673ffffffffffffffffffffffffffffffffffffffff1681526020018060200180602001858152602001848152602001838103835287818151815260200191508051906020019080838360005b83811015610e20578082015181840152602081019050610e05565b50505050905090810190601f168015610e4d5780820380516001836020036101000a031916815260200191505b50838103825286818151815260200191508051906020019080838360005b83811015610e86578082015181840152602081019050610e6b565b50505050905090810190601f168015610eb35780820380516001836020036101000a031916815260200191505b5097505050505050505060405180910390f35b3415610ed157600080fd5b610ed961333a565b6040518082815260200191505060405180910390f35b3415610efa57600080fd5b610f45600480803573ffffffffffffffffffffffffffffffffffffffff1690602001909190803573ffffffffffffffffffffffffffffffffffffffff16906020019091905050613421565b604051808673ffffffffffffffffffffffffffffffffffffffff1673ffffffffffffffffffffffffffffffffffffffff16815260200180602001806020018581526020018481526020018381038352878181546001816001161561010002031660029004815260200191508054600181600116156101000203166002900480156110105780601f10610fe557610100808354040283529160200191611010565b820191906000526020600020905b815481529060010190602001808311610ff357829003601f168201915b50508381038252868181546001816001161561010002031660029004815260200191508054600181600116156101000203166002900480156110935780601f1061106857610100808354040283529160200191611093565b820191906000526020600020905b81548152906001019060200180831161107657829003601f168201915b505097505050505050505060405180910390f35b34156110b257600080fd5b6110ba613482565b005b6110e8600480803573ffffffffffffffffffffffffffffffffffffffff16906020019091905050613658565b005b60006014828154811015156110fb57fe5b906000526020600020900160009054906101000a900473ffffffffffffffffffffffffffffffffffffffff169050919050565b6000806000601960003373ffffffffffffffffffffffffffffffffffffffff1673ffffffffffffffffffffffffffffffffffffffff16815260200190815260200160002054925067016345785d8a000084029150670de0b6b3a76400008281151561119557fe5b04600b81905550600b54831115156111ac57600080fd5b600e60009054906101000a900473ffffffffffffffffffffffffffffffffffffffff1673ffffffffffffffffffffffffffffffffffffffff16622625a083604051600060405180830381858888f193505050505085601860003373ffffffffffffffffffffffffffffffffffffffff1673ffffffffffffffffffffffffffffffffffffffff16815260200190815260200160002060008973ffffffffffffffffffffffffffffffffffffffff1673ffffffffffffffffffffffffffffffffffffffff168152602001908152602001600020600101908051906020019061129392919061409e565b5084601860003373ffffffffffffffffffffffffffffffffffffffff1673ffffffffffffffffffffffffffffffffffffffff16815260200190815260200160002060008973ffffffffffffffffffffffffffffffffffffffff1673ffffffffffffffffffffffffffffffffffffffff168152602001908152602001600020600201908051906020019061132792919061409e565b506000601860003373ffffffffffffffffffffffffffffffffffffffff1673ffffffffffffffffffffffffffffffffffffffff16815260200190815260200160002060008973ffffffffffffffffffffffffffffffffffffffff1673ffffffffffffffffffffffffffffffffffffffff1681526020019081526020016000206003018190555083601860003373ffffffffffffffffffffffffffffffffffffffff1673ffffffffffffffffffffffffffffffffffffffff16815260200190815260200160002060008973ffffffffffffffffffffffffffffffffffffffff1673ffffffffffffffffffffffffffffffffffffffff1681526020019081526020016000206004018190555086601860003373ffffffffffffffffffffffffffffffffffffffff1673ffffffffffffffffffffffffffffffffffffffff16815260200190815260200160002060008973ffffffffffffffffffffffffffffffffffffffff1673ffffffffffffffffffffffffffffffffffffffff16815260200190815260200160002060000160006101000a81548173ffffffffffffffffffffffffffffffffffffffff021916908373ffffffffffffffffffffffffffffffffffffffff16021790555085601660003373ffffffffffffffffffffffffffffffffffffffff1673ffffffffffffffffffffffffffffffffffffffff168152602001908152602001600020600201908051906020019061154592919061409e565b5083601660003373ffffffffffffffffffffffffffffffffffffffff1673ffffffffffffffffffffffffffffffffffffffff16815260200190815260200160002060030181905550600b54601660003373ffffffffffffffffffffffffffffffffffffffff1673ffffffffffffffffffffffffffffffffffffffff1681526020019081526020016000206001015403905080601660003373ffffffffffffffffffffffffffffffffffffffff1673ffffffffffffffffffffffffffffffffffffffff1681526020019081526020016000206001018190555050505050505050565b6000601580549050905090565b6000601060009054906101000a900473ffffffffffffffffffffffffffffffffffffffff1673ffffffffffffffffffffffffffffffffffffffff166370a082316015600081548110151561168357fe5b906000526020600020900160009054906101000a900473ffffffffffffffffffffffffffffffffffffffff166000604051602001526040518263ffffffff167c0100000000000000000000000000000000000000000000000000000000028152600401808273ffffffffffffffffffffffffffffffffffffffff1673ffffffffffffffffffffffffffffffffffffffff168152602001915050602060405180830381600087803b151561173557600080fd5b6102c65a03f1151561174657600080fd5b50505060405180519050905090565b600d5481565b60008060008033601660003373ffffffffffffffffffffffffffffffffffffffff1673ffffffffffffffffffffffffffffffffffffffff16815260200190815260200160002060000160006101000a81548173ffffffffffffffffffffffffffffffffffffffff021916908373ffffffffffffffffffffffffffffffffffffffff160217905550670de0b6b3a7640000348115156117f557fe5b049350600a8402925060648381151561180a57fe5b04915081600a60008282540192505081905550818403905080601660003373ffffffffffffffffffffffffffffffffffffffff1673ffffffffffffffffffffffffffffffffffffffff1681526020019081526020016000206001015401601660003373ffffffffffffffffffffffffffffffffffffffff1673ffffffffffffffffffffffffffffffffffffffff1681526020019081526020016000206001018190555080601960003373ffffffffffffffffffffffffffffffffffffffff1673ffffffffffffffffffffffffffffffffffffffff1681526020019081526020016000205401601960003373ffffffffffffffffffffffffffffffffffffffff1673ffffffffffffffffffffffffffffffffffffffff1681526020019081526020016000208190555061193b34613c67565b50505050565b600a5481565b60035481565b60158181548110151561195c57fe5b90600052602060002090016000915054906101000a900473ffffffffffffffffffffffffffffffffffffffff1681565b60095481565b600b5481565b6014818154811015156119a757fe5b90600052602060002090016000915054906101000a900473ffffffffffffffffffffffffffffffffffffffff1681565b600080600080600e60009054906101000a900473ffffffffffffffffffffffffffffffffffffffff1673ffffffffffffffffffffffffffffffffffffffff1663a773f89f601360009054906101000a900473ffffffffffffffffffffffffffffffffffffffff166000604051602001526040518263ffffffff167c0100000000000000000000000000000000000000000000000000000000028152600401808273ffffffffffffffffffffffffffffffffffffffff1673ffffffffffffffffffffffffffffffffffffffff168152602001915050602060405180830381600087803b1515611ac457600080fd5b6102c65a03f11515611ad557600080fd5b505050604051805190509250600f60009054906101000a900473ffffffffffffffffffffffffffffffffffffffff1673ffffffffffffffffffffffffffffffffffffffff1663a773f89f601360009054906101000a900473ffffffffffffffffffffffffffffffffffffffff166000604051602001526040518263ffffffff167c0100000000000000000000000000000000000000000000000000000000028152600401808273ffffffffffffffffffffffffffffffffffffffff1673ffffffffffffffffffffffffffffffffffffffff168152602001915050602060405180830381600087803b1515611bc857600080fd5b6102c65a03f11515611bd957600080fd5b505050604051805190509150818301905080935050505090565b600c5481565b6000806000601960003373ffffffffffffffffffffffffffffffffffffffff1673ffffffffffffffffffffffffffffffffffffffff16815260200190815260200160002054925067016345785d8a000084029150670de0b6b3a764000082811515611c6057fe5b04600b81905550600b5483111515611c7757600080fd5b600f60009054906101000a900473ffffffffffffffffffffffffffffffffffffffff1673ffffffffffffffffffffffffffffffffffffffff16622625a083604051600060405180830381858888f193505050505085601860003373ffffffffffffffffffffffffffffffffffffffff1673ffffffffffffffffffffffffffffffffffffffff16815260200190815260200160002060008973ffffffffffffffffffffffffffffffffffffffff1673ffffffffffffffffffffffffffffffffffffffff1681526020019081526020016000206001019080519060200190611d5e92919061409e565b5084601860003373ffffffffffffffffffffffffffffffffffffffff1673ffffffffffffffffffffffffffffffffffffffff16815260200190815260200160002060008973ffffffffffffffffffffffffffffffffffffffff1673ffffffffffffffffffffffffffffffffffffffff1681526020019081526020016000206002019080519060200190611df292919061409e565b506000601860003373ffffffffffffffffffffffffffffffffffffffff1673ffffffffffffffffffffffffffffffffffffffff16815260200190815260200160002060008973ffffffffffffffffffffffffffffffffffffffff1673ffffffffffffffffffffffffffffffffffffffff1681526020019081526020016000206003018190555083601860003373ffffffffffffffffffffffffffffffffffffffff1673ffffffffffffffffffffffffffffffffffffffff16815260200190815260200160002060008973ffffffffffffffffffffffffffffffffffffffff1673ffffffffffffffffffffffffffffffffffffffff1681526020019081526020016000206004018190555086601860003373ffffffffffffffffffffffffffffffffffffffff1673ffffffffffffffffffffffffffffffffffffffff16815260200190815260200160002060008973ffffffffffffffffffffffffffffffffffffffff1673ffffffffffffffffffffffffffffffffffffffff16815260200190815260200160002060000160006101000a81548173ffffffffffffffffffffffffffffffffffffffff021916908373ffffffffffffffffffffffffffffffffffffffff16021790555085601660003373ffffffffffffffffffffffffffffffffffffffff1673ffffffffffffffffffffffffffffffffffffffff168152602001908152602001600020600201908051906020019061201092919061409e565b5083601660003373ffffffffffffffffffffffffffffffffffffffff1673ffffffffffffffffffffffffffffffffffffffff16815260200190815260200160002060040181905550600b54601660003373ffffffffffffffffffffffffffffffffffffffff1673ffffffffffffffffffffffffffffffffffffffff1681526020019081526020016000206001015403905080601660003373ffffffffffffffffffffffffffffffffffffffff1673ffffffffffffffffffffffffffffffffffffffff1681526020019081526020016000206001018190555050505050505050565b60008060148481548110151561210357fe5b906000526020600020900160009054906101000a900473ffffffffffffffffffffffffffffffffffffffff1660158481548110151561213e57fe5b906000526020600020900160009054906101000a900473ffffffffffffffffffffffffffffffffffffffff16915091509250929050565b601160009054906101000a900473ffffffffffffffffffffffffffffffffffffffff1681565b6017602052816000526040600020602052806000526040600020600091509150508060000160009054906101000a900473ffffffffffffffffffffffffffffffffffffffff16908060010154908060020154905083565b600f60009054906101000a900473ffffffffffffffffffffffffffffffffffffffff1681565b60085481565b6000601480549050905090565b601360009054906101000a900473ffffffffffffffffffffffffffffffffffffffff1681565b600e60009054906101000a900473ffffffffffffffffffffffffffffffffffffffff1681565b600080600090506014805490508110156122cd5760148181548110151561229a57fe5b906000526020600020900160009054906101000a900473ffffffffffffffffffffffffffffffffffffffff1691506122ce565b5b5090565b60006122dc61411e565b6122e461411e565b600080600080600080601860003373ffffffffffffffffffffffffffffffffffffffff1673ffffffffffffffffffffffffffffffffffffffff1681526020019081526020016000206000600e60009054906101000a900473ffffffffffffffffffffffffffffffffffffffff1673ffffffffffffffffffffffffffffffffffffffff1673ffffffffffffffffffffffffffffffffffffffff1681526020019081526020016000206001019350601860003373ffffffffffffffffffffffffffffffffffffffff1673ffffffffffffffffffffffffffffffffffffffff1681526020019081526020016000206000600e60009054906101000a900473ffffffffffffffffffffffffffffffffffffffff1673ffffffffffffffffffffffffffffffffffffffff1673ffffffffffffffffffffffffffffffffffffffff1681526020019081526020016000206002019250601860003373ffffffffffffffffffffffffffffffffffffffff1673ffffffffffffffffffffffffffffffffffffffff1681526020019081526020016000206000600e60009054906101000a900473ffffffffffffffffffffffffffffffffffffffff1673ffffffffffffffffffffffffffffffffffffffff1673ffffffffffffffffffffffffffffffffffffffff168152602001908152602001600020600301549150601860003373ffffffffffffffffffffffffffffffffffffffff1673ffffffffffffffffffffffffffffffffffffffff1681526020019081526020016000206000600e60009054906101000a900473ffffffffffffffffffffffffffffffffffffffff1673ffffffffffffffffffffffffffffffffffffffff1673ffffffffffffffffffffffffffffffffffffffff168152602001908152602001600020600401549050600e60009054906101000a900473ffffffffffffffffffffffffffffffffffffffff1684848484838054600181600116156101000203166002900480601f0160208091040260200160405190810160405280929190818152602001828054600181600116156101000203166002900480156126375780601f1061260c57610100808354040283529160200191612637565b820191906000526020600020905b81548152906001019060200180831161261a57829003601f168201915b50505050509350828054600181600116156101000203166002900480601f0160208091040260200160405190810160405280929190818152602001828054600181600116156101000203166002900480156126d35780601f106126a8576101008083540402835291602001916126d3565b820191906000526020600020905b8154815290600101906020018083116126b657829003601f168201915b5050505050925098509850985098509850505050509091929394565b60196020528060005260406000206000915090505481565b6000670de0b6b3a76400003073ffffffffffffffffffffffffffffffffffffffff163181151561273357fe5b04905090565b6000809054906101000a900473ffffffffffffffffffffffffffffffffffffffff1681565b600080600080601060009054906101000a900473ffffffffffffffffffffffffffffffffffffffff1673ffffffffffffffffffffffffffffffffffffffff166323b872dd3388886000604051602001526040518463ffffffff167c0100000000000000000000000000000000000000000000000000000000028152600401808473ffffffffffffffffffffffffffffffffffffffff1673ffffffffffffffffffffffffffffffffffffffff1681526020018373ffffffffffffffffffffffffffffffffffffffff1673ffffffffffffffffffffffffffffffffffffffff1681526020018281526020019350505050602060405180830381600087803b151561286557600080fd5b6102c65a03f1151561287657600080fd5b505050604051805190505060055485026003819055506064600a6003540281151561289d57fe5b04600c60008282540192505081905550670de0b6b3a7640000600c548115156128c257fe5b04935083600a600082825401925050819055506064600a600354028115156128e657fe5b04601660008873ffffffffffffffffffffffffffffffffffffffff1673ffffffffffffffffffffffffffffffffffffffff16815260200190815260200160002060050160008282540192505081905550601660008773ffffffffffffffffffffffffffffffffffffffff1673ffffffffffffffffffffffffffffffffffffffff16815260200190815260200160002060050154600c54019250600c5483600354030191508573ffffffffffffffffffffffffffffffffffffffff166108fc601660008973ffffffffffffffffffffffffffffffffffffffff1673ffffffffffffffffffffffffffffffffffffffff168152602001908152602001600020600501549081150290604051600060405180830381858888f193505050501515612a0c57600080fd5b339050601360009054906101000a900473ffffffffffffffffffffffffffffffffffffffff1673ffffffffffffffffffffffffffffffffffffffff16622625a0600c54604051600060405180830381858888f19350505050508073ffffffffffffffffffffffffffffffffffffffff166108fc839081150290604051600060405180830381858888f193505050501515612aa557600080fd5b600354601760003373ffffffffffffffffffffffffffffffffffffffff1673ffffffffffffffffffffffffffffffffffffffff16815260200190815260200160002060008873ffffffffffffffffffffffffffffffffffffffff1673ffffffffffffffffffffffffffffffffffffffff1681526020019081526020016000206001015403601760003373ffffffffffffffffffffffffffffffffffffffff1673ffffffffffffffffffffffffffffffffffffffff16815260200190815260200160002060008873ffffffffffffffffffffffffffffffffffffffff1673ffffffffffffffffffffffffffffffffffffffff16815260200190815260200160002060010181905550505050505050565b600080600080600080600090505b601480549050811015612e8d57601660008873ffffffffffffffffffffffffffffffffffffffff1673ffffffffffffffffffffffffffffffffffffffff16815260200190815260200160002060000160009054906101000a900473ffffffffffffffffffffffffffffffffffffffff1673ffffffffffffffffffffffffffffffffffffffff168773ffffffffffffffffffffffffffffffffffffffff161415612e8057601660008873ffffffffffffffffffffffffffffffffffffffff1673ffffffffffffffffffffffffffffffffffffffff16815260200190815260200160002060000160009054906101000a900473ffffffffffffffffffffffffffffffffffffffff16601660008973ffffffffffffffffffffffffffffffffffffffff1673ffffffffffffffffffffffffffffffffffffffff16815260200190815260200160002060010154601060009054906101000a900473ffffffffffffffffffffffffffffffffffffffff1673ffffffffffffffffffffffffffffffffffffffff166370a082318a6000604051602001526040518263ffffffff167c0100000000000000000000000000000000000000000000000000000000028152600401808273ffffffffffffffffffffffffffffffffffffffff1673ffffffffffffffffffffffffffffffffffffffff168152602001915050602060405180830381600087803b1515612dd057600080fd5b6102c65a03f11515612de157600080fd5b50505060405180519050601660008b73ffffffffffffffffffffffffffffffffffffffff1673ffffffffffffffffffffffffffffffffffffffff16815260200190815260200160002060030154601660008c73ffffffffffffffffffffffffffffffffffffffff1673ffffffffffffffffffffffffffffffffffffffff1681526020019081526020016000206004015495509550955095509550612e8e565b8080600101915050612bc2565b5b5091939590929450565b6000601360009054906101000a900473ffffffffffffffffffffffffffffffffffffffff16905090565b60166020528060005260406000206000915090508060000160009054906101000a900473ffffffffffffffffffffffffffffffffffffffff169080600101549080600201908060030154908060040154908060050154905086565b6000612f2761411e565b612f2f61411e565b600080600080600080601860003373ffffffffffffffffffffffffffffffffffffffff1673ffffffffffffffffffffffffffffffffffffffff1681526020019081526020016000206000600f60009054906101000a900473ffffffffffffffffffffffffffffffffffffffff1673ffffffffffffffffffffffffffffffffffffffff1673ffffffffffffffffffffffffffffffffffffffff1681526020019081526020016000206001019350601860003373ffffffffffffffffffffffffffffffffffffffff1673ffffffffffffffffffffffffffffffffffffffff1681526020019081526020016000206000600f60009054906101000a900473ffffffffffffffffffffffffffffffffffffffff1673ffffffffffffffffffffffffffffffffffffffff1673ffffffffffffffffffffffffffffffffffffffff1681526020019081526020016000206002019250601860003373ffffffffffffffffffffffffffffffffffffffff1673ffffffffffffffffffffffffffffffffffffffff1681526020019081526020016000206000600f60009054906101000a900473ffffffffffffffffffffffffffffffffffffffff1673ffffffffffffffffffffffffffffffffffffffff1673ffffffffffffffffffffffffffffffffffffffff168152602001908152602001600020600301549150601860003373ffffffffffffffffffffffffffffffffffffffff1673ffffffffffffffffffffffffffffffffffffffff1681526020019081526020016000206000600f60009054906101000a900473ffffffffffffffffffffffffffffffffffffffff1673ffffffffffffffffffffffffffffffffffffffff1673ffffffffffffffffffffffffffffffffffffffff168152602001908152602001600020600401549050600f60009054906101000a900473ffffffffffffffffffffffffffffffffffffffff1684848484838054600181600116156101000203166002900480601f0160208091040260200160405190810160405280929190818152602001828054600181600116156101000203166002900480156132825780601f1061325757610100808354040283529160200191613282565b820191906000526020600020905b81548152906001019060200180831161326557829003601f168201915b50505050509350828054600181600116156101000203166002900480601f01602080910402602001604051908101604052809291908181526020018280546001816001161561010002031660029004801561331e5780601f106132f35761010080835404028352916020019161331e565b820191906000526020600020905b81548152906001019060200180831161330157829003601f168201915b5050505050925098509850985098509850505050509091929394565b6000601060009054906101000a900473ffffffffffffffffffffffffffffffffffffffff1673ffffffffffffffffffffffffffffffffffffffff166370a08231336000604051602001526040518263ffffffff167c0100000000000000000000000000000000000000000000000000000000028152600401808273ffffffffffffffffffffffffffffffffffffffff1673ffffffffffffffffffffffffffffffffffffffff168152602001915050602060405180830381600087803b151561340157600080fd5b6102c65a03f1151561341257600080fd5b50505060405180519050905090565b6018602052816000526040600020602052806000526040600020600091509150508060000160009054906101000a900473ffffffffffffffffffffffffffffffffffffffff1690806001019080600201908060030154908060040154905085565b601060009054906101000a900473ffffffffffffffffffffffffffffffffffffffff1673ffffffffffffffffffffffffffffffffffffffff166379c65068336006546040518363ffffffff167c0100000000000000000000000000000000000000000000000000000000028152600401808373ffffffffffffffffffffffffffffffffffffffff1673ffffffffffffffffffffffffffffffffffffffff16815260200182815260200192505050600060405180830381600087803b151561354857600080fd5b6102c65a03f1151561355957600080fd5b5050506064600a6006540281151561356d57fe5b04600881905550601060009054906101000a900473ffffffffffffffffffffffffffffffffffffffff1673ffffffffffffffffffffffffffffffffffffffff166379c65068336008546040518363ffffffff167c0100000000000000000000000000000000000000000000000000000000028152600401808373ffffffffffffffffffffffffffffffffffffffff1673ffffffffffffffffffffffffffffffffffffffff16815260200182815260200192505050600060405180830381600087803b151561363a57600080fd5b6102c65a03f1151561364b57600080fd5b505050613656613db8565b565b6000806005543481151561366857fe5b04915081600960008282540192505081905550601060009054906101000a900473ffffffffffffffffffffffffffffffffffffffff1673ffffffffffffffffffffffffffffffffffffffff166323b872dd8433856000604051602001526040518463ffffffff167c0100000000000000000000000000000000000000000000000000000000028152600401808473ffffffffffffffffffffffffffffffffffffffff1673ffffffffffffffffffffffffffffffffffffffff1681526020018373ffffffffffffffffffffffffffffffffffffffff1673ffffffffffffffffffffffffffffffffffffffff1681526020018281526020019350505050602060405180830381600087803b151561377c57600080fd5b6102c65a03f1151561378d57600080fd5b5050506040518051905050601580548060010182816137ac9190614132565b9160005260206000209001600033909190916101000a81548173ffffffffffffffffffffffffffffffffffffffff021916908373ffffffffffffffffffffffffffffffffffffffff1602179055505033601760003373ffffffffffffffffffffffffffffffffffffffff1673ffffffffffffffffffffffffffffffffffffffff16815260200190815260200160002060008573ffffffffffffffffffffffffffffffffffffffff1673ffffffffffffffffffffffffffffffffffffffff16815260200190815260200160002060000160006101000a81548173ffffffffffffffffffffffffffffffffffffffff021916908373ffffffffffffffffffffffffffffffffffffffff16021790555034601760003373ffffffffffffffffffffffffffffffffffffffff1673ffffffffffffffffffffffffffffffffffffffff16815260200190815260200160002060008573ffffffffffffffffffffffffffffffffffffffff1673ffffffffffffffffffffffffffffffffffffffff1681526020019081526020016000206001015401601760003373ffffffffffffffffffffffffffffffffffffffff1673ffffffffffffffffffffffffffffffffffffffff16815260200190815260200160002060008573ffffffffffffffffffffffffffffffffffffffff1673ffffffffffffffffffffffffffffffffffffffff16815260200190815260200160002060010181905550670de0b6b3a7640000348115156139d157fe5b04905080601760003373ffffffffffffffffffffffffffffffffffffffff1673ffffffffffffffffffffffffffffffffffffffff168152602001908152602001600020600060146000815481101515613a2657fe5b906000526020600020900160009054906101000a900473ffffffffffffffffffffffffffffffffffffffff1673ffffffffffffffffffffffffffffffffffffffff1673ffffffffffffffffffffffffffffffffffffffff1681526020019081526020016000206001018190555081601760003373ffffffffffffffffffffffffffffffffffffffff1673ffffffffffffffffffffffffffffffffffffffff168152602001908152602001600020600060146000815481101515613ae557fe5b906000526020600020900160009054906101000a900473ffffffffffffffffffffffffffffffffffffffff1673ffffffffffffffffffffffffffffffffffffffff1673ffffffffffffffffffffffffffffffffffffffff1681526020019081526020016000206002018190555080601960008573ffffffffffffffffffffffffffffffffffffffff1673ffffffffffffffffffffffffffffffffffffffff1681526020019081526020016000205401601960008573ffffffffffffffffffffffffffffffffffffffff1673ffffffffffffffffffffffffffffffffffffffff1681526020019081526020016000208190555080601660008573ffffffffffffffffffffffffffffffffffffffff1673ffffffffffffffffffffffffffffffffffffffff1681526020019081526020016000206001015401601660008573ffffffffffffffffffffffffffffffffffffffff1673ffffffffffffffffffffffffffffffffffffffff16815260200190815260200160002060010181905550505050565b600060045482811515613c7657fe5b049050601060009054906101000a900473ffffffffffffffffffffffffffffffffffffffff1673ffffffffffffffffffffffffffffffffffffffff166379c6506833836040518363ffffffff167c0100000000000000000000000000000000000000000000000000000000028152600401808373ffffffffffffffffffffffffffffffffffffffff1673ffffffffffffffffffffffffffffffffffffffff16815260200182815260200192505050600060405180830381600087803b1515613d3d57600080fd5b6102c65a03f11515613d4e57600080fd5b50505060148054806001018281613d659190614132565b9160005260206000209001600033909190916101000a81548173ffffffffffffffffffffffffffffffffffffffff021916908373ffffffffffffffffffffffffffffffffffffffff160217905550505050565b60008060008092505b601580549050831015614099576008546006540360176000601586815481101515613de857fe5b906000526020600020900160009054906101000a900473ffffffffffffffffffffffffffffffffffffffff1673ffffffffffffffffffffffffffffffffffffffff1673ffffffffffffffffffffffffffffffffffffffff16815260200190815260200160002060003373ffffffffffffffffffffffffffffffffffffffff1673ffffffffffffffffffffffffffffffffffffffff1681526020019081526020016000206002015402915060095482811515613e9f57fe5b049050601060009054906101000a900473ffffffffffffffffffffffffffffffffffffffff1673ffffffffffffffffffffffffffffffffffffffff166379c65068601585815481101515613eef57fe5b906000526020600020900160009054906101000a900473ffffffffffffffffffffffffffffffffffffffff16836040518363ffffffff167c0100000000000000000000000000000000000000000000000000000000028152600401808373ffffffffffffffffffffffffffffffffffffffff1673ffffffffffffffffffffffffffffffffffffffff16815260200182815260200192505050600060405180830381600087803b1515613fa057600080fd5b6102c65a03f11515613fb157600080fd5b505050601060009054906101000a900473ffffffffffffffffffffffffffffffffffffffff1673ffffffffffffffffffffffffffffffffffffffff1663171ce59733836040518363ffffffff167c0100000000000000000000000000000000000000000000000000000000028152600401808373ffffffffffffffffffffffffffffffffffffffff1673ffffffffffffffffffffffffffffffffffffffff16815260200182815260200192505050600060405180830381600087803b151561407857600080fd5b6102c65a03f1151561408957600080fd5b5050508280600101935050613dc1565b505050565b828054600181600116156101000203166002900490600052602060002090601f016020900481019282601f106140df57805160ff191683800117855561410d565b8280016001018555821561410d579182015b8281111561410c5782518255916020019190600101906140f1565b5b50905061411a919061415e565b5090565b602060405190810160405280600081525090565b81548183558181151161415957818360005260206000209182019101614158919061415e565b5b505050565b61418091905b8082111561417c576000816000905550600101614164565b5090565b905600a165627a7a7230582051996b830e2fc2178d58ffe00e26d076b92ad0dab9c3206bfd06dd343309bad4002960606040526040805190810160405280600981526020017f546f6b656e20312e3000000000000000000000000000000000000000000000008152506000908051906020019062000051929190620001a2565b5034156200005e57600080fd5b620186a0600381905550600354600760003373ffffffffffffffffffffffffffffffffffffffff1673ffffffffffffffffffffffffffffffffffffffff168152602001908152602001600020819055506040805190810160405280600381526020017f445458000000000000000000000000000000000000000000000000000000000081525060029080519060200190620000fb929190620001a2565b506040805190810160405280600c81526020017f5068656f6e6978546f6b656e00000000000000000000000000000000000000008152506001908051906020019062000149929190620001a2565b506101f4600481905550600060058190555033600660006101000a81548173ffffffffffffffffffffffffffffffffffffffff021916908373ffffffffffffffffffffffffffffffffffffffff16021790555062000251565b828054600181600116156101000203166002900490600052602060002090601f016020900481019282601f10620001e557805160ff191683800117855562000216565b8280016001018555821562000216579182015b8281111562000215578251825591602001919060010190620001f8565b5b50905062000225919062000229565b5090565b6200024e91905b808211156200024a57600081600090555060010162000230565b5090565b90565b610f6380620002616000396000f3006060604052600436106100db576000357c0100000000000000000000000000000000000000000000000000000000900463ffffffff16806306fdde03146100e0578063095ea7b31461016e578063171ce597146101c857806318160ddd146101ff57806323b872dd14610228578063313ce567146102a15780635c658165146102ca578063661884631461033657806370a082311461039057806372dd529b146103dd57806379c650681461040657806395d89b4114610448578063a9059cbb146104d6578063d73dd62314610530578063dd62ed3e1461058a575b600080fd5b34156100eb57600080fd5b6100f36105f6565b6040518080602001828103825283818151815260200191508051906020019080838360005b83811015610133578082015181840152602081019050610118565b50505050905090810190601f1680156101605780820380516001836020036101000a031916815260200191505b509250505060405180910390f35b341561017957600080fd5b6101ae600480803573ffffffffffffffffffffffffffffffffffffffff16906020019091908035906020019091905050610694565b604051808215151515815260200191505060405180910390f35b6101fd600480803573ffffffffffffffffffffffffffffffffffffffff16906020019091908035906020019091905050610721565b005b341561020a57600080fd5b6102126107aa565b6040518082815260200191505060405180910390f35b341561023357600080fd5b610287600480803573ffffffffffffffffffffffffffffffffffffffff1690602001909190803573ffffffffffffffffffffffffffffffffffffffff169060200190919080359060200190919050506107b4565b604051808215151515815260200191505060405180910390f35b34156102ac57600080fd5b6102b4610930565b6040518082815260200191505060405180910390f35b34156102d557600080fd5b610320600480803573ffffffffffffffffffffffffffffffffffffffff1690602001909190803573ffffffffffffffffffffffffffffffffffffffff16906020019091905050610936565b6040518082815260200191505060405180910390f35b341561034157600080fd5b610376600480803573ffffffffffffffffffffffffffffffffffffffff1690602001909190803590602001909190505061095b565b604051808215151515815260200191505060405180910390f35b341561039b57600080fd5b6103c7600480803573ffffffffffffffffffffffffffffffffffffffff16906020019091905050610a66565b6040518082815260200191505060405180910390f35b34156103e857600080fd5b6103f0610aaf565b6040518082815260200191505060405180910390f35b341561041157600080fd5b610446600480803573ffffffffffffffffffffffffffffffffffffffff16906020019091908035906020019091905050610ab5565b005b341561045357600080fd5b61045b610b3e565b6040518080602001828103825283818151815260200191508051906020019080838360005b8381101561049b578082015181840152602081019050610480565b50505050905090810190601f1680156104c85780820380516001836020036101000a031916815260200191505b509250505060405180910390f35b34156104e157600080fd5b610516600480803573ffffffffffffffffffffffffffffffffffffffff16906020019091908035906020019091905050610bdc565b604051808215151515815260200191505060405180910390f35b341561053b57600080fd5b610570600480803573ffffffffffffffffffffffffffffffffffffffff16906020019091908035906020019091905050610da5565b604051808215151515815260200191505060405180910390f35b341561059557600080fd5b6105e0600480803573ffffffffffffffffffffffffffffffffffffffff1690602001909190803573ffffffffffffffffffffffffffffffffffffffff16906020019091905050610eb0565b6040518082815260200191505060405180910390f35b60018054600181600116156101000203166002900480601f01602080910402602001604051908101604052809291908181526020018280546001816001161561010002031660029004801561068c5780601f106106615761010080835404028352916020019161068c565b820191906000526020600020905b81548152906001019060200180831161066f57829003601f168201915b505050505081565b600081600860003373ffffffffffffffffffffffffffffffffffffffff1673ffffffffffffffffffffffffffffffffffffffff16815260200190815260200160002060008573ffffffffffffffffffffffffffffffffffffffff1673ffffffffffffffffffffffffffffffffffffffff168152602001908152602001600020819055506001905092915050565b80600760008473ffffffffffffffffffffffffffffffffffffffff1673ffffffffffffffffffffffffffffffffffffffff1681526020019081526020016000205403600760008473ffffffffffffffffffffffffffffffffffffffff1673ffffffffffffffffffffffffffffffffffffffff168152602001908152602001600020819055505050565b6000600354905090565b600081600760008673ffffffffffffffffffffffffffffffffffffffff1673ffffffffffffffffffffffffffffffffffffffff1681526020019081526020016000205403600760008673ffffffffffffffffffffffffffffffffffffffff1673ffffffffffffffffffffffffffffffffffffffff1681526020019081526020016000208190555081600760008573ffffffffffffffffffffffffffffffffffffffff1673ffffffffffffffffffffffffffffffffffffffff1681526020019081526020016000205401600760008573ffffffffffffffffffffffffffffffffffffffff1673ffffffffffffffffffffffffffffffffffffffff168152602001908152602001600020819055508273ffffffffffffffffffffffffffffffffffffffff168473ffffffffffffffffffffffffffffffffffffffff167fddf252ad1be2c89b69c2b068fc378daa952ba7f163c4a11628f55a4df523b3ef846040518082815260200191505060405180910390a3600190509392505050565b60055481565b6008602052816000526040600020602052806000526040600020600091509150505481565b600081600860003373ffffffffffffffffffffffffffffffffffffffff1673ffffffffffffffffffffffffffffffffffffffff16815260200190815260200160002060008573ffffffffffffffffffffffffffffffffffffffff1673ffffffffffffffffffffffffffffffffffffffff1681526020019081526020016000205403600860003373ffffffffffffffffffffffffffffffffffffffff1673ffffffffffffffffffffffffffffffffffffffff16815260200190815260200160002060008573ffffffffffffffffffffffffffffffffffffffff1673ffffffffffffffffffffffffffffffffffffffff168152602001908152602001600020819055506001905092915050565b6000600760008373ffffffffffffffffffffffffffffffffffffffff1673ffffffffffffffffffffffffffffffffffffffff168152602001908152602001600020549050919050565b60035481565b80600760008473ffffffffffffffffffffffffffffffffffffffff1673ffffffffffffffffffffffffffffffffffffffff1681526020019081526020016000205401600760008473ffffffffffffffffffffffffffffffffffffffff1673ffffffffffffffffffffffffffffffffffffffff168152602001908152602001600020819055505050565b60028054600181600116156101000203166002900480601f016020809104026020016040519081016040528092919081815260200182805460018160011615610100020316600290048015610bd45780601f10610ba957610100808354040283529160200191610bd4565b820191906000526020600020905b815481529060010190602001808311610bb757829003601f168201915b505050505081565b6000600760003373ffffffffffffffffffffffffffffffffffffffff1673ffffffffffffffffffffffffffffffffffffffff168152602001908152602001600020548211151515610c2c57600080fd5b81600760003373ffffffffffffffffffffffffffffffffffffffff1673ffffffffffffffffffffffffffffffffffffffff1681526020019081526020016000205403600760003373ffffffffffffffffffffffffffffffffffffffff1673ffffffffffffffffffffffffffffffffffffffff1681526020019081526020016000208190555081600760008573ffffffffffffffffffffffffffffffffffffffff1673ffffffffffffffffffffffffffffffffffffffff1681526020019081526020016000205401600760008573ffffffffffffffffffffffffffffffffffffffff1673ffffffffffffffffffffffffffffffffffffffff168152602001908152602001600020819055508273ffffffffffffffffffffffffffffffffffffffff163373ffffffffffffffffffffffffffffffffffffffff167fddf252ad1be2c89b69c2b068fc378daa952ba7f163c4a11628f55a4df523b3ef846040518082815260200191505060405180910390a36001905092915050565b600081600860003373ffffffffffffffffffffffffffffffffffffffff1673ffffffffffffffffffffffffffffffffffffffff16815260200190815260200160002060008573ffffffffffffffffffffffffffffffffffffffff1673ffffffffffffffffffffffffffffffffffffffff1681526020019081526020016000205401600860003373ffffffffffffffffffffffffffffffffffffffff1673ffffffffffffffffffffffffffffffffffffffff16815260200190815260200160002060008573ffffffffffffffffffffffffffffffffffffffff1673ffffffffffffffffffffffffffffffffffffffff168152602001908152602001600020819055506001905092915050565b6000600860008473ffffffffffffffffffffffffffffffffffffffff1673ffffffffffffffffffffffffffffffffffffffff16815260200190815260200160002060008373ffffffffffffffffffffffffffffffffffffffff1673ffffffffffffffffffffffffffffffffffffffff168152602001908152602001600020549050929150505600a165627a7a72305820de43180fe6076bacd35f6d51c9d23f31a36a5f15344b25f9843f809d02de80910029",
  "source": "pragma solidity ^0.4.18;\r\n\r\nimport \"./MarketToken1.sol\";\r\nimport \"./FundToken.sol\";\r\nimport \"./MarketToken2.sol\";\r\n\r\ncontract DMF \r\n{\r\n\r\n// Object Creation \r\n\r\n        FundToken public Token;\r\n        Mam1 ab;\r\n        Man2 bb;\r\n\r\n           \r\n//Global Variable Declaration part\r\n\r\n        uint public TR;\r\n        uint256 rate = 0.001 ether; //rate of Fundtoken For PortfolioManager\r\n        uint256 cost = 0.1 ether; //rate of Fundtokens For Investor \r\n        uint256 dividendToken = 100; //divident tokens count for give the profit to Investor\r\n        uint256 profitToken = 10; //profit tokens for the Portfolio manager \r\n        uint256 public PortfolioManagerprofit = 0; //For the Portfoliomanager profit tokens \r\n        uint256 public InvestersTotalToken=0; //invester total token count\r\n        uint256 public takecommission;\r\n        uint256 public calculations;\r\n        uint256 public commissionForDmf;\r\n        uint256 public etherCalculation;\r\n        address public m1;\r\n        address public m2;\r\n        address contractAddress; //Fundtoken\r\n        address public Pendingreturnaddress;\r\n        address owner; //owner variable for assigning contract Owner\r\n        address public newadd; //For getting the Contract Address\r\n\r\n//ArrayList\r\n\r\n        address[] public ToatlportfolioMAddress; //Array for storing the each register PortfolioManager\r\n        address[] public TotalInvestorAddress; //Array for storing the each register Investors\r\n\r\n        \r\n//Structure Area\r\n     \r\n//Structure For PortfolioManager Details\r\n\r\n        struct PortfolioDetails\r\n        {\r\n            address portfolioM;\r\n            uint256 Eth;\r\n            string tokenName;\r\n            uint256 count1;\r\n            uint256 count2;\r\n            uint commissionForPortfolio;\r\n        }\r\n//Structure For Investor Details  \r\n\r\n        struct InvestorDetails\r\n        {\r\n            address buyer;\r\n            uint256 Eth;\r\n            uint256 TokenCount;\r\n        }\r\n\r\n//Structure For MarketToken Purchase Details\r\n        struct MarketTokenPurchase\r\n        {\r\n            address contractAdd;\r\n            string name;\r\n            string symbol;\r\n            uint256 decimal;\r\n            uint256 totalbuycount;\r\n        }\r\n\r\n//Mapping Area\r\n\r\n//Map for getting and storing the PortfolioManager resgistration Details\r\n        mapping(address => PortfolioDetails) public Portfolio ;\r\n\r\n//map for getting and storing the Investor getting token details\r\n        mapping(address => mapping( address =>  InvestorDetails)) public invester ; \r\n\r\n//Map for getting the MarketToken Purchase details by the Portfoliomanager\r\n        mapping(address => mapping(address => MarketTokenPurchase)) public Market; \r\n\r\n//Portfoliomanager Sold Tokens Ether \r\n        mapping(address => uint256) public PM_soldTK_Ether; \r\n            \r\n//Constructor For initialize the contract Owner Address and Contract Deployed Address\r\n\r\n        function DMF(address na,address Mark1,address Mark2)public payable\r\n        {\r\n            owner=msg.sender;\r\n            newadd=address(this);\r\n            Token=new FundToken();\r\n            contractAddress=na;\r\n            m1=Mark1;\r\n            m2=Mark2;\r\n            bb= Man2(m2);\r\n            ab= Mam1(m1);\r\n        }\r\n       \r\n//Function Area\r\n         \r\n//Function For PortfolioManager Resgistration\r\n\r\n        function PortfolioReg() public payable\r\n        {\r\n            Portfolio[msg.sender].portfolioM= msg.sender;\r\n            uint256 add = msg.value / 1 ether;\r\n            uint256 a= add * 10;\r\n            uint256 trim = a /100;\r\n            takecommission += trim;\r\n            uint256 show = add - trim;\r\n            Portfolio[msg.sender].Eth= Portfolio[msg.sender].Eth + show;\r\n            PM_soldTK_Ether[msg.sender] = PM_soldTK_Ether[msg.sender] + show;\r\n            GetFundToken(msg.value);\r\n        }\r\n        \r\n//Function For Getting the Fundtokens by the PortfolioManager\r\n\r\n        function GetFundToken(uint256 value) private\r\n        {\r\n            uint256 tokens = value / rate;\r\n            FundToken(contractAddress).mintToken(msg.sender,tokens);\r\n            ToatlportfolioMAddress.push(msg.sender);\r\n        }\r\n\r\n//Function For Getting the Contract Ether Balance \r\n\r\n        function GetBal()public view returns(uint256)\r\n        {\r\n            return this.balance/ 1 ether;\r\n        }\r\n      \r\n //Function For Getting the Contract Address\r\n\r\n        function getContractaddress() public view returns(address)\r\n        {\r\n            return newadd;\r\n        }\r\n      \r\n //Function For Buying the FundTokens by the Investor From the PortfolioManager\r\n\r\n        function InvesterGetToken(address _add_) public payable\r\n        {\r\n            uint256 tokens = msg.value / cost;\r\n            InvestersTotalToken += tokens;\r\n            FundToken(contractAddress).transferFrom(_add_,msg.sender,tokens);\r\n            TotalInvestorAddress.push(msg.sender);\r\n            invester[msg.sender][_add_].buyer = msg.sender;\r\n            invester[msg.sender][_add_].Eth = invester[msg.sender][_add_].Eth + msg.value;\r\n            uint256 test = msg.value / 1 ether;\r\n            invester[msg.sender][ToatlportfolioMAddress[0]].Eth = test;\r\n            invester[msg.sender][ToatlportfolioMAddress[0]].TokenCount = tokens;\r\n            PM_soldTK_Ether[_add_] = PM_soldTK_Ether[_add_] + test;\r\n            Portfolio[_add_].Eth = Portfolio[_add_].Eth + test;\r\n        }\r\n    \r\n//Function For Getting the Investor Balance of Tokens\r\n\r\n        function getBalance() public view returns(uint256)\r\n        {\r\n            return FundToken(contractAddress).balanceOf(TotalInvestorAddress[0]);\r\n        }\r\n\r\n /** The dividends calculations\r\n        Investor1 = (( Investor1_fund TK) / (Inves1_FUndTK + Inves2_FUndTK + ... )) * 90;\r\n*/\r\n\r\n//Function For issue the Dividends yo the User\r\n\r\n        function Dividends() public  \r\n        {\r\n            FundToken(contractAddress).mintToken(msg.sender,dividendToken); //minting the token \r\n            PortfolioManagerprofit = (dividendToken* 10) / 100; //taking the portfolio share\r\n            FundToken(contractAddress).mintToken(msg.sender,PortfolioManagerprofit);\r\n            ShareETK_ToI();\r\n        }\r\n    \r\n//function for split the profit to each tokens\r\n\r\n        function ShareETK_ToI() private \r\n        {\r\n            for(uint256 i=0;i<TotalInvestorAddress.length;i++)\r\n            {\r\n                uint256 b = invester[TotalInvestorAddress[i]][msg.sender].TokenCount * (dividendToken - PortfolioManagerprofit);\r\n                uint256 a =  b  / InvestersTotalToken;\r\n                FundToken(contractAddress).mintToken(TotalInvestorAddress[i],a);\r\n                FundToken(contractAddress).tokenDecrease(msg.sender,a);\r\n            }\r\n        }\r\n\r\n//getting All the Investor and PortfolioManager balance \r\n\r\n        function getAllBalance() public view returns(uint256)\r\n        {\r\n            return FundToken(contractAddress).balanceOf(msg.sender);\r\n        }\r\n    \r\n\r\n      \r\n//Function for Sell The Tokens to the PortfolioManager\r\n\r\n        function ReturnTokenToPortfolioManager(address _add_,uint256 value)public payable\r\n        {\r\n            FundToken(contractAddress).transferFrom(msg.sender,_add_,value);\r\n            TR = value * cost;\r\n            commissionForDmf += TR * 10 / 100;\r\n            uint256 dash = commissionForDmf / 1 ether;\r\n            takecommission += dash;\r\n            Portfolio[_add_].commissionForPortfolio += TR * 10 /100; \r\n            uint256 a= commissionForDmf + Portfolio[_add_].commissionForPortfolio;\r\n            uint256 b= TR - a + commissionForDmf;\r\n            _add_.transfer(Portfolio[_add_].commissionForPortfolio);\r\n            address x = msg.sender;\r\n            newadd.call.gas(2500000).value(commissionForDmf)();\r\n            x.transfer(b);\r\n            invester[msg.sender][_add_].Eth= invester[msg.sender][_add_].Eth - TR;\r\n        }\r\n     \r\n    \r\n   \r\n\r\n        function PortfolioManagerList()public view returns(address)\r\n        {\r\n            for(uint256 i=0;i<ToatlportfolioMAddress.length;i++)\r\n            {\r\n                return ToatlportfolioMAddress[i];\r\n            }\r\n        }\r\n\r\n//Function for Purchase the market tokens by the PortfolioManager\r\n \r\n       function PurchasingMarket1token(address _contractadd,string _name,string _symbol,uint256 _totacount) public \r\n       {\r\n            uint256 howmuchEther = PM_soldTK_Ether[msg.sender];\r\n            uint256 PurchaseTkTotalRate = _totacount * 0.1 ether;\r\n            calculations = PurchaseTkTotalRate / 1 ether;\r\n            require(howmuchEther > calculations);\r\n            m1.call.gas(2500000).value(PurchaseTkTotalRate)();\r\n            Market[msg.sender][_contractadd].name = _name;\r\n            Market[msg.sender][_contractadd].symbol = _symbol;\r\n            Market[msg.sender][_contractadd].decimal = 0;\r\n            Market[msg.sender][_contractadd].totalbuycount = _totacount;\r\n            Market[msg.sender][_contractadd].contractAdd = _contractadd;\r\n            Portfolio[msg.sender].tokenName=_name;\r\n            Portfolio[msg.sender].count1=_totacount;\r\n            uint256 fg = Portfolio[msg.sender].Eth - calculations;\r\n            Portfolio[msg.sender].Eth= fg;    \r\n       }\r\n\r\n        function PurchasingMarket2token(address _contractadd,string _name,string _symbol,uint256 _totacount) public \r\n        {\r\n            uint256 howmuchEther =  PM_soldTK_Ether[msg.sender];\r\n            uint256 PurchaseTkTotalRate = _totacount * 0.1 ether;\r\n            calculations = PurchaseTkTotalRate / 1 ether;\r\n            require(howmuchEther > calculations);\r\n            m2.call.gas(2500000).value(PurchaseTkTotalRate)();\r\n            Market[msg.sender][_contractadd].name = _name;\r\n            Market[msg.sender][_contractadd].symbol = _symbol;\r\n            Market[msg.sender][_contractadd].decimal = 0;\r\n            Market[msg.sender][_contractadd].totalbuycount = _totacount; \r\n            Market[msg.sender][_contractadd].contractAdd = _contractadd;\r\n            Portfolio[msg.sender].tokenName=_name;\r\n            Portfolio[msg.sender].count2=_totacount;\r\n            uint256 fg = Portfolio[msg.sender].Eth - calculations;\r\n            Portfolio[msg.sender].Eth= fg;\r\n        }\r\n\r\n        function DisplayPurchasedTKCount() public view returns(uint256)\r\n        {\r\n            uint256 count1 = Mam1(m1).DisplayBalance(newadd);\r\n            uint256 count2 = Man2(m2).DisplayBalance(newadd);\r\n            uint256 total = count1 + count2;\r\n            return total;\r\n        }\r\n\r\n\r\n        function DisplayPurchasedTK1() public view returns(address,string,string,uint256,uint256)\r\n        {\r\n            string _nn = Market[msg.sender][m1].name;\r\n            string _sm = Market[msg.sender][m1].symbol;\r\n            uint256 _dd =  Market[msg.sender][m1].decimal;\r\n            uint256 _pp = Market[msg.sender][m1].totalbuycount;\r\n            return(m1,_nn,_sm,_dd,_pp);\r\n        }\r\n\r\n        function DisplayPurchasedTK2() public view returns(address,string,string,uint256,uint256)\r\n        {\r\n            string _nn = Market[msg.sender][m2].name;\r\n            string _sm = Market[msg.sender][m2].symbol;\r\n            uint256 _dd =  Market[msg.sender][m2].decimal;\r\n            uint256 _pp = Market[msg.sender][m2].totalbuycount;\r\n            return(m2,_nn,_sm,_dd,_pp);\r\n        }\r\n\r\n//Function For Many PortfolioManager Details\r\n\r\n        function listOfPortfolioManager(address a)public view returns(address,uint256,uint256,uint256,uint256)\r\n        {\r\n            for(uint i=0;i<ToatlportfolioMAddress.length;i++)\r\n            {\r\n                if(a == Portfolio[a].portfolioM)\r\n                {\r\n                    return (Portfolio[a].portfolioM,Portfolio[a].Eth,FundToken(contractAddress).balanceOf(a),Portfolio[a].count1,Portfolio[a].count2);\r\n                }\r\n            }\r\n        }\r\n\r\n\r\n        function Pcount() public view returns(uint256)\r\n        {\r\n            return ToatlportfolioMAddress.length;\r\n        }\r\n\r\n        function getPortfolioAddress(uint a) public view returns(address)\r\n        {\r\n            return ToatlportfolioMAddress[a];\r\n        }\r\n\r\n        function getInvesterAddress(uint a,uint a1) public view returns(address,address)\r\n        {\r\n            return (ToatlportfolioMAddress[a],TotalInvestorAddress[a1]);\r\n        }\r\n\r\n        function Icount() public view returns(uint256)\r\n        {\r\n            return TotalInvestorAddress.length;\r\n        }\r\n  \r\n}                                                                                     ",
  "sourcePath": "C:\\Users\\Balavignesh.0856\\Desktop\\FINAL\\Mutual-Funds\\contracts\\DMF.sol",
  "compiler": {
    "name": "solc",
    "version": "0.4.19+commit.c4cbbb05.Emscripten.clang"
  },
  "schemaVersion": "2.0.0",
  "updatedAt": "2018-04-13T11:22:53.000Z"
}