{
  "contractName": "DMF",
  "abi": [
    {
      "constant": true,
      "inputs": [
        {
          "name": "",
          "type": "address"
        }
      ],
      "name": "Market",
      "outputs": [
        {
          "name": "contractAdd",
          "type": "address"
        },
        {
          "name": "name",
          "type": "string"
        },
        {
          "name": "symbol",
          "type": "string"
        },
        {
          "name": "decimal",
          "type": "uint256"
        },
        {
          "name": "totalbuycount",
          "type": "uint256"
        }
      ],
      "payable": false,
      "stateMutability": "view",
      "type": "function"
    },
    {
      "constant": true,
      "inputs": [],
      "name": "etherCalculation",
      "outputs": [
        {
          "name": "",
          "type": "uint256"
        }
      ],
      "payable": false,
      "stateMutability": "view",
      "type": "function"
    },
    {
      "constant": true,
      "inputs": [
        {
          "name": "",
          "type": "uint256"
        }
      ],
      "name": "TotalInvestorAddress",
      "outputs": [
        {
          "name": "",
          "type": "address"
        }
      ],
      "payable": false,
      "stateMutability": "view",
      "type": "function"
    },
    {
      "constant": true,
      "inputs": [],
      "name": "InvestersTotalToken",
      "outputs": [
        {
          "name": "",
          "type": "uint256"
        }
      ],
      "payable": false,
      "stateMutability": "view",
      "type": "function"
    },
    {
      "constant": true,
      "inputs": [
        {
          "name": "",
          "type": "address"
        }
      ],
      "name": "invester",
      "outputs": [
        {
          "name": "buyer",
          "type": "address"
        },
        {
          "name": "Eth",
          "type": "uint256"
        },
        {
          "name": "TokenCount",
          "type": "uint256"
        }
      ],
      "payable": false,
      "stateMutability": "view",
      "type": "function"
    },
    {
      "constant": true,
      "inputs": [
        {
          "name": "",
          "type": "address"
        }
      ],
      "name": "toCheckbln",
      "outputs": [
        {
          "name": "",
          "type": "uint256"
        }
      ],
      "payable": false,
      "stateMutability": "view",
      "type": "function"
    },
    {
      "constant": true,
      "inputs": [],
      "name": "Pendingreturnaddress",
      "outputs": [
        {
          "name": "",
          "type": "address"
        }
      ],
      "payable": false,
      "stateMutability": "view",
      "type": "function"
    },
    {
      "constant": true,
      "inputs": [],
      "name": "PortfolioManagerprofit",
      "outputs": [
        {
          "name": "",
          "type": "uint256"
        }
      ],
      "payable": false,
      "stateMutability": "view",
      "type": "function"
    },
    {
      "constant": true,
      "inputs": [],
      "name": "newadd",
      "outputs": [
        {
          "name": "",
          "type": "address"
        }
      ],
      "payable": false,
      "stateMutability": "view",
      "type": "function"
    },
    {
      "constant": true,
      "inputs": [],
      "name": "Token",
      "outputs": [
        {
          "name": "",
          "type": "address"
        }
      ],
      "payable": false,
      "stateMutability": "view",
      "type": "function"
    },
    {
      "constant": true,
      "inputs": [
        {
          "name": "",
          "type": "address"
        }
      ],
      "name": "Portfolio",
      "outputs": [
        {
          "name": "portfolioM",
          "type": "address"
        },
        {
          "name": "Eth",
          "type": "uint256"
        }
      ],
      "payable": false,
      "stateMutability": "view",
      "type": "function"
    },
    {
      "inputs": [
        {
          "name": "na",
          "type": "address"
        },
        {
          "name": "_mark1",
          "type": "address"
        }
      ],
      "payable": true,
      "stateMutability": "payable",
      "type": "constructor"
    },
    {
      "payable": true,
      "stateMutability": "payable",
      "type": "fallback"
    },
    {
      "constant": false,
      "inputs": [],
      "name": "PortfolioReg",
      "outputs": [],
      "payable": true,
      "stateMutability": "payable",
      "type": "function"
    },
    {
      "constant": true,
      "inputs": [],
      "name": "GetBal",
      "outputs": [
        {
          "name": "",
          "type": "uint256"
        }
      ],
      "payable": false,
      "stateMutability": "view",
      "type": "function"
    },
    {
      "constant": true,
      "inputs": [],
      "name": "getContractaddress",
      "outputs": [
        {
          "name": "",
          "type": "address"
        }
      ],
      "payable": false,
      "stateMutability": "view",
      "type": "function"
    },
    {
      "constant": false,
      "inputs": [],
      "name": "InvesterGetToken",
      "outputs": [],
      "payable": true,
      "stateMutability": "payable",
      "type": "function"
    },
    {
      "constant": true,
      "inputs": [],
      "name": "getBalance",
      "outputs": [
        {
          "name": "",
          "type": "uint256"
        }
      ],
      "payable": false,
      "stateMutability": "view",
      "type": "function"
    },
    {
      "constant": false,
      "inputs": [],
      "name": "Dividends",
      "outputs": [],
      "payable": false,
      "stateMutability": "nonpayable",
      "type": "function"
    },
    {
      "constant": true,
      "inputs": [],
      "name": "getAllBalance",
      "outputs": [
        {
          "name": "",
          "type": "uint256"
        }
      ],
      "payable": false,
      "stateMutability": "view",
      "type": "function"
    },
    {
      "constant": false,
      "inputs": [
        {
          "name": "value",
          "type": "uint256"
        }
      ],
      "name": "ReturnTokenToPortfolioManager",
      "outputs": [],
      "payable": true,
      "stateMutability": "payable",
      "type": "function"
    },
    {
      "constant": false,
      "inputs": [
        {
          "name": "_add",
          "type": "address"
        }
      ],
      "name": "SendEther",
      "outputs": [],
      "payable": true,
      "stateMutability": "payable",
      "type": "function"
    },
    {
      "constant": true,
      "inputs": [],
      "name": "listOfPortfolioManager",
      "outputs": [
        {
          "name": "",
          "type": "address"
        }
      ],
      "payable": false,
      "stateMutability": "view",
      "type": "function"
    },
    {
      "constant": true,
      "inputs": [],
      "name": "DisplayTotalsupMarkTK1",
      "outputs": [
        {
          "name": "",
          "type": "uint256"
        }
      ],
      "payable": false,
      "stateMutability": "view",
      "type": "function"
    },
    {
      "constant": true,
      "inputs": [],
      "name": "DisplayDecimalMarkTK1",
      "outputs": [
        {
          "name": "",
          "type": "uint256"
        }
      ],
      "payable": false,
      "stateMutability": "view",
      "type": "function"
    },
    {
      "constant": true,
      "inputs": [],
      "name": "DisplayRateMarkTK1",
      "outputs": [
        {
          "name": "",
          "type": "uint256"
        }
      ],
      "payable": false,
      "stateMutability": "view",
      "type": "function"
    },
    {
      "constant": true,
      "inputs": [],
      "name": "DisplayBalanceMarkTK1",
      "outputs": [
        {
          "name": "",
          "type": "uint256"
        }
      ],
      "payable": false,
      "stateMutability": "view",
      "type": "function"
    },
    {
      "constant": true,
      "inputs": [],
      "name": "DisplayAddressMarkTK1",
      "outputs": [
        {
          "name": "",
          "type": "address"
        }
      ],
      "payable": false,
      "stateMutability": "view",
      "type": "function"
    },
    {
      "constant": false,
      "inputs": [
        {
          "name": "_contractadd",
          "type": "address"
        },
        {
          "name": "_name",
          "type": "string"
        },
        {
          "name": "_symbol",
          "type": "string"
        },
        {
          "name": "_totacount",
          "type": "uint256"
        }
      ],
      "name": "Purchasingtoken",
      "outputs": [],
      "payable": true,
      "stateMutability": "payable",
      "type": "function"
    },
    {
      "constant": true,
      "inputs": [],
      "name": "DisplayPurchasedTokendetails",
      "outputs": [
        {
          "name": "",
          "type": "string"
        },
        {
          "name": "",
          "type": "address"
        },
        {
          "name": "",
          "type": "string"
        },
        {
          "name": "",
          "type": "uint256"
        }
      ],
      "payable": false,
      "stateMutability": "view",
      "type": "function"
    }
  ],
  "bytecode": "0x606060405266038d7ea4c6800060035567016345785d8a00006004556064600555600a60065560006007556000600b55604051604080620039228339810160405280805190602001909190805190602001909190505033600160006101000a81548173ffffffffffffffffffffffffffffffffffffffff021916908373ffffffffffffffffffffffffffffffffffffffff16021790555030600260006101000a81548173ffffffffffffffffffffffffffffffffffffffff021916908373ffffffffffffffffffffffffffffffffffffffff1602179055506100df6101bd565b604051809103906000f08015156100f557600080fd5b6000806101000a81548173ffffffffffffffffffffffffffffffffffffffff021916908373ffffffffffffffffffffffffffffffffffffffff16021790555081600860006101000a81548173ffffffffffffffffffffffffffffffffffffffff021916908373ffffffffffffffffffffffffffffffffffffffff16021790555080600960006101000a81548173ffffffffffffffffffffffffffffffffffffffff021916908373ffffffffffffffffffffffffffffffffffffffff16021790555050506101ce565b6040516111c4806200275e83390190565b61258080620001de6000396000f30060606040526004361061016a576000357c0100000000000000000000000000000000000000000000000000000000900463ffffffff16806309eb08501461016c57806310a6f3b31461022957806312065fe0146103c2578063208345ea146103eb5780632722271f1461041457806336c38cc71461041e5780633989d2601461048157806352a051bc146104aa578063561b0eee146104d8578063680d94a71461052d578063744cc76d146105375780637c978925146105be5780638321e9cf1461060b578063971c3428146106605780639e9c5f9114610689578063a73f2dcc146106de578063a82ef44414610733578063af1759fb1461075c578063bdd67dea14610774578063bf8869b51461079d578063c2412676146107c6578063d4691adc1461081b578063d7f10d8114610870578063d917dbf8146109a4578063de854065146109cd578063eb9969a814610a4d578063ee8566b814610a76578063f15f14c514610a9f575b005b610227600480803573ffffffffffffffffffffffffffffffffffffffff1690602001909190803590602001908201803590602001908080601f0160208091040260200160405190810160405280939291908181526020018383808284378201915050505050509190803590602001908201803590602001908080601f01602080910402602001604051908101604052809392919081815260200183838082843782019150505050505091908035906020019091905050610ab4565b005b341561023457600080fd5b610260600480803573ffffffffffffffffffffffffffffffffffffffff16906020019091905050610cfa565b604051808673ffffffffffffffffffffffffffffffffffffffff1673ffffffffffffffffffffffffffffffffffffffff168152602001806020018060200185815260200184815260200183810383528781815460018160011615610100020316600290048152602001915080546001816001161561010002031660029004801561032b5780601f106103005761010080835404028352916020019161032b565b820191906000526020600020905b81548152906001019060200180831161030e57829003601f168201915b50508381038252868181546001816001161561010002031660029004815260200191508054600181600116156101000203166002900480156103ae5780601f10610383576101008083540402835291602001916103ae565b820191906000526020600020905b81548152906001019060200180831161039157829003601f168201915b505097505050505050505060405180910390f35b34156103cd57600080fd5b6103d5610d4e565b6040518082815260200191505060405180910390f35b34156103f657600080fd5b6103fe610e70565b6040518082815260200191505060405180910390f35b61041c610e76565b005b341561042957600080fd5b61043f6004808035906020019091905050610f8d565b604051808273ffffffffffffffffffffffffffffffffffffffff1673ffffffffffffffffffffffffffffffffffffffff16815260200191505060405180910390f35b341561048c57600080fd5b610494610fcc565b6040518082815260200191505060405180910390f35b6104d6600480803573ffffffffffffffffffffffffffffffffffffffff16906020019091905050610fd2565b005b34156104e357600080fd5b6104eb6110e9565b604051808273ffffffffffffffffffffffffffffffffffffffff1673ffffffffffffffffffffffffffffffffffffffff16815260200191505060405180910390f35b61053561112c565b005b341561054257600080fd5b61056e600480803573ffffffffffffffffffffffffffffffffffffffff1690602001909190505061141b565b604051808473ffffffffffffffffffffffffffffffffffffffff1673ffffffffffffffffffffffffffffffffffffffff168152602001838152602001828152602001935050505060405180910390f35b34156105c957600080fd5b6105f5600480803573ffffffffffffffffffffffffffffffffffffffff16906020019091905050611465565b6040518082815260200191505060405180910390f35b341561061657600080fd5b61061e61147d565b604051808273ffffffffffffffffffffffffffffffffffffffff1673ffffffffffffffffffffffffffffffffffffffff16815260200191505060405180910390f35b341561066b57600080fd5b6106736114a3565b6040518082815260200191505060405180910390f35b341561069457600080fd5b61069c6114a9565b604051808273ffffffffffffffffffffffffffffffffffffffff1673ffffffffffffffffffffffffffffffffffffffff16815260200191505060405180910390f35b34156106e957600080fd5b6106f16114cf565b604051808273ffffffffffffffffffffffffffffffffffffffff1673ffffffffffffffffffffffffffffffffffffffff16815260200191505060405180910390f35b341561073e57600080fd5b61074661157f565b6040518082815260200191505060405180910390f35b6107726004808035906020019091905050611666565b005b341561077f57600080fd5b610787611802565b6040518082815260200191505060405180910390f35b34156107a857600080fd5b6107b06118b2565b6040518082815260200191505060405180910390f35b34156107d157600080fd5b6107d96118d1565b604051808273ffffffffffffffffffffffffffffffffffffffff1673ffffffffffffffffffffffffffffffffffffffff16815260200191505060405180910390f35b341561082657600080fd5b61082e6118f6565b604051808273ffffffffffffffffffffffffffffffffffffffff1673ffffffffffffffffffffffffffffffffffffffff16815260200191505060405180910390f35b341561087b57600080fd5b610883611920565b60405180806020018573ffffffffffffffffffffffffffffffffffffffff1673ffffffffffffffffffffffffffffffffffffffff16815260200180602001848152602001838103835287818151815260200191508051906020019080838360005b838110156108ff5780820151818401526020810190506108e4565b50505050905090810190601f16801561092c5780820380516001836020036101000a031916815260200191505b50838103825285818151815260200191508051906020019080838360005b8381101561096557808201518184015260208101905061094a565b50505050905090810190601f1680156109925780820380516001836020036101000a031916815260200191505b50965050505050505060405180910390f35b34156109af57600080fd5b6109b7611ba4565b6040518082815260200191505060405180910390f35b34156109d857600080fd5b610a04600480803573ffffffffffffffffffffffffffffffffffffffff16906020019091905050611c54565b604051808373ffffffffffffffffffffffffffffffffffffffff1673ffffffffffffffffffffffffffffffffffffffff1681526020018281526020019250505060405180910390f35b3415610a5857600080fd5b610a60611c98565b6040518082815260200191505060405180910390f35b3415610a8157600080fd5b610a89611d7f565b6040518082815260200191505060405180910390f35b3415610aaa57600080fd5b610ab2611e2f565b005b8373ffffffffffffffffffffffffffffffffffffffff16635ed1ca85346040518263ffffffff167c010000000000000000000000000000000000000000000000000000000002815260040180828152602001915050600060405180830381600087803b1515610b2257600080fd5b6102c65a03f11515610b3357600080fd5b50505082601360003373ffffffffffffffffffffffffffffffffffffffff1673ffffffffffffffffffffffffffffffffffffffff1681526020019081526020016000206001019080519060200190610b8c92919061246f565b5081601360003373ffffffffffffffffffffffffffffffffffffffff1673ffffffffffffffffffffffffffffffffffffffff1681526020019081526020016000206002019080519060200190610be392919061246f565b506000601360003373ffffffffffffffffffffffffffffffffffffffff1673ffffffffffffffffffffffffffffffffffffffff1681526020019081526020016000206003018190555080601360003373ffffffffffffffffffffffffffffffffffffffff1673ffffffffffffffffffffffffffffffffffffffff1681526020019081526020016000206004018190555083601360003373ffffffffffffffffffffffffffffffffffffffff1673ffffffffffffffffffffffffffffffffffffffff16815260200190815260200160002060000160006101000a81548173ffffffffffffffffffffffffffffffffffffffff021916908373ffffffffffffffffffffffffffffffffffffffff16021790555050505050565b60136020528060005260406000206000915090508060000160009054906101000a900473ffffffffffffffffffffffffffffffffffffffff1690806001019080600201908060030154908060040154905085565b6000600860009054906101000a900473ffffffffffffffffffffffffffffffffffffffff1673ffffffffffffffffffffffffffffffffffffffff166370a08231600e6000815481101515610d9e57fe5b906000526020600020900160009054906101000a900473ffffffffffffffffffffffffffffffffffffffff166000604051602001526040518263ffffffff167c0100000000000000000000000000000000000000000000000000000000028152600401808273ffffffffffffffffffffffffffffffffffffffff1673ffffffffffffffffffffffffffffffffffffffff168152602001915050602060405180830381600087803b1515610e5057600080fd5b6102c65a03f11515610e6157600080fd5b50505060405180519050905090565b600f5481565b33601160003373ffffffffffffffffffffffffffffffffffffffff1673ffffffffffffffffffffffffffffffffffffffff16815260200190815260200160002060000160006101000a81548173ffffffffffffffffffffffffffffffffffffffff021916908373ffffffffffffffffffffffffffffffffffffffff16021790555034601160003373ffffffffffffffffffffffffffffffffffffffff1673ffffffffffffffffffffffffffffffffffffffff1681526020019081526020016000206001015401601160003373ffffffffffffffffffffffffffffffffffffffff1673ffffffffffffffffffffffffffffffffffffffff16815260200190815260200160002060010181905550610f8b34612075565b565b600e81815481101515610f9c57fe5b90600052602060002090016000915054906101000a900473ffffffffffffffffffffffffffffffffffffffff1681565b600b5481565b600d6000815481101515610fe257fe5b906000526020600020900160009054906101000a900473ffffffffffffffffffffffffffffffffffffffff1673ffffffffffffffffffffffffffffffffffffffff168173ffffffffffffffffffffffffffffffffffffffff1614156110e657600c60009054906101000a900473ffffffffffffffffffffffffffffffffffffffff1673ffffffffffffffffffffffffffffffffffffffff166108fc349081150290604051600060405180830381858888f1935050505015156110a357600080fd5b6000600c60006101000a81548173ffffffffffffffffffffffffffffffffffffffff021916908373ffffffffffffffffffffffffffffffffffffffff1602179055505b50565b6000600d60008154811015156110fb57fe5b906000526020600020900160009054906101000a900473ffffffffffffffffffffffffffffffffffffffff16905090565b60006004543481151561113b57fe5b04905080600b60008282540192505081905550600860009054906101000a900473ffffffffffffffffffffffffffffffffffffffff1673ffffffffffffffffffffffffffffffffffffffff166323b872dd600d600081548110151561119c57fe5b906000526020600020900160009054906101000a900473ffffffffffffffffffffffffffffffffffffffff1633846000604051602001526040518463ffffffff167c0100000000000000000000000000000000000000000000000000000000028152600401808473ffffffffffffffffffffffffffffffffffffffff1673ffffffffffffffffffffffffffffffffffffffff1681526020018373ffffffffffffffffffffffffffffffffffffffff1673ffffffffffffffffffffffffffffffffffffffff1681526020018281526020019350505050602060405180830381600087803b151561128a57600080fd5b6102c65a03f1151561129b57600080fd5b5050506040518051905050600e80548060010182816112ba91906124ef565b9160005260206000209001600033909190916101000a81548173ffffffffffffffffffffffffffffffffffffffff021916908373ffffffffffffffffffffffffffffffffffffffff1602179055505033601260003373ffffffffffffffffffffffffffffffffffffffff1673ffffffffffffffffffffffffffffffffffffffff16815260200190815260200160002060000160006101000a81548173ffffffffffffffffffffffffffffffffffffffff021916908373ffffffffffffffffffffffffffffffffffffffff16021790555034601260003373ffffffffffffffffffffffffffffffffffffffff1673ffffffffffffffffffffffffffffffffffffffff1681526020019081526020016000206001018190555080601260003373ffffffffffffffffffffffffffffffffffffffff1673ffffffffffffffffffffffffffffffffffffffff1681526020019081526020016000206002018190555050565b60126020528060005260406000206000915090508060000160009054906101000a900473ffffffffffffffffffffffffffffffffffffffff16908060010154908060020154905083565b60106020528060005260406000206000915090505481565b600c60009054906101000a900473ffffffffffffffffffffffffffffffffffffffff1681565b60075481565b600260009054906101000a900473ffffffffffffffffffffffffffffffffffffffff1681565b6000600960009054906101000a900473ffffffffffffffffffffffffffffffffffffffff1673ffffffffffffffffffffffffffffffffffffffff1663afc53e2e6000604051602001526040518163ffffffff167c0100000000000000000000000000000000000000000000000000000000028152600401602060405180830381600087803b151561155f57600080fd5b6102c65a03f1151561157057600080fd5b50505060405180519050905090565b6000600960009054906101000a900473ffffffffffffffffffffffffffffffffffffffff1673ffffffffffffffffffffffffffffffffffffffff1663a773f89f336000604051602001526040518263ffffffff167c0100000000000000000000000000000000000000000000000000000000028152600401808273ffffffffffffffffffffffffffffffffffffffff1673ffffffffffffffffffffffffffffffffffffffff168152602001915050602060405180830381600087803b151561164657600080fd5b6102c65a03f1151561165757600080fd5b50505060405180519050905090565b600860009054906101000a900473ffffffffffffffffffffffffffffffffffffffff1673ffffffffffffffffffffffffffffffffffffffff166323b872dd33600d60008154811015156116b557fe5b906000526020600020900160009054906101000a900473ffffffffffffffffffffffffffffffffffffffff16846000604051602001526040518463ffffffff167c0100000000000000000000000000000000000000000000000000000000028152600401808473ffffffffffffffffffffffffffffffffffffffff1673ffffffffffffffffffffffffffffffffffffffff1681526020018373ffffffffffffffffffffffffffffffffffffffff1673ffffffffffffffffffffffffffffffffffffffff1681526020018281526020019350505050602060405180830381600087803b15156117a257600080fd5b6102c65a03f115156117b357600080fd5b505050604051805190505033600c60006101000a81548173ffffffffffffffffffffffffffffffffffffffff021916908373ffffffffffffffffffffffffffffffffffffffff16021790555050565b6000600960009054906101000a900473ffffffffffffffffffffffffffffffffffffffff1673ffffffffffffffffffffffffffffffffffffffff166390b2656e6000604051602001526040518163ffffffff167c0100000000000000000000000000000000000000000000000000000000028152600401602060405180830381600087803b151561189257600080fd5b6102c65a03f115156118a357600080fd5b50505060405180519050905090565b60003073ffffffffffffffffffffffffffffffffffffffff1631905090565b6000809054906101000a900473ffffffffffffffffffffffffffffffffffffffff1681565b6000600260009054906101000a900473ffffffffffffffffffffffffffffffffffffffff16905090565b61192861251b565b600061193261251b565b6000601360003373ffffffffffffffffffffffffffffffffffffffff1673ffffffffffffffffffffffffffffffffffffffff168152602001908152602001600020600101601360003373ffffffffffffffffffffffffffffffffffffffff1673ffffffffffffffffffffffffffffffffffffffff16815260200190815260200160002060000160009054906101000a900473ffffffffffffffffffffffffffffffffffffffff16601360003373ffffffffffffffffffffffffffffffffffffffff1673ffffffffffffffffffffffffffffffffffffffff168152602001908152602001600020600201601360003373ffffffffffffffffffffffffffffffffffffffff1673ffffffffffffffffffffffffffffffffffffffff16815260200190815260200160002060040154838054600181600116156101000203166002900480601f016020809104026020016040519081016040528092919081815260200182805460018160011615610100020316600290048015611af35780601f10611ac857610100808354040283529160200191611af3565b820191906000526020600020905b815481529060010190602001808311611ad657829003601f168201915b50505050509350818054600181600116156101000203166002900480601f016020809104026020016040519081016040528092919081815260200182805460018160011615610100020316600290048015611b8f5780601f10611b6457610100808354040283529160200191611b8f565b820191906000526020600020905b815481529060010190602001808311611b7257829003601f168201915b50505050509150935093509350935090919293565b6000600960009054906101000a900473ffffffffffffffffffffffffffffffffffffffff1673ffffffffffffffffffffffffffffffffffffffff16631a9c84fe6000604051602001526040518163ffffffff167c0100000000000000000000000000000000000000000000000000000000028152600401602060405180830381600087803b1515611c3457600080fd5b6102c65a03f11515611c4557600080fd5b50505060405180519050905090565b60116020528060005260406000206000915090508060000160009054906101000a900473ffffffffffffffffffffffffffffffffffffffff16908060010154905082565b6000600860009054906101000a900473ffffffffffffffffffffffffffffffffffffffff1673ffffffffffffffffffffffffffffffffffffffff166370a08231336000604051602001526040518263ffffffff167c0100000000000000000000000000000000000000000000000000000000028152600401808273ffffffffffffffffffffffffffffffffffffffff1673ffffffffffffffffffffffffffffffffffffffff168152602001915050602060405180830381600087803b1515611d5f57600080fd5b6102c65a03f11515611d7057600080fd5b50505060405180519050905090565b6000600960009054906101000a900473ffffffffffffffffffffffffffffffffffffffff1673ffffffffffffffffffffffffffffffffffffffff16635b38faf86000604051602001526040518163ffffffff167c0100000000000000000000000000000000000000000000000000000000028152600401602060405180830381600087803b1515611e0f57600080fd5b6102c65a03f11515611e2057600080fd5b50505060405180519050905090565b600d6000815481101515611e3f57fe5b906000526020600020900160009054906101000a900473ffffffffffffffffffffffffffffffffffffffff1673ffffffffffffffffffffffffffffffffffffffff163373ffffffffffffffffffffffffffffffffffffffff16141561207357600860009054906101000a900473ffffffffffffffffffffffffffffffffffffffff1673ffffffffffffffffffffffffffffffffffffffff166379c65068336005546040518363ffffffff167c0100000000000000000000000000000000000000000000000000000000028152600401808373ffffffffffffffffffffffffffffffffffffffff1673ffffffffffffffffffffffffffffffffffffffff16815260200182815260200192505050600060405180830381600087803b1515611f6457600080fd5b6102c65a03f11515611f7557600080fd5b5050506064600a60055402811515611f8957fe5b04600781905550600860009054906101000a900473ffffffffffffffffffffffffffffffffffffffff1673ffffffffffffffffffffffffffffffffffffffff166379c65068336007546040518363ffffffff167c0100000000000000000000000000000000000000000000000000000000028152600401808373ffffffffffffffffffffffffffffffffffffffff1673ffffffffffffffffffffffffffffffffffffffff16815260200182815260200192505050600060405180830381600087803b151561205657600080fd5b6102c65a03f1151561206757600080fd5b5050506120726121c6565b5b565b60006003548281151561208457fe5b049050600860009054906101000a900473ffffffffffffffffffffffffffffffffffffffff1673ffffffffffffffffffffffffffffffffffffffff166379c6506833836040518363ffffffff167c0100000000000000000000000000000000000000000000000000000000028152600401808373ffffffffffffffffffffffffffffffffffffffff1673ffffffffffffffffffffffffffffffffffffffff16815260200182815260200192505050600060405180830381600087803b151561214b57600080fd5b6102c65a03f1151561215c57600080fd5b505050600d805480600101828161217391906124ef565b9160005260206000209001600033909190916101000a81548173ffffffffffffffffffffffffffffffffffffffff021916908373ffffffffffffffffffffffffffffffffffffffff160217905550505050565b60008060008092505b600e8054905083101561246a576007546005540360126000600e868154811015156121f657fe5b906000526020600020900160009054906101000a900473ffffffffffffffffffffffffffffffffffffffff1673ffffffffffffffffffffffffffffffffffffffff1673ffffffffffffffffffffffffffffffffffffffff16815260200190815260200160002060020154029150600b548281151561227057fe5b049050600860009054906101000a900473ffffffffffffffffffffffffffffffffffffffff1673ffffffffffffffffffffffffffffffffffffffff166379c65068600e858154811015156122c057fe5b906000526020600020900160009054906101000a900473ffffffffffffffffffffffffffffffffffffffff16836040518363ffffffff167c0100000000000000000000000000000000000000000000000000000000028152600401808373ffffffffffffffffffffffffffffffffffffffff1673ffffffffffffffffffffffffffffffffffffffff16815260200182815260200192505050600060405180830381600087803b151561237157600080fd5b6102c65a03f1151561238257600080fd5b505050600860009054906101000a900473ffffffffffffffffffffffffffffffffffffffff1673ffffffffffffffffffffffffffffffffffffffff1663171ce59733836040518363ffffffff167c0100000000000000000000000000000000000000000000000000000000028152600401808373ffffffffffffffffffffffffffffffffffffffff1673ffffffffffffffffffffffffffffffffffffffff16815260200182815260200192505050600060405180830381600087803b151561244957600080fd5b6102c65a03f1151561245a57600080fd5b50505082806001019350506121cf565b505050565b828054600181600116156101000203166002900490600052602060002090601f016020900481019282601f106124b057805160ff19168380011785556124de565b828001600101855582156124de579182015b828111156124dd5782518255916020019190600101906124c2565b5b5090506124eb919061252f565b5090565b81548183558181151161251657818360005260206000209182019101612515919061252f565b5b505050565b602060405190810160405280600081525090565b61255191905b8082111561254d576000816000905550600101612535565b5090565b905600a165627a7a723058203413a41c33460106aae26b7013ed6fbd290284a5455125bce83a9493849d4a1b002960606040526040805190810160405280600981526020017f546f6b656e20312e3000000000000000000000000000000000000000000000008152506000908051906020019062000051929190620001a2565b5034156200005e57600080fd5b620186a0600381905550600354600760003373ffffffffffffffffffffffffffffffffffffffff1673ffffffffffffffffffffffffffffffffffffffff168152602001908152602001600020819055506040805190810160405280600381526020017f445458000000000000000000000000000000000000000000000000000000000081525060029080519060200190620000fb929190620001a2565b506040805190810160405280600c81526020017f5068656f6e6978546f6b656e00000000000000000000000000000000000000008152506001908051906020019062000149929190620001a2565b506101f4600481905550600060058190555033600660006101000a81548173ffffffffffffffffffffffffffffffffffffffff021916908373ffffffffffffffffffffffffffffffffffffffff16021790555062000251565b828054600181600116156101000203166002900490600052602060002090601f016020900481019282601f10620001e557805160ff191683800117855562000216565b8280016001018555821562000216579182015b8281111562000215578251825591602001919060010190620001f8565b5b50905062000225919062000229565b5090565b6200024e91905b808211156200024a57600081600090555060010162000230565b5090565b90565b610f6380620002616000396000f3006060604052600436106100db576000357c0100000000000000000000000000000000000000000000000000000000900463ffffffff16806306fdde03146100e0578063095ea7b31461016e578063171ce597146101c857806318160ddd146101ff57806323b872dd14610228578063313ce567146102a15780635c658165146102ca578063661884631461033657806370a082311461039057806372dd529b146103dd57806379c650681461040657806395d89b4114610448578063a9059cbb146104d6578063d73dd62314610530578063dd62ed3e1461058a575b600080fd5b34156100eb57600080fd5b6100f36105f6565b6040518080602001828103825283818151815260200191508051906020019080838360005b83811015610133578082015181840152602081019050610118565b50505050905090810190601f1680156101605780820380516001836020036101000a031916815260200191505b509250505060405180910390f35b341561017957600080fd5b6101ae600480803573ffffffffffffffffffffffffffffffffffffffff16906020019091908035906020019091905050610694565b604051808215151515815260200191505060405180910390f35b6101fd600480803573ffffffffffffffffffffffffffffffffffffffff16906020019091908035906020019091905050610721565b005b341561020a57600080fd5b6102126107aa565b6040518082815260200191505060405180910390f35b341561023357600080fd5b610287600480803573ffffffffffffffffffffffffffffffffffffffff1690602001909190803573ffffffffffffffffffffffffffffffffffffffff169060200190919080359060200190919050506107b4565b604051808215151515815260200191505060405180910390f35b34156102ac57600080fd5b6102b4610930565b6040518082815260200191505060405180910390f35b34156102d557600080fd5b610320600480803573ffffffffffffffffffffffffffffffffffffffff1690602001909190803573ffffffffffffffffffffffffffffffffffffffff16906020019091905050610936565b6040518082815260200191505060405180910390f35b341561034157600080fd5b610376600480803573ffffffffffffffffffffffffffffffffffffffff1690602001909190803590602001909190505061095b565b604051808215151515815260200191505060405180910390f35b341561039b57600080fd5b6103c7600480803573ffffffffffffffffffffffffffffffffffffffff16906020019091905050610a66565b6040518082815260200191505060405180910390f35b34156103e857600080fd5b6103f0610aaf565b6040518082815260200191505060405180910390f35b341561041157600080fd5b610446600480803573ffffffffffffffffffffffffffffffffffffffff16906020019091908035906020019091905050610ab5565b005b341561045357600080fd5b61045b610b3e565b6040518080602001828103825283818151815260200191508051906020019080838360005b8381101561049b578082015181840152602081019050610480565b50505050905090810190601f1680156104c85780820380516001836020036101000a031916815260200191505b509250505060405180910390f35b34156104e157600080fd5b610516600480803573ffffffffffffffffffffffffffffffffffffffff16906020019091908035906020019091905050610bdc565b604051808215151515815260200191505060405180910390f35b341561053b57600080fd5b610570600480803573ffffffffffffffffffffffffffffffffffffffff16906020019091908035906020019091905050610da5565b604051808215151515815260200191505060405180910390f35b341561059557600080fd5b6105e0600480803573ffffffffffffffffffffffffffffffffffffffff1690602001909190803573ffffffffffffffffffffffffffffffffffffffff16906020019091905050610eb0565b6040518082815260200191505060405180910390f35b60018054600181600116156101000203166002900480601f01602080910402602001604051908101604052809291908181526020018280546001816001161561010002031660029004801561068c5780601f106106615761010080835404028352916020019161068c565b820191906000526020600020905b81548152906001019060200180831161066f57829003601f168201915b505050505081565b600081600860003373ffffffffffffffffffffffffffffffffffffffff1673ffffffffffffffffffffffffffffffffffffffff16815260200190815260200160002060008573ffffffffffffffffffffffffffffffffffffffff1673ffffffffffffffffffffffffffffffffffffffff168152602001908152602001600020819055506001905092915050565b80600760008473ffffffffffffffffffffffffffffffffffffffff1673ffffffffffffffffffffffffffffffffffffffff1681526020019081526020016000205403600760008473ffffffffffffffffffffffffffffffffffffffff1673ffffffffffffffffffffffffffffffffffffffff168152602001908152602001600020819055505050565b6000600354905090565b600081600760008673ffffffffffffffffffffffffffffffffffffffff1673ffffffffffffffffffffffffffffffffffffffff1681526020019081526020016000205403600760008673ffffffffffffffffffffffffffffffffffffffff1673ffffffffffffffffffffffffffffffffffffffff1681526020019081526020016000208190555081600760008573ffffffffffffffffffffffffffffffffffffffff1673ffffffffffffffffffffffffffffffffffffffff1681526020019081526020016000205401600760008573ffffffffffffffffffffffffffffffffffffffff1673ffffffffffffffffffffffffffffffffffffffff168152602001908152602001600020819055508273ffffffffffffffffffffffffffffffffffffffff168473ffffffffffffffffffffffffffffffffffffffff167fddf252ad1be2c89b69c2b068fc378daa952ba7f163c4a11628f55a4df523b3ef846040518082815260200191505060405180910390a3600190509392505050565b60055481565b6008602052816000526040600020602052806000526040600020600091509150505481565b600081600860003373ffffffffffffffffffffffffffffffffffffffff1673ffffffffffffffffffffffffffffffffffffffff16815260200190815260200160002060008573ffffffffffffffffffffffffffffffffffffffff1673ffffffffffffffffffffffffffffffffffffffff1681526020019081526020016000205403600860003373ffffffffffffffffffffffffffffffffffffffff1673ffffffffffffffffffffffffffffffffffffffff16815260200190815260200160002060008573ffffffffffffffffffffffffffffffffffffffff1673ffffffffffffffffffffffffffffffffffffffff168152602001908152602001600020819055506001905092915050565b6000600760008373ffffffffffffffffffffffffffffffffffffffff1673ffffffffffffffffffffffffffffffffffffffff168152602001908152602001600020549050919050565b60035481565b80600760008473ffffffffffffffffffffffffffffffffffffffff1673ffffffffffffffffffffffffffffffffffffffff1681526020019081526020016000205401600760008473ffffffffffffffffffffffffffffffffffffffff1673ffffffffffffffffffffffffffffffffffffffff168152602001908152602001600020819055505050565b60028054600181600116156101000203166002900480601f016020809104026020016040519081016040528092919081815260200182805460018160011615610100020316600290048015610bd45780601f10610ba957610100808354040283529160200191610bd4565b820191906000526020600020905b815481529060010190602001808311610bb757829003601f168201915b505050505081565b6000600760003373ffffffffffffffffffffffffffffffffffffffff1673ffffffffffffffffffffffffffffffffffffffff168152602001908152602001600020548211151515610c2c57600080fd5b81600760003373ffffffffffffffffffffffffffffffffffffffff1673ffffffffffffffffffffffffffffffffffffffff1681526020019081526020016000205403600760003373ffffffffffffffffffffffffffffffffffffffff1673ffffffffffffffffffffffffffffffffffffffff1681526020019081526020016000208190555081600760008573ffffffffffffffffffffffffffffffffffffffff1673ffffffffffffffffffffffffffffffffffffffff1681526020019081526020016000205401600760008573ffffffffffffffffffffffffffffffffffffffff1673ffffffffffffffffffffffffffffffffffffffff168152602001908152602001600020819055508273ffffffffffffffffffffffffffffffffffffffff163373ffffffffffffffffffffffffffffffffffffffff167fddf252ad1be2c89b69c2b068fc378daa952ba7f163c4a11628f55a4df523b3ef846040518082815260200191505060405180910390a36001905092915050565b600081600860003373ffffffffffffffffffffffffffffffffffffffff1673ffffffffffffffffffffffffffffffffffffffff16815260200190815260200160002060008573ffffffffffffffffffffffffffffffffffffffff1673ffffffffffffffffffffffffffffffffffffffff1681526020019081526020016000205401600860003373ffffffffffffffffffffffffffffffffffffffff1673ffffffffffffffffffffffffffffffffffffffff16815260200190815260200160002060008573ffffffffffffffffffffffffffffffffffffffff1673ffffffffffffffffffffffffffffffffffffffff168152602001908152602001600020819055506001905092915050565b6000600860008473ffffffffffffffffffffffffffffffffffffffff1673ffffffffffffffffffffffffffffffffffffffff16815260200190815260200160002060008373ffffffffffffffffffffffffffffffffffffffff1673ffffffffffffffffffffffffffffffffffffffff168152602001908152602001600020549050929150505600a165627a7a723058206813f40020257016c4d43ef7469d8a0f2827db1fefc4b964cc63808d17d14cc00029",
  "source": "pragma solidity ^0.4.18;\r\n\r\nimport \"./MarketToken.sol\";\r\nimport \"./FundToken.sol\";\r\n\r\ncontract DMF {\r\n    \r\n        FundToken public Token; //obj for Fundtoken3\r\n    \r\n     //Constructor For initialize the contract Owner Address and Contract Deployed Address\r\n            function DMF(address na,address _mark1)public payable{\r\n                owner=msg.sender;\r\n                newadd=address(this);\r\n                Token=new FundToken();\r\n                 contractAddress=na;\r\n                 MarketToken1 = _mark1;\r\n                      \r\n    \r\n                \r\n            }\r\n       \r\n        //modifier only access the functions by Portfolio manager \r\n        modifier OnlyPortfolio()\r\n        {\r\n            if(msg.sender == ToatlportfolioMAddress[0])\r\n            {\r\n                _;\r\n            }\r\n        }\r\n        //Global Variable Declaration part\r\n\r\n        address owner; //owner variable for assigning contract Owner\r\n        address public newadd; //For getting the Contract Address\r\n        uint256 rate = 0.001 ether; //rate of Fundtoken For PortfolioManager\r\n        uint256 cost = 0.1 ether; //rate of Fundtokens For Investor \r\n       uint256 dividendToken = 100; //divident tokens count for give the profit to Investor\r\n        uint256 profitToken = 10; //profit tokens for the Portfolio manager \r\n        uint256 public PortfolioManagerprofit = 0; //For the Portfoliomanager profit tokens \r\n        address contractAddress; //Fundtoken\r\n        address MarketToken1; //Address for MarketToken1\r\n        address MarketToken2; //Address For MarketToken2\r\n        uint256 public InvestersTotalToken=0; //invester total token count\r\n        \r\n        address public Pendingreturnaddress;\r\n    //ArrayList\r\n     address[] ToatlportfolioMAddress; //Array for storing the each register PortfolioManager\r\n     address[] public TotalInvestorAddress; //Array for storing the each register Investors\r\n     uint256 public etherCalculation;\r\n    //Phase -2                                                                                                                                                                                                                                                                \r\n                            //Structure Area\r\n     \r\n\r\n     //Structure For PortfolioManager Details\r\n            struct PortfolioDetails\r\n            {\r\n                address portfolioM;\r\n                //address contractAdd;\r\n                uint256 Eth;\r\n            }\r\n    //Structure For Investor Details  \r\n            struct InvestorDetails\r\n            {\r\n                address buyer;\r\n                uint256 Eth;\r\n                uint256 TokenCount;\r\n            }\r\n\r\n   //Structure For MarketToken Purchase Details\r\n   struct MarketTokenPurchase\r\n   {\r\n       address contractAdd;\r\n       string name;\r\n       string symbol;\r\n       uint256 decimal;\r\n       uint256 totalbuycount;\r\n\r\n   }\r\n   \r\n          //For assigning totalsuply \r\n    //Mapping Area\r\n    mapping(address=>uint256)public toCheckbln;\r\n    mapping(address => PortfolioDetails) public Portfolio ; //Map for getting and storing the PortfolioManager resgistration Details\r\n    mapping(address => InvestorDetails) public invester ; //map for getting and storing the Investor getting token details\r\n    mapping(address => MarketTokenPurchase) public Market; //Map for getting the MarketToken Purchase details by the Portfoliomanager\r\n     \r\n      //Fallback Function For Holding the Ether in Contract\r\n      function () public payable{\r\n          \r\n      }\r\n      \r\n\r\n                                //Function Area\r\n        //Function For PortfolioManager Resgistration\r\n        function PortfolioReg() public payable{\r\n        Portfolio[msg.sender].portfolioM= msg.sender;\r\n        Portfolio[msg.sender].Eth=Portfolio[msg.sender].Eth + msg.value;\r\n        GetFundToken(msg.value);\r\n        }\r\n        \r\n       \r\n\r\n        //Function For Getting the Fundtokens by the PortfolioManager\r\n         function GetFundToken(uint256 value) private{\r\n            uint256 tokens = value / rate;\r\n            FundToken(contractAddress).mintToken(msg.sender,tokens);\r\n            //Transfer(0,msg.sender,msg.value);\r\n           \r\n           \r\n            ToatlportfolioMAddress.push(msg.sender);\r\n         }\r\n\r\n        //Function For Getting the Contract Ether Balance \r\n      function GetBal()public view returns(uint256){\r\n          return this.balance;\r\n         // 1 ether; //converting wei value to ether\r\n      }\r\n      \r\n\r\n      //Function For Getting the Contract Address\r\n      function getContractaddress() public view returns(address)\r\n      {\r\n          return newadd;\r\n      }\r\n      \r\n      \r\n      //Phase-3\r\n\r\n      //Function For Buying the FundTokens by the Investor From the PortfolioManager\r\n      function InvesterGetToken() public payable\r\n      {\r\n          uint256 tokens = msg.value / cost;\r\n          InvestersTotalToken += tokens;\r\n          FundToken(contractAddress).transferFrom(ToatlportfolioMAddress[0],msg.sender,tokens);\r\n          TotalInvestorAddress.push(msg.sender);\r\n          invester[msg.sender].buyer = msg.sender;\r\n          invester[msg.sender].Eth = msg.value;\r\n          invester[msg.sender].TokenCount = tokens;\r\n          \r\n      }\r\n    \r\n  \r\n\r\n    //Phase-4\r\n\r\n\r\n    //Function For Getting the Investor Balance of Tokens\r\n    function getBalance() public view returns(uint256)\r\n    {\r\n       return FundToken(contractAddress).balanceOf(TotalInvestorAddress[0]);\r\n    }\r\n\r\n    //Phase-5\r\n    \r\n    /** The dividends calculations\r\n        Investor1 = (( Investor1_fund TK) / (Inves1_FUndTK + Inves2_FUndTK + ... )) * 90;\r\n     */\r\n    //Function For issue the Dividends yo the User\r\n   function Dividends() public OnlyPortfolio   \r\n    {\r\n        \r\n        FundToken(contractAddress).mintToken(msg.sender,dividendToken); //minting the token \r\n        PortfolioManagerprofit = (dividendToken* 10) / 100; //taking the portfolio share\r\n        FundToken(contractAddress).mintToken(msg.sender,PortfolioManagerprofit);\r\n       \r\n        \r\n         ShareETK_ToI();\r\n         \r\n         \r\n    }\r\n    \r\n    \r\n    \r\n    \r\n    //function for split the profit to each tokens\r\n    function ShareETK_ToI() private \r\n    {\r\n        for(uint256 i=0;i<TotalInvestorAddress.length;i++)\r\n        {\r\n            uint256 b = invester[TotalInvestorAddress[i]].TokenCount * (dividendToken - PortfolioManagerprofit);\r\n             uint256 a =  b  / InvestersTotalToken;\r\n           FundToken(contractAddress).mintToken(TotalInvestorAddress[i],a);\r\n           FundToken(contractAddress).tokenDecrease(msg.sender,a);\r\n        }\r\n    }\r\n    //function for split the profit to each tokens\r\n    \r\n    \r\n    //getting All the Investor and PortfolioManager balance \r\n    function getAllBalance() public view returns(uint256)\r\n    {\r\n     return FundToken(contractAddress).balanceOf(msg.sender);\r\n    }\r\n    \r\n \r\n      //Phase-6 \r\n      \r\n      //Function for Sell The Tokens to the PortfolioManager\r\n    function ReturnTokenToPortfolioManager(uint256 value)public payable{\r\n     \r\n        FundToken(contractAddress).transferFrom(msg.sender,ToatlportfolioMAddress[0],value);\r\n        Pendingreturnaddress = msg.sender;\r\n     }\r\n     \r\n     //Function Give the Ether for Investor return Tokens \r\n     function SendEther(address _add)  public  payable\r\n     {\r\n         if(_add == ToatlportfolioMAddress[0])\r\n         {\r\n         Pendingreturnaddress.transfer(msg.value);\r\n         Pendingreturnaddress = 0;\r\n         }\r\n     }\r\n    \r\n   \r\n\r\n   function listOfPortfolioManager()public view returns(address){\r\n       return ToatlportfolioMAddress[0];\r\n   }\r\n\r\n\r\n   //Phase-7\r\n\r\n   //market Token-1\r\n\r\n   function DisplayTotalsupMarkTK1() public view returns(uint256)\r\n   {\r\n       return MarketToken(MarketToken1).DisplayTotalsupply();\r\n   }\r\n\r\n   function DisplayDecimalMarkTK1() public view returns(uint256)\r\n   {\r\n       return MarketToken(MarketToken1).DisplayDecimal();\r\n   }\r\n\r\n   function DisplayRateMarkTK1() public view returns(uint256)\r\n   {\r\n       return MarketToken(MarketToken1).DisplaytheRate();\r\n   }\r\n\r\n   function DisplayBalanceMarkTK1() public view returns(uint256)\r\n   {\r\n       return MarketToken(MarketToken1).DisplayBalance(msg.sender);\r\n   }\r\n\r\n   function DisplayAddressMarkTK1() public view returns(address)\r\n   {\r\n       return MarketToken(MarketToken1).DisplayTheAddress();\r\n   }\r\n\r\n    //Market Token-2\r\n\r\n    /**\r\n   function DisplayTotalsupMarkTK2() public view returns(uint256)\r\n   {\r\n       return MarketToken(MarketToken2).DisplayTotalsupply();\r\n   }\r\n\r\n   function DisplayDecimalMarkTK2() public view returns(uint256)\r\n   {\r\n       return MarketToken(MarketToken2).DisplayDecimal();\r\n   }\r\n\r\n   function DisplayRateMarkTK2() public view returns(uint256)\r\n   {\r\n       return MarketToken(MarketToken2).DisplaytheRate();\r\n   }\r\n\r\n   function DisplayBalanceMarkTK2(address _add) public view returns(uint256)\r\n   {\r\n       return MarketToken(MarketToken2).DisplayBalance(_add);\r\n   }\r\n\r\n   function DisplayAddressMarkTK2() public view returns(address)\r\n   {\r\n       return MarketToken(MarketToken2).DisplayTheAddress();\r\n   }\r\n\r\n\r\n*/\r\n\r\n   //Phase-8\r\n   \r\n   //Function for Purchase the market tokens by the PortfolioManager\r\n   function Purchasingtoken(address _contractadd,string _name,string _symbol,uint256 _totacount) public payable\r\n   {\r\n       MarketToken(_contractadd).buytokens(msg.value);\r\n       Market[msg.sender].name = _name;\r\n       Market[msg.sender].symbol = _symbol;\r\n       Market[msg.sender].decimal = 0;\r\n       Market[msg.sender].totalbuycount = _totacount;\r\n       Market[msg.sender].contractAdd = _contractadd;\r\n       \r\n       \r\n   }\r\n\r\nfunction DisplayPurchasedTokendetails() public view returns(string,address,string,uint256)\r\n{\r\n    return (Market[msg.sender].name,Market[msg.sender].contractAdd,Market[msg.sender].symbol,Market[msg.sender].totalbuycount);\r\n}\r\n   \r\n}                                                                                     ",
  "sourcePath": "C:\\Users\\arumugam.0918\\Desktop\\new\\Mutual-Funds\\contracts\\DMF.sol",
  "compiler": {
    "name": "solc",
    "version": "0.4.19+commit.c4cbbb05.Emscripten.clang"
  },
  "schemaVersion": "2.0.0",
  "updatedAt": "2018-04-03T10:44:18.449Z"
}