{
  "contractName": "DMF",
  "abi": [
    {
      "constant": true,
      "inputs": [],
      "name": "etherCalculation",
      "outputs": [
        {
          "name": "",
          "type": "uint256"
        }
      ],
      "payable": false,
      "stateMutability": "view",
      "type": "function"
    },
    {
      "constant": true,
      "inputs": [],
      "name": "takecommission",
      "outputs": [
        {
          "name": "",
          "type": "uint256"
        }
      ],
      "payable": false,
      "stateMutability": "view",
      "type": "function"
    },
    {
      "constant": true,
      "inputs": [],
      "name": "TR",
      "outputs": [
        {
          "name": "",
          "type": "uint256"
        }
      ],
      "payable": false,
      "stateMutability": "view",
      "type": "function"
    },
    {
      "constant": true,
      "inputs": [
        {
          "name": "",
          "type": "uint256"
        }
      ],
      "name": "TotalInvestorAddress",
      "outputs": [
        {
          "name": "",
          "type": "address"
        }
      ],
      "payable": false,
      "stateMutability": "view",
      "type": "function"
    },
    {
      "constant": true,
      "inputs": [],
      "name": "InvestersTotalToken",
      "outputs": [
        {
          "name": "",
          "type": "uint256"
        }
      ],
      "payable": false,
      "stateMutability": "view",
      "type": "function"
    },
    {
      "constant": true,
      "inputs": [],
      "name": "commissionForDmf",
      "outputs": [
        {
          "name": "",
          "type": "uint256"
        }
      ],
      "payable": false,
      "stateMutability": "view",
      "type": "function"
    },
    {
      "constant": true,
      "inputs": [],
      "name": "Pendingreturnaddress",
      "outputs": [
        {
          "name": "",
          "type": "address"
        }
      ],
      "payable": false,
      "stateMutability": "view",
      "type": "function"
    },
    {
      "constant": true,
      "inputs": [],
      "name": "xy",
      "outputs": [
        {
          "name": "",
          "type": "uint256"
        }
      ],
      "payable": false,
      "stateMutability": "view",
      "type": "function"
    },
    {
      "constant": true,
      "inputs": [
        {
          "name": "",
          "type": "address"
        },
        {
          "name": "",
          "type": "address"
        }
      ],
      "name": "invester",
      "outputs": [
        {
          "name": "buyer",
          "type": "address"
        },
        {
          "name": "Eth",
          "type": "uint256"
        },
        {
          "name": "TokenCount",
          "type": "uint256"
        }
      ],
      "payable": false,
      "stateMutability": "view",
      "type": "function"
    },
    {
      "constant": true,
      "inputs": [],
      "name": "m2",
      "outputs": [
        {
          "name": "",
          "type": "address"
        }
      ],
      "payable": false,
      "stateMutability": "view",
      "type": "function"
    },
    {
      "constant": true,
      "inputs": [],
      "name": "PortfolioManagerprofit",
      "outputs": [
        {
          "name": "",
          "type": "uint256"
        }
      ],
      "payable": false,
      "stateMutability": "view",
      "type": "function"
    },
    {
      "constant": true,
      "inputs": [],
      "name": "newadd",
      "outputs": [
        {
          "name": "",
          "type": "address"
        }
      ],
      "payable": false,
      "stateMutability": "view",
      "type": "function"
    },
    {
      "constant": true,
      "inputs": [],
      "name": "y",
      "outputs": [
        {
          "name": "",
          "type": "uint256"
        }
      ],
      "payable": false,
      "stateMutability": "view",
      "type": "function"
    },
    {
      "constant": true,
      "inputs": [],
      "name": "m1",
      "outputs": [
        {
          "name": "",
          "type": "address"
        }
      ],
      "payable": false,
      "stateMutability": "view",
      "type": "function"
    },
    {
      "constant": true,
      "inputs": [
        {
          "name": "",
          "type": "address"
        }
      ],
      "name": "PM_soldTK_Ether",
      "outputs": [
        {
          "name": "",
          "type": "uint256"
        }
      ],
      "payable": false,
      "stateMutability": "view",
      "type": "function"
    },
    {
      "constant": true,
      "inputs": [],
      "name": "Token",
      "outputs": [
        {
          "name": "",
          "type": "address"
        }
      ],
      "payable": false,
      "stateMutability": "view",
      "type": "function"
    },
    {
      "constant": true,
      "inputs": [
        {
          "name": "",
          "type": "address"
        }
      ],
      "name": "Portfolio",
      "outputs": [
        {
          "name": "portfolioM",
          "type": "address"
        },
        {
          "name": "Eth",
          "type": "uint256"
        },
        {
          "name": "tokenName",
          "type": "string"
        },
        {
          "name": "count1",
          "type": "uint256"
        },
        {
          "name": "count2",
          "type": "uint256"
        },
        {
          "name": "commissionForPortfolio",
          "type": "uint256"
        }
      ],
      "payable": false,
      "stateMutability": "view",
      "type": "function"
    },
    {
      "constant": true,
      "inputs": [
        {
          "name": "",
          "type": "address"
        },
        {
          "name": "",
          "type": "address"
        }
      ],
      "name": "Market",
      "outputs": [
        {
          "name": "contractAdd",
          "type": "address"
        },
        {
          "name": "name",
          "type": "string"
        },
        {
          "name": "symbol",
          "type": "string"
        },
        {
          "name": "decimal",
          "type": "uint256"
        },
        {
          "name": "totalbuycount",
          "type": "uint256"
        }
      ],
      "payable": false,
      "stateMutability": "view",
      "type": "function"
    },
    {
      "inputs": [
        {
          "name": "na",
          "type": "address"
        },
        {
          "name": "Mark1",
          "type": "address"
        },
        {
          "name": "Mark2",
          "type": "address"
        }
      ],
      "payable": true,
      "stateMutability": "payable",
      "type": "constructor"
    },
    {
      "constant": false,
      "inputs": [],
      "name": "PortfolioReg",
      "outputs": [],
      "payable": true,
      "stateMutability": "payable",
      "type": "function"
    },
    {
      "constant": true,
      "inputs": [],
      "name": "GetBal",
      "outputs": [
        {
          "name": "",
          "type": "uint256"
        }
      ],
      "payable": false,
      "stateMutability": "view",
      "type": "function"
    },
    {
      "constant": true,
      "inputs": [],
      "name": "getContractaddress",
      "outputs": [
        {
          "name": "",
          "type": "address"
        }
      ],
      "payable": false,
      "stateMutability": "view",
      "type": "function"
    },
    {
      "constant": false,
      "inputs": [],
      "name": "InvesterGetToken",
      "outputs": [],
      "payable": true,
      "stateMutability": "payable",
      "type": "function"
    },
    {
      "constant": true,
      "inputs": [],
      "name": "getBalance",
      "outputs": [
        {
          "name": "",
          "type": "uint256"
        }
      ],
      "payable": false,
      "stateMutability": "view",
      "type": "function"
    },
    {
      "constant": false,
      "inputs": [],
      "name": "Dividends",
      "outputs": [],
      "payable": false,
      "stateMutability": "nonpayable",
      "type": "function"
    },
    {
      "constant": true,
      "inputs": [],
      "name": "getAllBalance",
      "outputs": [
        {
          "name": "",
          "type": "uint256"
        }
      ],
      "payable": false,
      "stateMutability": "view",
      "type": "function"
    },
    {
      "constant": false,
      "inputs": [
        {
          "name": "value",
          "type": "uint256"
        }
      ],
      "name": "ReturnTokenToPortfolioManager",
      "outputs": [],
      "payable": true,
      "stateMutability": "payable",
      "type": "function"
    },
    {
      "constant": true,
      "inputs": [],
      "name": "PortfolioManagerList",
      "outputs": [
        {
          "name": "",
          "type": "address"
        }
      ],
      "payable": false,
      "stateMutability": "view",
      "type": "function"
    },
    {
      "constant": false,
      "inputs": [
        {
          "name": "_contractadd",
          "type": "address"
        },
        {
          "name": "_name",
          "type": "string"
        },
        {
          "name": "_symbol",
          "type": "string"
        },
        {
          "name": "_totacount",
          "type": "uint256"
        }
      ],
      "name": "PurchasingMarket1token",
      "outputs": [],
      "payable": false,
      "stateMutability": "nonpayable",
      "type": "function"
    },
    {
      "constant": false,
      "inputs": [
        {
          "name": "_contractadd",
          "type": "address"
        },
        {
          "name": "_name",
          "type": "string"
        },
        {
          "name": "_symbol",
          "type": "string"
        },
        {
          "name": "_totacount",
          "type": "uint256"
        }
      ],
      "name": "PurchasingMarket2token",
      "outputs": [],
      "payable": false,
      "stateMutability": "nonpayable",
      "type": "function"
    },
    {
      "constant": true,
      "inputs": [],
      "name": "DisplayPurchasedTKCount",
      "outputs": [
        {
          "name": "",
          "type": "uint256"
        }
      ],
      "payable": false,
      "stateMutability": "view",
      "type": "function"
    },
    {
      "constant": true,
      "inputs": [],
      "name": "DisplayPurchasedTK1",
      "outputs": [
        {
          "name": "",
          "type": "address"
        },
        {
          "name": "",
          "type": "string"
        },
        {
          "name": "",
          "type": "string"
        },
        {
          "name": "",
          "type": "uint256"
        },
        {
          "name": "",
          "type": "uint256"
        }
      ],
      "payable": false,
      "stateMutability": "view",
      "type": "function"
    },
    {
      "constant": true,
      "inputs": [],
      "name": "DisplayPurchasedTK2",
      "outputs": [
        {
          "name": "",
          "type": "address"
        },
        {
          "name": "",
          "type": "string"
        },
        {
          "name": "",
          "type": "string"
        },
        {
          "name": "",
          "type": "uint256"
        },
        {
          "name": "",
          "type": "uint256"
        }
      ],
      "payable": false,
      "stateMutability": "view",
      "type": "function"
    },
    {
      "constant": true,
      "inputs": [
        {
          "name": "a",
          "type": "address"
        }
      ],
      "name": "listOfPortfolioManager",
      "outputs": [
        {
          "name": "",
          "type": "address"
        },
        {
          "name": "",
          "type": "uint256"
        },
        {
          "name": "",
          "type": "uint256"
        },
        {
          "name": "",
          "type": "uint256"
        },
        {
          "name": "",
          "type": "uint256"
        }
      ],
      "payable": false,
      "stateMutability": "view",
      "type": "function"
    },
    {
      "constant": true,
      "inputs": [],
      "name": "Pcount",
      "outputs": [
        {
          "name": "",
          "type": "uint256"
        }
      ],
      "payable": false,
      "stateMutability": "view",
      "type": "function"
    },
    {
      "constant": true,
      "inputs": [
        {
          "name": "a",
          "type": "uint256"
        }
      ],
      "name": "getPortfolioAddress",
      "outputs": [
        {
          "name": "",
          "type": "address"
        }
      ],
      "payable": false,
      "stateMutability": "view",
      "type": "function"
    },
    {
      "constant": true,
      "inputs": [
        {
          "name": "a",
          "type": "uint256"
        },
        {
          "name": "a1",
          "type": "uint256"
        }
      ],
      "name": "getInvesterAddress",
      "outputs": [
        {
          "name": "",
          "type": "address"
        },
        {
          "name": "",
          "type": "address"
        }
      ],
      "payable": false,
      "stateMutability": "view",
      "type": "function"
    },
    {
      "constant": true,
      "inputs": [],
      "name": "Icount",
      "outputs": [
        {
          "name": "",
          "type": "uint256"
        }
      ],
      "payable": false,
      "stateMutability": "view",
      "type": "function"
    }
  ],
  "bytecode": "0x606060405266038d7ea4c6800060095567016345785d8a0000600a556064600b55600a600c556000600d556000600f55604051606080620058548339810160405280805190602001909190805190602001909190805190602001909190505033600760006101000a81548173ffffffffffffffffffffffffffffffffffffffff021916908373ffffffffffffffffffffffffffffffffffffffff16021790555030600860006101000a81548173ffffffffffffffffffffffffffffffffffffffff021916908373ffffffffffffffffffffffffffffffffffffffff160217905550620000ea620002d1565b604051809103906000f08015156200010157600080fd5b600660006101000a81548173ffffffffffffffffffffffffffffffffffffffff021916908373ffffffffffffffffffffffffffffffffffffffff16021790555082600e60006101000a81548173ffffffffffffffffffffffffffffffffffffffff021916908373ffffffffffffffffffffffffffffffffffffffff160217905550816000806101000a81548173ffffffffffffffffffffffffffffffffffffffff021916908373ffffffffffffffffffffffffffffffffffffffff16021790555080600160006101000a81548173ffffffffffffffffffffffffffffffffffffffff021916908373ffffffffffffffffffffffffffffffffffffffff160217905550600160009054906101000a900473ffffffffffffffffffffffffffffffffffffffff16600360006101000a81548173ffffffffffffffffffffffffffffffffffffffff021916908373ffffffffffffffffffffffffffffffffffffffff1602179055506000809054906101000a900473ffffffffffffffffffffffffffffffffffffffff16600260006101000a81548173ffffffffffffffffffffffffffffffffffffffff021916908373ffffffffffffffffffffffffffffffffffffffff160217905550505050620002e2565b6040516111c4806200469083390190565b61439e80620002f26000396000f3006060604052600436106101cd576000357c0100000000000000000000000000000000000000000000000000000000900463ffffffff16806308306bb2146101d25780630c593ca1146102355780630d0e242f146102fd57806312065fe014610326578063208345ea1461034f5780632722271f1461037857806331e69acb1461038257806334133df9146103ab57806336c38cc7146103d45780633989d2601461043757806363d751ab1461046057806367e2ddd714610489578063680d94a7146104b25780637691edc4146104bc578063822bdca7146105845780638321e9cf14610623578063858d8d27146106785780639074a655146106a157806391aa69ca14610747578063971c34281461079c57806398d50eae146107c55780639e9c5f91146107ee578063a56dfe4a14610843578063a77f92ff1461086c578063af1759fb146108c1578063b759c28e146108d9578063b9392a601461092e578063ba04fa8d14610a69578063bf8869b514610ab6578063c241267614610adf578063c76f1bba14610b34578063d4691adc14610bc9578063de85406514610c1e578063e2aa68dd14610d1f578063eb9969a814610e5a578063ed88b05c14610e83578063f15f14c514611001575b600080fd5b34156101dd57600080fd5b6101f36004808035906020019091905050611016565b604051808273ffffffffffffffffffffffffffffffffffffffff1673ffffffffffffffffffffffffffffffffffffffff16815260200191505060405180910390f35b341561024057600080fd5b6102fb600480803573ffffffffffffffffffffffffffffffffffffffff1690602001909190803590602001908201803590602001908080601f0160208091040260200160405190810160405280939291908181526020018383808284378201915050505050509190803590602001908201803590602001908080601f0160208091040260200160405190810160405280939291908181526020018383808284378201915050505050509190803590602001909190505061105a565b005b341561030857600080fd5b6103106114ba565b6040518082815260200191505060405180910390f35b341561033157600080fd5b6103396114c7565b6040518082815260200191505060405180910390f35b341561035a57600080fd5b6103626115dc565b6040518082815260200191505060405180910390f35b6103806115e2565b005b341561038d57600080fd5b6103956117bf565b6040518082815260200191505060405180910390f35b34156103b657600080fd5b6103be6117c5565b6040518082815260200191505060405180910390f35b34156103df57600080fd5b6103f560048080359060200190919050506117cb565b604051808273ffffffffffffffffffffffffffffffffffffffff1673ffffffffffffffffffffffffffffffffffffffff16815260200191505060405180910390f35b341561044257600080fd5b61044a61180a565b6040518082815260200191505060405180910390f35b341561046b57600080fd5b610473611810565b6040518082815260200191505060405180910390f35b341561049457600080fd5b61049c611a11565b6040518082815260200191505060405180910390f35b6104ba611a17565b005b34156104c757600080fd5b610582600480803573ffffffffffffffffffffffffffffffffffffffff1690602001909190803590602001908201803590602001908080601f0160208091040260200160405190810160405280939291908181526020018383808284378201915050505050509190803590602001908201803590602001908080601f016020809104026020016040519081016040528093929190818152602001838380828437820191505050505050919080359060200190919050506120ef565b005b341561058f57600080fd5b6105ae6004808035906020019091908035906020019091905050612550565b604051808373ffffffffffffffffffffffffffffffffffffffff1673ffffffffffffffffffffffffffffffffffffffff1681526020018273ffffffffffffffffffffffffffffffffffffffff1673ffffffffffffffffffffffffffffffffffffffff1681526020019250505060405180910390f35b341561062e57600080fd5b6106366125d4565b604051808273ffffffffffffffffffffffffffffffffffffffff1673ffffffffffffffffffffffffffffffffffffffff16815260200191505060405180910390f35b341561068357600080fd5b61068b6125fa565b6040518082815260200191505060405180910390f35b34156106ac57600080fd5b6106f7600480803573ffffffffffffffffffffffffffffffffffffffff1690602001909190803573ffffffffffffffffffffffffffffffffffffffff16906020019091905050612600565b604051808473ffffffffffffffffffffffffffffffffffffffff1673ffffffffffffffffffffffffffffffffffffffff168152602001838152602001828152602001935050505060405180910390f35b341561075257600080fd5b61075a612657565b604051808273ffffffffffffffffffffffffffffffffffffffff1673ffffffffffffffffffffffffffffffffffffffff16815260200191505060405180910390f35b34156107a757600080fd5b6107af61267d565b6040518082815260200191505060405180910390f35b34156107d057600080fd5b6107d8612683565b6040518082815260200191505060405180910390f35b34156107f957600080fd5b610801612690565b604051808273ffffffffffffffffffffffffffffffffffffffff1673ffffffffffffffffffffffffffffffffffffffff16815260200191505060405180910390f35b341561084e57600080fd5b6108566126b6565b6040518082815260200191505060405180910390f35b341561087757600080fd5b61087f6126bc565b604051808273ffffffffffffffffffffffffffffffffffffffff1673ffffffffffffffffffffffffffffffffffffffff16815260200191505060405180910390f35b6108d760048080359060200190919050506126e1565b005b34156108e457600080fd5b6108ec612cc2565b604051808273ffffffffffffffffffffffffffffffffffffffff1673ffffffffffffffffffffffffffffffffffffffff16815260200191505060405180910390f35b341561093957600080fd5b610941612d1d565b604051808673ffffffffffffffffffffffffffffffffffffffff1673ffffffffffffffffffffffffffffffffffffffff1681526020018060200180602001858152602001848152602001838103835287818151815260200191508051906020019080838360005b838110156109c35780820151818401526020810190506109a8565b50505050905090810190601f1680156109f05780820380516001836020036101000a031916815260200191505b50838103825286818151815260200191508051906020019080838360005b83811015610a29578082015181840152602081019050610a0e565b50505050905090810190601f168015610a565780820380516001836020036101000a031916815260200191505b5097505050505050505060405180910390f35b3415610a7457600080fd5b610aa0600480803573ffffffffffffffffffffffffffffffffffffffff16906020019091905050613135565b6040518082815260200191505060405180910390f35b3415610ac157600080fd5b610ac961314d565b6040518082815260200191505060405180910390f35b3415610aea57600080fd5b610af261317f565b604051808273ffffffffffffffffffffffffffffffffffffffff1673ffffffffffffffffffffffffffffffffffffffff16815260200191505060405180910390f35b3415610b3f57600080fd5b610b6b600480803573ffffffffffffffffffffffffffffffffffffffff169060200190919050506131a5565b604051808673ffffffffffffffffffffffffffffffffffffffff1673ffffffffffffffffffffffffffffffffffffffff1681526020018581526020018481526020018381526020018281526020019550505050505060405180910390f35b3415610bd457600080fd5b610bdc61347c565b604051808273ffffffffffffffffffffffffffffffffffffffff1673ffffffffffffffffffffffffffffffffffffffff16815260200191505060405180910390f35b3415610c2957600080fd5b610c55600480803573ffffffffffffffffffffffffffffffffffffffff169060200190919050506134a6565b604051808773ffffffffffffffffffffffffffffffffffffffff1673ffffffffffffffffffffffffffffffffffffffff16815260200186815260200180602001858152602001848152602001838152602001828103825286818151815260200191508051906020019080838360005b83811015610cdf578082015181840152602081019050610cc4565b50505050905090810190601f168015610d0c5780820380516001836020036101000a031916815260200191505b5097505050505050505060405180910390f35b3415610d2a57600080fd5b610d3261359a565b604051808673ffffffffffffffffffffffffffffffffffffffff1673ffffffffffffffffffffffffffffffffffffffff1681526020018060200180602001858152602001848152602001838103835287818151815260200191508051906020019080838360005b83811015610db4578082015181840152602081019050610d99565b50505050905090810190601f168015610de15780820380516001836020036101000a031916815260200191505b50838103825286818151815260200191508051906020019080838360005b83811015610e1a578082015181840152602081019050610dff565b50505050905090810190601f168015610e475780820380516001836020036101000a031916815260200191505b5097505050505050505060405180910390f35b3415610e6557600080fd5b610e6d6139b7565b6040518082815260200191505060405180910390f35b3415610e8e57600080fd5b610ed9600480803573ffffffffffffffffffffffffffffffffffffffff1690602001909190803573ffffffffffffffffffffffffffffffffffffffff16906020019091905050613a91565b604051808673ffffffffffffffffffffffffffffffffffffffff1673ffffffffffffffffffffffffffffffffffffffff1681526020018060200180602001858152602001848152602001838103835287818151815260200191508051906020019080838360005b83811015610f5b578082015181840152602081019050610f40565b50505050905090810190601f168015610f885780820380516001836020036101000a031916815260200191505b50838103825286818151815260200191508051906020019080838360005b83811015610fc1578082015181840152602081019050610fa6565b50505050905090810190601f168015610fee5780820380516001836020036101000a031916815260200191505b5097505050505050505060405180910390f35b341561100c57600080fd5b611014613c24565b005b600060118281548110151561102757fe5b906000526020600020900160009054906101000a900473ffffffffffffffffffffffffffffffffffffffff169050919050565b6000806000601a60003373ffffffffffffffffffffffffffffffffffffffff1673ffffffffffffffffffffffffffffffffffffffff168152602001908152602001600020549250662386f26fc1000084029150670de0b6b3a7640000828115156110c057fe5b04905080831115156110d157600080fd5b6000809054906101000a900473ffffffffffffffffffffffffffffffffffffffff1673ffffffffffffffffffffffffffffffffffffffff16622625a083604051600060405180830381858888f193505050505085601960003373ffffffffffffffffffffffffffffffffffffffff1673ffffffffffffffffffffffffffffffffffffffff16815260200190815260200160002060008973ffffffffffffffffffffffffffffffffffffffff1673ffffffffffffffffffffffffffffffffffffffff16815260200190815260200160002060010190805190602001906111b792919061428d565b5084601960003373ffffffffffffffffffffffffffffffffffffffff1673ffffffffffffffffffffffffffffffffffffffff16815260200190815260200160002060008973ffffffffffffffffffffffffffffffffffffffff1673ffffffffffffffffffffffffffffffffffffffff168152602001908152602001600020600201908051906020019061124b92919061428d565b506000601960003373ffffffffffffffffffffffffffffffffffffffff1673ffffffffffffffffffffffffffffffffffffffff16815260200190815260200160002060008973ffffffffffffffffffffffffffffffffffffffff1673ffffffffffffffffffffffffffffffffffffffff1681526020019081526020016000206003018190555083601960003373ffffffffffffffffffffffffffffffffffffffff1673ffffffffffffffffffffffffffffffffffffffff16815260200190815260200160002060008973ffffffffffffffffffffffffffffffffffffffff1673ffffffffffffffffffffffffffffffffffffffff1681526020019081526020016000206004018190555086601960003373ffffffffffffffffffffffffffffffffffffffff1673ffffffffffffffffffffffffffffffffffffffff16815260200190815260200160002060008973ffffffffffffffffffffffffffffffffffffffff1673ffffffffffffffffffffffffffffffffffffffff16815260200190815260200160002060000160006101000a81548173ffffffffffffffffffffffffffffffffffffffff021916908373ffffffffffffffffffffffffffffffffffffffff16021790555085601760003373ffffffffffffffffffffffffffffffffffffffff1673ffffffffffffffffffffffffffffffffffffffff168152602001908152602001600020600201908051906020019061146992919061428d565b5083601760003373ffffffffffffffffffffffffffffffffffffffff1673ffffffffffffffffffffffffffffffffffffffff1681526020019081526020016000206003018190555050505050505050565b6000601280549050905090565b6000600e60009054906101000a900473ffffffffffffffffffffffffffffffffffffffff1673ffffffffffffffffffffffffffffffffffffffff166370a082316012600081548110151561151757fe5b906000526020600020900160009054906101000a900473ffffffffffffffffffffffffffffffffffffffff166040518263ffffffff167c0100000000000000000000000000000000000000000000000000000000028152600401808273ffffffffffffffffffffffffffffffffffffffff1673ffffffffffffffffffffffffffffffffffffffff168152602001915050602060405180830381600087803b15156115c057600080fd5b5af115156115cd57600080fd5b50505060405180519050905090565b60135481565b60008033601760003373ffffffffffffffffffffffffffffffffffffffff1673ffffffffffffffffffffffffffffffffffffffff16815260200190815260200160002060000160006101000a81548173ffffffffffffffffffffffffffffffffffffffff021916908373ffffffffffffffffffffffffffffffffffffffff160217905550670de0b6b3a76400003481151561167957fe5b049150600a8202905060648181151561168e57fe5b046014600082825401925050819055506014548203601760003373ffffffffffffffffffffffffffffffffffffffff1673ffffffffffffffffffffffffffffffffffffffff1681526020019081526020016000206001015401601760003373ffffffffffffffffffffffffffffffffffffffff1673ffffffffffffffffffffffffffffffffffffffff1681526020019081526020016000206001018190555081601a60003373ffffffffffffffffffffffffffffffffffffffff1673ffffffffffffffffffffffffffffffffffffffff1681526020019081526020016000205401601a60003373ffffffffffffffffffffffffffffffffffffffff1673ffffffffffffffffffffffffffffffffffffffff168152602001908152602001600020819055506117bb34613e62565b5050565b60145481565b60165481565b6012818154811015156117da57fe5b90600052602060002090016000915054906101000a900473ffffffffffffffffffffffffffffffffffffffff1681565b600f5481565b6000806000806000809054906101000a900473ffffffffffffffffffffffffffffffffffffffff1673ffffffffffffffffffffffffffffffffffffffff1663a773f89f600860009054906101000a900473ffffffffffffffffffffffffffffffffffffffff166040518263ffffffff167c0100000000000000000000000000000000000000000000000000000000028152600401808273ffffffffffffffffffffffffffffffffffffffff1673ffffffffffffffffffffffffffffffffffffffff168152602001915050602060405180830381600087803b15156118f357600080fd5b5af1151561190057600080fd5b505050604051805190509250600160009054906101000a900473ffffffffffffffffffffffffffffffffffffffff1673ffffffffffffffffffffffffffffffffffffffff1663a773f89f600860009054906101000a900473ffffffffffffffffffffffffffffffffffffffff166040518263ffffffff167c0100000000000000000000000000000000000000000000000000000000028152600401808273ffffffffffffffffffffffffffffffffffffffff1673ffffffffffffffffffffffffffffffffffffffff168152602001915050602060405180830381600087803b15156119ea57600080fd5b5af115156119f757600080fd5b505050604051805190509150818301905080935050505090565b60155481565b600080600a5434811515611a2757fe5b04915081600f60008282540192505081905550600e60009054906101000a900473ffffffffffffffffffffffffffffffffffffffff1673ffffffffffffffffffffffffffffffffffffffff166323b872dd60116000815481101515611a8857fe5b906000526020600020900160009054906101000a900473ffffffffffffffffffffffffffffffffffffffff1633856040518463ffffffff167c0100000000000000000000000000000000000000000000000000000000028152600401808473ffffffffffffffffffffffffffffffffffffffff1673ffffffffffffffffffffffffffffffffffffffff1681526020018373ffffffffffffffffffffffffffffffffffffffff1673ffffffffffffffffffffffffffffffffffffffff1681526020018281526020019350505050602060405180830381600087803b1515611b6d57600080fd5b5af11515611b7a57600080fd5b505050604051805190505060128054806001018281611b99919061430d565b9160005260206000209001600033909190916101000a81548173ffffffffffffffffffffffffffffffffffffffff021916908373ffffffffffffffffffffffffffffffffffffffff1602179055505033601860003373ffffffffffffffffffffffffffffffffffffffff1673ffffffffffffffffffffffffffffffffffffffff168152602001908152602001600020600060116000815481101515611c3a57fe5b906000526020600020900160009054906101000a900473ffffffffffffffffffffffffffffffffffffffff1673ffffffffffffffffffffffffffffffffffffffff1673ffffffffffffffffffffffffffffffffffffffff16815260200190815260200160002060000160006101000a81548173ffffffffffffffffffffffffffffffffffffffff021916908373ffffffffffffffffffffffffffffffffffffffff16021790555034601860003373ffffffffffffffffffffffffffffffffffffffff1673ffffffffffffffffffffffffffffffffffffffff168152602001908152602001600020600060116000815481101515611d3357fe5b906000526020600020900160009054906101000a900473ffffffffffffffffffffffffffffffffffffffff1673ffffffffffffffffffffffffffffffffffffffff1673ffffffffffffffffffffffffffffffffffffffff1681526020019081526020016000206001015401601860003373ffffffffffffffffffffffffffffffffffffffff1673ffffffffffffffffffffffffffffffffffffffff168152602001908152602001600020600060116000815481101515611def57fe5b906000526020600020900160009054906101000a900473ffffffffffffffffffffffffffffffffffffffff1673ffffffffffffffffffffffffffffffffffffffff1673ffffffffffffffffffffffffffffffffffffffff16815260200190815260200160002060010181905550670de0b6b3a764000034811515611e6f57fe5b04905080601860003373ffffffffffffffffffffffffffffffffffffffff1673ffffffffffffffffffffffffffffffffffffffff168152602001908152602001600020600060116000815481101515611ec457fe5b906000526020600020900160009054906101000a900473ffffffffffffffffffffffffffffffffffffffff1673ffffffffffffffffffffffffffffffffffffffff1673ffffffffffffffffffffffffffffffffffffffff1681526020019081526020016000206001018190555081601860003373ffffffffffffffffffffffffffffffffffffffff1673ffffffffffffffffffffffffffffffffffffffff168152602001908152602001600020600060116000815481101515611f8357fe5b906000526020600020900160009054906101000a900473ffffffffffffffffffffffffffffffffffffffff1673ffffffffffffffffffffffffffffffffffffffff1673ffffffffffffffffffffffffffffffffffffffff1681526020019081526020016000206002018190555080601a60006011600081548110151561200557fe5b906000526020600020900160009054906101000a900473ffffffffffffffffffffffffffffffffffffffff1673ffffffffffffffffffffffffffffffffffffffff1673ffffffffffffffffffffffffffffffffffffffff1681526020019081526020016000205401601a60006011600081548110151561208157fe5b906000526020600020900160009054906101000a900473ffffffffffffffffffffffffffffffffffffffff1673ffffffffffffffffffffffffffffffffffffffff1673ffffffffffffffffffffffffffffffffffffffff168152602001908152602001600020819055505050565b6000806000601a60003373ffffffffffffffffffffffffffffffffffffffff1673ffffffffffffffffffffffffffffffffffffffff168152602001908152602001600020549250662386f26fc1000084029150670de0b6b3a76400008281151561215557fe5b049050808311151561216657600080fd5b600160009054906101000a900473ffffffffffffffffffffffffffffffffffffffff1673ffffffffffffffffffffffffffffffffffffffff16622625a083604051600060405180830381858888f193505050505085601960003373ffffffffffffffffffffffffffffffffffffffff1673ffffffffffffffffffffffffffffffffffffffff16815260200190815260200160002060008973ffffffffffffffffffffffffffffffffffffffff1673ffffffffffffffffffffffffffffffffffffffff168152602001908152602001600020600101908051906020019061224d92919061428d565b5084601960003373ffffffffffffffffffffffffffffffffffffffff1673ffffffffffffffffffffffffffffffffffffffff16815260200190815260200160002060008973ffffffffffffffffffffffffffffffffffffffff1673ffffffffffffffffffffffffffffffffffffffff16815260200190815260200160002060020190805190602001906122e192919061428d565b506000601960003373ffffffffffffffffffffffffffffffffffffffff1673ffffffffffffffffffffffffffffffffffffffff16815260200190815260200160002060008973ffffffffffffffffffffffffffffffffffffffff1673ffffffffffffffffffffffffffffffffffffffff1681526020019081526020016000206003018190555083601960003373ffffffffffffffffffffffffffffffffffffffff1673ffffffffffffffffffffffffffffffffffffffff16815260200190815260200160002060008973ffffffffffffffffffffffffffffffffffffffff1673ffffffffffffffffffffffffffffffffffffffff1681526020019081526020016000206004018190555086601960003373ffffffffffffffffffffffffffffffffffffffff1673ffffffffffffffffffffffffffffffffffffffff16815260200190815260200160002060008973ffffffffffffffffffffffffffffffffffffffff1673ffffffffffffffffffffffffffffffffffffffff16815260200190815260200160002060000160006101000a81548173ffffffffffffffffffffffffffffffffffffffff021916908373ffffffffffffffffffffffffffffffffffffffff16021790555085601760003373ffffffffffffffffffffffffffffffffffffffff1673ffffffffffffffffffffffffffffffffffffffff16815260200190815260200160002060020190805190602001906124ff92919061428d565b5083601760003373ffffffffffffffffffffffffffffffffffffffff1673ffffffffffffffffffffffffffffffffffffffff1681526020019081526020016000206004018190555050505050505050565b60008060118481548110151561256257fe5b906000526020600020900160009054906101000a900473ffffffffffffffffffffffffffffffffffffffff1660128481548110151561259d57fe5b906000526020600020900160009054906101000a900473ffffffffffffffffffffffffffffffffffffffff16915091509250929050565b601060009054906101000a900473ffffffffffffffffffffffffffffffffffffffff1681565b60045481565b6018602052816000526040600020602052806000526040600020600091509150508060000160009054906101000a900473ffffffffffffffffffffffffffffffffffffffff16908060010154908060020154905083565b600160009054906101000a900473ffffffffffffffffffffffffffffffffffffffff1681565b600d5481565b6000601180549050905090565b600860009054906101000a900473ffffffffffffffffffffffffffffffffffffffff1681565b60055481565b6000809054906101000a900473ffffffffffffffffffffffffffffffffffffffff1681565b600080600080600e60009054906101000a900473ffffffffffffffffffffffffffffffffffffffff1673ffffffffffffffffffffffffffffffffffffffff166323b872dd336011600081548110151561273657fe5b906000526020600020900160009054906101000a900473ffffffffffffffffffffffffffffffffffffffff16886040518463ffffffff167c0100000000000000000000000000000000000000000000000000000000028152600401808473ffffffffffffffffffffffffffffffffffffffff1673ffffffffffffffffffffffffffffffffffffffff1681526020018373ffffffffffffffffffffffffffffffffffffffff1673ffffffffffffffffffffffffffffffffffffffff1681526020018281526020019350505050602060405180830381600087803b151561281a57600080fd5b5af1151561282757600080fd5b5050506040518051905050600a5485026016819055506064600a6016540281151561284e57fe5b04601560008282540192505081905550670de0b6b3a764000060155481151561287357fe5b049350836014600082825401925050819055506064600a6016540281151561289757fe5b0460176000601160008154811015156128ac57fe5b906000526020600020900160009054906101000a900473ffffffffffffffffffffffffffffffffffffffff1673ffffffffffffffffffffffffffffffffffffffff1673ffffffffffffffffffffffffffffffffffffffff16815260200190815260200160002060050160008282540192505081905550601760006011600081548110151561293657fe5b906000526020600020900160009054906101000a900473ffffffffffffffffffffffffffffffffffffffff1673ffffffffffffffffffffffffffffffffffffffff1673ffffffffffffffffffffffffffffffffffffffff1681526020019081526020016000206005015460155401925082601654039150601160008154811015156129bd57fe5b906000526020600020900160009054906101000a900473ffffffffffffffffffffffffffffffffffffffff1673ffffffffffffffffffffffffffffffffffffffff166108fc6017600060116000815481101515612a1657fe5b906000526020600020900160009054906101000a900473ffffffffffffffffffffffffffffffffffffffff1673ffffffffffffffffffffffffffffffffffffffff1673ffffffffffffffffffffffffffffffffffffffff168152602001908152602001600020600501549081150290604051600060405180830381858888f193505050501515612aa557600080fd5b339050600860009054906101000a900473ffffffffffffffffffffffffffffffffffffffff1673ffffffffffffffffffffffffffffffffffffffff166203d090601554604051600060405180830381858888f19350505050508073ffffffffffffffffffffffffffffffffffffffff166108fc839081150290604051600060405180830381858888f193505050501515612b3e57600080fd5b601654601860003373ffffffffffffffffffffffffffffffffffffffff1673ffffffffffffffffffffffffffffffffffffffff168152602001908152602001600020600060116000815481101515612b9257fe5b906000526020600020900160009054906101000a900473ffffffffffffffffffffffffffffffffffffffff1673ffffffffffffffffffffffffffffffffffffffff1673ffffffffffffffffffffffffffffffffffffffff1681526020019081526020016000206001015403601860003373ffffffffffffffffffffffffffffffffffffffff1673ffffffffffffffffffffffffffffffffffffffff168152602001908152602001600020600060116000815481101515612c4e57fe5b906000526020600020900160009054906101000a900473ffffffffffffffffffffffffffffffffffffffff1673ffffffffffffffffffffffffffffffffffffffff1673ffffffffffffffffffffffffffffffffffffffff168152602001908152602001600020600101819055505050505050565b60008060009050601180549050811015612d1857601181815481101515612ce557fe5b906000526020600020900160009054906101000a900473ffffffffffffffffffffffffffffffffffffffff169150612d19565b5b5090565b6000612d27614339565b612d2f614339565b600080600080600080601960003373ffffffffffffffffffffffffffffffffffffffff1673ffffffffffffffffffffffffffffffffffffffff16815260200190815260200160002060008060009054906101000a900473ffffffffffffffffffffffffffffffffffffffff1673ffffffffffffffffffffffffffffffffffffffff1673ffffffffffffffffffffffffffffffffffffffff1681526020019081526020016000206001019350601960003373ffffffffffffffffffffffffffffffffffffffff1673ffffffffffffffffffffffffffffffffffffffff16815260200190815260200160002060008060009054906101000a900473ffffffffffffffffffffffffffffffffffffffff1673ffffffffffffffffffffffffffffffffffffffff1673ffffffffffffffffffffffffffffffffffffffff1681526020019081526020016000206002019250601960003373ffffffffffffffffffffffffffffffffffffffff1673ffffffffffffffffffffffffffffffffffffffff16815260200190815260200160002060008060009054906101000a900473ffffffffffffffffffffffffffffffffffffffff1673ffffffffffffffffffffffffffffffffffffffff1673ffffffffffffffffffffffffffffffffffffffff168152602001908152602001600020600301549150601960003373ffffffffffffffffffffffffffffffffffffffff1673ffffffffffffffffffffffffffffffffffffffff16815260200190815260200160002060008060009054906101000a900473ffffffffffffffffffffffffffffffffffffffff1673ffffffffffffffffffffffffffffffffffffffff1673ffffffffffffffffffffffffffffffffffffffff1681526020019081526020016000206004015490506000809054906101000a900473ffffffffffffffffffffffffffffffffffffffff1684848484838054600181600116156101000203166002900480601f01602080910402602001604051908101604052809291908181526020018280546001816001161561010002031660029004801561307d5780601f106130525761010080835404028352916020019161307d565b820191906000526020600020905b81548152906001019060200180831161306057829003601f168201915b50505050509350828054600181600116156101000203166002900480601f0160208091040260200160405190810160405280929190818152602001828054600181600116156101000203166002900480156131195780601f106130ee57610100808354040283529160200191613119565b820191906000526020600020905b8154815290600101906020018083116130fc57829003601f168201915b5050505050925098509850985098509850505050509091929394565b601a6020528060005260406000206000915090505481565b6000670de0b6b3a76400003073ffffffffffffffffffffffffffffffffffffffff163181151561317957fe5b04905090565b600660009054906101000a900473ffffffffffffffffffffffffffffffffffffffff1681565b600080600080600080600090505b60118054905081101561347157601760008873ffffffffffffffffffffffffffffffffffffffff1673ffffffffffffffffffffffffffffffffffffffff16815260200190815260200160002060000160009054906101000a900473ffffffffffffffffffffffffffffffffffffffff1673ffffffffffffffffffffffffffffffffffffffff168773ffffffffffffffffffffffffffffffffffffffff16141561346457601760008873ffffffffffffffffffffffffffffffffffffffff1673ffffffffffffffffffffffffffffffffffffffff16815260200190815260200160002060000160009054906101000a900473ffffffffffffffffffffffffffffffffffffffff16601760008973ffffffffffffffffffffffffffffffffffffffff1673ffffffffffffffffffffffffffffffffffffffff16815260200190815260200160002060010154600e60009054906101000a900473ffffffffffffffffffffffffffffffffffffffff1673ffffffffffffffffffffffffffffffffffffffff166370a082318a6040518263ffffffff167c0100000000000000000000000000000000000000000000000000000000028152600401808273ffffffffffffffffffffffffffffffffffffffff1673ffffffffffffffffffffffffffffffffffffffff168152602001915050602060405180830381600087803b15156133b857600080fd5b5af115156133c557600080fd5b50505060405180519050601760008b73ffffffffffffffffffffffffffffffffffffffff1673ffffffffffffffffffffffffffffffffffffffff16815260200190815260200160002060030154601760008c73ffffffffffffffffffffffffffffffffffffffff1673ffffffffffffffffffffffffffffffffffffffff1681526020019081526020016000206004015495509550955095509550613472565b80806001019150506131b3565b5b5091939590929450565b6000600860009054906101000a900473ffffffffffffffffffffffffffffffffffffffff16905090565b60176020528060005260406000206000915090508060000160009054906101000a900473ffffffffffffffffffffffffffffffffffffffff1690806001015490806002018054600181600116156101000203166002900480601f01602080910402602001604051908101604052809291908181526020018280546001816001161561010002031660029004801561357e5780601f106135535761010080835404028352916020019161357e565b820191906000526020600020905b81548152906001019060200180831161356157829003601f168201915b5050505050908060030154908060040154908060050154905086565b60006135a4614339565b6135ac614339565b600080600080600080601960003373ffffffffffffffffffffffffffffffffffffffff1673ffffffffffffffffffffffffffffffffffffffff1681526020019081526020016000206000600160009054906101000a900473ffffffffffffffffffffffffffffffffffffffff1673ffffffffffffffffffffffffffffffffffffffff1673ffffffffffffffffffffffffffffffffffffffff1681526020019081526020016000206001019350601960003373ffffffffffffffffffffffffffffffffffffffff1673ffffffffffffffffffffffffffffffffffffffff1681526020019081526020016000206000600160009054906101000a900473ffffffffffffffffffffffffffffffffffffffff1673ffffffffffffffffffffffffffffffffffffffff1673ffffffffffffffffffffffffffffffffffffffff1681526020019081526020016000206002019250601960003373ffffffffffffffffffffffffffffffffffffffff1673ffffffffffffffffffffffffffffffffffffffff1681526020019081526020016000206000600160009054906101000a900473ffffffffffffffffffffffffffffffffffffffff1673ffffffffffffffffffffffffffffffffffffffff1673ffffffffffffffffffffffffffffffffffffffff168152602001908152602001600020600301549150601960003373ffffffffffffffffffffffffffffffffffffffff1673ffffffffffffffffffffffffffffffffffffffff1681526020019081526020016000206000600160009054906101000a900473ffffffffffffffffffffffffffffffffffffffff1673ffffffffffffffffffffffffffffffffffffffff1673ffffffffffffffffffffffffffffffffffffffff168152602001908152602001600020600401549050600160009054906101000a900473ffffffffffffffffffffffffffffffffffffffff1684848484838054600181600116156101000203166002900480601f0160208091040260200160405190810160405280929190818152602001828054600181600116156101000203166002900480156138ff5780601f106138d4576101008083540402835291602001916138ff565b820191906000526020600020905b8154815290600101906020018083116138e257829003601f168201915b50505050509350828054600181600116156101000203166002900480601f01602080910402602001604051908101604052809291908181526020018280546001816001161561010002031660029004801561399b5780601f106139705761010080835404028352916020019161399b565b820191906000526020600020905b81548152906001019060200180831161397e57829003601f168201915b5050505050925098509850985098509850505050509091929394565b6000600e60009054906101000a900473ffffffffffffffffffffffffffffffffffffffff1673ffffffffffffffffffffffffffffffffffffffff166370a08231336040518263ffffffff167c0100000000000000000000000000000000000000000000000000000000028152600401808273ffffffffffffffffffffffffffffffffffffffff1673ffffffffffffffffffffffffffffffffffffffff168152602001915050602060405180830381600087803b1515613a7557600080fd5b5af11515613a8257600080fd5b50505060405180519050905090565b6019602052816000526040600020602052806000526040600020600091509150508060000160009054906101000a900473ffffffffffffffffffffffffffffffffffffffff1690806001018054600181600116156101000203166002900480601f016020809104026020016040519081016040528092919081815260200182805460018160011615610100020316600290048015613b705780601f10613b4557610100808354040283529160200191613b70565b820191906000526020600020905b815481529060010190602001808311613b5357829003601f168201915b505050505090806002018054600181600116156101000203166002900480601f016020809104026020016040519081016040528092919081815260200182805460018160011615610100020316600290048015613c0e5780601f10613be357610100808354040283529160200191613c0e565b820191906000526020600020905b815481529060010190602001808311613bf157829003601f168201915b5050505050908060030154908060040154905085565b60116000815481101515613c3457fe5b906000526020600020900160009054906101000a900473ffffffffffffffffffffffffffffffffffffffff1673ffffffffffffffffffffffffffffffffffffffff163373ffffffffffffffffffffffffffffffffffffffff161415613e6057600e60009054906101000a900473ffffffffffffffffffffffffffffffffffffffff1673ffffffffffffffffffffffffffffffffffffffff166379c6506833600b546040518363ffffffff167c0100000000000000000000000000000000000000000000000000000000028152600401808373ffffffffffffffffffffffffffffffffffffffff1673ffffffffffffffffffffffffffffffffffffffff16815260200182815260200192505050600060405180830381600087803b1515613d5957600080fd5b5af11515613d6657600080fd5b5050506064600a600b5402811515613d7a57fe5b04600d81905550600e60009054906101000a900473ffffffffffffffffffffffffffffffffffffffff1673ffffffffffffffffffffffffffffffffffffffff166379c6506833600d546040518363ffffffff167c0100000000000000000000000000000000000000000000000000000000028152600401808373ffffffffffffffffffffffffffffffffffffffff1673ffffffffffffffffffffffffffffffffffffffff16815260200182815260200192505050600060405180830381600087803b1515613e4757600080fd5b5af11515613e5457600080fd5b505050613e5f613faf565b5b565b600060095482811515613e7157fe5b049050600e60009054906101000a900473ffffffffffffffffffffffffffffffffffffffff1673ffffffffffffffffffffffffffffffffffffffff166379c6506833836040518363ffffffff167c0100000000000000000000000000000000000000000000000000000000028152600401808373ffffffffffffffffffffffffffffffffffffffff1673ffffffffffffffffffffffffffffffffffffffff16815260200182815260200192505050600060405180830381600087803b1515613f3857600080fd5b5af11515613f4557600080fd5b50505060118054806001018281613f5c919061430d565b9160005260206000209001600033909190916101000a81548173ffffffffffffffffffffffffffffffffffffffff021916908373ffffffffffffffffffffffffffffffffffffffff160217905550505050565b60008060008092505b60128054905083101561428857600d54600b540360186000601286815481101515613fdf57fe5b906000526020600020900160009054906101000a900473ffffffffffffffffffffffffffffffffffffffff1673ffffffffffffffffffffffffffffffffffffffff1673ffffffffffffffffffffffffffffffffffffffff16815260200190815260200160002060003373ffffffffffffffffffffffffffffffffffffffff1673ffffffffffffffffffffffffffffffffffffffff16815260200190815260200160002060020154029150600f548281151561409657fe5b049050600e60009054906101000a900473ffffffffffffffffffffffffffffffffffffffff1673ffffffffffffffffffffffffffffffffffffffff166379c650686012858154811015156140e657fe5b906000526020600020900160009054906101000a900473ffffffffffffffffffffffffffffffffffffffff16836040518363ffffffff167c0100000000000000000000000000000000000000000000000000000000028152600401808373ffffffffffffffffffffffffffffffffffffffff1673ffffffffffffffffffffffffffffffffffffffff16815260200182815260200192505050600060405180830381600087803b151561419757600080fd5b5af115156141a457600080fd5b505050600e60009054906101000a900473ffffffffffffffffffffffffffffffffffffffff1673ffffffffffffffffffffffffffffffffffffffff1663171ce59733836040518363ffffffff167c0100000000000000000000000000000000000000000000000000000000028152600401808373ffffffffffffffffffffffffffffffffffffffff1673ffffffffffffffffffffffffffffffffffffffff16815260200182815260200192505050600060405180830381600087803b151561426b57600080fd5b5af1151561427857600080fd5b5050508280600101935050613fb8565b505050565b828054600181600116156101000203166002900490600052602060002090601f016020900481019282601f106142ce57805160ff19168380011785556142fc565b828001600101855582156142fc579182015b828111156142fb5782518255916020019190600101906142e0565b5b509050614309919061434d565b5090565b81548183558181151161433457818360005260206000209182019101614333919061434d565b5b505050565b602060405190810160405280600081525090565b61436f91905b8082111561436b576000816000905550600101614353565b5090565b905600a165627a7a723058206777a20ac351c27c3ed2873fe197fa6953d930fda86d1194923837dd811ecf47002960606040526040805190810160405280600981526020017f546f6b656e20312e3000000000000000000000000000000000000000000000008152506000908051906020019062000051929190620001a2565b5034156200005e57600080fd5b620186a0600381905550600354600760003373ffffffffffffffffffffffffffffffffffffffff1673ffffffffffffffffffffffffffffffffffffffff168152602001908152602001600020819055506040805190810160405280600381526020017f445458000000000000000000000000000000000000000000000000000000000081525060029080519060200190620000fb929190620001a2565b506040805190810160405280600c81526020017f5068656f6e6978546f6b656e00000000000000000000000000000000000000008152506001908051906020019062000149929190620001a2565b506101f4600481905550600060058190555033600660006101000a81548173ffffffffffffffffffffffffffffffffffffffff021916908373ffffffffffffffffffffffffffffffffffffffff16021790555062000251565b828054600181600116156101000203166002900490600052602060002090601f016020900481019282601f10620001e557805160ff191683800117855562000216565b8280016001018555821562000216579182015b8281111562000215578251825591602001919060010190620001f8565b5b50905062000225919062000229565b5090565b6200024e91905b808211156200024a57600081600090555060010162000230565b5090565b90565b610f6380620002616000396000f3006060604052600436106100db576000357c0100000000000000000000000000000000000000000000000000000000900463ffffffff16806306fdde03146100e0578063095ea7b31461016e578063171ce597146101c857806318160ddd146101ff57806323b872dd14610228578063313ce567146102a15780635c658165146102ca578063661884631461033657806370a082311461039057806372dd529b146103dd57806379c650681461040657806395d89b4114610448578063a9059cbb146104d6578063d73dd62314610530578063dd62ed3e1461058a575b600080fd5b34156100eb57600080fd5b6100f36105f6565b6040518080602001828103825283818151815260200191508051906020019080838360005b83811015610133578082015181840152602081019050610118565b50505050905090810190601f1680156101605780820380516001836020036101000a031916815260200191505b509250505060405180910390f35b341561017957600080fd5b6101ae600480803573ffffffffffffffffffffffffffffffffffffffff16906020019091908035906020019091905050610694565b604051808215151515815260200191505060405180910390f35b6101fd600480803573ffffffffffffffffffffffffffffffffffffffff16906020019091908035906020019091905050610721565b005b341561020a57600080fd5b6102126107aa565b6040518082815260200191505060405180910390f35b341561023357600080fd5b610287600480803573ffffffffffffffffffffffffffffffffffffffff1690602001909190803573ffffffffffffffffffffffffffffffffffffffff169060200190919080359060200190919050506107b4565b604051808215151515815260200191505060405180910390f35b34156102ac57600080fd5b6102b4610930565b6040518082815260200191505060405180910390f35b34156102d557600080fd5b610320600480803573ffffffffffffffffffffffffffffffffffffffff1690602001909190803573ffffffffffffffffffffffffffffffffffffffff16906020019091905050610936565b6040518082815260200191505060405180910390f35b341561034157600080fd5b610376600480803573ffffffffffffffffffffffffffffffffffffffff1690602001909190803590602001909190505061095b565b604051808215151515815260200191505060405180910390f35b341561039b57600080fd5b6103c7600480803573ffffffffffffffffffffffffffffffffffffffff16906020019091905050610a66565b6040518082815260200191505060405180910390f35b34156103e857600080fd5b6103f0610aaf565b6040518082815260200191505060405180910390f35b341561041157600080fd5b610446600480803573ffffffffffffffffffffffffffffffffffffffff16906020019091908035906020019091905050610ab5565b005b341561045357600080fd5b61045b610b3e565b6040518080602001828103825283818151815260200191508051906020019080838360005b8381101561049b578082015181840152602081019050610480565b50505050905090810190601f1680156104c85780820380516001836020036101000a031916815260200191505b509250505060405180910390f35b34156104e157600080fd5b610516600480803573ffffffffffffffffffffffffffffffffffffffff16906020019091908035906020019091905050610bdc565b604051808215151515815260200191505060405180910390f35b341561053b57600080fd5b610570600480803573ffffffffffffffffffffffffffffffffffffffff16906020019091908035906020019091905050610da5565b604051808215151515815260200191505060405180910390f35b341561059557600080fd5b6105e0600480803573ffffffffffffffffffffffffffffffffffffffff1690602001909190803573ffffffffffffffffffffffffffffffffffffffff16906020019091905050610eb0565b6040518082815260200191505060405180910390f35b60018054600181600116156101000203166002900480601f01602080910402602001604051908101604052809291908181526020018280546001816001161561010002031660029004801561068c5780601f106106615761010080835404028352916020019161068c565b820191906000526020600020905b81548152906001019060200180831161066f57829003601f168201915b505050505081565b600081600860003373ffffffffffffffffffffffffffffffffffffffff1673ffffffffffffffffffffffffffffffffffffffff16815260200190815260200160002060008573ffffffffffffffffffffffffffffffffffffffff1673ffffffffffffffffffffffffffffffffffffffff168152602001908152602001600020819055506001905092915050565b80600760008473ffffffffffffffffffffffffffffffffffffffff1673ffffffffffffffffffffffffffffffffffffffff1681526020019081526020016000205403600760008473ffffffffffffffffffffffffffffffffffffffff1673ffffffffffffffffffffffffffffffffffffffff168152602001908152602001600020819055505050565b6000600354905090565b600081600760008673ffffffffffffffffffffffffffffffffffffffff1673ffffffffffffffffffffffffffffffffffffffff1681526020019081526020016000205403600760008673ffffffffffffffffffffffffffffffffffffffff1673ffffffffffffffffffffffffffffffffffffffff1681526020019081526020016000208190555081600760008573ffffffffffffffffffffffffffffffffffffffff1673ffffffffffffffffffffffffffffffffffffffff1681526020019081526020016000205401600760008573ffffffffffffffffffffffffffffffffffffffff1673ffffffffffffffffffffffffffffffffffffffff168152602001908152602001600020819055508273ffffffffffffffffffffffffffffffffffffffff168473ffffffffffffffffffffffffffffffffffffffff167fddf252ad1be2c89b69c2b068fc378daa952ba7f163c4a11628f55a4df523b3ef846040518082815260200191505060405180910390a3600190509392505050565b60055481565b6008602052816000526040600020602052806000526040600020600091509150505481565b600081600860003373ffffffffffffffffffffffffffffffffffffffff1673ffffffffffffffffffffffffffffffffffffffff16815260200190815260200160002060008573ffffffffffffffffffffffffffffffffffffffff1673ffffffffffffffffffffffffffffffffffffffff1681526020019081526020016000205403600860003373ffffffffffffffffffffffffffffffffffffffff1673ffffffffffffffffffffffffffffffffffffffff16815260200190815260200160002060008573ffffffffffffffffffffffffffffffffffffffff1673ffffffffffffffffffffffffffffffffffffffff168152602001908152602001600020819055506001905092915050565b6000600760008373ffffffffffffffffffffffffffffffffffffffff1673ffffffffffffffffffffffffffffffffffffffff168152602001908152602001600020549050919050565b60035481565b80600760008473ffffffffffffffffffffffffffffffffffffffff1673ffffffffffffffffffffffffffffffffffffffff1681526020019081526020016000205401600760008473ffffffffffffffffffffffffffffffffffffffff1673ffffffffffffffffffffffffffffffffffffffff168152602001908152602001600020819055505050565b60028054600181600116156101000203166002900480601f016020809104026020016040519081016040528092919081815260200182805460018160011615610100020316600290048015610bd45780601f10610ba957610100808354040283529160200191610bd4565b820191906000526020600020905b815481529060010190602001808311610bb757829003601f168201915b505050505081565b6000600760003373ffffffffffffffffffffffffffffffffffffffff1673ffffffffffffffffffffffffffffffffffffffff168152602001908152602001600020548211151515610c2c57600080fd5b81600760003373ffffffffffffffffffffffffffffffffffffffff1673ffffffffffffffffffffffffffffffffffffffff1681526020019081526020016000205403600760003373ffffffffffffffffffffffffffffffffffffffff1673ffffffffffffffffffffffffffffffffffffffff1681526020019081526020016000208190555081600760008573ffffffffffffffffffffffffffffffffffffffff1673ffffffffffffffffffffffffffffffffffffffff1681526020019081526020016000205401600760008573ffffffffffffffffffffffffffffffffffffffff1673ffffffffffffffffffffffffffffffffffffffff168152602001908152602001600020819055508273ffffffffffffffffffffffffffffffffffffffff163373ffffffffffffffffffffffffffffffffffffffff167fddf252ad1be2c89b69c2b068fc378daa952ba7f163c4a11628f55a4df523b3ef846040518082815260200191505060405180910390a36001905092915050565b600081600860003373ffffffffffffffffffffffffffffffffffffffff1673ffffffffffffffffffffffffffffffffffffffff16815260200190815260200160002060008573ffffffffffffffffffffffffffffffffffffffff1673ffffffffffffffffffffffffffffffffffffffff1681526020019081526020016000205401600860003373ffffffffffffffffffffffffffffffffffffffff1673ffffffffffffffffffffffffffffffffffffffff16815260200190815260200160002060008573ffffffffffffffffffffffffffffffffffffffff1673ffffffffffffffffffffffffffffffffffffffff168152602001908152602001600020819055506001905092915050565b6000600860008473ffffffffffffffffffffffffffffffffffffffff1673ffffffffffffffffffffffffffffffffffffffff16815260200190815260200160002060008373ffffffffffffffffffffffffffffffffffffffff1673ffffffffffffffffffffffffffffffffffffffff168152602001908152602001600020549050929150505600a165627a7a723058207d8d0c69bdc05cc45fa40520cfe38daf488f2cf4dd61e6b07dc681e7563c246e0029",
  "source": "pragma solidity ^0.4.18;\r\n\r\nimport \"./MarketToken1.sol\";\r\nimport \"./FundToken.sol\";\r\nimport \"./MarketToken2.sol\";\r\n\r\ncontract DMF {\r\n//rketToken1 public a;\r\n            address public m1;\r\n            address public m2;\r\n           Mam1 ab;\r\n           Man2 bb;\r\n           uint256 public xy;\r\n           uint256 public y;\r\n           \r\n        FundToken public Token; //obj for Fundtoken3\r\n       \r\n         \r\n     //Constructor For initialize the contract Owner Address and Contract Deployed Address\r\n            function DMF(address na,address Mark1,address Mark2)public payable{\r\n                owner=msg.sender;\r\n                newadd=address(this);\r\n                Token=new FundToken();\r\n                 contractAddress=na;\r\n                 m1=Mark1;\r\n                 m2=Mark2;\r\n                bb= Man2(m2);\r\n                 ab= Mam1(m1);\r\n                \r\n            \r\n                \r\n            }\r\n       \r\n        //modifier only access the functions by Portfolio manager \r\n        modifier OnlyPortfolio()\r\n        {\r\n            if(msg.sender == ToatlportfolioMAddress[0])\r\n            {\r\n                _;\r\n            }\r\n        }\r\n        //Global Variable Declaration part\r\n\r\n        address owner; //owner variable for assigning contract Owner\r\n        address public newadd; //For getting the Contract Address\r\n        uint256 rate = 0.001 ether; //rate of Fundtoken For PortfolioManager\r\n        uint256 cost = 0.1 ether; //rate of Fundtokens For Investor \r\n        uint256 dividendToken = 100; //divident tokens count for give the profit to Investor\r\n        uint256 profitToken = 10; //profit tokens for the Portfolio manager \r\n        uint256 public PortfolioManagerprofit = 0; //For the Portfoliomanager profit tokens \r\n        address contractAddress; //Fundtoken\r\n        uint256 public InvestersTotalToken=0; //invester total token count\r\n    \r\n        \r\n        address public Pendingreturnaddress;\r\n    //ArrayList\r\n     address[] ToatlportfolioMAddress; //Array for storing the each register PortfolioManager\r\n     address[] public TotalInvestorAddress; //Array for storing the each register Investors\r\n     uint256 public etherCalculation;\r\n     uint256 public takecommission;\r\n     uint256 public commissionForDmf;\r\n    // uint public commissionForPortfolio;\r\n     uint public TR;\r\n    //Phase -2                                                                                                                                                                                                                                                                \r\n                            //Structure Area\r\n     \r\n\r\n     //Structure For PortfolioManager Details\r\n            struct PortfolioDetails\r\n            {\r\n                address portfolioM;\r\n                //address contractAdd;\r\n                uint256 Eth;\r\n                string tokenName;\r\n                uint256 count1;\r\n                uint256 count2;\r\n                uint commissionForPortfolio;\r\n            }\r\n    //Structure For Investor Details  \r\n            struct InvestorDetails\r\n            {\r\n                address buyer;\r\n                uint256 Eth;\r\n                uint256 TokenCount;\r\n            }\r\n\r\n   //Structure For MarketToken Purchase Details\r\n   struct MarketTokenPurchase\r\n   {\r\n       address contractAdd;\r\n       string name;\r\n       string symbol;\r\n       uint256 decimal;\r\n       uint256 totalbuycount;\r\n\r\n   }\r\n   \r\n          //For assigning totalsuply \r\n    //Mapping Area\r\n\r\n    mapping(address => PortfolioDetails) public Portfolio ; //Map for getting and storing the PortfolioManager resgistration Details\r\n    mapping(address => mapping( address =>  InvestorDetails)) public invester ; //map for getting and storing the Investor getting token details\r\n    mapping(address => mapping(address => MarketTokenPurchase)) public Market; //Map for getting the MarketToken Purchase details by the Portfoliomanager\r\n    mapping(address => uint256) public PM_soldTK_Ether; //Portfoliomanager Sold Tokens Ether \r\n      //Fallback Function For Holding the Ether in Contract\r\n     \r\n\r\n                                //Function Area\r\n        //Function For PortfolioManager Resgistration\r\n        function PortfolioReg() public payable{\r\n        Portfolio[msg.sender].portfolioM= msg.sender;\r\n        uint256 add = msg.value / 1 ether;\r\n        uint256 a= add * 10;\r\n        takecommission += a /100;\r\n        Portfolio[msg.sender].Eth= Portfolio[msg.sender].Eth + (add-takecommission);\r\n        PM_soldTK_Ether[msg.sender] = PM_soldTK_Ether[msg.sender] + add;\r\n        GetFundToken(msg.value);\r\n        }\r\n        \r\n       \r\n\r\n        //Function For Getting the Fundtokens by the PortfolioManager\r\n         function GetFundToken(uint256 value) private{\r\n            uint256 tokens = value / rate;\r\n            FundToken(contractAddress).mintToken(msg.sender,tokens);\r\n            //Transfer(0,msg.sender,msg.value);\r\n           \r\n           \r\n            ToatlportfolioMAddress.push(msg.sender);\r\n         }\r\n\r\n        //Function For Getting the Contract Ether Balance \r\n      function GetBal()public view returns(uint256){\r\n          return this.balance/ 1 ether;\r\n         // 1 ether; //converting wei value to ether\r\n      }\r\n      \r\n\r\n      //Function For Getting the Contract Address\r\n      function getContractaddress() public view returns(address)\r\n      {\r\n          return newadd;\r\n      }\r\n      \r\n      \r\n      //Phase-3\r\n\r\n      //Function For Buying the FundTokens by the Investor From the PortfolioManager\r\n      function InvesterGetToken() public payable\r\n      {\r\n          uint256 tokens = msg.value / cost;\r\n          InvestersTotalToken += tokens;\r\n          FundToken(contractAddress).transferFrom(ToatlportfolioMAddress[0],msg.sender,tokens);\r\n          TotalInvestorAddress.push(msg.sender);\r\n          invester[msg.sender][ToatlportfolioMAddress[0]].buyer = msg.sender;\r\n          invester[msg.sender][ToatlportfolioMAddress[0]].Eth = invester[msg.sender][ToatlportfolioMAddress[0]].Eth + msg.value;\r\n          uint256 test = msg.value / 1 ether;\r\n          invester[msg.sender][ToatlportfolioMAddress[0]].Eth = test;\r\n          invester[msg.sender][ToatlportfolioMAddress[0]].TokenCount = tokens;\r\n          PM_soldTK_Ether[ToatlportfolioMAddress[0]] = PM_soldTK_Ether[ToatlportfolioMAddress[0]] + test;\r\n          \r\n      }\r\n    \r\n  \r\n\r\n    //Phase-4\r\n\r\n\r\n    //Function For Getting the Investor Balance of Tokens\r\n    function getBalance() public view returns(uint256)\r\n    {\r\n       return FundToken(contractAddress).balanceOf(TotalInvestorAddress[0]);\r\n    }\r\n\r\n    //Phase-5\r\n    \r\n    /** The dividends calculations\r\n        Investor1 = (( Investor1_fund TK) / (Inves1_FUndTK + Inves2_FUndTK + ... )) * 90;\r\n     */\r\n    //Function For issue the Dividends yo the User\r\n   function Dividends() public OnlyPortfolio   \r\n    {\r\n        \r\n        FundToken(contractAddress).mintToken(msg.sender,dividendToken); //minting the token \r\n        PortfolioManagerprofit = (dividendToken* 10) / 100; //taking the portfolio share\r\n        FundToken(contractAddress).mintToken(msg.sender,PortfolioManagerprofit);\r\n       \r\n        \r\n         ShareETK_ToI();\r\n         \r\n         \r\n    }\r\n    \r\n    \r\n    \r\n    \r\n    //function for split the profit to each tokens\r\n    function ShareETK_ToI() private \r\n    {\r\n        for(uint256 i=0;i<TotalInvestorAddress.length;i++)\r\n        {\r\n            uint256 b = invester[TotalInvestorAddress[i]][msg.sender].TokenCount * (dividendToken - PortfolioManagerprofit);\r\n             uint256 a =  b  / InvestersTotalToken;\r\n           FundToken(contractAddress).mintToken(TotalInvestorAddress[i],a);\r\n           FundToken(contractAddress).tokenDecrease(msg.sender,a);\r\n        }\r\n    }\r\n    //function for split the profit to each tokens\r\n    \r\n    \r\n    //getting All the Investor and PortfolioManager balance \r\n    function getAllBalance() public view returns(uint256)\r\n    {\r\n     return FundToken(contractAddress).balanceOf(msg.sender);\r\n    }\r\n    \r\n \r\n      //Phase-6 \r\n      \r\n      //Function for Sell The Tokens to the PortfolioManager\r\n     function ReturnTokenToPortfolioManager(uint256 value)public payable{\r\n     \r\n        FundToken(contractAddress).transferFrom(msg.sender,ToatlportfolioMAddress[0],value);\r\n        TR = value * cost;\r\n        commissionForDmf += TR * 10 / 100;\r\n        uint256 c= commissionForDmf/ 1 ether;\r\n        takecommission += c;\r\n        Portfolio[ToatlportfolioMAddress[0]].commissionForPortfolio += TR * 10 /100; \r\n        uint256 a= commissionForDmf + Portfolio[ToatlportfolioMAddress[0]].commissionForPortfolio;\r\n        uint256 b= TR - a;\r\n        ToatlportfolioMAddress[0].transfer(Portfolio[ToatlportfolioMAddress[0]].commissionForPortfolio);\r\n         address x = msg.sender;\r\n         newadd.call.gas(250000).value(commissionForDmf)();\r\n         x.transfer(b);\r\n         invester[msg.sender][ToatlportfolioMAddress[0]].Eth= invester[msg.sender][ToatlportfolioMAddress[0]].Eth - TR;\r\n     }\r\n     \r\n    \r\n   \r\n\r\n   function PortfolioManagerList()public view returns(address){\r\n       for(uint256 i=0;i<ToatlportfolioMAddress.length;i++)\r\n       {\r\n           return ToatlportfolioMAddress[i];\r\n       }\r\n   }\r\n\r\n\r\n   //Phase-7\r\n\r\n                //Two Sample Market is successfully created \r\n\r\n    \r\n\r\n   //Phase-8\r\n   \r\n   //Function for Purchase the market tokens by the PortfolioManager\r\n \r\n\r\nfunction PurchasingMarket1token(address _contractadd,string _name,string _symbol,uint256 _totacount) public \r\n   {\r\n       \r\n        uint256 howmuchEther = PM_soldTK_Ether[msg.sender];\r\n        uint256 PurchaseTkTotalRate = _totacount * 0.01 ether;\r\n        uint256 calculations = PurchaseTkTotalRate / 1 ether;\r\n        require(howmuchEther > calculations);\r\n        //xy = _totacount * 0.1 ether;\r\n        m1.call.gas(2500000).value(PurchaseTkTotalRate)();\r\n        Market[msg.sender][_contractadd].name = _name;\r\n        Market[msg.sender][_contractadd].symbol = _symbol;\r\n        Market[msg.sender][_contractadd].decimal = 0;\r\n        Market[msg.sender][_contractadd].totalbuycount = _totacount;\r\n        Market[msg.sender][_contractadd].contractAdd = _contractadd;\r\n        Portfolio[msg.sender].tokenName=_name;\r\n        Portfolio[msg.sender].count1=_totacount;\r\n    }\r\n   function PurchasingMarket2token(address _contractadd,string _name,string _symbol,uint256 _totacount) public \r\n   {\r\n        uint256 howmuchEther =  PM_soldTK_Ether[msg.sender];\r\n        uint256 PurchaseTkTotalRate = _totacount * 0.01 ether;\r\n        uint256 calculations = PurchaseTkTotalRate / 1 ether;\r\n        require(howmuchEther > calculations);\r\n       // y = _totacount * 0.1 ether;\r\n        m2.call.gas(2500000).value(PurchaseTkTotalRate)();\r\n        Market[msg.sender][_contractadd].name = _name;\r\n        Market[msg.sender][_contractadd].symbol = _symbol;\r\n        Market[msg.sender][_contractadd].decimal = 0;\r\n        Market[msg.sender][_contractadd].totalbuycount = _totacount; \r\n        Market[msg.sender][_contractadd].contractAdd = _contractadd;\r\n        Portfolio[msg.sender].tokenName=_name;\r\n        Portfolio[msg.sender].count2=_totacount;\r\n   }\r\n\r\n   function DisplayPurchasedTKCount() public view returns(uint256)\r\n   {\r\n       uint256 count1 = Mam1(m1).DisplayBalance(newadd);\r\n       uint256 count2 = Man2(m2).DisplayBalance(newadd);\r\n       uint256 total = count1 + count2;\r\n       return total;\r\n    }\r\n\r\n\r\n    function DisplayPurchasedTK1() public view returns(address,string,string,uint256,uint256)\r\n    {\r\n     string _nn = Market[msg.sender][m1].name;\r\n     string _sm = Market[msg.sender][m1].symbol;\r\n     uint256 _dd =  Market[msg.sender][m1].decimal;\r\n     uint256 _pp = Market[msg.sender][m1].totalbuycount;\r\n\r\n     return(m1,_nn,_sm,_dd,_pp);\r\n    }\r\n\r\n function DisplayPurchasedTK2() public view returns(address,string,string,uint256,uint256)\r\n    {\r\n     string _nn = Market[msg.sender][m2].name;\r\n     string _sm = Market[msg.sender][m2].symbol;\r\n     uint256 _dd =  Market[msg.sender][m2].decimal;\r\n     uint256 _pp = Market[msg.sender][m2].totalbuycount;\r\n\r\n     return(m2,_nn,_sm,_dd,_pp);\r\n    }\r\n\r\n\r\n\r\n    //Phase-9\r\n\r\n    //Function For Many PortfolioManager Details\r\n    function listOfPortfolioManager(address a)public view returns(address,uint256,uint256,uint256,uint256){\r\n       for(uint i=0;i<ToatlportfolioMAddress.length;i++){\r\n           if(a == Portfolio[a].portfolioM){\r\n                return (Portfolio[a].portfolioM,Portfolio[a].Eth,FundToken(contractAddress).balanceOf(a),Portfolio[a].count1,Portfolio[a].count2);\r\n           }\r\n       }\r\n   }\r\n   function Pcount() public view returns(uint256){\r\n       return ToatlportfolioMAddress.length;\r\n   }\r\n   function getPortfolioAddress(uint a) public view returns(address){\r\n       return ToatlportfolioMAddress[a];\r\n   }\r\n    function getInvesterAddress(uint a,uint a1) public view returns(address,address){\r\n       return (ToatlportfolioMAddress[a],TotalInvestorAddress[a1]);\r\n   }\r\n    function Icount() public view returns(uint256){\r\n       return TotalInvestorAddress.length;\r\n   }\r\n  \r\n}                                                                                     ",
  "sourcePath": "C:\\Users\\Sevvandhi.0860\\Desktop\\today\\Mutual-Funds\\contracts\\DMF.sol",
  "compiler": {
    "name": "solc",
    "version": "0.4.21+commit.dfe3193c.Emscripten.clang"
  },
  "schemaVersion": "2.0.0",
  "updatedAt": "2018-04-13T06:22:15.155Z"
}