{
  "contractName": "FundToken",
  "abi": [
    {
      "constant": true,
      "inputs": [],
      "name": "name",
      "outputs": [
        {
          "name": "",
          "type": "string"
        }
      ],
      "payable": false,
      "stateMutability": "view",
      "type": "function"
    },
    {
      "constant": true,
      "inputs": [],
      "name": "decimals",
      "outputs": [
        {
          "name": "",
          "type": "uint256"
        }
      ],
      "payable": false,
      "stateMutability": "view",
      "type": "function"
    },
    {
      "constant": true,
      "inputs": [
        {
          "name": "",
          "type": "address"
        },
        {
          "name": "",
          "type": "address"
        }
      ],
      "name": "allowed",
      "outputs": [
        {
          "name": "",
          "type": "uint256"
        }
      ],
      "payable": false,
      "stateMutability": "view",
      "type": "function"
    },
    {
      "constant": true,
      "inputs": [],
      "name": "totalsupply",
      "outputs": [
        {
          "name": "",
          "type": "uint256"
        }
      ],
      "payable": false,
      "stateMutability": "view",
      "type": "function"
    },
    {
      "constant": true,
      "inputs": [],
      "name": "symbol",
      "outputs": [
        {
          "name": "",
          "type": "string"
        }
      ],
      "payable": false,
      "stateMutability": "view",
      "type": "function"
    },
    {
      "inputs": [],
      "payable": false,
      "stateMutability": "nonpayable",
      "type": "constructor"
    },
    {
      "anonymous": false,
      "inputs": [
        {
          "indexed": true,
          "name": "from",
          "type": "address"
        },
        {
          "indexed": true,
          "name": "to",
          "type": "address"
        },
        {
          "indexed": false,
          "name": "value",
          "type": "uint256"
        }
      ],
      "name": "Transfer",
      "type": "event"
    },
    {
      "constant": false,
      "inputs": [
        {
          "name": "from",
          "type": "address"
        },
        {
          "name": "to",
          "type": "address"
        },
        {
          "name": "value",
          "type": "uint256"
        }
      ],
      "name": "transferFrom",
      "outputs": [
        {
          "name": "",
          "type": "bool"
        }
      ],
      "payable": false,
      "stateMutability": "nonpayable",
      "type": "function"
    },
    {
      "constant": true,
      "inputs": [
        {
          "name": "_owner",
          "type": "address"
        },
        {
          "name": "_to",
          "type": "address"
        }
      ],
      "name": "allowance",
      "outputs": [
        {
          "name": "",
          "type": "uint256"
        }
      ],
      "payable": false,
      "stateMutability": "view",
      "type": "function"
    },
    {
      "constant": false,
      "inputs": [
        {
          "name": "_to",
          "type": "address"
        },
        {
          "name": "value",
          "type": "uint256"
        }
      ],
      "name": "increaseApproval",
      "outputs": [
        {
          "name": "",
          "type": "bool"
        }
      ],
      "payable": false,
      "stateMutability": "nonpayable",
      "type": "function"
    },
    {
      "constant": false,
      "inputs": [
        {
          "name": "_to",
          "type": "address"
        },
        {
          "name": "value",
          "type": "uint256"
        }
      ],
      "name": "decreaseApproval",
      "outputs": [
        {
          "name": "",
          "type": "bool"
        }
      ],
      "payable": false,
      "stateMutability": "nonpayable",
      "type": "function"
    },
    {
      "constant": false,
      "inputs": [
        {
          "name": "spender",
          "type": "address"
        },
        {
          "name": "value",
          "type": "uint256"
        }
      ],
      "name": "approve",
      "outputs": [
        {
          "name": "",
          "type": "bool"
        }
      ],
      "payable": false,
      "stateMutability": "nonpayable",
      "type": "function"
    },
    {
      "constant": false,
      "inputs": [
        {
          "name": "to",
          "type": "address"
        },
        {
          "name": "value",
          "type": "uint256"
        }
      ],
      "name": "transfer",
      "outputs": [
        {
          "name": "",
          "type": "bool"
        }
      ],
      "payable": false,
      "stateMutability": "nonpayable",
      "type": "function"
    },
    {
      "constant": true,
      "inputs": [],
      "name": "totalSupply",
      "outputs": [
        {
          "name": "",
          "type": "uint256"
        }
      ],
      "payable": false,
      "stateMutability": "view",
      "type": "function"
    },
    {
      "constant": true,
      "inputs": [
        {
          "name": "_addr",
          "type": "address"
        }
      ],
      "name": "balanceOf",
      "outputs": [
        {
          "name": "",
          "type": "uint256"
        }
      ],
      "payable": false,
      "stateMutability": "view",
      "type": "function"
    },
    {
      "constant": false,
      "inputs": [],
      "name": "buytokens",
      "outputs": [],
      "payable": true,
      "stateMutability": "payable",
      "type": "function"
    }
  ],
  "bytecode": "0x60606040526040805190810160405280600981526020017f546f6b656e20312e3000000000000000000000000000000000000000000000008152506000908051906020019062000051929190620001a1565b5034156200005e57600080fd5b612710600381905550600354600760003373ffffffffffffffffffffffffffffffffffffffff1673ffffffffffffffffffffffffffffffffffffffff168152602001908152602001600020819055506040805190810160405280600381526020017f445458000000000000000000000000000000000000000000000000000000000081525060029080519060200190620000fa929190620001a1565b506040805190810160405280600c81526020017f446f7374726978546f6b656e00000000000000000000000000000000000000008152506001908051906020019062000148929190620001a1565b506101f4600481905550600060058190555033600660006101000a81548173ffffffffffffffffffffffffffffffffffffffff021916908373ffffffffffffffffffffffffffffffffffffffff16021790555062000250565b828054600181600116156101000203166002900490600052602060002090601f016020900481019282601f10620001e457805160ff191683800117855562000215565b8280016001018555821562000215579182015b8281111562000214578251825591602001919060010190620001f7565b5b50905062000224919062000228565b5090565b6200024d91905b80821115620002495760008160009055506001016200022f565b5090565b90565b610e2980620002606000396000f3006060604052600436106100d0576000357c0100000000000000000000000000000000000000000000000000000000900463ffffffff16806306fdde03146100d5578063095ea7b31461016357806318160ddd146101bd57806323b872dd146101e6578063313ce5671461025f5780635c65816514610288578063625f9513146102f457806366188463146102fe57806370a082311461035857806372dd529b146103a557806395d89b41146103ce578063a9059cbb1461045c578063d73dd623146104b6578063dd62ed3e14610510575b600080fd5b34156100e057600080fd5b6100e861057c565b6040518080602001828103825283818151815260200191508051906020019080838360005b8381101561012857808201518184015260208101905061010d565b50505050905090810190601f1680156101555780820380516001836020036101000a031916815260200191505b509250505060405180910390f35b341561016e57600080fd5b6101a3600480803573ffffffffffffffffffffffffffffffffffffffff1690602001909190803590602001909190505061061a565b604051808215151515815260200191505060405180910390f35b34156101c857600080fd5b6101d06106a7565b6040518082815260200191505060405180910390f35b34156101f157600080fd5b610245600480803573ffffffffffffffffffffffffffffffffffffffff1690602001909190803573ffffffffffffffffffffffffffffffffffffffff169060200190919080359060200190919050506106b1565b604051808215151515815260200191505060405180910390f35b341561026a57600080fd5b61027261082d565b6040518082815260200191505060405180910390f35b341561029357600080fd5b6102de600480803573ffffffffffffffffffffffffffffffffffffffff1690602001909190803573ffffffffffffffffffffffffffffffffffffffff16906020019091905050610833565b6040518082815260200191505060405180910390f35b6102fc610858565b005b341561030957600080fd5b61033e600480803573ffffffffffffffffffffffffffffffffffffffff169060200190919080359060200190919050506108aa565b604051808215151515815260200191505060405180910390f35b341561036357600080fd5b61038f600480803573ffffffffffffffffffffffffffffffffffffffff169060200190919050506109b5565b6040518082815260200191505060405180910390f35b34156103b057600080fd5b6103b86109fe565b6040518082815260200191505060405180910390f35b34156103d957600080fd5b6103e1610a04565b6040518080602001828103825283818151815260200191508051906020019080838360005b83811015610421578082015181840152602081019050610406565b50505050905090810190601f16801561044e5780820380516001836020036101000a031916815260200191505b509250505060405180910390f35b341561046757600080fd5b61049c600480803573ffffffffffffffffffffffffffffffffffffffff16906020019091908035906020019091905050610aa2565b604051808215151515815260200191505060405180910390f35b34156104c157600080fd5b6104f6600480803573ffffffffffffffffffffffffffffffffffffffff16906020019091908035906020019091905050610c6b565b604051808215151515815260200191505060405180910390f35b341561051b57600080fd5b610566600480803573ffffffffffffffffffffffffffffffffffffffff1690602001909190803573ffffffffffffffffffffffffffffffffffffffff16906020019091905050610d76565b6040518082815260200191505060405180910390f35b60018054600181600116156101000203166002900480601f0160208091040260200160405190810160405280929190818152602001828054600181600116156101000203166002900480156106125780601f106105e757610100808354040283529160200191610612565b820191906000526020600020905b8154815290600101906020018083116105f557829003601f168201915b505050505081565b600081600860003373ffffffffffffffffffffffffffffffffffffffff1673ffffffffffffffffffffffffffffffffffffffff16815260200190815260200160002060008573ffffffffffffffffffffffffffffffffffffffff1673ffffffffffffffffffffffffffffffffffffffff168152602001908152602001600020819055506001905092915050565b6000600354905090565b600081600760008673ffffffffffffffffffffffffffffffffffffffff1673ffffffffffffffffffffffffffffffffffffffff1681526020019081526020016000205403600760008673ffffffffffffffffffffffffffffffffffffffff1673ffffffffffffffffffffffffffffffffffffffff1681526020019081526020016000208190555081600760008573ffffffffffffffffffffffffffffffffffffffff1673ffffffffffffffffffffffffffffffffffffffff1681526020019081526020016000205401600760008573ffffffffffffffffffffffffffffffffffffffff1673ffffffffffffffffffffffffffffffffffffffff168152602001908152602001600020819055508273ffffffffffffffffffffffffffffffffffffffff168473ffffffffffffffffffffffffffffffffffffffff167fddf252ad1be2c89b69c2b068fc378daa952ba7f163c4a11628f55a4df523b3ef846040518082815260200191505060405180910390a3600190509392505050565b60055481565b6008602052816000526040600020602052806000526040600020600091509150505481565b3373ffffffffffffffffffffffffffffffffffffffff1660007fddf252ad1be2c89b69c2b068fc378daa952ba7f163c4a11628f55a4df523b3ef346040518082815260200191505060405180910390a3565b600081600860003373ffffffffffffffffffffffffffffffffffffffff1673ffffffffffffffffffffffffffffffffffffffff16815260200190815260200160002060008573ffffffffffffffffffffffffffffffffffffffff1673ffffffffffffffffffffffffffffffffffffffff1681526020019081526020016000205403600860003373ffffffffffffffffffffffffffffffffffffffff1673ffffffffffffffffffffffffffffffffffffffff16815260200190815260200160002060008573ffffffffffffffffffffffffffffffffffffffff1673ffffffffffffffffffffffffffffffffffffffff168152602001908152602001600020819055506001905092915050565b6000600760008373ffffffffffffffffffffffffffffffffffffffff1673ffffffffffffffffffffffffffffffffffffffff168152602001908152602001600020549050919050565b60035481565b60028054600181600116156101000203166002900480601f016020809104026020016040519081016040528092919081815260200182805460018160011615610100020316600290048015610a9a5780601f10610a6f57610100808354040283529160200191610a9a565b820191906000526020600020905b815481529060010190602001808311610a7d57829003601f168201915b505050505081565b6000600760003373ffffffffffffffffffffffffffffffffffffffff1673ffffffffffffffffffffffffffffffffffffffff168152602001908152602001600020548211151515610af257600080fd5b81600760003373ffffffffffffffffffffffffffffffffffffffff1673ffffffffffffffffffffffffffffffffffffffff1681526020019081526020016000205403600760003373ffffffffffffffffffffffffffffffffffffffff1673ffffffffffffffffffffffffffffffffffffffff1681526020019081526020016000208190555081600760008573ffffffffffffffffffffffffffffffffffffffff1673ffffffffffffffffffffffffffffffffffffffff1681526020019081526020016000205401600760008573ffffffffffffffffffffffffffffffffffffffff1673ffffffffffffffffffffffffffffffffffffffff168152602001908152602001600020819055508273ffffffffffffffffffffffffffffffffffffffff163373ffffffffffffffffffffffffffffffffffffffff167fddf252ad1be2c89b69c2b068fc378daa952ba7f163c4a11628f55a4df523b3ef846040518082815260200191505060405180910390a36001905092915050565b600081600860003373ffffffffffffffffffffffffffffffffffffffff1673ffffffffffffffffffffffffffffffffffffffff16815260200190815260200160002060008573ffffffffffffffffffffffffffffffffffffffff1673ffffffffffffffffffffffffffffffffffffffff1681526020019081526020016000205401600860003373ffffffffffffffffffffffffffffffffffffffff1673ffffffffffffffffffffffffffffffffffffffff16815260200190815260200160002060008573ffffffffffffffffffffffffffffffffffffffff1673ffffffffffffffffffffffffffffffffffffffff168152602001908152602001600020819055506001905092915050565b6000600860008473ffffffffffffffffffffffffffffffffffffffff1673ffffffffffffffffffffffffffffffffffffffff16815260200190815260200160002060008373ffffffffffffffffffffffffffffffffffffffff1673ffffffffffffffffffffffffffffffffffffffff168152602001908152602001600020549050929150505600a165627a7a72305820fa137c2523db57c6dce0e9011c6247fa96e831474e17f42c7624d0684cb6cd380029",
  "source": "pragma solidity ^0.4.18;\r\nimport \"./ERC20.sol\";\r\ncontract FundToken is ERC20Basic\r\n{\r\n    string standard=\"Token 1.0\";\r\n    string public name;\r\n    string public symbol;\r\n    uint256 public totalsupply;\r\n    uint256  initialallowed;\r\n    uint256 public decimals;\r\n    address Owner;\r\n\r\n    mapping(address=>uint) public balanceOf;\r\n    mapping(address=>mapping(address=>uint256))public allowed;\r\n\r\n    function FundToken()public\r\n    {\r\n        totalsupply=10000;\r\n        balanceOf[msg.sender]=totalsupply;\r\n        symbol=\"DTX\";\r\n        name=\"DostrixToken\";\r\n        initialallowed=500;\r\n        decimals=0;\r\n        Owner = msg.sender;\r\n        \r\n    }\r\n    function transferFrom(address from, address to, uint256 value)public returns(bool) \r\n    {\r\n        //require(to != address(0));\r\n       //require(value <= balanceOf[from]);\r\n        //require(value <= allowed[from][msg.sender]);\r\n    \r\n        balanceOf[from]=balanceOf[from]-value;\r\n        balanceOf[to] =balanceOf[to]+value;\r\n        //allowed[from][msg.sender] = allowed[from][msg.sender]-(value);\r\n        Transfer(from,to,value);\r\n        return true;\r\n    }\r\n    \r\n    function allowance(address _owner, address _to) public view returns (uint256) \r\n    {\r\n        return allowed[_owner][_to];\r\n    }\r\n    function increaseApproval(address _to, uint value) public returns(bool)\r\n    {\r\n        allowed[msg.sender][_to]=allowed[msg.sender][_to]+(value);\r\n        return true;\r\n    }\r\n    function decreaseApproval(address _to, uint value) public returns(bool)\r\n    {\r\n        allowed[msg.sender][_to]=allowed[msg.sender][_to]-(value);\r\n        return true;\r\n    }\r\n    function approve(address spender, uint256 value) public returns (bool)\r\n    {\r\n        allowed[msg.sender][spender]=value;\r\n        return true;\r\n    }\r\n    \r\n    function transfer(address to, uint256 value) public returns (bool)\r\n    {\r\n        require(value<=balanceOf[msg.sender]);\r\n        balanceOf[msg.sender]=balanceOf[msg.sender]-value;\r\n        balanceOf[to]=balanceOf[to]+value;\r\n        Transfer(msg.sender,to,value);\r\n        return true;\r\n    }\r\n    function totalSupply() public view returns (uint256)\r\n    {\r\n       return totalsupply;\r\n    }\r\n    function balanceOf(address _addr) public view returns (uint256)\r\n    {\r\n        return balanceOf[_addr];\r\n    }\r\n    \r\n \r\n   \r\n   \r\n    function buytokens() public payable {\r\n       \r\n     //calculate the tokens per rate form user entered amount\r\n    \r\n    //Dostrix Tokens are minted by following way\r\n    \r\n    Transfer(0,msg.sender,msg.value);\r\n\r\n    \r\n   }\r\n                       \r\n}",
  "sourcePath": "D:\\projects\\Mutual-Funds\\contracts\\FundToken.sol",
  "compiler": {
    "name": "solc",
    "version": "0.4.19+commit.c4cbbb05.Emscripten.clang"
  },
  "schemaVersion": "2.0.0",
  "updatedAt": "2018-03-29T09:10:50.980Z"
}