{
  "contractName": "FundToken",
  "abi": [
    {
      "constant": true,
      "inputs": [],
      "name": "name",
      "outputs": [
        {
          "name": "",
          "type": "string"
        }
      ],
      "payable": false,
      "stateMutability": "view",
      "type": "function"
    },
    {
      "constant": true,
      "inputs": [],
      "name": "decimals",
      "outputs": [
        {
          "name": "",
          "type": "uint256"
        }
      ],
      "payable": false,
      "stateMutability": "view",
      "type": "function"
    },
    {
      "constant": true,
      "inputs": [
        {
          "name": "",
          "type": "address"
        },
        {
          "name": "",
          "type": "address"
        }
      ],
      "name": "allowed",
      "outputs": [
        {
          "name": "",
          "type": "uint256"
        }
      ],
      "payable": false,
      "stateMutability": "view",
      "type": "function"
    },
    {
      "constant": true,
      "inputs": [],
      "name": "totalsupply",
      "outputs": [
        {
          "name": "",
          "type": "uint256"
        }
      ],
      "payable": false,
      "stateMutability": "view",
      "type": "function"
    },
    {
      "constant": true,
      "inputs": [],
      "name": "symbol",
      "outputs": [
        {
          "name": "",
          "type": "string"
        }
      ],
      "payable": false,
      "stateMutability": "view",
      "type": "function"
    },
    {
      "inputs": [],
      "payable": false,
      "stateMutability": "nonpayable",
      "type": "constructor"
    },
    {
      "anonymous": false,
      "inputs": [
        {
          "indexed": true,
          "name": "from",
          "type": "address"
        },
        {
          "indexed": true,
          "name": "to",
          "type": "address"
        },
        {
          "indexed": false,
          "name": "tokens",
          "type": "uint256"
        }
      ],
      "name": "Transfer",
      "type": "event"
    },
    {
      "anonymous": false,
      "inputs": [
        {
          "indexed": true,
          "name": "tokenOwner",
          "type": "address"
        },
        {
          "indexed": true,
          "name": "spender",
          "type": "address"
        },
        {
          "indexed": false,
          "name": "tokens",
          "type": "uint256"
        }
      ],
      "name": "Approval",
      "type": "event"
    },
    {
      "constant": false,
      "inputs": [
        {
          "name": "from",
          "type": "address"
        },
        {
          "name": "to",
          "type": "address"
        },
        {
          "name": "value",
          "type": "uint256"
        }
      ],
      "name": "transferFrom",
      "outputs": [
        {
          "name": "",
          "type": "bool"
        }
      ],
      "payable": false,
      "stateMutability": "nonpayable",
      "type": "function"
    },
    {
      "constant": false,
      "inputs": [
        {
          "name": "to",
          "type": "address"
        },
        {
          "name": "value",
          "type": "uint256"
        }
      ],
      "name": "transfer",
      "outputs": [
        {
          "name": "",
          "type": "bool"
        }
      ],
      "payable": false,
      "stateMutability": "nonpayable",
      "type": "function"
    },
    {
      "constant": true,
      "inputs": [],
      "name": "totalSupply",
      "outputs": [
        {
          "name": "",
          "type": "uint256"
        }
      ],
      "payable": false,
      "stateMutability": "view",
      "type": "function"
    },
    {
      "constant": true,
      "inputs": [
        {
          "name": "_addr",
          "type": "address"
        }
      ],
      "name": "balanceOf",
      "outputs": [
        {
          "name": "",
          "type": "uint256"
        }
      ],
      "payable": false,
      "stateMutability": "view",
      "type": "function"
    },
    {
      "constant": false,
      "inputs": [
        {
          "name": "_add_",
          "type": "address"
        },
        {
          "name": "_amo",
          "type": "uint256"
        }
      ],
      "name": "mintToken",
      "outputs": [],
      "payable": false,
      "stateMutability": "nonpayable",
      "type": "function"
    },
    {
      "constant": false,
      "inputs": [
        {
          "name": "_add_",
          "type": "address"
        },
        {
          "name": "_amo",
          "type": "uint256"
        }
      ],
      "name": "tokenDecrease",
      "outputs": [],
      "payable": true,
      "stateMutability": "payable",
      "type": "function"
    }
  ],
  "bytecode": "0x60806040526040805190810160405280600981526020017f546f6b656e20312e3000000000000000000000000000000000000000000000008152506000908051906020019061004f92919061019c565b5034801561005c57600080fd5b50620186a0600381905550600354600760003373ffffffffffffffffffffffffffffffffffffffff1673ffffffffffffffffffffffffffffffffffffffff168152602001908152602001600020819055506040805190810160405280600381526020017f444d460000000000000000000000000000000000000000000000000000000000815250600290805190602001906100f892919061019c565b506040805190810160405280600381526020017f444d4600000000000000000000000000000000000000000000000000000000008152506001908051906020019061014492919061019c565b506101f4600481905550600060058190555033600660006101000a81548173ffffffffffffffffffffffffffffffffffffffff021916908373ffffffffffffffffffffffffffffffffffffffff160217905550610241565b828054600181600116156101000203166002900490600052602060002090601f016020900481019282601f106101dd57805160ff191683800117855561020b565b8280016001018555821561020b579182015b8281111561020a5782518255916020019190600101906101ef565b5b509050610218919061021c565b5090565b61023e91905b8082111561023a576000816000905550600101610222565b5090565b90565b610ae8806102506000396000f3006080604052600436106100af576000357c0100000000000000000000000000000000000000000000000000000000900463ffffffff16806306fdde03146100b4578063171ce5971461014457806318160ddd1461018457806323b872dd146101af578063313ce567146102345780635c6581651461025f57806370a08231146102d657806372dd529b1461032d57806379c650681461035857806395d89b41146103a5578063a9059cbb14610435575b600080fd5b3480156100c057600080fd5b506100c961049a565b6040518080602001828103825283818151815260200191508051906020019080838360005b838110156101095780820151818401526020810190506100ee565b50505050905090810190601f1680156101365780820380516001836020036101000a031916815260200191505b509250505060405180910390f35b610182600480360381019080803573ffffffffffffffffffffffffffffffffffffffff16906020019092919080359060200190929190505050610538565b005b34801561019057600080fd5b506101996105c1565b6040518082815260200191505060405180910390f35b3480156101bb57600080fd5b5061021a600480360381019080803573ffffffffffffffffffffffffffffffffffffffff169060200190929190803573ffffffffffffffffffffffffffffffffffffffff169060200190929190803590602001909291905050506105cb565b604051808215151515815260200191505060405180910390f35b34801561024057600080fd5b50610249610747565b6040518082815260200191505060405180910390f35b34801561026b57600080fd5b506102c0600480360381019080803573ffffffffffffffffffffffffffffffffffffffff169060200190929190803573ffffffffffffffffffffffffffffffffffffffff16906020019092919050505061074d565b6040518082815260200191505060405180910390f35b3480156102e257600080fd5b50610317600480360381019080803573ffffffffffffffffffffffffffffffffffffffff169060200190929190505050610772565b6040518082815260200191505060405180910390f35b34801561033957600080fd5b506103426107bb565b6040518082815260200191505060405180910390f35b34801561036457600080fd5b506103a3600480360381019080803573ffffffffffffffffffffffffffffffffffffffff169060200190929190803590602001909291905050506107c1565b005b3480156103b157600080fd5b506103ba610855565b6040518080602001828103825283818151815260200191508051906020019080838360005b838110156103fa5780820151818401526020810190506103df565b50505050905090810190601f1680156104275780820380516001836020036101000a031916815260200191505b509250505060405180910390f35b34801561044157600080fd5b50610480600480360381019080803573ffffffffffffffffffffffffffffffffffffffff169060200190929190803590602001909291905050506108f3565b604051808215151515815260200191505060405180910390f35b60018054600181600116156101000203166002900480601f0160208091040260200160405190810160405280929190818152602001828054600181600116156101000203166002900480156105305780601f1061050557610100808354040283529160200191610530565b820191906000526020600020905b81548152906001019060200180831161051357829003601f168201915b505050505081565b80600760008473ffffffffffffffffffffffffffffffffffffffff1673ffffffffffffffffffffffffffffffffffffffff1681526020019081526020016000205403600760008473ffffffffffffffffffffffffffffffffffffffff1673ffffffffffffffffffffffffffffffffffffffff168152602001908152602001600020819055505050565b6000600354905090565b600081600760008673ffffffffffffffffffffffffffffffffffffffff1673ffffffffffffffffffffffffffffffffffffffff1681526020019081526020016000205403600760008673ffffffffffffffffffffffffffffffffffffffff1673ffffffffffffffffffffffffffffffffffffffff1681526020019081526020016000208190555081600760008573ffffffffffffffffffffffffffffffffffffffff1673ffffffffffffffffffffffffffffffffffffffff1681526020019081526020016000205401600760008573ffffffffffffffffffffffffffffffffffffffff1673ffffffffffffffffffffffffffffffffffffffff168152602001908152602001600020819055508273ffffffffffffffffffffffffffffffffffffffff168473ffffffffffffffffffffffffffffffffffffffff167fddf252ad1be2c89b69c2b068fc378daa952ba7f163c4a11628f55a4df523b3ef846040518082815260200191505060405180910390a3600190509392505050565b60055481565b6008602052816000526040600020602052806000526040600020600091509150505481565b6000600760008373ffffffffffffffffffffffffffffffffffffffff1673ffffffffffffffffffffffffffffffffffffffff168152602001908152602001600020549050919050565b60035481565b806003540160038190555080600760008473ffffffffffffffffffffffffffffffffffffffff1673ffffffffffffffffffffffffffffffffffffffff1681526020019081526020016000205401600760008473ffffffffffffffffffffffffffffffffffffffff1673ffffffffffffffffffffffffffffffffffffffff168152602001908152602001600020819055505050565b60028054600181600116156101000203166002900480601f0160208091040260200160405190810160405280929190818152602001828054600181600116156101000203166002900480156108eb5780601f106108c0576101008083540402835291602001916108eb565b820191906000526020600020905b8154815290600101906020018083116108ce57829003601f168201915b505050505081565b6000600760003373ffffffffffffffffffffffffffffffffffffffff1673ffffffffffffffffffffffffffffffffffffffff16815260200190815260200160002054821115151561094357600080fd5b81600760003373ffffffffffffffffffffffffffffffffffffffff1673ffffffffffffffffffffffffffffffffffffffff1681526020019081526020016000205403600760003373ffffffffffffffffffffffffffffffffffffffff1673ffffffffffffffffffffffffffffffffffffffff1681526020019081526020016000208190555081600760008573ffffffffffffffffffffffffffffffffffffffff1673ffffffffffffffffffffffffffffffffffffffff1681526020019081526020016000205401600760008573ffffffffffffffffffffffffffffffffffffffff1673ffffffffffffffffffffffffffffffffffffffff168152602001908152602001600020819055508273ffffffffffffffffffffffffffffffffffffffff163373ffffffffffffffffffffffffffffffffffffffff167fddf252ad1be2c89b69c2b068fc378daa952ba7f163c4a11628f55a4df523b3ef846040518082815260200191505060405180910390a360019050929150505600a165627a7a72305820959e0308a8c090899414609d6bea409efdb89b92f6f04901b35c0becf93e9d550029",
  "source": "pragma solidity ^0.4.23;\r\n\r\n\r\ncontract ERC20 {\r\n    function totalSupply() public constant returns (uint);\r\n    function balanceOf(address tokenOwner) public constant returns (uint balance);\r\n    // function allowance(address tokenOwner, address spender) public constant returns (uint remaining);\r\n    function transfer(address to, uint tokens) public returns (bool success);\r\n    // function approve(address spender, uint tokens) public returns (bool success);\r\n    function transferFrom(address from, address to, uint tokens) public returns (bool success);\r\n\r\n    event Transfer(address indexed from, address indexed to, uint tokens);\r\n    event Approval(address indexed tokenOwner, address indexed spender, uint tokens);\r\n}\r\n\r\n\r\n\r\n/*contract Token{\r\n    \r\n    function totalSupplytoken(address _token) public view returns(uint){\r\n        return ERC20(_token).totalSupply();\r\n    }\r\n    \r\n    function balanceOftoken(address _token) public view returns(uint){\r\n        return ERC20(_token).balanceOf(msg.sender);\r\n    }\r\n    \r\n    // before this You need to run approve function on your token contract...\r\n    \r\n    \r\n    function transfer(address _token,address _to,uint _amt) public payable {\r\n        ERC20(_token).transfer(_to,_amt);\r\n    }\r\n    \r\n}*/\r\n\r\ncontract FundToken is ERC20\r\n{\r\n    string standard=\"Token 1.0\";\r\n    string public name;\r\n    string public symbol;\r\n    uint256 public totalsupply;\r\n    uint256  initialallowed;\r\n    uint256 public decimals;\r\n    address Owner;\r\n\r\n    mapping(address=>uint) public balanceOf;\r\n    mapping(address=>mapping(address=>uint256))public allowed;\r\n\r\n     constructor()public\r\n    {\r\n        totalsupply=100000;\r\n        balanceOf[msg.sender]=totalsupply;\r\n        symbol=\"DMF\";\r\n        name=\"DMF\";\r\n        initialallowed=500;\r\n        decimals=0;\r\n        Owner = msg.sender;\r\n        \r\n    }\r\n    function transferFrom(address from, address to, uint256 value)public returns(bool) \r\n    {\r\n        //require(to != address(0));\r\n       //require(value <= balanceOf[from]);\r\n        //require(value <= allowed[from][msg.sender]);\r\n    \r\n        balanceOf[from]=balanceOf[from]-value;\r\n        balanceOf[to] =balanceOf[to]+value;\r\n        //allowed[from][msg.sender] = allowed[from][msg.sender]-(value);\r\n       emit Transfer(from,to,value);\r\n        return true;\r\n    }\r\n    \r\n    \r\n    function transfer(address to, uint256 value) public returns (bool)\r\n    {\r\n        require(value<=balanceOf[msg.sender]);\r\n        balanceOf[msg.sender]=balanceOf[msg.sender]-value;\r\n        balanceOf[to]=balanceOf[to]+value;\r\n       emit Transfer(msg.sender,to,value);\r\n        return true;\r\n    }\r\n    function totalSupply() public view returns (uint256)\r\n    {\r\n       return totalsupply;\r\n    }\r\n    function balanceOf(address _addr) public view returns (uint256)\r\n    {\r\n        return balanceOf[_addr];\r\n    }\r\n    \r\n function mintToken(address _add_,uint256 _amo) public\r\n {\r\n     totalsupply=totalsupply + _amo;\r\n     balanceOf[_add_] = balanceOf[_add_] + _amo;\r\n }\r\n function tokenDecrease(address _add_,uint256 _amo) public payable\r\n {\r\n     balanceOf[_add_] = balanceOf[_add_] - _amo;\r\n }\r\n \r\n}\r\n\r\n\r\n\r\nlibrary SafeMath {\r\n    function add(uint a, uint b) internal pure returns (uint c) {\r\n        c = a + b;\r\n        require(c >= a);\r\n    }\r\n    function sub(uint a, uint b) internal pure returns (uint c) {\r\n        require(b <= a);\r\n        c = a - b;\r\n    }\r\n    function mul(uint a, uint b) internal pure returns (uint c) {\r\n        c = a * b;\r\n        require(a == 0 || c / a == b);\r\n    }\r\n    function div(uint a, uint b) internal pure returns (uint c) {\r\n        require(b > 0);\r\n        c = a / b;\r\n    }\r\n}\r\n\r\ncontract DMF \r\n{\r\n        using SafeMath for uint256;\r\n        uint256  InvestersTotalToken=0; //invester total token count\r\n        uint256 public takecommission;\r\n        address contractAddress; //Fundtoken\r\n        address public newadd; \r\n//ArrayList\r\n        address[] public ToatlportfolioMAddress; //Array for storing the each register PortfolioManager\r\n        address[] public TotalInvestorAddress; //Array for storing the each register Investors\r\n        address public TokenInterface;\r\n//Structure For PortfolioManager Details\r\n        struct PortfolioDetails\r\n        {\r\n            uint256 Eth;\r\n          address[] investerAddressForPortfolio;\r\n            uint commissionForPortfolio;\r\n        }\r\n//Structure For Investor Details  \r\n        struct InvestorDetails\r\n        {\r\n            address[] PortfolioHolders; \r\n            uint256 Eth;\r\n            uint256 TokenCount;\r\n        }\r\n\r\n\r\n       \r\n//Mapping Area\r\n//Map for getting and storing the PortfolioManager resgistration Details\r\n        mapping(address => PortfolioDetails) public Portfolio;\r\n//map for getting and storing the Investor getting token details\r\n        mapping(address=> InvestorDetails) public Investment;\r\n        mapping(address => mapping( address =>  InvestorDetails)) public invester; \r\n//Map for getting the MarketToken Purchase details by the Portfoliomanager\r\n//Portfoliomanager Sold Tokens Ether \r\n       // mapping(address => uint256) public PM_soldTK_Ether; \r\n//Constructor For initialize the contract Owner Address and Contract Deployed Address\r\n        constructor(address na) public payable\r\n        {\r\n          \r\n            newadd=address(this);\r\n            contractAddress=na;\r\n        }\r\n//Function For PortfolioManager Resgistration\r\n        function PortfolioReg() public payable\r\n        {\r\n            uint256 add = msg.value.div(1 ether);\r\n            uint256 a= (add.mul(10)).div(100);\r\n            takecommission=takecommission.add(a);\r\n            uint256 show = add.sub(a);\r\n            Portfolio[msg.sender].Eth= Portfolio[msg.sender].Eth.add(show);\r\n            //PM_soldTK_Ether[msg.sender] = PM_soldTK_Ether[msg.sender].add(show);\r\n            GetFundToken(msg.value,msg.sender);\r\n        }\r\n        \r\n        // function checkingPortfolio()public view returns(bool){\r\n        //     for(uint256 i=0;i<ToatlportfolioMAddress.length;i++){\r\n        //         if(msg.sender==ToatlportfolioMAddress[0]){\r\n        //             return true;\r\n        //         }\r\n                \r\n                \r\n            // }\r\n            \r\n        // }\r\n//Function For Getting the Fundtokens by the PortfolioManager\r\n        function GetFundToken(uint256 value,address add) private\r\n        {\r\n            uint256 tokens = value.div(0.001 ether);\r\n            FundToken(contractAddress).mintToken(msg.sender,tokens);\r\n            ToatlportfolioMAddress.push(add);\r\n        }\r\n//Function For Getting the Contract Ether Balance \r\n        function GetBal()public view returns(uint256)\r\n        {\r\n            return newadd.balance.div(1 ether);\r\n        }\r\n //Function For Getting the Contract Address\r\n    \r\n //Function For Buying the FundTokens by the Investor From the PortfolioManager\r\n        function InvesterGetToken(address _add_) public payable\r\n        {\r\n            uint256 tokens = msg.value.div(0.1 ether);\r\n            InvestersTotalToken=InvestersTotalToken.add(tokens);\r\n            FundToken(contractAddress).transferFrom(_add_,msg.sender,tokens);\r\n            TotalInvestorAddress.push(msg.sender);\r\n            Investment[msg.sender].PortfolioHolders.push(_add_);\r\n            invester[msg.sender][_add_].Eth=invester[msg.sender][_add_].Eth.add(msg.value);\r\n            invester[msg.sender][_add_].TokenCount=invester[msg.sender][_add_].TokenCount.add(tokens);\r\n            \r\n           // Investment[msg.sender].Eth = Investment[msg.sender].Eth.add(msg.value);\r\n            uint256 test = msg.value.div(1 ether);\r\n           // invester[msg.sender][_add_].Eth = test;\r\n          //  Investment[msg.sender].TokenCount = tokens;\r\n           // PM_soldTK_Ether[_add_] = PM_soldTK_Ether[_add_].add(test);\r\n            Portfolio[_add_].Eth = Portfolio[_add_].Eth.add(test);\r\n            Portfolio[_add_].investerAddressForPortfolio.push(msg.sender);\r\n        }\r\n//Function For Getting the Investor Balance of Tokens\r\n        function getBalance(address a) public view returns(uint256)\r\n        {\r\n            return FundToken(contractAddress).balanceOf(a);\r\n        }\r\n /** The dividends calculations\r\n        Investor1 = (( Investor1_fund TK) / (Inves1_FUndTK + Inves2_FUndTK + ... )) * 90;\r\n*/\r\n//Function For issue the Dividends yo the User\r\n        function Dividends() public  returns (bool)\r\n        {\r\n             uint256 dividendToken = 100; \r\n             uint256 PortfolioManagerprofit = 0;\r\n            FundToken(contractAddress).mintToken(msg.sender,dividendToken); //minting the token \r\n            PortfolioManagerprofit = (dividendToken.mul(10)).div(100); //taking the portfolio share\r\n            // FundToken(contractAddress).mintToken(msg.sender,PortfolioManagerprofit);\r\n            for(uint256 i=0;i<TotalInvestorAddress.length;i++)\r\n            {\r\n                uint256 b = (invester[TotalInvestorAddress[i]][msg.sender].TokenCount.mul((dividendToken.sub(PortfolioManagerprofit)))).div(InvestersTotalToken);\r\n                // FundToken(contractAddress).mintToken(TotalInvestorAddress[i],b);\r\n                FundToken(contractAddress).transferFrom(msg.sender,TotalInvestorAddress[i],b);\r\n            }\r\n            \r\n        }\r\n        function ReturnTokenToPortfolioManager(address _add_,uint256 value)public payable\r\n        {\r\n             uint  TR;\r\n            FundToken(contractAddress).transferFrom(msg.sender,_add_,value);\r\n            TR = value.mul(0.1 ether);\r\n           uint256 commissionForDmf= commissionForDmf.add((TR.mul(10)).div(100));\r\n        \r\n            takecommission = takecommission.add((commissionForDmf.div(1 ether)));\r\n            Portfolio[_add_].commissionForPortfolio = Portfolio[_add_].commissionForPortfolio.add((TR.mul(10)).div(100)); \r\n            uint256 a= (TR.sub(commissionForDmf.add(Portfolio[_add_].commissionForPortfolio))).add(commissionForDmf);\r\n            _add_.transfer(Portfolio[_add_].commissionForPortfolio);\r\n            (msg.sender).transfer(a);\r\n            invester[msg.sender][_add_].Eth= invester[msg.sender][_add_].Eth.sub(TR);\r\n        }\r\n        \r\n        function purchaseToken(address buyToken,uint256 amountoftoken) public payable{\r\n           transfertoken(buyToken,msg.sender,amountoftoken);\r\n           buyToken.transfer(amountoftoken.mul(0.1 ether));\r\n        }\r\n        function transfertoken(address _token,address _to,uint _amt) public payable {\r\n        ERC20(_token).transferFrom(msg.sender,_to,_amt);\r\n    }\r\n     \r\n\r\n//Function For Many PortfolioManager Details\r\n        function values() public view returns(uint256,uint256)\r\n        {\r\n            return (ToatlportfolioMAddress.length,TotalInvestorAddress.length);\r\n        }\r\n        function Investercount(address a) public view returns(uint256){\r\n            return Portfolio[a].investerAddressForPortfolio.length;\r\n        }\r\n        function  portfoliocount(address a) public view returns(uint256){\r\n            return (Investment[a].PortfolioHolders.length);\r\n        }\r\n\r\n        function InvesterList(address a,uint256 i)public view returns(address){\r\n            \r\n            return Portfolio[a].investerAddressForPortfolio[i];\r\n            \r\n        }\r\n        function PortfolioList(address a,uint256 i)public view returns(address){\r\n           return Investment[a].PortfolioHolders[i];\r\n        }\r\n}                                                                                                            \r\n",
  "sourcePath": "C:\\Users\\Sultana.0862\\Desktop\\Mutual-Funds\\contracts\\DMF.sol",
  "compiler": {
    "name": "solc",
    "version": "0.4.23+commit.124ca40d.Emscripten.clang"
  },
  "schemaVersion": "2.0.0",
  "updatedAt": "2018-05-31T05:28:59.691Z"
}