{
  "contractName": "Mam1",
  "abi": [
    {
      "constant": true,
      "inputs": [],
      "name": "name",
      "outputs": [
        {
          "name": "",
          "type": "string"
        }
      ],
      "payable": false,
      "stateMutability": "view",
      "type": "function"
    },
    {
      "constant": true,
      "inputs": [],
      "name": "decimals",
      "outputs": [
        {
          "name": "",
          "type": "uint256"
        }
      ],
      "payable": false,
      "stateMutability": "view",
      "type": "function"
    },
    {
      "constant": true,
      "inputs": [
        {
          "name": "",
          "type": "address"
        },
        {
          "name": "",
          "type": "address"
        }
      ],
      "name": "allowed",
      "outputs": [
        {
          "name": "",
          "type": "uint256"
        }
      ],
      "payable": false,
      "stateMutability": "view",
      "type": "function"
    },
    {
      "constant": true,
      "inputs": [],
      "name": "totalsupply",
      "outputs": [
        {
          "name": "",
          "type": "uint256"
        }
      ],
      "payable": false,
      "stateMutability": "view",
      "type": "function"
    },
    {
      "constant": true,
      "inputs": [],
      "name": "symbol",
      "outputs": [
        {
          "name": "",
          "type": "string"
        }
      ],
      "payable": false,
      "stateMutability": "view",
      "type": "function"
    },
    {
      "constant": true,
      "inputs": [],
      "name": "newadd",
      "outputs": [
        {
          "name": "",
          "type": "address"
        }
      ],
      "payable": false,
      "stateMutability": "view",
      "type": "function"
    },
    {
      "inputs": [],
      "payable": false,
      "stateMutability": "nonpayable",
      "type": "constructor"
    },
    {
      "anonymous": false,
      "inputs": [
        {
          "indexed": true,
          "name": "from",
          "type": "address"
        },
        {
          "indexed": true,
          "name": "to",
          "type": "address"
        },
        {
          "indexed": false,
          "name": "value",
          "type": "uint256"
        }
      ],
      "name": "Transfer",
      "type": "event"
    },
    {
      "constant": false,
      "inputs": [
        {
          "name": "from",
          "type": "address"
        },
        {
          "name": "to",
          "type": "address"
        },
        {
          "name": "value",
          "type": "uint256"
        }
      ],
      "name": "transferFrom",
      "outputs": [
        {
          "name": "",
          "type": "bool"
        }
      ],
      "payable": false,
      "stateMutability": "nonpayable",
      "type": "function"
    },
    {
      "constant": true,
      "inputs": [
        {
          "name": "_owner",
          "type": "address"
        },
        {
          "name": "_to",
          "type": "address"
        }
      ],
      "name": "allowance",
      "outputs": [
        {
          "name": "",
          "type": "uint256"
        }
      ],
      "payable": false,
      "stateMutability": "view",
      "type": "function"
    },
    {
      "constant": false,
      "inputs": [
        {
          "name": "_to",
          "type": "address"
        },
        {
          "name": "value",
          "type": "uint256"
        }
      ],
      "name": "increaseApproval",
      "outputs": [
        {
          "name": "",
          "type": "bool"
        }
      ],
      "payable": false,
      "stateMutability": "nonpayable",
      "type": "function"
    },
    {
      "constant": false,
      "inputs": [
        {
          "name": "_to",
          "type": "address"
        },
        {
          "name": "value",
          "type": "uint256"
        }
      ],
      "name": "decreaseApproval",
      "outputs": [
        {
          "name": "",
          "type": "bool"
        }
      ],
      "payable": false,
      "stateMutability": "nonpayable",
      "type": "function"
    },
    {
      "constant": false,
      "inputs": [
        {
          "name": "spender",
          "type": "address"
        },
        {
          "name": "value",
          "type": "uint256"
        }
      ],
      "name": "approve",
      "outputs": [
        {
          "name": "",
          "type": "bool"
        }
      ],
      "payable": false,
      "stateMutability": "nonpayable",
      "type": "function"
    },
    {
      "constant": false,
      "inputs": [
        {
          "name": "to",
          "type": "address"
        },
        {
          "name": "value",
          "type": "uint256"
        }
      ],
      "name": "transfer",
      "outputs": [
        {
          "name": "",
          "type": "bool"
        }
      ],
      "payable": false,
      "stateMutability": "nonpayable",
      "type": "function"
    },
    {
      "constant": true,
      "inputs": [],
      "name": "totalSupply",
      "outputs": [
        {
          "name": "",
          "type": "uint256"
        }
      ],
      "payable": false,
      "stateMutability": "view",
      "type": "function"
    },
    {
      "constant": true,
      "inputs": [
        {
          "name": "_addr",
          "type": "address"
        }
      ],
      "name": "balanceOf",
      "outputs": [
        {
          "name": "",
          "type": "uint256"
        }
      ],
      "payable": false,
      "stateMutability": "view",
      "type": "function"
    },
    {
      "constant": false,
      "inputs": [
        {
          "name": "_value",
          "type": "uint256"
        },
        {
          "name": "_add",
          "type": "address"
        }
      ],
      "name": "buytokens1",
      "outputs": [],
      "payable": true,
      "stateMutability": "payable",
      "type": "function"
    },
    {
      "constant": true,
      "inputs": [],
      "name": "DisplayTotalsupply",
      "outputs": [
        {
          "name": "",
          "type": "uint256"
        }
      ],
      "payable": false,
      "stateMutability": "view",
      "type": "function"
    },
    {
      "constant": true,
      "inputs": [],
      "name": "DisplayDecimal",
      "outputs": [
        {
          "name": "",
          "type": "uint256"
        }
      ],
      "payable": false,
      "stateMutability": "view",
      "type": "function"
    },
    {
      "constant": true,
      "inputs": [],
      "name": "DisplaytheRate",
      "outputs": [
        {
          "name": "",
          "type": "uint256"
        }
      ],
      "payable": false,
      "stateMutability": "view",
      "type": "function"
    },
    {
      "constant": true,
      "inputs": [
        {
          "name": "_addr",
          "type": "address"
        }
      ],
      "name": "DisplayBalance",
      "outputs": [
        {
          "name": "",
          "type": "uint256"
        }
      ],
      "payable": false,
      "stateMutability": "view",
      "type": "function"
    },
    {
      "constant": true,
      "inputs": [],
      "name": "DisplayTheAddress",
      "outputs": [
        {
          "name": "",
          "type": "address"
        }
      ],
      "payable": false,
      "stateMutability": "view",
      "type": "function"
    }
  ],
  "bytecode": "0x606060405267016345785d8a000060055534156200001c57600080fd5b620186a06002819055506040805190810160405280600481526020017f464554580000000000000000000000000000000000000000000000000000000081525060019080519060200190620000739291906200015b565b506040805190810160405280600c81526020017f446f7374726978546f6b656e000000000000000000000000000000000000000081525060009080519060200190620000c19291906200015b565b506101f4600381905550600060048190555033600660006101000a81548173ffffffffffffffffffffffffffffffffffffffff021916908373ffffffffffffffffffffffffffffffffffffffff16021790555030600760006101000a81548173ffffffffffffffffffffffffffffffffffffffff021916908373ffffffffffffffffffffffffffffffffffffffff1602179055506200020a565b828054600181600116156101000203166002900490600052602060002090601f016020900481019282601f106200019e57805160ff1916838001178555620001cf565b82800160010185558215620001cf579182015b82811115620001ce578251825591602001919060010190620001b1565b5b509050620001de9190620001e2565b5090565b6200020791905b8082111562000203576000816000905550600101620001e9565b5090565b90565b611087806200021a6000396000f300606060405260043610610112576000357c0100000000000000000000000000000000000000000000000000000000900463ffffffff16806306fdde0314610117578063095ea7b3146101a557806318160ddd146101ff5780631a9c84fe1461022857806323b872dd14610251578063313ce567146102ca5780635b38faf8146102f35780635c6581651461031c578063661884631461038857806370a08231146103e257806372dd529b1461042f57806390b2656e1461045857806395d89b41146104815780639e9c5f911461050f578063a773f89f14610564578063a9059cbb146105b1578063afc53e2e1461060b578063d73dd62314610660578063dd62ed3e146106ba578063dee51c4614610726575b600080fd5b341561012257600080fd5b61012a61075d565b6040518080602001828103825283818151815260200191508051906020019080838360005b8381101561016a57808201518184015260208101905061014f565b50505050905090810190601f1680156101975780820380516001836020036101000a031916815260200191505b509250505060405180910390f35b34156101b057600080fd5b6101e5600480803573ffffffffffffffffffffffffffffffffffffffff169060200190919080359060200190919050506107fb565b604051808215151515815260200191505060405180910390f35b341561020a57600080fd5b610212610888565b6040518082815260200191505060405180910390f35b341561023357600080fd5b61023b610892565b6040518082815260200191505060405180910390f35b341561025c57600080fd5b6102b0600480803573ffffffffffffffffffffffffffffffffffffffff1690602001909190803573ffffffffffffffffffffffffffffffffffffffff1690602001909190803590602001909190505061089c565b604051808215151515815260200191505060405180910390f35b34156102d557600080fd5b6102dd610a18565b6040518082815260200191505060405180910390f35b34156102fe57600080fd5b610306610a1e565b6040518082815260200191505060405180910390f35b341561032757600080fd5b610372600480803573ffffffffffffffffffffffffffffffffffffffff1690602001909190803573ffffffffffffffffffffffffffffffffffffffff16906020019091905050610a28565b6040518082815260200191505060405180910390f35b341561039357600080fd5b6103c8600480803573ffffffffffffffffffffffffffffffffffffffff16906020019091908035906020019091905050610a4d565b604051808215151515815260200191505060405180910390f35b34156103ed57600080fd5b610419600480803573ffffffffffffffffffffffffffffffffffffffff16906020019091905050610b58565b6040518082815260200191505060405180910390f35b341561043a57600080fd5b610442610ba1565b6040518082815260200191505060405180910390f35b341561046357600080fd5b61046b610ba7565b6040518082815260200191505060405180910390f35b341561048c57600080fd5b610494610bb1565b6040518080602001828103825283818151815260200191508051906020019080838360005b838110156104d45780820151818401526020810190506104b9565b50505050905090810190601f1680156105015780820380516001836020036101000a031916815260200191505b509250505060405180910390f35b341561051a57600080fd5b610522610c4f565b604051808273ffffffffffffffffffffffffffffffffffffffff1673ffffffffffffffffffffffffffffffffffffffff16815260200191505060405180910390f35b341561056f57600080fd5b61059b600480803573ffffffffffffffffffffffffffffffffffffffff16906020019091905050610c75565b6040518082815260200191505060405180910390f35b34156105bc57600080fd5b6105f1600480803573ffffffffffffffffffffffffffffffffffffffff16906020019091908035906020019091905050610cbe565b604051808215151515815260200191505060405180910390f35b341561061657600080fd5b61061e610e7d565b604051808273ffffffffffffffffffffffffffffffffffffffff1673ffffffffffffffffffffffffffffffffffffffff16815260200191505060405180910390f35b341561066b57600080fd5b6106a0600480803573ffffffffffffffffffffffffffffffffffffffff16906020019091908035906020019091905050610ea7565b604051808215151515815260200191505060405180910390f35b34156106c557600080fd5b610710600480803573ffffffffffffffffffffffffffffffffffffffff1690602001909190803573ffffffffffffffffffffffffffffffffffffffff16906020019091905050610fb2565b6040518082815260200191505060405180910390f35b61075b600480803590602001909190803573ffffffffffffffffffffffffffffffffffffffff16906020019091905050611039565b005b60008054600181600116156101000203166002900480601f0160208091040260200160405190810160405280929190818152602001828054600181600116156101000203166002900480156107f35780601f106107c8576101008083540402835291602001916107f3565b820191906000526020600020905b8154815290600101906020018083116107d657829003601f168201915b505050505081565b600081600960003373ffffffffffffffffffffffffffffffffffffffff1673ffffffffffffffffffffffffffffffffffffffff16815260200190815260200160002060008573ffffffffffffffffffffffffffffffffffffffff1673ffffffffffffffffffffffffffffffffffffffff168152602001908152602001600020819055506001905092915050565b6000600254905090565b6000600254905090565b600081600860008673ffffffffffffffffffffffffffffffffffffffff1673ffffffffffffffffffffffffffffffffffffffff1681526020019081526020016000205403600860008673ffffffffffffffffffffffffffffffffffffffff1673ffffffffffffffffffffffffffffffffffffffff1681526020019081526020016000208190555081600860008573ffffffffffffffffffffffffffffffffffffffff1673ffffffffffffffffffffffffffffffffffffffff1681526020019081526020016000205401600860008573ffffffffffffffffffffffffffffffffffffffff1673ffffffffffffffffffffffffffffffffffffffff168152602001908152602001600020819055508273ffffffffffffffffffffffffffffffffffffffff168473ffffffffffffffffffffffffffffffffffffffff167fddf252ad1be2c89b69c2b068fc378daa952ba7f163c4a11628f55a4df523b3ef846040518082815260200191505060405180910390a3600190509392505050565b60045481565b6000600454905090565b6009602052816000526040600020602052806000526040600020600091509150505481565b600081600960003373ffffffffffffffffffffffffffffffffffffffff1673ffffffffffffffffffffffffffffffffffffffff16815260200190815260200160002060008573ffffffffffffffffffffffffffffffffffffffff1673ffffffffffffffffffffffffffffffffffffffff1681526020019081526020016000205403600960003373ffffffffffffffffffffffffffffffffffffffff1673ffffffffffffffffffffffffffffffffffffffff16815260200190815260200160002060008573ffffffffffffffffffffffffffffffffffffffff1673ffffffffffffffffffffffffffffffffffffffff168152602001908152602001600020819055506001905092915050565b6000600860008373ffffffffffffffffffffffffffffffffffffffff1673ffffffffffffffffffffffffffffffffffffffff168152602001908152602001600020549050919050565b60025481565b6000600554905090565b60018054600181600116156101000203166002900480601f016020809104026020016040519081016040528092919081815260200182805460018160011615610100020316600290048015610c475780601f10610c1c57610100808354040283529160200191610c47565b820191906000526020600020905b815481529060010190602001808311610c2a57829003601f168201915b505050505081565b600760009054906101000a900473ffffffffffffffffffffffffffffffffffffffff1681565b6000600860008373ffffffffffffffffffffffffffffffffffffffff1673ffffffffffffffffffffffffffffffffffffffff168152602001908152602001600020549050919050565b60008160086000600660009054906101000a900473ffffffffffffffffffffffffffffffffffffffff1673ffffffffffffffffffffffffffffffffffffffff1673ffffffffffffffffffffffffffffffffffffffff168152602001908152602001600020540360086000600660009054906101000a900473ffffffffffffffffffffffffffffffffffffffff1673ffffffffffffffffffffffffffffffffffffffff1673ffffffffffffffffffffffffffffffffffffffff1681526020019081526020016000208190555081600860008573ffffffffffffffffffffffffffffffffffffffff1673ffffffffffffffffffffffffffffffffffffffff1681526020019081526020016000205401600860008573ffffffffffffffffffffffffffffffffffffffff1673ffffffffffffffffffffffffffffffffffffffff168152602001908152602001600020819055508273ffffffffffffffffffffffffffffffffffffffff163373ffffffffffffffffffffffffffffffffffffffff167fddf252ad1be2c89b69c2b068fc378daa952ba7f163c4a11628f55a4df523b3ef846040518082815260200191505060405180910390a36001905092915050565b6000600760009054906101000a900473ffffffffffffffffffffffffffffffffffffffff16905090565b600081600960003373ffffffffffffffffffffffffffffffffffffffff1673ffffffffffffffffffffffffffffffffffffffff16815260200190815260200160002060008573ffffffffffffffffffffffffffffffffffffffff1673ffffffffffffffffffffffffffffffffffffffff1681526020019081526020016000205401600960003373ffffffffffffffffffffffffffffffffffffffff1673ffffffffffffffffffffffffffffffffffffffff16815260200190815260200160002060008573ffffffffffffffffffffffffffffffffffffffff1673ffffffffffffffffffffffffffffffffffffffff168152602001908152602001600020819055506001905092915050565b6000600960008473ffffffffffffffffffffffffffffffffffffffff1673ffffffffffffffffffffffffffffffffffffffff16815260200190815260200160002060008373ffffffffffffffffffffffffffffffffffffffff1673ffffffffffffffffffffffffffffffffffffffff16815260200190815260200160002054905092915050565b60006005548381151561104857fe5b0490506110558282610cbe565b505050505600a165627a7a723058202ce52dec4c556d3a5afe60dd3071713395266f0afd245edc1ea5672dfc5167690029",
  "source": "pragma solidity ^0.4.18;\r\nimport \"./ERC20.sol\";\r\ncontract Mam1 is ERC20Basic\r\n{\r\n    \r\n    string public name;\r\n    string public symbol;\r\n    uint256 public totalsupply;\r\n    uint256  initialallowed;\r\n    uint256 public decimals;\r\n    uint256 rate = 0.1 ether;\r\n    address Owner;\r\n    address public newadd;\r\n    \r\n    \r\n\r\n    mapping(address=>uint) public balanceOf;\r\n    mapping(address=>mapping(address=>uint256))public allowed;\r\n\r\n    function Mam1()public\r\n    {\r\n        totalsupply=100000;\r\n        \r\n        symbol= \"FETX\";\r\n        name= \"DostrixToken\";\r\n        initialallowed=500;\r\n        decimals= 0;\r\n        Owner = msg.sender;\r\n         newadd=address(this);\r\n        \r\n    }\r\n    function transferFrom(address from, address to, uint256 value)public returns(bool) \r\n    {\r\n        //require(to != address(0));\r\n       //require(value <= balanceOf[from]);\r\n        //require(value <= allowed[from][msg.sender]);\r\n    \r\n        balanceOf[from]=balanceOf[from]-value;\r\n        balanceOf[to] =balanceOf[to]+value;\r\n        //allowed[from][msg.sender] = allowed[from][msg.sender]-(value);\r\n        Transfer(from,to,value);\r\n        return true;\r\n    }\r\n    \r\n    function allowance(address _owner, address _to) public view returns (uint256) \r\n    {\r\n        return allowed[_owner][_to];\r\n    }\r\n    function increaseApproval(address _to, uint value) public returns(bool)\r\n    {\r\n        allowed[msg.sender][_to]=allowed[msg.sender][_to]+(value);\r\n        return true;\r\n    }\r\n    function decreaseApproval(address _to, uint value) public returns(bool)\r\n    {\r\n        allowed[msg.sender][_to]=allowed[msg.sender][_to]-(value);\r\n        return true;\r\n    }\r\n    function approve(address spender, uint256 value) public returns (bool)\r\n    {\r\n        allowed[msg.sender][spender]=value;\r\n        return true;\r\n    }\r\n    \r\n    function transfer(address to, uint256 value) public returns (bool)\r\n    {\r\n        //require(value<=balanceOf[msg.sender]);\r\n        balanceOf[Owner]=balanceOf[Owner]-value;\r\n        balanceOf[to]=balanceOf[to]+value;\r\n        Transfer(msg.sender,to,value);\r\n        return true;\r\n    }\r\n    function totalSupply() public view returns (uint256)\r\n    {\r\n       return totalsupply;\r\n    }\r\n    function balanceOf(address _addr) public view returns (uint256)\r\n    {\r\n        return balanceOf[_addr];\r\n    }\r\n    \r\n    \r\n    \r\n    \r\n    function buytokens1(uint256 _value,address _add) public payable {\r\n       \r\n            uint256 tokens = _value / rate;\r\n            transfer(_add,tokens);\r\n    \r\n   }\r\n   \r\n   \r\n\r\n   //Omitting\r\n\r\n   function DisplayTotalsupply() public view returns(uint256)\r\n   {\r\n       return  totalsupply;\r\n   }\r\n\r\n   function DisplayDecimal() public view returns(uint256)\r\n   {\r\n       return decimals;\r\n   }\r\n   function DisplaytheRate() public view returns(uint256)\r\n   {\r\n       return rate;\r\n   }\r\n\r\n   function DisplayBalance(address _addr) public view returns(uint256)\r\n   {\r\n       return balanceOf[_addr];\r\n   }\r\n   \r\n   function DisplayTheAddress() public view returns(address)\r\n   {\r\n       return newadd;\r\n   }\r\n  \r\n   \r\n}",
  "sourcePath": "C:\\Users\\Balavignesh.0856\\Desktop\\UTRS\\Mutual-Funds\\contracts\\MarketToken1.sol",
  "compiler": {
    "name": "solc",
    "version": "0.4.19+commit.c4cbbb05.Emscripten.clang"
  },
  "schemaVersion": "2.0.0",
  "updatedAt": "2018-04-04T08:54:41.020Z"
}