{
  "contractName": "MarketToken",
  "abi": [
    {
      "constant": true,
      "inputs": [],
      "name": "name",
      "outputs": [
        {
          "name": "",
          "type": "string"
        }
      ],
      "payable": false,
      "stateMutability": "view",
      "type": "function"
    },
    {
      "constant": true,
      "inputs": [],
      "name": "decimals",
      "outputs": [
        {
          "name": "",
          "type": "uint256"
        }
      ],
      "payable": false,
      "stateMutability": "view",
      "type": "function"
    },
    {
      "constant": true,
      "inputs": [
        {
          "name": "",
          "type": "address"
        },
        {
          "name": "",
          "type": "address"
        }
      ],
      "name": "allowed",
      "outputs": [
        {
          "name": "",
          "type": "uint256"
        }
      ],
      "payable": false,
      "stateMutability": "view",
      "type": "function"
    },
    {
      "constant": true,
      "inputs": [],
      "name": "totalsupply",
      "outputs": [
        {
          "name": "",
          "type": "uint256"
        }
      ],
      "payable": false,
      "stateMutability": "view",
      "type": "function"
    },
    {
      "constant": true,
      "inputs": [],
      "name": "symbol",
      "outputs": [
        {
          "name": "",
          "type": "string"
        }
      ],
      "payable": false,
      "stateMutability": "view",
      "type": "function"
    },
    {
      "inputs": [
        {
          "name": "_sym",
          "type": "string"
        },
        {
          "name": "_name",
          "type": "string"
        },
        {
          "name": "_decimal",
          "type": "uint256"
        },
        {
          "name": "_ether",
          "type": "uint256"
        }
      ],
      "payable": false,
      "stateMutability": "nonpayable",
      "type": "constructor"
    },
    {
      "anonymous": false,
      "inputs": [
        {
          "indexed": true,
          "name": "from",
          "type": "address"
        },
        {
          "indexed": true,
          "name": "to",
          "type": "address"
        },
        {
          "indexed": false,
          "name": "value",
          "type": "uint256"
        }
      ],
      "name": "Transfer",
      "type": "event"
    },
    {
      "constant": false,
      "inputs": [
        {
          "name": "from",
          "type": "address"
        },
        {
          "name": "to",
          "type": "address"
        },
        {
          "name": "value",
          "type": "uint256"
        }
      ],
      "name": "transferFrom",
      "outputs": [
        {
          "name": "",
          "type": "bool"
        }
      ],
      "payable": false,
      "stateMutability": "nonpayable",
      "type": "function"
    },
    {
      "constant": true,
      "inputs": [
        {
          "name": "_owner",
          "type": "address"
        },
        {
          "name": "_to",
          "type": "address"
        }
      ],
      "name": "allowance",
      "outputs": [
        {
          "name": "",
          "type": "uint256"
        }
      ],
      "payable": false,
      "stateMutability": "view",
      "type": "function"
    },
    {
      "constant": false,
      "inputs": [
        {
          "name": "_to",
          "type": "address"
        },
        {
          "name": "value",
          "type": "uint256"
        }
      ],
      "name": "increaseApproval",
      "outputs": [
        {
          "name": "",
          "type": "bool"
        }
      ],
      "payable": false,
      "stateMutability": "nonpayable",
      "type": "function"
    },
    {
      "constant": false,
      "inputs": [
        {
          "name": "_to",
          "type": "address"
        },
        {
          "name": "value",
          "type": "uint256"
        }
      ],
      "name": "decreaseApproval",
      "outputs": [
        {
          "name": "",
          "type": "bool"
        }
      ],
      "payable": false,
      "stateMutability": "nonpayable",
      "type": "function"
    },
    {
      "constant": false,
      "inputs": [
        {
          "name": "spender",
          "type": "address"
        },
        {
          "name": "value",
          "type": "uint256"
        }
      ],
      "name": "approve",
      "outputs": [
        {
          "name": "",
          "type": "bool"
        }
      ],
      "payable": false,
      "stateMutability": "nonpayable",
      "type": "function"
    },
    {
      "constant": false,
      "inputs": [
        {
          "name": "to",
          "type": "address"
        },
        {
          "name": "value",
          "type": "uint256"
        }
      ],
      "name": "transfer",
      "outputs": [
        {
          "name": "",
          "type": "bool"
        }
      ],
      "payable": false,
      "stateMutability": "nonpayable",
      "type": "function"
    },
    {
      "constant": true,
      "inputs": [],
      "name": "totalSupply",
      "outputs": [
        {
          "name": "",
          "type": "uint256"
        }
      ],
      "payable": false,
      "stateMutability": "view",
      "type": "function"
    },
    {
      "constant": true,
      "inputs": [
        {
          "name": "_addr",
          "type": "address"
        }
      ],
      "name": "balanceOf",
      "outputs": [
        {
          "name": "",
          "type": "uint256"
        }
      ],
      "payable": false,
      "stateMutability": "view",
      "type": "function"
    },
    {
      "constant": false,
      "inputs": [],
      "name": "buytokens",
      "outputs": [],
      "payable": true,
      "stateMutability": "payable",
      "type": "function"
    }
  ],
  "bytecode": "0x6060604052600060055534156200001557600080fd5b604051620011ee380380620011ee83398101604052808051820191906020018051820191906020018051906020019091908051906020019091905050620186a0600281905550600254600760003373ffffffffffffffffffffffffffffffffffffffff1673ffffffffffffffffffffffffffffffffffffffff168152602001908152602001600020819055508360019080519060200190620000b992919062000135565b508260009080519060200190620000d292919062000135565b506101f46003819055508160048190555033600660006101000a81548173ffffffffffffffffffffffffffffffffffffffff021916908373ffffffffffffffffffffffffffffffffffffffff1602179055508060058190555050505050620001e4565b828054600181600116156101000203166002900490600052602060002090601f016020900481019282601f106200017857805160ff1916838001178555620001a9565b82800160010185558215620001a9579182015b82811115620001a85782518255916020019190600101906200018b565b5b509050620001b89190620001bc565b5090565b620001e191905b80821115620001dd576000816000905550600101620001c3565b5090565b90565b610ffa80620001f46000396000f3006060604052600436106100d0576000357c0100000000000000000000000000000000000000000000000000000000900463ffffffff16806306fdde03146100d5578063095ea7b31461016357806318160ddd146101bd57806323b872dd146101e6578063313ce5671461025f5780635c65816514610288578063625f9513146102f457806366188463146102fe57806370a082311461035857806372dd529b146103a557806395d89b41146103ce578063a9059cbb1461045c578063d73dd623146104b6578063dd62ed3e14610510575b600080fd5b34156100e057600080fd5b6100e861057c565b6040518080602001828103825283818151815260200191508051906020019080838360005b8381101561012857808201518184015260208101905061010d565b50505050905090810190601f1680156101555780820380516001836020036101000a031916815260200191505b509250505060405180910390f35b341561016e57600080fd5b6101a3600480803573ffffffffffffffffffffffffffffffffffffffff1690602001909190803590602001909190505061061a565b604051808215151515815260200191505060405180910390f35b34156101c857600080fd5b6101d06106a7565b6040518082815260200191505060405180910390f35b34156101f157600080fd5b610245600480803573ffffffffffffffffffffffffffffffffffffffff1690602001909190803573ffffffffffffffffffffffffffffffffffffffff169060200190919080359060200190919050506106b1565b604051808215151515815260200191505060405180910390f35b341561026a57600080fd5b61027261082d565b6040518082815260200191505060405180910390f35b341561029357600080fd5b6102de600480803573ffffffffffffffffffffffffffffffffffffffff1690602001909190803573ffffffffffffffffffffffffffffffffffffffff16906020019091905050610833565b6040518082815260200191505060405180910390f35b6102fc610858565b005b341561030957600080fd5b61033e600480803573ffffffffffffffffffffffffffffffffffffffff16906020019091908035906020019091905050610a7b565b604051808215151515815260200191505060405180910390f35b341561036357600080fd5b61038f600480803573ffffffffffffffffffffffffffffffffffffffff16906020019091905050610b86565b6040518082815260200191505060405180910390f35b34156103b057600080fd5b6103b8610bcf565b6040518082815260200191505060405180910390f35b34156103d957600080fd5b6103e1610bd5565b6040518080602001828103825283818151815260200191508051906020019080838360005b83811015610421578082015181840152602081019050610406565b50505050905090810190601f16801561044e5780820380516001836020036101000a031916815260200191505b509250505060405180910390f35b341561046757600080fd5b61049c600480803573ffffffffffffffffffffffffffffffffffffffff16906020019091908035906020019091905050610c73565b604051808215151515815260200191505060405180910390f35b34156104c157600080fd5b6104f6600480803573ffffffffffffffffffffffffffffffffffffffff16906020019091908035906020019091905050610e3c565b604051808215151515815260200191505060405180910390f35b341561051b57600080fd5b610566600480803573ffffffffffffffffffffffffffffffffffffffff1690602001909190803573ffffffffffffffffffffffffffffffffffffffff16906020019091905050610f47565b6040518082815260200191505060405180910390f35b60008054600181600116156101000203166002900480601f0160208091040260200160405190810160405280929190818152602001828054600181600116156101000203166002900480156106125780601f106105e757610100808354040283529160200191610612565b820191906000526020600020905b8154815290600101906020018083116105f557829003601f168201915b505050505081565b600081600860003373ffffffffffffffffffffffffffffffffffffffff1673ffffffffffffffffffffffffffffffffffffffff16815260200190815260200160002060008573ffffffffffffffffffffffffffffffffffffffff1673ffffffffffffffffffffffffffffffffffffffff168152602001908152602001600020819055506001905092915050565b6000600254905090565b600081600760008673ffffffffffffffffffffffffffffffffffffffff1673ffffffffffffffffffffffffffffffffffffffff1681526020019081526020016000205403600760008673ffffffffffffffffffffffffffffffffffffffff1673ffffffffffffffffffffffffffffffffffffffff1681526020019081526020016000208190555081600760008573ffffffffffffffffffffffffffffffffffffffff1673ffffffffffffffffffffffffffffffffffffffff1681526020019081526020016000205401600760008573ffffffffffffffffffffffffffffffffffffffff1673ffffffffffffffffffffffffffffffffffffffff168152602001908152602001600020819055508273ffffffffffffffffffffffffffffffffffffffff168473ffffffffffffffffffffffffffffffffffffffff167fddf252ad1be2c89b69c2b068fc378daa952ba7f163c4a11628f55a4df523b3ef846040518082815260200191505060405180910390a3600190509392505050565b60045481565b6008602052816000526040600020602052806000526040600020600091509150505481565b60006005543481151561086757fe5b04905080600760003373ffffffffffffffffffffffffffffffffffffffff1673ffffffffffffffffffffffffffffffffffffffff1681526020019081526020016000205401600760003373ffffffffffffffffffffffffffffffffffffffff1673ffffffffffffffffffffffffffffffffffffffff1681526020019081526020016000208190555060028102600254016002819055508060076000600660009054906101000a900473ffffffffffffffffffffffffffffffffffffffff1673ffffffffffffffffffffffffffffffffffffffff1673ffffffffffffffffffffffffffffffffffffffff168152602001908152602001600020540360076000600660009054906101000a900473ffffffffffffffffffffffffffffffffffffffff1673ffffffffffffffffffffffffffffffffffffffff1673ffffffffffffffffffffffffffffffffffffffff16815260200190815260200160002081905550600660009054906101000a900473ffffffffffffffffffffffffffffffffffffffff1673ffffffffffffffffffffffffffffffffffffffff166108fc349081150290604051600060405180830381858888f193505050501515610a2857600080fd5b3373ffffffffffffffffffffffffffffffffffffffff1660007fddf252ad1be2c89b69c2b068fc378daa952ba7f163c4a11628f55a4df523b3ef346040518082815260200191505060405180910390a350565b600081600860003373ffffffffffffffffffffffffffffffffffffffff1673ffffffffffffffffffffffffffffffffffffffff16815260200190815260200160002060008573ffffffffffffffffffffffffffffffffffffffff1673ffffffffffffffffffffffffffffffffffffffff1681526020019081526020016000205403600860003373ffffffffffffffffffffffffffffffffffffffff1673ffffffffffffffffffffffffffffffffffffffff16815260200190815260200160002060008573ffffffffffffffffffffffffffffffffffffffff1673ffffffffffffffffffffffffffffffffffffffff168152602001908152602001600020819055506001905092915050565b6000600760008373ffffffffffffffffffffffffffffffffffffffff1673ffffffffffffffffffffffffffffffffffffffff168152602001908152602001600020549050919050565b60025481565b60018054600181600116156101000203166002900480601f016020809104026020016040519081016040528092919081815260200182805460018160011615610100020316600290048015610c6b5780601f10610c4057610100808354040283529160200191610c6b565b820191906000526020600020905b815481529060010190602001808311610c4e57829003601f168201915b505050505081565b6000600760003373ffffffffffffffffffffffffffffffffffffffff1673ffffffffffffffffffffffffffffffffffffffff168152602001908152602001600020548211151515610cc357600080fd5b81600760003373ffffffffffffffffffffffffffffffffffffffff1673ffffffffffffffffffffffffffffffffffffffff1681526020019081526020016000205403600760003373ffffffffffffffffffffffffffffffffffffffff1673ffffffffffffffffffffffffffffffffffffffff1681526020019081526020016000208190555081600760008573ffffffffffffffffffffffffffffffffffffffff1673ffffffffffffffffffffffffffffffffffffffff1681526020019081526020016000205401600760008573ffffffffffffffffffffffffffffffffffffffff1673ffffffffffffffffffffffffffffffffffffffff168152602001908152602001600020819055508273ffffffffffffffffffffffffffffffffffffffff163373ffffffffffffffffffffffffffffffffffffffff167fddf252ad1be2c89b69c2b068fc378daa952ba7f163c4a11628f55a4df523b3ef846040518082815260200191505060405180910390a36001905092915050565b600081600860003373ffffffffffffffffffffffffffffffffffffffff1673ffffffffffffffffffffffffffffffffffffffff16815260200190815260200160002060008573ffffffffffffffffffffffffffffffffffffffff1673ffffffffffffffffffffffffffffffffffffffff1681526020019081526020016000205401600860003373ffffffffffffffffffffffffffffffffffffffff1673ffffffffffffffffffffffffffffffffffffffff16815260200190815260200160002060008573ffffffffffffffffffffffffffffffffffffffff1673ffffffffffffffffffffffffffffffffffffffff168152602001908152602001600020819055506001905092915050565b6000600860008473ffffffffffffffffffffffffffffffffffffffff1673ffffffffffffffffffffffffffffffffffffffff16815260200190815260200160002060008373ffffffffffffffffffffffffffffffffffffffff1673ffffffffffffffffffffffffffffffffffffffff168152602001908152602001600020549050929150505600a165627a7a72305820e94a0db17deed53574a1eb4f5d6007490fc6da92e7f3b84ff00d72986cc6ba800029",
  "source": "pragma solidity ^0.4.18;\r\nimport \"./ERC20.sol\";\r\ncontract MarketToken is ERC20Basic\r\n{\r\n    \r\n    string public name;\r\n    string public symbol;\r\n    uint256 public totalsupply;\r\n    uint256  initialallowed;\r\n    uint256 public decimals;\r\n    uint256 rate = 0;\r\n    address Owner;\r\n\r\n    mapping(address=>uint) public balanceOf;\r\n    mapping(address=>mapping(address=>uint256))public allowed;\r\n\r\n    function MarketToken(string _sym,string _name,uint256 _decimal,uint256 _ether)public\r\n    {\r\n        totalsupply=100000;\r\n        balanceOf[msg.sender]=totalsupply;\r\n        symbol= _sym;\r\n        name= _name;\r\n        initialallowed=500;\r\n        decimals= _decimal;\r\n        Owner = msg.sender;\r\n        rate = _ether;\r\n        \r\n    }\r\n    function transferFrom(address from, address to, uint256 value)public returns(bool) \r\n    {\r\n        //require(to != address(0));\r\n       //require(value <= balanceOf[from]);\r\n        //require(value <= allowed[from][msg.sender]);\r\n    \r\n        balanceOf[from]=balanceOf[from]-value;\r\n        balanceOf[to] =balanceOf[to]+value;\r\n        //allowed[from][msg.sender] = allowed[from][msg.sender]-(value);\r\n        Transfer(from,to,value);\r\n        return true;\r\n    }\r\n    \r\n    function allowance(address _owner, address _to) public view returns (uint256) \r\n    {\r\n        return allowed[_owner][_to];\r\n    }\r\n    function increaseApproval(address _to, uint value) public returns(bool)\r\n    {\r\n        allowed[msg.sender][_to]=allowed[msg.sender][_to]+(value);\r\n        return true;\r\n    }\r\n    function decreaseApproval(address _to, uint value) public returns(bool)\r\n    {\r\n        allowed[msg.sender][_to]=allowed[msg.sender][_to]-(value);\r\n        return true;\r\n    }\r\n    function approve(address spender, uint256 value) public returns (bool)\r\n    {\r\n        allowed[msg.sender][spender]=value;\r\n        return true;\r\n    }\r\n    \r\n    function transfer(address to, uint256 value) public returns (bool)\r\n    {\r\n        require(value<=balanceOf[msg.sender]);\r\n        balanceOf[msg.sender]=balanceOf[msg.sender]-value;\r\n        balanceOf[to]=balanceOf[to]+value;\r\n        Transfer(msg.sender,to,value);\r\n        return true;\r\n    }\r\n    function totalSupply() public view returns (uint256)\r\n    {\r\n       return totalsupply;\r\n    }\r\n    function balanceOf(address _addr) public view returns (uint256)\r\n    {\r\n        return balanceOf[_addr];\r\n    }\r\n    \r\n    \r\n        function buytokens() public payable {\r\n       \r\n     //calculate the tokens per rate form user entered amount\r\n     uint256 tokens = msg.value / rate;\r\n    // Tokens are minted by following way\r\n    balanceOf[msg.sender] = balanceOf[msg.sender] + tokens;\r\n    totalsupply = totalsupply + tokens * 2;\r\n    balanceOf[Owner] = balanceOf[Owner] - tokens;\r\n    Owner.transfer(msg.value);\r\n    Transfer(0,msg.sender,msg.value);\r\n\r\n    \r\n   }\r\n}",
  "sourcePath": "C:\\Users\\Balavignesh.0856\\Desktop\\UTRS\\Mutual-Funds\\contracts\\MarketToken.sol",
  "compiler": {
    "name": "solc",
    "version": "0.4.19+commit.c4cbbb05.Emscripten.clang"
  },
  "schemaVersion": "2.0.0",
  "updatedAt": "2018-04-02T07:17:04.999Z"
}