{
  "contractName": "MarketToken",
  "abi": [
    {
      "constant": true,
      "inputs": [],
      "name": "name",
      "outputs": [
        {
          "name": "",
          "type": "string"
        }
      ],
      "payable": false,
      "stateMutability": "view",
      "type": "function"
    },
    {
      "constant": true,
      "inputs": [],
      "name": "decimals",
      "outputs": [
        {
          "name": "",
          "type": "uint256"
        }
      ],
      "payable": false,
      "stateMutability": "view",
      "type": "function"
    },
    {
      "constant": true,
      "inputs": [
        {
          "name": "",
          "type": "address"
        },
        {
          "name": "",
          "type": "address"
        }
      ],
      "name": "allowed",
      "outputs": [
        {
          "name": "",
          "type": "uint256"
        }
      ],
      "payable": false,
      "stateMutability": "view",
      "type": "function"
    },
    {
      "constant": true,
      "inputs": [],
      "name": "totalsupply",
      "outputs": [
        {
          "name": "",
          "type": "uint256"
        }
      ],
      "payable": false,
      "stateMutability": "view",
      "type": "function"
    },
    {
      "constant": true,
      "inputs": [],
      "name": "symbol",
      "outputs": [
        {
          "name": "",
          "type": "string"
        }
      ],
      "payable": false,
      "stateMutability": "view",
      "type": "function"
    },
    {
      "inputs": [],
      "payable": false,
      "stateMutability": "nonpayable",
      "type": "constructor"
    },
    {
      "payable": true,
      "stateMutability": "payable",
      "type": "fallback"
    },
    {
      "anonymous": false,
      "inputs": [
        {
          "indexed": true,
          "name": "from",
          "type": "address"
        },
        {
          "indexed": true,
          "name": "to",
          "type": "address"
        },
        {
          "indexed": false,
          "name": "tokens",
          "type": "uint256"
        }
      ],
      "name": "Transfer",
      "type": "event"
    },
    {
      "anonymous": false,
      "inputs": [
        {
          "indexed": true,
          "name": "tokenOwner",
          "type": "address"
        },
        {
          "indexed": true,
          "name": "spender",
          "type": "address"
        },
        {
          "indexed": false,
          "name": "tokens",
          "type": "uint256"
        }
      ],
      "name": "Approval",
      "type": "event"
    },
    {
      "constant": false,
      "inputs": [
        {
          "name": "from",
          "type": "address"
        },
        {
          "name": "to",
          "type": "address"
        },
        {
          "name": "value",
          "type": "uint256"
        }
      ],
      "name": "transferFrom",
      "outputs": [
        {
          "name": "",
          "type": "bool"
        }
      ],
      "payable": false,
      "stateMutability": "nonpayable",
      "type": "function"
    },
    {
      "constant": true,
      "inputs": [
        {
          "name": "_owner",
          "type": "address"
        },
        {
          "name": "_to",
          "type": "address"
        }
      ],
      "name": "allowance",
      "outputs": [
        {
          "name": "",
          "type": "uint256"
        }
      ],
      "payable": false,
      "stateMutability": "view",
      "type": "function"
    },
    {
      "constant": false,
      "inputs": [
        {
          "name": "_to",
          "type": "address"
        },
        {
          "name": "value",
          "type": "uint256"
        }
      ],
      "name": "increaseApproval",
      "outputs": [
        {
          "name": "",
          "type": "bool"
        }
      ],
      "payable": false,
      "stateMutability": "nonpayable",
      "type": "function"
    },
    {
      "constant": false,
      "inputs": [
        {
          "name": "_to",
          "type": "address"
        },
        {
          "name": "value",
          "type": "uint256"
        }
      ],
      "name": "decreaseApproval",
      "outputs": [
        {
          "name": "",
          "type": "bool"
        }
      ],
      "payable": false,
      "stateMutability": "nonpayable",
      "type": "function"
    },
    {
      "constant": false,
      "inputs": [
        {
          "name": "spender",
          "type": "address"
        },
        {
          "name": "value",
          "type": "uint256"
        }
      ],
      "name": "approve",
      "outputs": [
        {
          "name": "",
          "type": "bool"
        }
      ],
      "payable": false,
      "stateMutability": "nonpayable",
      "type": "function"
    },
    {
      "constant": false,
      "inputs": [
        {
          "name": "to",
          "type": "address"
        },
        {
          "name": "value",
          "type": "uint256"
        }
      ],
      "name": "transfer",
      "outputs": [
        {
          "name": "",
          "type": "bool"
        }
      ],
      "payable": false,
      "stateMutability": "nonpayable",
      "type": "function"
    },
    {
      "constant": true,
      "inputs": [],
      "name": "totalSupply",
      "outputs": [
        {
          "name": "",
          "type": "uint256"
        }
      ],
      "payable": false,
      "stateMutability": "view",
      "type": "function"
    },
    {
      "constant": true,
      "inputs": [
        {
          "name": "_addr",
          "type": "address"
        }
      ],
      "name": "balanceOf",
      "outputs": [
        {
          "name": "",
          "type": "uint256"
        }
      ],
      "payable": false,
      "stateMutability": "view",
      "type": "function"
    },
    {
      "constant": true,
      "inputs": [],
      "name": "GetBal",
      "outputs": [
        {
          "name": "",
          "type": "uint256"
        }
      ],
      "payable": false,
      "stateMutability": "view",
      "type": "function"
    },
    {
      "constant": true,
      "inputs": [],
      "name": "getBal",
      "outputs": [
        {
          "name": "",
          "type": "uint256"
        }
      ],
      "payable": false,
      "stateMutability": "view",
      "type": "function"
    }
  ],
  "bytecode": "0x60806040526040805190810160405280600981526020017f546f6b656e20312e3000000000000000000000000000000000000000000000008152506000908051906020019062000051929190620001a4565b503480156200005f57600080fd5b50620f4240600381905550600354600760003373ffffffffffffffffffffffffffffffffffffffff1673ffffffffffffffffffffffffffffffffffffffff168152602001908152602001600020819055506040805190810160405280600381526020017f42544d000000000000000000000000000000000000000000000000000000000081525060029080519060200190620000fd929190620001a4565b506040805190810160405280600681526020017f427974726f6e0000000000000000000000000000000000000000000000000000815250600190805190602001906200014b929190620001a4565b506101f4600481905550600060058190555033600660006101000a81548173ffffffffffffffffffffffffffffffffffffffff021916908373ffffffffffffffffffffffffffffffffffffffff16021790555062000253565b828054600181600116156101000203166002900490600052602060002090601f016020900481019282601f10620001e757805160ff191683800117855562000218565b8280016001018555821562000218579182015b8281111562000217578251825591602001919060010190620001fa565b5b5090506200022791906200022b565b5090565b6200025091905b808211156200024c57600081600090555060010162000232565b5090565b90565b610ff580620002636000396000f3006080604052600436106100db576000357c0100000000000000000000000000000000000000000000000000000000900463ffffffff16806306fdde03146100dd578063095ea7b31461016d57806318160ddd146101d257806323b872dd146101fd57806325caa26214610282578063313ce567146102ad5780635c658165146102d8578063661884631461034f57806370a08231146103b457806372dd529b1461040b57806395d89b4114610436578063a9059cbb146104c6578063bf8869b51461052b578063d73dd62314610556578063dd62ed3e146105bb575b005b3480156100e957600080fd5b506100f2610632565b6040518080602001828103825283818151815260200191508051906020019080838360005b83811015610132578082015181840152602081019050610117565b50505050905090810190601f16801561015f5780820380516001836020036101000a031916815260200191505b509250505060405180910390f35b34801561017957600080fd5b506101b8600480360381019080803573ffffffffffffffffffffffffffffffffffffffff169060200190929190803590602001909291905050506106d0565b604051808215151515815260200191505060405180910390f35b3480156101de57600080fd5b506101e761075d565b6040518082815260200191505060405180910390f35b34801561020957600080fd5b50610268600480360381019080803573ffffffffffffffffffffffffffffffffffffffff169060200190929190803573ffffffffffffffffffffffffffffffffffffffff16906020019092919080359060200190929190505050610767565b604051808215151515815260200191505060405180910390f35b34801561028e57600080fd5b506102976109e2565b6040518082815260200191505060405180910390f35b3480156102b957600080fd5b506102c2610a01565b6040518082815260200191505060405180910390f35b3480156102e457600080fd5b50610339600480360381019080803573ffffffffffffffffffffffffffffffffffffffff169060200190929190803573ffffffffffffffffffffffffffffffffffffffff169060200190929190505050610a07565b6040518082815260200191505060405180910390f35b34801561035b57600080fd5b5061039a600480360381019080803573ffffffffffffffffffffffffffffffffffffffff16906020019092919080359060200190929190505050610a2c565b604051808215151515815260200191505060405180910390f35b3480156103c057600080fd5b506103f5600480360381019080803573ffffffffffffffffffffffffffffffffffffffff169060200190929190505050610b37565b6040518082815260200191505060405180910390f35b34801561041757600080fd5b50610420610b80565b6040518082815260200191505060405180910390f35b34801561044257600080fd5b5061044b610b86565b6040518080602001828103825283818151815260200191508051906020019080838360005b8381101561048b578082015181840152602081019050610470565b50505050905090810190601f1680156104b85780820380516001836020036101000a031916815260200191505b509250505060405180910390f35b3480156104d257600080fd5b50610511600480360381019080803573ffffffffffffffffffffffffffffffffffffffff16906020019092919080359060200190929190505050610c24565b604051808215151515815260200191505060405180910390f35b34801561053757600080fd5b50610540610e05565b6040518082815260200191505060405180910390f35b34801561056257600080fd5b506105a1600480360381019080803573ffffffffffffffffffffffffffffffffffffffff16906020019092919080359060200190929190505050610e37565b604051808215151515815260200191505060405180910390f35b3480156105c757600080fd5b5061061c600480360381019080803573ffffffffffffffffffffffffffffffffffffffff169060200190929190803573ffffffffffffffffffffffffffffffffffffffff169060200190929190505050610f42565b6040518082815260200191505060405180910390f35b60018054600181600116156101000203166002900480601f0160208091040260200160405190810160405280929190818152602001828054600181600116156101000203166002900480156106c85780601f1061069d576101008083540402835291602001916106c8565b820191906000526020600020905b8154815290600101906020018083116106ab57829003601f168201915b505050505081565b600081600860003373ffffffffffffffffffffffffffffffffffffffff1673ffffffffffffffffffffffffffffffffffffffff16815260200190815260200160002060008573ffffffffffffffffffffffffffffffffffffffff1673ffffffffffffffffffffffffffffffffffffffff168152602001908152602001600020819055506001905092915050565b6000600354905090565b600081600760008673ffffffffffffffffffffffffffffffffffffffff1673ffffffffffffffffffffffffffffffffffffffff1681526020019081526020016000205403600760008673ffffffffffffffffffffffffffffffffffffffff1673ffffffffffffffffffffffffffffffffffffffff1681526020019081526020016000208190555081600760008573ffffffffffffffffffffffffffffffffffffffff1673ffffffffffffffffffffffffffffffffffffffff1681526020019081526020016000205401600760008573ffffffffffffffffffffffffffffffffffffffff1673ffffffffffffffffffffffffffffffffffffffff1681526020019081526020016000208190555081600860008673ffffffffffffffffffffffffffffffffffffffff1673ffffffffffffffffffffffffffffffffffffffff16815260200190815260200160002060003373ffffffffffffffffffffffffffffffffffffffff1673ffffffffffffffffffffffffffffffffffffffff1681526020019081526020016000205403600860008673ffffffffffffffffffffffffffffffffffffffff1673ffffffffffffffffffffffffffffffffffffffff16815260200190815260200160002060003373ffffffffffffffffffffffffffffffffffffffff1673ffffffffffffffffffffffffffffffffffffffff168152602001908152602001600020819055508273ffffffffffffffffffffffffffffffffffffffff168473ffffffffffffffffffffffffffffffffffffffff167fddf252ad1be2c89b69c2b068fc378daa952ba7f163c4a11628f55a4df523b3ef846040518082815260200191505060405180910390a3600190509392505050565b60003073ffffffffffffffffffffffffffffffffffffffff1631905090565b60055481565b6008602052816000526040600020602052806000526040600020600091509150505481565b600081600860003373ffffffffffffffffffffffffffffffffffffffff1673ffffffffffffffffffffffffffffffffffffffff16815260200190815260200160002060008573ffffffffffffffffffffffffffffffffffffffff1673ffffffffffffffffffffffffffffffffffffffff1681526020019081526020016000205403600860003373ffffffffffffffffffffffffffffffffffffffff1673ffffffffffffffffffffffffffffffffffffffff16815260200190815260200160002060008573ffffffffffffffffffffffffffffffffffffffff1673ffffffffffffffffffffffffffffffffffffffff168152602001908152602001600020819055506001905092915050565b6000600760008373ffffffffffffffffffffffffffffffffffffffff1673ffffffffffffffffffffffffffffffffffffffff168152602001908152602001600020549050919050565b60035481565b60028054600181600116156101000203166002900480601f016020809104026020016040519081016040528092919081815260200182805460018160011615610100020316600290048015610c1c5780601f10610bf157610100808354040283529160200191610c1c565b820191906000526020600020905b815481529060010190602001808311610bff57829003601f168201915b505050505081565b60008160076000600660009054906101000a900473ffffffffffffffffffffffffffffffffffffffff1673ffffffffffffffffffffffffffffffffffffffff1673ffffffffffffffffffffffffffffffffffffffff168152602001908152602001600020540360076000600660009054906101000a900473ffffffffffffffffffffffffffffffffffffffff1673ffffffffffffffffffffffffffffffffffffffff1673ffffffffffffffffffffffffffffffffffffffff1681526020019081526020016000208190555081600760008573ffffffffffffffffffffffffffffffffffffffff1673ffffffffffffffffffffffffffffffffffffffff1681526020019081526020016000205401600760008573ffffffffffffffffffffffffffffffffffffffff1673ffffffffffffffffffffffffffffffffffffffff168152602001908152602001600020819055508273ffffffffffffffffffffffffffffffffffffffff16600660009054906101000a900473ffffffffffffffffffffffffffffffffffffffff1673ffffffffffffffffffffffffffffffffffffffff167fddf252ad1be2c89b69c2b068fc378daa952ba7f163c4a11628f55a4df523b3ef846040518082815260200191505060405180910390a36001905092915050565b6000670de0b6b3a76400003073ffffffffffffffffffffffffffffffffffffffff1631811515610e3157fe5b04905090565b600081600860003373ffffffffffffffffffffffffffffffffffffffff1673ffffffffffffffffffffffffffffffffffffffff16815260200190815260200160002060008573ffffffffffffffffffffffffffffffffffffffff1673ffffffffffffffffffffffffffffffffffffffff1681526020019081526020016000205401600860003373ffffffffffffffffffffffffffffffffffffffff1673ffffffffffffffffffffffffffffffffffffffff16815260200190815260200160002060008573ffffffffffffffffffffffffffffffffffffffff1673ffffffffffffffffffffffffffffffffffffffff168152602001908152602001600020819055506001905092915050565b6000600860008473ffffffffffffffffffffffffffffffffffffffff1673ffffffffffffffffffffffffffffffffffffffff16815260200190815260200160002060008373ffffffffffffffffffffffffffffffffffffffff1673ffffffffffffffffffffffffffffffffffffffff168152602001908152602001600020549050929150505600a165627a7a72305820eee46ced7005960655b4412578bb99aa0732a1582ebd1fcc87245e7069e9d0ed0029",
  "source": " pragma solidity ^0.4.20;\r\nimport \"./ERC20.sol\";\r\ncontract MarketToken is ERC20\r\n{\r\n    string standard=\"Token 1.0\";\r\n    string public name;\r\n    string public symbol;\r\n    uint256 public totalsupply;\r\n    uint256  initialallowed;\r\n\r\n    uint256 public decimals;\r\n  \r\n    address Owner;\r\n\r\n    mapping(address=>uint) public balanceOf;\r\n    mapping(address=>mapping(address=>uint256))public allowed;\r\n\r\n    function MarketToken()public\r\n    {\r\n        totalsupply=1000000;\r\n        balanceOf[msg.sender]=totalsupply;\r\n        symbol=\"BTM\";\r\n        name=\"Bytron\";\r\n        initialallowed=500;\r\n        decimals=0;\r\n        Owner = msg.sender;\r\n        \r\n    }\r\n    function transferFrom(address from, address to, uint256 value)public returns(bool) \r\n    {\r\n        //require(to != address(0));\r\n       //require(value <= balanceOf[from]);\r\n       // require(value <= allowed[from][msg.sender]);\r\n    \r\n        balanceOf[from]=balanceOf[from]-value;\r\n        balanceOf[to] =balanceOf[to]+value;\r\n        allowed[from][msg.sender] = allowed[from][msg.sender]-(value);\r\n        emit Transfer(from,to,value);\r\n        return true;\r\n    }\r\n    \r\n    function allowance(address _owner, address _to) public view returns (uint256) \r\n    {\r\n        return allowed[_owner][_to];\r\n    }\r\n    function increaseApproval(address _to, uint value) public returns(bool)\r\n    {\r\n        allowed[msg.sender][_to]=allowed[msg.sender][_to]+(value);\r\n        return true;\r\n    }\r\n    function decreaseApproval(address _to, uint value) public returns(bool)\r\n    {\r\n        allowed[msg.sender][_to]=allowed[msg.sender][_to]-(value);\r\n        return true;\r\n    }\r\n    function approve(address spender, uint256 value) public returns (bool)\r\n    {\r\n        allowed[msg.sender][spender]=value;\r\n        return true;\r\n    }\r\n    \r\n    function transfer(address to, uint256 value) public returns (bool)\r\n    {\r\n        //require(value<=balanceOf[msg.sender]);\r\n        balanceOf[Owner]=balanceOf[Owner]-value;\r\n        balanceOf[to]=balanceOf[to]+value;\r\n        emit Transfer(Owner,to,value);\r\n        return true;\r\n    }\r\n    function totalSupply() public view returns (uint256)\r\n    {\r\n       return totalsupply;\r\n    }\r\n    function balanceOf(address _addr) public view returns (uint256)\r\n    {\r\n        return balanceOf[_addr];\r\n    }\r\n    \r\n    function () public payable {\r\n           \r\n       }\r\n        function GetBal()public view returns(uint256)\r\n        {\r\n            return address(this).balance / 1 ether;\r\n        }\r\n       function getBal() public view returns(uint256){\r\n           \r\n           return address(this).balance;\r\n       }\r\n    \r\n    \r\n        \r\n}",
  "sourcePath": "C:\\Users\\Balavignesh.0856\\Desktop\\LKDS\\POC\\MOSTRIX\\Mutual-Funds\\contracts\\DostrixToken.sol",
  "compiler": {
    "name": "solc",
    "version": "0.4.24+commit.e67f0147.Emscripten.clang"
  },
  "schemaVersion": "2.0.0",
  "updatedAt": "2018-05-28T11:40:03.368Z"
}