{
  "contractName": "Token",
  "abi": [
    {
      "constant": true,
      "inputs": [
        {
          "name": "_token",
          "type": "address"
        }
      ],
      "name": "totalSupplytoken",
      "outputs": [
        {
          "name": "",
          "type": "uint256"
        }
      ],
      "payable": false,
      "stateMutability": "view",
      "type": "function"
    },
    {
      "constant": true,
      "inputs": [
        {
          "name": "_token",
          "type": "address"
        }
      ],
      "name": "balanceOftoken",
      "outputs": [
        {
          "name": "",
          "type": "uint256"
        }
      ],
      "payable": false,
      "stateMutability": "view",
      "type": "function"
    },
    {
      "constant": false,
      "inputs": [
        {
          "name": "_token",
          "type": "address"
        },
        {
          "name": "_to",
          "type": "address"
        },
        {
          "name": "_amt",
          "type": "uint256"
        }
      ],
      "name": "transfertoken",
      "outputs": [],
      "payable": true,
      "stateMutability": "payable",
      "type": "function"
    },
    {
      "constant": false,
      "inputs": [
        {
          "name": "_token",
          "type": "address"
        },
        {
          "name": "_to",
          "type": "address"
        },
        {
          "name": "_amt",
          "type": "uint256"
        }
      ],
      "name": "transfer",
      "outputs": [],
      "payable": true,
      "stateMutability": "payable",
      "type": "function"
    }
  ],
  "bytecode": "0x608060405234801561001057600080fd5b50610584806100206000396000f300608060405260043610610062576000357c0100000000000000000000000000000000000000000000000000000000900463ffffffff16806316de28bc14610067578063295c1324146100c75780634dcf611e1461011e578063beabacc814610175575b600080fd5b6100c5600480360381019080803573ffffffffffffffffffffffffffffffffffffffff169060200190929190803573ffffffffffffffffffffffffffffffffffffffff169060200190929190803590602001909291905050506101d5565b005b3480156100d357600080fd5b50610108600480360381019080803573ffffffffffffffffffffffffffffffffffffffff1690602001909291905050506102ed565b6040518082815260200191505060405180910390f35b34801561012a57600080fd5b5061015f600480360381019080803573ffffffffffffffffffffffffffffffffffffffff1690602001909291905050506103cc565b6040518082815260200191505060405180910390f35b6101d3600480360381019080803573ffffffffffffffffffffffffffffffffffffffff169060200190929190803573ffffffffffffffffffffffffffffffffffffffff16906020019092919080359060200190929190505050610474565b005b8273ffffffffffffffffffffffffffffffffffffffff166323b872dd3384846040518463ffffffff167c0100000000000000000000000000000000000000000000000000000000028152600401808473ffffffffffffffffffffffffffffffffffffffff1673ffffffffffffffffffffffffffffffffffffffff1681526020018373ffffffffffffffffffffffffffffffffffffffff1673ffffffffffffffffffffffffffffffffffffffff1681526020018281526020019350505050602060405180830381600087803b1580156102ac57600080fd5b505af11580156102c0573d6000803e3d6000fd5b505050506040513d60208110156102d657600080fd5b810190808051906020019092919050505050505050565b60008173ffffffffffffffffffffffffffffffffffffffff166370a08231336040518263ffffffff167c0100000000000000000000000000000000000000000000000000000000028152600401808273ffffffffffffffffffffffffffffffffffffffff1673ffffffffffffffffffffffffffffffffffffffff168152602001915050602060405180830381600087803b15801561038a57600080fd5b505af115801561039e573d6000803e3d6000fd5b505050506040513d60208110156103b457600080fd5b81019080805190602001909291905050509050919050565b60008173ffffffffffffffffffffffffffffffffffffffff166318160ddd6040518163ffffffff167c0100000000000000000000000000000000000000000000000000000000028152600401602060405180830381600087803b15801561043257600080fd5b505af1158015610446573d6000803e3d6000fd5b505050506040513d602081101561045c57600080fd5b81019080805190602001909291905050509050919050565b8273ffffffffffffffffffffffffffffffffffffffff1663a9059cbb83836040518363ffffffff167c0100000000000000000000000000000000000000000000000000000000028152600401808373ffffffffffffffffffffffffffffffffffffffff1673ffffffffffffffffffffffffffffffffffffffff16815260200182815260200192505050602060405180830381600087803b15801561051757600080fd5b505af115801561052b573d6000803e3d6000fd5b505050506040513d602081101561054157600080fd5b8101908080519060200190929190505050505050505600a165627a7a72305820f2db3623cbc733fa62a809e5b72325f468a2e493a86849ae98375dc0f0f37df40029",
  "source": "pragma solidity ^0.4.23;\r\nimport \"./ERC20.sol\";\r\ncontract Token{\r\n    \r\n    function totalSupplytoken(address _token) public view returns(uint){\r\n        return ERC20(_token).totalSupply();\r\n    }\r\n    \r\n    function balanceOftoken(address _token) public view returns(uint){\r\n        return ERC20(_token).balanceOf(msg.sender);\r\n    }\r\n    \r\n    // before this You need to run approve function on your token contract...\r\n    function transfertoken(address _token,address _to,uint _amt) public payable {\r\n        ERC20(_token).transferFrom(msg.sender,_to,_amt);\r\n    }\r\n    \r\n    function transfer(address _token,address _to,uint _amt) public payable {\r\n        ERC20(_token).transfer(_to,_amt);\r\n    }\r\n    \r\n}",
  "sourcePath": "C:\\Users\\Sultana.0862\\Desktop\\New folder\\Mutual-Funds\\contracts\\TokenManipulation.sol",
  "compiler": {
    "name": "solc",
    "version": "0.4.23+commit.124ca40d.Emscripten.clang"
  },
  "schemaVersion": "2.0.0",
  "updatedAt": "2018-05-29T07:06:46.209Z"
}