{
  "contractName": "Token",
  "abi": [
    {
      "constant": true,
      "inputs": [
        {
          "name": "_token",
          "type": "address"
        }
      ],
      "name": "totalSupplytoken",
      "outputs": [
        {
          "name": "",
          "type": "uint256"
        }
      ],
      "payable": false,
      "stateMutability": "view",
      "type": "function"
    },
    {
      "constant": true,
      "inputs": [
        {
          "name": "_token",
          "type": "address"
        }
      ],
      "name": "balanceOftoken",
      "outputs": [
        {
          "name": "",
          "type": "uint256"
        }
      ],
      "payable": false,
      "stateMutability": "view",
      "type": "function"
    },
    {
      "constant": false,
      "inputs": [
        {
          "name": "_token",
          "type": "address"
        },
        {
          "name": "_to",
          "type": "address"
        },
        {
          "name": "_amt",
          "type": "uint256"
        }
      ],
      "name": "transfertoken",
      "outputs": [],
      "payable": true,
      "stateMutability": "payable",
      "type": "function"
    },
    {
      "constant": false,
      "inputs": [
        {
          "name": "_token",
          "type": "address"
        },
        {
          "name": "_to",
          "type": "address"
        },
        {
          "name": "_amt",
          "type": "uint256"
        }
      ],
      "name": "transfer",
      "outputs": [],
      "payable": true,
      "stateMutability": "payable",
      "type": "function"
    },
    {
      "constant": true,
      "inputs": [
        {
          "name": "_token",
          "type": "address"
        }
      ],
      "name": "name",
      "outputs": [
        {
          "name": "",
          "type": "string"
        }
      ],
      "payable": false,
      "stateMutability": "view",
      "type": "function"
    },
    {
      "constant": true,
      "inputs": [
        {
          "name": "_token",
          "type": "address"
        }
      ],
      "name": "symbol",
      "outputs": [
        {
          "name": "",
          "type": "string"
        }
      ],
      "payable": false,
      "stateMutability": "view",
      "type": "function"
    }
  ],
  "bytecode": "0x608060405234801561001057600080fd5b5061090e806100206000396000f300608060405260043610610078576000357c0100000000000000000000000000000000000000000000000000000000900463ffffffff168063019848921461007d57806316de28bc14610139578063295c1324146101995780634dcf611e146101f0578063a86e357614610247578063beabacc814610303575b600080fd5b34801561008957600080fd5b506100be600480360381019080803573ffffffffffffffffffffffffffffffffffffffff169060200190929190505050610363565b6040518080602001828103825283818151815260200191508051906020019080838360005b838110156100fe5780820151818401526020810190506100e3565b50505050905090810190601f16801561012b5780820380516001836020036101000a031916815260200191505b509250505060405180910390f35b610197600480360381019080803573ffffffffffffffffffffffffffffffffffffffff169060200190929190803573ffffffffffffffffffffffffffffffffffffffff16906020019092919080359060200190929190505050610461565b005b3480156101a557600080fd5b506101da600480360381019080803573ffffffffffffffffffffffffffffffffffffffff169060200190929190505050610579565b6040518082815260200191505060405180910390f35b3480156101fc57600080fd5b50610231600480360381019080803573ffffffffffffffffffffffffffffffffffffffff169060200190929190505050610658565b6040518082815260200191505060405180910390f35b34801561025357600080fd5b50610288600480360381019080803573ffffffffffffffffffffffffffffffffffffffff169060200190929190505050610700565b6040518080602001828103825283818151815260200191508051906020019080838360005b838110156102c85780820151818401526020810190506102ad565b50505050905090810190601f1680156102f55780820380516001836020036101000a031916815260200191505b509250505060405180910390f35b610361600480360381019080803573ffffffffffffffffffffffffffffffffffffffff169060200190929190803573ffffffffffffffffffffffffffffffffffffffff169060200190929190803590602001909291905050506107fe565b005b60608173ffffffffffffffffffffffffffffffffffffffff166306fdde036040518163ffffffff167c0100000000000000000000000000000000000000000000000000000000028152600401600060405180830381600087803b1580156103c957600080fd5b505af11580156103dd573d6000803e3d6000fd5b505050506040513d6000823e3d601f19601f82011682018060405250602081101561040757600080fd5b81019080805164010000000081111561041f57600080fd5b8281019050602081018481111561043557600080fd5b815185600182028301116401000000008211171561045257600080fd5b50509291905050509050919050565b8273ffffffffffffffffffffffffffffffffffffffff166323b872dd3384846040518463ffffffff167c0100000000000000000000000000000000000000000000000000000000028152600401808473ffffffffffffffffffffffffffffffffffffffff1673ffffffffffffffffffffffffffffffffffffffff1681526020018373ffffffffffffffffffffffffffffffffffffffff1673ffffffffffffffffffffffffffffffffffffffff1681526020018281526020019350505050602060405180830381600087803b15801561053857600080fd5b505af115801561054c573d6000803e3d6000fd5b505050506040513d602081101561056257600080fd5b810190808051906020019092919050505050505050565b60008173ffffffffffffffffffffffffffffffffffffffff166370a08231336040518263ffffffff167c0100000000000000000000000000000000000000000000000000000000028152600401808273ffffffffffffffffffffffffffffffffffffffff1673ffffffffffffffffffffffffffffffffffffffff168152602001915050602060405180830381600087803b15801561061657600080fd5b505af115801561062a573d6000803e3d6000fd5b505050506040513d602081101561064057600080fd5b81019080805190602001909291905050509050919050565b60008173ffffffffffffffffffffffffffffffffffffffff166318160ddd6040518163ffffffff167c0100000000000000000000000000000000000000000000000000000000028152600401602060405180830381600087803b1580156106be57600080fd5b505af11580156106d2573d6000803e3d6000fd5b505050506040513d60208110156106e857600080fd5b81019080805190602001909291905050509050919050565b60608173ffffffffffffffffffffffffffffffffffffffff166395d89b416040518163ffffffff167c0100000000000000000000000000000000000000000000000000000000028152600401600060405180830381600087803b15801561076657600080fd5b505af115801561077a573d6000803e3d6000fd5b505050506040513d6000823e3d601f19601f8201168201806040525060208110156107a457600080fd5b8101908080516401000000008111156107bc57600080fd5b828101905060208101848111156107d257600080fd5b81518560018202830111640100000000821117156107ef57600080fd5b50509291905050509050919050565b8273ffffffffffffffffffffffffffffffffffffffff1663a9059cbb83836040518363ffffffff167c0100000000000000000000000000000000000000000000000000000000028152600401808373ffffffffffffffffffffffffffffffffffffffff1673ffffffffffffffffffffffffffffffffffffffff16815260200182815260200192505050602060405180830381600087803b1580156108a157600080fd5b505af11580156108b5573d6000803e3d6000fd5b505050506040513d60208110156108cb57600080fd5b8101908080519060200190929190505050505050505600a165627a7a7230582010e3259e471a5073b5640174bbbfb83432cf06ab3faf3046f38a50ff9abfd0060029",
  "source": "\r\nimport \"./ERC20.sol\";\r\ncontract Token{\r\n    \r\n    function totalSupplytoken(address _token) public view returns(uint){\r\n        return ERC20(_token).totalSupply();\r\n    }\r\n    \r\n    function balanceOftoken(address _token) public view returns(uint){\r\n        return ERC20(_token).balanceOf(msg.sender);\r\n    }\r\n    \r\n    // before this You need to run approve function on your token contract...\r\n    function transfertoken(address _token,address _to,uint _amt) public payable {\r\n        ERC20(_token).transferFrom(msg.sender,_to,_amt);\r\n    }\r\n    \r\n    function transfer(address _token,address _to,uint _amt) public payable {\r\n        ERC20(_token).transfer(_to,_amt);\r\n    }\r\n    \r\n    function name(address _token) public constant returns(string){\r\n        return ERC20(_token).name();\r\n    }\r\n    \r\n     function symbol(address _token) public constant returns(string){\r\n        return ERC20(_token).symbol();\r\n    }\r\n    \r\n}",
  "sourcePath": "C:\\Users\\Sevvandhi.0860\\Desktop\\Mutualfund\\Mutual-Funds\\contracts\\TokenManipulation.sol",
  "compiler": {
    "name": "solc",
    "version": "0.4.23+commit.124ca40d.Emscripten.clang"
  },
  "schemaVersion": "2.0.0",
  "updatedAt": "2018-05-15T09:11:07.908Z"
}